{
  "address": "0xBf303e0f8B9F543711b8AACbd2393A0e0A67dB8F",
  "abi": [
    {
      "anonymous": false,
      "inputs": [
        {
          "indexed": true,
          "internalType": "address",
          "name": "account",
          "type": "address"
        },
        {
          "indexed": true,
          "internalType": "uint256",
          "name": "amount",
          "type": "uint256"
        }
      ],
      "name": "Deposit",
      "type": "event"
    },
    {
      "anonymous": false,
      "inputs": [
        {
          "indexed": false,
          "internalType": "uint8",
          "name": "version",
          "type": "uint8"
        }
      ],
      "name": "Initialized",
      "type": "event"
    },
    {
      "anonymous": false,
      "inputs": [
        {
          "indexed": true,
          "internalType": "address",
          "name": "previousOwner",
          "type": "address"
        },
        {
          "indexed": true,
          "internalType": "address",
          "name": "newOwner",
          "type": "address"
        }
      ],
      "name": "OwnershipTransferred",
      "type": "event"
    },
    {
      "anonymous": false,
      "inputs": [
        {
          "indexed": true,
          "internalType": "address",
          "name": "account",
          "type": "address"
        },
        {
          "indexed": true,
          "internalType": "uint256",
          "name": "tokenAmount",
          "type": "uint256"
        },
        {
          "indexed": true,
          "internalType": "uint256",
          "name": "selfAmount",
          "type": "uint256"
        }
      ],
      "name": "Sell",
      "type": "event"
    },
    {
      "anonymous": false,
      "inputs": [
        {
          "indexed": true,
          "internalType": "address",
          "name": "account",
          "type": "address"
        },
        {
          "indexed": true,
          "internalType": "uint256",
          "name": "level",
          "type": "uint256"
        },
        {
          "indexed": true,
          "internalType": "uint256",
          "name": "powerAmount",
          "type": "uint256"
        }
      ],
      "name": "nftPowerReward",
      "type": "event"
    },
    {
      "anonymous": false,
      "inputs": [
        {
          "indexed": true,
          "internalType": "address",
          "name": "account",
          "type": "address"
        },
        {
          "indexed": true,
          "internalType": "uint256",
          "name": "level",
          "type": "uint256"
        },
        {
          "indexed": true,
          "internalType": "uint256",
          "name": "tokenAmount",
          "type": "uint256"
        }
      ],
      "name": "nftTokenReward",
      "type": "event"
    },
    {
      "inputs": [],
      "name": "_amountDailyUp",
      "outputs": [
        {
          "internalType": "uint256",
          "name": "",
          "type": "uint256"
        }
      ],
      "stateMutability": "view",
      "type": "function"
    },
    {
      "inputs": [
        {
          "internalType": "address",
          "name": "",
          "type": "address"
        },
        {
          "internalType": "uint256",
          "name": "",
          "type": "uint256"
        }
      ],
      "name": "_binder",
      "outputs": [
        {
          "internalType": "address",
          "name": "",
          "type": "address"
        }
      ],
      "stateMutability": "view",
      "type": "function"
    },
    {
      "inputs": [],
      "name": "_fundAddress",
      "outputs": [
        {
          "internalType": "address",
          "name": "",
          "type": "address"
        }
      ],
      "stateMutability": "view",
      "type": "function"
    },
    {
      "inputs": [],
      "name": "_getReserves",
      "outputs": [
        {
          "internalType": "uint256",
          "name": "rUsdt",
          "type": "uint256"
        },
        {
          "internalType": "uint256",
          "name": "rToken",
          "type": "uint256"
        }
      ],
      "stateMutability": "view",
      "type": "function"
    },
    {
      "inputs": [
        {
          "internalType": "address",
          "name": "",
          "type": "address"
        }
      ],
      "name": "_inProject",
      "outputs": [
        {
          "internalType": "bool",
          "name": "",
          "type": "bool"
        }
      ],
      "stateMutability": "view",
      "type": "function"
    },
    {
      "inputs": [
        {
          "internalType": "address",
          "name": "",
          "type": "address"
        }
      ],
      "name": "_inviteAmount",
      "outputs": [
        {
          "internalType": "uint256",
          "name": "",
          "type": "uint256"
        }
      ],
      "stateMutability": "view",
      "type": "function"
    },
    {
      "inputs": [
        {
          "internalType": "uint256",
          "name": "",
          "type": "uint256"
        }
      ],
      "name": "_inviteFee",
      "outputs": [
        {
          "internalType": "uint256",
          "name": "",
          "type": "uint256"
        }
      ],
      "stateMutability": "view",
      "type": "function"
    },
    {
      "inputs": [
        {
          "internalType": "address",
          "name": "",
          "type": "address"
        }
      ],
      "name": "_invitor",
      "outputs": [
        {
          "internalType": "address",
          "name": "",
          "type": "address"
        }
      ],
      "stateMutability": "view",
      "type": "function"
    },
    {
      "inputs": [],
      "name": "_lastAmountRate",
      "outputs": [
        {
          "internalType": "uint256",
          "name": "",
          "type": "uint256"
        }
      ],
      "stateMutability": "view",
      "type": "function"
    },
    {
      "inputs": [],
      "name": "_lastDailyUpTime",
      "outputs": [
        {
          "internalType": "uint256",
          "name": "",
          "type": "uint256"
        }
      ],
      "stateMutability": "view",
      "type": "function"
    },
    {
      "inputs": [],
      "name": "_lp",
      "outputs": [
        {
          "internalType": "address",
          "name": "",
          "type": "address"
        }
      ],
      "stateMutability": "view",
      "type": "function"
    },
    {
      "inputs": [],
      "name": "_lpReleaseDuration",
      "outputs": [
        {
          "internalType": "uint256",
          "name": "",
          "type": "uint256"
        }
      ],
      "stateMutability": "view",
      "type": "function"
    },
    {
      "inputs": [],
      "name": "_nft",
      "outputs": [
        {
          "internalType": "contract INFT",
          "name": "",
          "type": "address"
        }
      ],
      "stateMutability": "view",
      "type": "function"
    },
    {
      "inputs": [],
      "name": "_pauseSell",
      "outputs": [
        {
          "internalType": "bool",
          "name": "",
          "type": "bool"
        }
      ],
      "stateMutability": "view",
      "type": "function"
    },
    {
      "inputs": [],
      "name": "_sellJoinRate",
      "outputs": [
        {
          "internalType": "uint256",
          "name": "",
          "type": "uint256"
        }
      ],
      "stateMutability": "view",
      "type": "function"
    },
    {
      "inputs": [],
      "name": "_sellLPReceiver",
      "outputs": [
        {
          "internalType": "address",
          "name": "",
          "type": "address"
        }
      ],
      "stateMutability": "view",
      "type": "function"
    },
    {
      "inputs": [],
      "name": "_sellNFTRate",
      "outputs": [
        {
          "internalType": "uint256",
          "name": "",
          "type": "uint256"
        }
      ],
      "stateMutability": "view",
      "type": "function"
    },
    {
      "inputs": [],
      "name": "_sellSelfRate",
      "outputs": [
        {
          "internalType": "uint256",
          "name": "",
          "type": "uint256"
        }
      ],
      "stateMutability": "view",
      "type": "function"
    },
    {
      "inputs": [],
      "name": "_speedUpDuration",
      "outputs": [
        {
          "internalType": "uint256",
          "name": "",
          "type": "uint256"
        }
      ],
      "stateMutability": "view",
      "type": "function"
    },
    {
      "inputs": [],
      "name": "_speedUpReceiver",
      "outputs": [
        {
          "internalType": "address",
          "name": "",
          "type": "address"
        }
      ],
      "stateMutability": "view",
      "type": "function"
    },
    {
      "inputs": [
        {
          "internalType": "address",
          "name": "",
          "type": "address"
        }
      ],
      "name": "_teamAmount",
      "outputs": [
        {
          "internalType": "uint256",
          "name": "",
          "type": "uint256"
        }
      ],
      "stateMutability": "view",
      "type": "function"
    },
    {
      "inputs": [
        {
          "internalType": "address",
          "name": "",
          "type": "address"
        }
      ],
      "name": "_teamNum",
      "outputs": [
        {
          "internalType": "uint256",
          "name": "",
          "type": "uint256"
        }
      ],
      "stateMutability": "view",
      "type": "function"
    },
    {
      "inputs": [
        {
          "internalType": "address",
          "name": "",
          "type": "address"
        }
      ],
      "name": "_userLPInfo",
      "outputs": [
        {
          "internalType": "uint256",
          "name": "lockAmount",
          "type": "uint256"
        },
        {
          "internalType": "uint256",
          "name": "calAmount",
          "type": "uint256"
        },
        {
          "internalType": "uint256",
          "name": "claimedAmount",
          "type": "uint256"
        },
        {
          "internalType": "uint256",
          "name": "lastReleaseTime",
          "type": "uint256"
        },
        {
          "internalType": "uint256",
          "name": "releaseInitAmount",
          "type": "uint256"
        },
        {
          "internalType": "uint256",
          "name": "releaseDuration",
          "type": "uint256"
        },
        {
          "internalType": "uint256",
          "name": "speedUpTime",
          "type": "uint256"
        }
      ],
      "stateMutability": "view",
      "type": "function"
    },
    {
      "inputs": [
        {
          "internalType": "address",
          "name": "account",
          "type": "address"
        },
        {
          "internalType": "uint256",
          "name": "amount",
          "type": "uint256"
        }
      ],
      "name": "addMintAmount",
      "outputs": [],
      "stateMutability": "nonpayable",
      "type": "function"
    },
    {
      "inputs": [
        {
          "internalType": "uint256",
          "name": "reward",
          "type": "uint256"
        }
      ],
      "name": "addTotalMintReward",
      "outputs": [],
      "stateMutability": "nonpayable",
      "type": "function"
    },
    {
      "inputs": [
        {
          "internalType": "address",
          "name": "account",
          "type": "address"
        },
        {
          "internalType": "uint256",
          "name": "amount",
          "type": "uint256"
        },
        {
          "internalType": "bool",
          "name": "calInvite",
          "type": "bool"
        }
      ],
      "name": "addUserAmount",
      "outputs": [],
      "stateMutability": "nonpayable",
      "type": "function"
    },
    {
      "inputs": [
        {
          "internalType": "address[]",
          "name": "users",
          "type": "address[]"
        },
        {
          "components": [
            {
              "internalType": "bool",
              "name": "isActive",
              "type": "bool"
            },
            {
              "internalType": "uint256",
              "name": "amount",
              "type": "uint256"
            },
            {
              "internalType": "uint256",
              "name": "rewardMintDebt",
              "type": "uint256"
            },
            {
              "internalType": "uint256",
              "name": "calMintReward",
              "type": "uint256"
            }
          ],
          "internalType": "struct MintPool.UserInfo[]",
          "name": "userInfos",
          "type": "tuple[]"
        }
      ],
      "name": "batchInsertUserInfo",
      "outputs": [],
      "stateMutability": "nonpayable",
      "type": "function"
    },
    {
      "inputs": [
        {
          "internalType": "address",
          "name": "account",
          "type": "address"
        },
        {
          "internalType": "address",
          "name": "invitor",
          "type": "address"
        }
      ],
      "name": "bindInvitor",
      "outputs": [],
      "stateMutability": "nonpayable",
      "type": "function"
    },
    {
      "inputs": [
        {
          "internalType": "uint256",
          "name": "userRewardLevel",
          "type": "uint256"
        },
        {
          "internalType": "uint256",
          "name": "amount",
          "type": "uint256"
        }
      ],
      "name": "calculateNFTReward",
      "outputs": [
        {
          "internalType": "uint256",
          "name": "",
          "type": "uint256"
        }
      ],
      "stateMutability": "pure",
      "type": "function"
    },
    {
      "inputs": [
        {
          "internalType": "address",
          "name": "invitor",
          "type": "address"
        }
      ],
      "name": "checkForLevelUp",
      "outputs": [],
      "stateMutability": "nonpayable",
      "type": "function"
    },
    {
      "inputs": [],
      "name": "claim",
      "outputs": [],
      "stateMutability": "nonpayable",
      "type": "function"
    },
    {
      "inputs": [
        {
          "internalType": "address",
          "name": "to",
          "type": "address"
        },
        {
          "internalType": "uint256",
          "name": "amount",
          "type": "uint256"
        }
      ],
      "name": "claimBalance",
      "outputs": [],
      "stateMutability": "nonpayable",
      "type": "function"
    },
    {
      "inputs": [],
      "name": "claimLP",
      "outputs": [],
      "stateMutability": "nonpayable",
      "type": "function"
    },
    {
      "inputs": [
        {
          "internalType": "address",
          "name": "token",
          "type": "address"
        },
        {
          "internalType": "address",
          "name": "to",
          "type": "address"
        },
        {
          "internalType": "uint256",
          "name": "amount",
          "type": "uint256"
        }
      ],
      "name": "claimToken",
      "outputs": [],
      "stateMutability": "nonpayable",
      "type": "function"
    },
    {
      "inputs": [],
      "name": "close",
      "outputs": [],
      "stateMutability": "nonpayable",
      "type": "function"
    },
    {
      "inputs": [
        {
          "internalType": "uint256",
          "name": "amount",
          "type": "uint256"
        },
        {
          "internalType": "uint256",
          "name": "minTokenAmount",
          "type": "uint256"
        },
        {
          "internalType": "address",
          "name": "invitor",
          "type": "address"
        }
      ],
      "name": "deposit",
      "outputs": [],
      "stateMutability": "nonpayable",
      "type": "function"
    },
    {
      "inputs": [
        {
          "internalType": "address",
          "name": "",
          "type": "address"
        }
      ],
      "name": "depositAmount",
      "outputs": [
        {
          "internalType": "uint256",
          "name": "",
          "type": "uint256"
        }
      ],
      "stateMutability": "view",
      "type": "function"
    },
    {
      "inputs": [],
      "name": "getBaseInfo",
      "outputs": [
        {
          "internalType": "address",
          "name": "usdt",
          "type": "address"
        },
        {
          "internalType": "uint256",
          "name": "usdtDecimals",
          "type": "uint256"
        },
        {
          "internalType": "address",
          "name": "mintRewardToken",
          "type": "address"
        },
        {
          "internalType": "uint256",
          "name": "mintRewardTokenDecimals",
          "type": "uint256"
        },
        {
          "internalType": "uint256",
          "name": "totalUsdt",
          "type": "uint256"
        },
        {
          "internalType": "uint256",
          "name": "totalAmount",
          "type": "uint256"
        },
        {
          "internalType": "uint256",
          "name": "lastDailyReward",
          "type": "uint256"
        },
        {
          "internalType": "uint256",
          "name": "dailyAmountRate",
          "type": "uint256"
        },
        {
          "internalType": "uint256",
          "name": "minAmount",
          "type": "uint256"
        },
        {
          "internalType": "address",
          "name": "defaultInvitor",
          "type": "address"
        },
        {
          "internalType": "bool",
          "name": "pauseJoin",
          "type": "bool"
        }
      ],
      "stateMutability": "view",
      "type": "function"
    },
    {
      "inputs": [
        {
          "internalType": "address",
          "name": "account",
          "type": "address"
        }
      ],
      "name": "getBinderLength",
      "outputs": [
        {
          "internalType": "uint256",
          "name": "",
          "type": "uint256"
        }
      ],
      "stateMutability": "view",
      "type": "function"
    },
    {
      "inputs": [
        {
          "internalType": "address",
          "name": "account",
          "type": "address"
        },
        {
          "internalType": "uint256",
          "name": "start",
          "type": "uint256"
        },
        {
          "internalType": "uint256",
          "name": "length",
          "type": "uint256"
        }
      ],
      "name": "getBinderList",
      "outputs": [
        {
          "internalType": "uint256",
          "name": "returnCount",
          "type": "uint256"
        },
        {
          "internalType": "address[]",
          "name": "binders",
          "type": "address[]"
        }
      ],
      "stateMutability": "view",
      "type": "function"
    },
    {
      "inputs": [
        {
          "internalType": "address",
          "name": "account",
          "type": "address"
        }
      ],
      "name": "getDirectList",
      "outputs": [
        {
          "internalType": "address[]",
          "name": "binders",
          "type": "address[]"
        },
        {
          "internalType": "uint256[]",
          "name": "teamAmounts",
          "type": "uint256[]"
        }
      ],
      "stateMutability": "view",
      "type": "function"
    },
    {
      "inputs": [
        {
          "internalType": "uint256",
          "name": "usdtAmount",
          "type": "uint256"
        }
      ],
      "name": "getJoinTokenAmountOut",
      "outputs": [
        {
          "internalType": "uint256",
          "name": "tokenAmount",
          "type": "uint256"
        }
      ],
      "stateMutability": "view",
      "type": "function"
    },
    {
      "inputs": [],
      "name": "getLPInfo",
      "outputs": [
        {
          "internalType": "uint256",
          "name": "totalLP",
          "type": "uint256"
        },
        {
          "internalType": "uint256",
          "name": "lockLP",
          "type": "uint256"
        },
        {
          "internalType": "uint256",
          "name": "speedUpMaxTime",
          "type": "uint256"
        },
        {
          "internalType": "uint256",
          "name": "speedCostUsdt",
          "type": "uint256"
        },
        {
          "internalType": "uint256",
          "name": "speedCostToken",
          "type": "uint256"
        }
      ],
      "stateMutability": "view",
      "type": "function"
    },
    {
      "inputs": [
        {
          "internalType": "address",
          "name": "account",
          "type": "address"
        }
      ],
      "name": "getPendingMintReward",
      "outputs": [
        {
          "internalType": "uint256",
          "name": "reward",
          "type": "uint256"
        }
      ],
      "stateMutability": "view",
      "type": "function"
    },
    {
      "inputs": [
        {
          "internalType": "uint256",
          "name": "tokenAmount",
          "type": "uint256"
        }
      ],
      "name": "getSellUsdtOut",
      "outputs": [
        {
          "internalType": "uint256",
          "name": "usdtAmount",
          "type": "uint256"
        },
        {
          "internalType": "uint256",
          "name": "selfUsdt",
          "type": "uint256"
        },
        {
          "internalType": "uint256",
          "name": "mintAmount",
          "type": "uint256"
        }
      ],
      "stateMutability": "view",
      "type": "function"
    },
    {
      "inputs": [
        {
          "internalType": "address",
          "name": "account",
          "type": "address"
        }
      ],
      "name": "getUserInfo",
      "outputs": [
        {
          "internalType": "uint256",
          "name": "amount",
          "type": "uint256"
        },
        {
          "internalType": "uint256",
          "name": "usdtBalance",
          "type": "uint256"
        },
        {
          "internalType": "uint256",
          "name": "usdtAllowance",
          "type": "uint256"
        },
        {
          "internalType": "uint256",
          "name": "pendingMintReward",
          "type": "uint256"
        },
        {
          "internalType": "uint256",
          "name": "inviteAmount",
          "type": "uint256"
        },
        {
          "internalType": "uint256",
          "name": "sellJoinAmount",
          "type": "uint256"
        },
        {
          "internalType": "uint256",
          "name": "teamNum",
          "type": "uint256"
        },
        {
          "internalType": "uint256",
          "name": "teamAmount",
          "type": "uint256"
        }
      ],
      "stateMutability": "view",
      "type": "function"
    },
    {
      "inputs": [
        {
          "internalType": "address",
          "name": "account",
          "type": "address"
        }
      ],
      "name": "getUserLPInfo",
      "outputs": [
        {
          "internalType": "uint256",
          "name": "lockAmount",
          "type": "uint256"
        },
        {
          "internalType": "uint256",
          "name": "calAmount",
          "type": "uint256"
        },
        {
          "internalType": "uint256",
          "name": "claimedAmount",
          "type": "uint256"
        },
        {
          "internalType": "uint256",
          "name": "lastReleaseTime",
          "type": "uint256"
        },
        {
          "internalType": "uint256",
          "name": "releaseInitAmount",
          "type": "uint256"
        },
        {
          "internalType": "uint256",
          "name": "releaseDuration",
          "type": "uint256"
        },
        {
          "internalType": "uint256",
          "name": "speedUpTime",
          "type": "uint256"
        },
        {
          "internalType": "uint256",
          "name": "tokenBalance",
          "type": "uint256"
        },
        {
          "internalType": "uint256",
          "name": "tokenAllowance",
          "type": "uint256"
        }
      ],
      "stateMutability": "view",
      "type": "function"
    },
    {
      "inputs": [
        {
          "internalType": "address",
          "name": "account",
          "type": "address"
        }
      ],
      "name": "getUserNFTLevel",
      "outputs": [
        {
          "internalType": "uint256",
          "name": "",
          "type": "uint256"
        }
      ],
      "stateMutability": "view",
      "type": "function"
    },
    {
      "inputs": [
        {
          "internalType": "address",
          "name": "swapRouter",
          "type": "address"
        },
        {
          "internalType": "address",
          "name": "usdt",
          "type": "address"
        },
        {
          "internalType": "address",
          "name": "mintRewardToken",
          "type": "address"
        },
        {
          "internalType": "address",
          "name": "nft",
          "type": "address"
        },
        {
          "internalType": "address",
          "name": "defaultInvitor",
          "type": "address"
        },
        {
          "internalType": "address",
          "name": "fundAddress",
          "type": "address"
        },
        {
          "internalType": "address",
          "name": "_owner",
          "type": "address"
        }
      ],
      "name": "initialize",
      "outputs": [],
      "stateMutability": "nonpayable",
      "type": "function"
    },
    {
      "inputs": [],
      "name": "open",
      "outputs": [],
      "stateMutability": "nonpayable",
      "type": "function"
    },
    {
      "inputs": [],
      "name": "owner",
      "outputs": [
        {
          "internalType": "address",
          "name": "",
          "type": "address"
        }
      ],
      "stateMutability": "view",
      "type": "function"
    },
    {
      "inputs": [],
      "name": "poolInfo",
      "outputs": [
        {
          "internalType": "uint256",
          "name": "totalAmount",
          "type": "uint256"
        },
        {
          "internalType": "uint256",
          "name": "accMintPerShare",
          "type": "uint256"
        },
        {
          "internalType": "uint256",
          "name": "accMintReward",
          "type": "uint256"
        },
        {
          "internalType": "uint256",
          "name": "mintPerSec",
          "type": "uint256"
        },
        {
          "internalType": "uint256",
          "name": "lastMintTime",
          "type": "uint256"
        },
        {
          "internalType": "uint256",
          "name": "totalMintReward",
          "type": "uint256"
        }
      ],
      "stateMutability": "view",
      "type": "function"
    },
    {
      "inputs": [
        {
          "internalType": "address",
          "name": "",
          "type": "address"
        }
      ],
      "name": "referralAmount",
      "outputs": [
        {
          "internalType": "uint256",
          "name": "",
          "type": "uint256"
        }
      ],
      "stateMutability": "view",
      "type": "function"
    },
    {
      "inputs": [
        {
          "internalType": "address",
          "name": "",
          "type": "address"
        }
      ],
      "name": "referralReward",
      "outputs": [
        {
          "internalType": "uint256",
          "name": "",
          "type": "uint256"
        }
      ],
      "stateMutability": "view",
      "type": "function"
    },
    {
      "inputs": [
        {
          "internalType": "address",
          "name": "",
          "type": "address"
        },
        {
          "internalType": "uint256",
          "name": "",
          "type": "uint256"
        }
      ],
      "name": "referrals",
      "outputs": [
        {
          "internalType": "address",
          "name": "",
          "type": "address"
        }
      ],
      "stateMutability": "view",
      "type": "function"
    },
    {
      "inputs": [],
      "name": "renounceOwnership",
      "outputs": [],
      "stateMutability": "nonpayable",
      "type": "function"
    },
    {
      "inputs": [
        {
          "internalType": "uint256",
          "name": "tokenAmount",
          "type": "uint256"
        }
      ],
      "name": "sell",
      "outputs": [],
      "stateMutability": "nonpayable",
      "type": "function"
    },
    {
      "inputs": [
        {
          "internalType": "uint256",
          "name": "r",
          "type": "uint256"
        }
      ],
      "name": "setAmountDailyUp",
      "outputs": [],
      "stateMutability": "nonpayable",
      "type": "function"
    },
    {
      "inputs": [
        {
          "internalType": "address",
          "name": "adr",
          "type": "address"
        }
      ],
      "name": "setDefaultInvitor",
      "outputs": [],
      "stateMutability": "nonpayable",
      "type": "function"
    },
    {
      "inputs": [
        {
          "internalType": "address",
          "name": "a",
          "type": "address"
        }
      ],
      "name": "setFundAddress",
      "outputs": [],
      "stateMutability": "nonpayable",
      "type": "function"
    },
    {
      "inputs": [
        {
          "internalType": "address",
          "name": "adr",
          "type": "address"
        },
        {
          "internalType": "bool",
          "name": "enable",
          "type": "bool"
        }
      ],
      "name": "setInProject",
      "outputs": [],
      "stateMutability": "nonpayable",
      "type": "function"
    },
    {
      "inputs": [
        {
          "internalType": "uint256",
          "name": "i",
          "type": "uint256"
        },
        {
          "internalType": "uint256",
          "name": "fee",
          "type": "uint256"
        }
      ],
      "name": "setInviteFee",
      "outputs": [],
      "stateMutability": "nonpayable",
      "type": "function"
    },
    {
      "inputs": [
        {
          "internalType": "uint256",
          "name": "d",
          "type": "uint256"
        }
      ],
      "name": "setLPReleaseDuration",
      "outputs": [],
      "stateMutability": "nonpayable",
      "type": "function"
    },
    {
      "inputs": [
        {
          "internalType": "uint256",
          "name": "r",
          "type": "uint256"
        }
      ],
      "name": "setLastAmountRate",
      "outputs": [],
      "stateMutability": "nonpayable",
      "type": "function"
    },
    {
      "inputs": [
        {
          "internalType": "uint256",
          "name": "t",
          "type": "uint256"
        }
      ],
      "name": "setLastDailyUpTime",
      "outputs": [],
      "stateMutability": "nonpayable",
      "type": "function"
    },
    {
      "inputs": [
        {
          "internalType": "uint256",
          "name": "mintPerSec",
          "type": "uint256"
        }
      ],
      "name": "setMintPerSec",
      "outputs": [],
      "stateMutability": "nonpayable",
      "type": "function"
    },
    {
      "inputs": [
        {
          "internalType": "address",
          "name": "_nftAddress",
          "type": "address"
        }
      ],
      "name": "setNFTAddress",
      "outputs": [],
      "stateMutability": "nonpayable",
      "type": "function"
    },
    {
      "inputs": [
        {
          "internalType": "bool",
          "name": "p",
          "type": "bool"
        }
      ],
      "name": "setPauseSell",
      "outputs": [],
      "stateMutability": "nonpayable",
      "type": "function"
    },
    {
      "inputs": [
        {
          "internalType": "address",
          "name": "a",
          "type": "address"
        }
      ],
      "name": "setSeedUpReceiver",
      "outputs": [],
      "stateMutability": "nonpayable",
      "type": "function"
    },
    {
      "inputs": [
        {
          "internalType": "uint256",
          "name": "r",
          "type": "uint256"
        }
      ],
      "name": "setSellJoinRate",
      "outputs": [],
      "stateMutability": "nonpayable",
      "type": "function"
    },
    {
      "inputs": [
        {
          "internalType": "address",
          "name": "a",
          "type": "address"
        }
      ],
      "name": "setSellLPReceiver",
      "outputs": [],
      "stateMutability": "nonpayable",
      "type": "function"
    },
    {
      "inputs": [
        {
          "internalType": "uint256",
          "name": "r",
          "type": "uint256"
        }
      ],
      "name": "setSellNFTRate",
      "outputs": [],
      "stateMutability": "nonpayable",
      "type": "function"
    },
    {
      "inputs": [
        {
          "internalType": "uint256",
          "name": "r",
          "type": "uint256"
        }
      ],
      "name": "setSellSelfRate",
      "outputs": [],
      "stateMutability": "nonpayable",
      "type": "function"
    },
    {
      "inputs": [
        {
          "internalType": "uint256",
          "name": "c",
          "type": "uint256"
        }
      ],
      "name": "setSpeedUpCost",
      "outputs": [],
      "stateMutability": "nonpayable",
      "type": "function"
    },
    {
      "inputs": [
        {
          "internalType": "uint256",
          "name": "d",
          "type": "uint256"
        }
      ],
      "name": "setSpeedUpDuration",
      "outputs": [],
      "stateMutability": "nonpayable",
      "type": "function"
    },
    {
      "inputs": [
        {
          "internalType": "uint256",
          "name": "mt",
          "type": "uint256"
        }
      ],
      "name": "setSpeedUpMaxTime",
      "outputs": [],
      "stateMutability": "nonpayable",
      "type": "function"
    },
    {
      "inputs": [
        {
          "internalType": "address",
          "name": "account",
          "type": "address"
        },
        {
          "internalType": "uint256",
          "name": "level",
          "type": "uint256"
        }
      ],
      "name": "setUserLevel",
      "outputs": [],
      "stateMutability": "nonpayable",
      "type": "function"
    },
    {
      "inputs": [
        {
          "internalType": "uint256",
          "name": "maxTokenAmount",
          "type": "uint256"
        }
      ],
      "name": "speedUpLP",
      "outputs": [],
      "stateMutability": "nonpayable",
      "type": "function"
    },
    {
      "inputs": [
        {
          "internalType": "address",
          "name": "",
          "type": "address"
        }
      ],
      "name": "superAccount",
      "outputs": [
        {
          "internalType": "address",
          "name": "",
          "type": "address"
        }
      ],
      "stateMutability": "view",
      "type": "function"
    },
    {
      "inputs": [
        {
          "internalType": "address",
          "name": "newOwner",
          "type": "address"
        }
      ],
      "name": "transferOwnership",
      "outputs": [],
      "stateMutability": "nonpayable",
      "type": "function"
    },
    {
      "inputs": [],
      "name": "updateDailyUpRate",
      "outputs": [],
      "stateMutability": "nonpayable",
      "type": "function"
    },
    {
      "inputs": [
        {
          "internalType": "address",
          "name": "",
          "type": "address"
        }
      ],
      "name": "userInfo",
      "outputs": [
        {
          "internalType": "bool",
          "name": "isActive",
          "type": "bool"
        },
        {
          "internalType": "uint256",
          "name": "amount",
          "type": "uint256"
        },
        {
          "internalType": "uint256",
          "name": "rewardMintDebt",
          "type": "uint256"
        },
        {
          "internalType": "uint256",
          "name": "calMintReward",
          "type": "uint256"
        }
      ],
      "stateMutability": "view",
      "type": "function"
    },
    {
      "inputs": [
        {
          "internalType": "address",
          "name": "",
          "type": "address"
        }
      ],
      "name": "userLevel",
      "outputs": [
        {
          "internalType": "uint256",
          "name": "",
          "type": "uint256"
        }
      ],
      "stateMutability": "view",
      "type": "function"
    },
    {
      "inputs": [],
      "name": "v1Amount",
      "outputs": [
        {
          "internalType": "uint256",
          "name": "",
          "type": "uint256"
        }
      ],
      "stateMutability": "view",
      "type": "function"
    },
    {
      "inputs": [],
      "name": "v2Amount",
      "outputs": [
        {
          "internalType": "uint256",
          "name": "",
          "type": "uint256"
        }
      ],
      "stateMutability": "view",
      "type": "function"
    },
    {
      "inputs": [],
      "name": "v3Amount",
      "outputs": [
        {
          "internalType": "uint256",
          "name": "",
          "type": "uint256"
        }
      ],
      "stateMutability": "view",
      "type": "function"
    },
    {
      "inputs": [],
      "name": "v4Amount",
      "outputs": [
        {
          "internalType": "uint256",
          "name": "",
          "type": "uint256"
        }
      ],
      "stateMutability": "view",
      "type": "function"
    },
    {
      "inputs": [],
      "name": "v5Amount",
      "outputs": [
        {
          "internalType": "uint256",
          "name": "",
          "type": "uint256"
        }
      ],
      "stateMutability": "view",
      "type": "function"
    },
    {
      "stateMutability": "payable",
      "type": "receive"
    }
  ],
  "transactionHash": "0xda02e8666bae19c70cc70f07d25efb340a2255c8e6206bdf42b9678935ecdd3f",
  "args": [],
  "solcInputHash": "a394b2fd0fb2b20ba1e11a565c4be544",
  "bytecode": "0x610180604052600360805268878678326eac90000060a05269043c33c193756480000060c052690a968163f0a57b40000060e052691fc3842bd1f071c00000610100526969e10de76676d0800000610120526127106101405262015180610160523480156200006d57600080fd5b5062000079336200007f565b620000cf565b600080546001600160a01b038381166001600160a01b0319831681178455604051919092169283917f8be0079c531659141344cd1fd0a4f28419497f9722a3daafe3b4186f6b6457e09190a35050565b60805160a05160c05160e05161010051610120516101405161016051615fc6620001976000396000818161170c015281816135f2015261508601526000818161278501528181613661015281816139f8015281816150ea0152818161533b015261553501526000818161058b0152612994015260008181610725015261296e015260008181610bfa01526129480152600081816108260152612922015260008181611002015281816128f50152614f2901526000818161405c01526142490152615fc66000f3fe6080604052600436106104ce5760003560e01c806385dc300411610276578063b79190451161014f578063e4849b32116100c1578063f0c52e4c11610085578063f0c52e4c1461120d578063f12e6eb71461124a578063f2fde38b1461126a578063f48544c31461128a578063fcfff16f146112a0578063fd3cf885146112b557600080fd5b8063e4849b3214611147578063e5d6563314611167578063e697b5d814611197578063e9f22169146111b7578063ec747edb146111d757600080fd5b8063cef6632d11610113578063cef6632d1461109a578063d5559e21146110c7578063dde40dda146110dd578063de44391a146110fd578063e20ae39214611112578063e3ca487a1461112757600080fd5b8063b791904514610fd0578063bc980f8c14610ff0578063cc396be114611024578063ce4d9f151461105a578063ce5611431461108457600080fd5b8063a5b64e5e116101e8578063b1a8c459116101ac578063b1a8c45914610f1a578063b272d7c314610f3a578063b38dcd7114610f5a578063b612511014610f70578063b64cf2d914610f90578063b75265d314610fb057600080fd5b8063a5b64e5e14610e5c578063a779fe9214610e7c578063aa1a8c6014610e92578063aa8b38d914610ecd578063ac86af9414610eed57600080fd5b806394f738a21161023a57806394f738a214610d345780639551ae4414610d5457806395d4c7bb14610dcf57806398300e1814610dfc578063a40a789c14610e1c578063a4e48ed814610e3c57600080fd5b806385dc300414610c895780638a56d30614610ca95780638da5cb5b14610cc95780638dbdbe6d14610ce757806393b556ad14610d0757600080fd5b80634e71d92d116103a85780636ca9ee1b1161031a5780637d3643b5116102de5780637d3643b514610b9a5780637f15b36b14610bc8578063815a7beb14610be85780638230af5a14610c1c578063834f8f5514610c3c5780638593b2b114610c6957600080fd5b80636ca9ee1b14610af45780636e18b6db14610b0a5780636ec42c2c14610b37578063715018a614610b655780637512474e14610b7a57600080fd5b80635f84aecd1161036c5780635f84aecd146109ed5780636386c1c714610a03578063681982a714610a5e578063692c7bf714610a7e57806369d0373814610a9e57806369da132614610abe57600080fd5b80634e71d92d1461091457806350f62da7146109295780635239a993146109555780635a2f3d09146109755780635ca8e3f2146109cd57600080fd5b80631e8074b511610441578063358764761161040557806335876476146107d45780633a0dde51146107f45780633bf5f934146108145780633c6369fc1461084857806343d726d6146108d5578063449fe500146108ea57600080fd5b80631e8074b51461071357806326e641ea14610747578063280e31cc146107675780632e0dd9c71461079457806333f5780e146107b457600080fd5b80630c28525d116104935780630c28525d146105bb578063119f3eb6146105db578063125bfb661461063f5780631703dd121461065f5780631959a002146106755780631b967ad4146106dd57600080fd5b80625a3ff1146104da578063029a0c9d146105175780630600ffc1146105395780630681c58d146105595780630b2ef5f71461057957600080fd5b366104d557005b600080fd5b3480156104e657600080fd5b50600d546104fa906001600160a01b031681565b6040516001600160a01b0390911681526020015b60405180910390f35b34801561052357600080fd5b5061053761053236600461564e565b6112d5565b005b34801561054557600080fd5b5061053761055436600461568a565b611337565b34801561056557600080fd5b5061053761057436600461564e565b6113aa565b34801561058557600080fd5b506105ad7f000000000000000000000000000000000000000000000000000000000000000081565b60405190815260200161050e565b3480156105c757600080fd5b506105376105d636600461564e565b611464565b3480156105e757600080fd5b506105fb6105f63660046156cc565b61150d565b60408051998a5260208a0198909852968801959095526060870193909352608086019190915260a085015260c084015260e08301526101008201526101200161050e565b34801561064b57600080fd5b5061053761065a3660046156f0565b611641565b34801561066b57600080fd5b506105ad60255481565b34801561068157600080fd5b506106bb6106903660046156cc565b600760205260009081526040902080546001820154600283015460039093015460ff90921692909184565b604080519415158552602085019390935291830152606082015260800161050e565b3480156106e957600080fd5b506105ad6106f83660046156cc565b6001600160a01b031660009081526010602052604090205490565b34801561071f57600080fd5b506105ad7f000000000000000000000000000000000000000000000000000000000000000081565b34801561075357600080fd5b5061053761076236600461564e565b6116a0565b34801561077357600080fd5b506105ad6107823660046156cc565b60226020526000908152604090205481565b3480156107a057600080fd5b506105376107af36600461564e565b611739565b3480156107c057600080fd5b506105376107cf366004615731565b611792565b3480156107e057600080fd5b506105376107ef36600461575d565b611802565b34801561080057600080fd5b5061053761080f36600461564e565b611bbe565b34801561082057600080fd5b506105ad7f000000000000000000000000000000000000000000000000000000000000000081565b34801561085457600080fd5b506108a06108633660046156cc565b6008602052600090815260409020805460018201546002830154600384015460048501546005860154600690960154949593949293919290919087565b604080519788526020880196909652948601939093526060850191909152608084015260a083015260c082015260e00161050e565b3480156108e157600080fd5b50610537611c17565b3480156108f657600080fd5b506016546109049060ff1681565b604051901515815260200161050e565b34801561092057600080fd5b50610537611c7a565b34801561093557600080fd5b506105ad6109443660046156cc565b602080526000908152604090205481565b34801561096157600080fd5b506105ad6109703660046157f3565b611d2a565b34801561098157600080fd5b506001546002546003546004546005546006546109a095949392919086565b604080519687526020870195909552938501929092526060840152608083015260a082015260c00161050e565b3480156109d957600080fd5b506105376109e83660046157f3565b611d65565b3480156109f957600080fd5b506105ad60265481565b348015610a0f57600080fd5b50610a23610a1e3660046156cc565b611dcb565b604080519889526020890197909752958701949094526060860192909252608085015260a084015260c083015260e08201526101000161050e565b348015610a6a57600080fd5b50610537610a793660046156cc565b611f3b565b348015610a8a57600080fd5b50610537610a99366004615815565b611fb1565b348015610aaa57600080fd5b50610537610ab93660046156cc565b612030565b348015610aca57600080fd5b506104fa610ad93660046156cc565b600f602052600090815260409020546001600160a01b031681565b348015610b0057600080fd5b506105ad60275481565b348015610b1657600080fd5b506105ad610b253660046156cc565b60216020526000908152604090205481565b348015610b4357600080fd5b50610b57610b5236600461584e565b6120a6565b60405161050e9291906158c7565b348015610b7157600080fd5b506105376121c5565b348015610b8657600080fd5b50610537610b95366004615a20565b6121d9565b348015610ba657600080fd5b50610bba610bb53660046156cc565b61231d565b60405161050e929190615ae2565b348015610bd457600080fd5b50610537610be336600461564e565b6124ac565b348015610bf457600080fd5b506105ad7f000000000000000000000000000000000000000000000000000000000000000081565b348015610c2857600080fd5b50601c546104fa906001600160a01b031681565b348015610c4857600080fd5b506105ad610c573660046156cc565b60146020526000908152604090205481565b348015610c7557600080fd5b506104fa610c84366004615731565b612505565b348015610c9557600080fd5b50610537610ca43660046156cc565b61253d565b348015610cb557600080fd5b506105ad610cc43660046156cc565b6125b3565b348015610cd557600080fd5b506000546001600160a01b03166104fa565b348015610cf357600080fd5b50610537610d02366004615b39565b6126a8565b348015610d1357600080fd5b506105ad610d223660046156cc565b60156020526000908152604090205481565b348015610d4057600080fd5b50610537610d4f3660046156cc565b61287c565b348015610d6057600080fd5b50610d696129fd565b604080516001600160a01b039c8d168152602081019b909b52988b16988a01989098526060890196909652608088019490945260a087019290925260c086015260e08501526101008401529092166101208201529015156101408201526101600161050e565b348015610ddb57600080fd5b506105ad610dea3660046156cc565b601f6020526000908152604090205481565b348015610e0857600080fd5b50600e546104fa906001600160a01b031681565b348015610e2857600080fd5b506105ad610e3736600461564e565b612a5e565b348015610e4857600080fd5b50610537610e5736600461564e565b612b8a565b348015610e6857600080fd5b50610537610e7736600461564e565b612beb565b348015610e8857600080fd5b506105ad60295481565b348015610e9e57600080fd5b50610eb2610ead36600461564e565b612ed0565b6040805193845260208401929092529082015260600161050e565b348015610ed957600080fd5b50610537610ee8366004615731565b613053565b348015610ef957600080fd5b506105ad610f083660046156cc565b60136020526000908152604090205481565b348015610f2657600080fd5b50610537610f3536600461564e565b6130b5565b348015610f4657600080fd5b50601a546104fa906001600160a01b031681565b348015610f6657600080fd5b506105ad60195481565b348015610f7c57600080fd5b50610537610f8b3660046156cc565b613123565b348015610f9c57600080fd5b50610537610fab366004615b67565b613199565b348015610fbc57600080fd5b50610537610fcb3660046156cc565b613200565b348015610fdc57600080fd5b50610537610feb36600461564e565b61328e565b348015610ffc57600080fd5b506105ad7f000000000000000000000000000000000000000000000000000000000000000081565b34801561103057600080fd5b506104fa61103f3660046156cc565b601e602052600090815260409020546001600160a01b031681565b34801561106657600080fd5b5061106f6132fd565b6040805192835260208301919091520161050e565b34801561109057600080fd5b506105ad60175481565b3480156110a657600080fd5b506105ad6110b536600461564e565b60116020526000908152604090205481565b3480156110d357600080fd5b506105ad60245481565b3480156110e957600080fd5b50602a546104fa906001600160a01b031681565b34801561110957600080fd5b506105376133c5565b34801561111e57600080fd5b506105376135e1565b34801561113357600080fd5b5061053761114236600461564e565b6136b1565b34801561115357600080fd5b5061053761116236600461564e565b61370a565b34801561117357600080fd5b506109046111823660046156cc565b602d6020526000908152604090205460ff1681565b3480156111a357600080fd5b506104fa6111b2366004615731565b613be4565b3480156111c357600080fd5b506105376111d2366004615731565b613c00565b3480156111e357600080fd5b506105ad6111f23660046156cc565b6001600160a01b031660009081526022602052604090205490565b34801561121957600080fd5b50611222613c7f565b604080519586526020860194909452928401919091526060830152608082015260a00161050e565b34801561125657600080fd5b50610537611265366004615b84565b613d88565b34801561127657600080fd5b506105376112853660046156cc565b613dd6565b34801561129657600080fd5b506105ad60185481565b3480156112ac57600080fd5b50610537613e4c565b3480156112c157600080fd5b506105376112d036600461564e565b613ebb565b601c546001600160a01b03163314806112f857506000546001600160a01b031633145b8061130d5750600e546001600160a01b031633145b6113325760405162461bcd60e51b815260040161132990615bb2565b60405180910390fd5b602455565b336000908152602d602052604090205460ff168061135f57506000546001600160a01b031633145b61137b5760405162461bcd60e51b815260040161132990615bdb565b6012546113929084906001600160a01b0316613f14565b61139a6140ed565b6113a58383836141d0565b505050565b601c546001600160a01b03163314806113cd57506000546001600160a01b031633145b806113e25750600e546001600160a01b031633145b6113fe5760405162461bcd60e51b815260040161132990615bb2565b60188190556019546017546127109190611419908490615c17565b6114239190615c17565b11156114615760405162461bcd60e51b815260206004820152600d60248201526c72617465206f766572666c6f7760981b6044820152606401611329565b50565b601c546001600160a01b031633148061148757506000546001600160a01b031633145b8061149c5750600e546001600160a01b031633145b6114b85760405162461bcd60e51b815260040161132990615bb2565b600081116115085760405162461bcd60e51b815260206004820152601960248201527f72656c65617365206475726174696f6e206d757374203e2030000000000000006044820152606401611329565b602755565b6001600160a01b03818116600081815260086020526040808220805460018201546002830154600480850154600586015460068701546003880154600c5499516370a0823160e01b81529485019b909b52959a94999398939791969095948493919216906370a0823190602401602060405180830381865afa158015611597573d6000803e3d6000fd5b505050506040513d601f19601f820116820180604052508101906115bb9190615c2f565b600c54604051636eb1769f60e11b81526001600160a01b038e8116600483015230602483015292955091169063dd62ed3e90604401602060405180830381865afa15801561160d573d6000803e3d6000fd5b505050506040513d601f19601f820116820180604052508101906116319190615c2f565b9150509193959799909294969850565b601c546001600160a01b031633148061166457506000546001600160a01b031633145b806116795750600e546001600160a01b031633145b6116955760405162461bcd60e51b815260040161132990615bb2565b6113a58383836143b4565b336000908152602d602052604090205460ff16806116c857506000546001600160a01b031633145b6116e45760405162461bcd60e51b815260040161132990615bdb565b6116ec6140ed565b80600160050160008282546117019190615c17565b9091555061173190507f000000000000000000000000000000000000000000000000000000000000000082615c48565b600455602e55565b601c546001600160a01b031633148061175c57506000546001600160a01b031633145b806117715750600e546001600160a01b031633145b61178d5760405162461bcd60e51b815260040161132990615bb2565b602555565b601c546001600160a01b03163314806117b557506000546001600160a01b031633145b806117ca5750600e546001600160a01b031633145b6117e65760405162461bcd60e51b815260040161132990615bb2565b6001600160a01b03909116600090815260226020526040902055565b600054600160a81b900460ff161580801561182a57506000546001600160a01b90910460ff16105b8061184b5750303b15801561184b5750600054600160a01b900460ff166001145b6118ae5760405162461bcd60e51b815260206004820152602e60248201527f496e697469616c697a61626c653a20636f6e747261637420697320616c72656160448201526d191e481a5b9a5d1a585b1a5e995960921b6064820152608401611329565b6000805460ff60a01b1916600160a01b17905580156118db576000805460ff60a81b1916600160a81b1790555b6023805460ff19166001179055600980546001600160a01b03808b166001600160a01b03199283168117909355600a80548b8316908416179055678ac7230489e80000600b55600e8054898316908416179055600c8054918a16919092161790556040805163c45a015560e01b8152905163c45a0155916004808201926020929091908290030181865afa158015611977573d6000803e3d6000fd5b505050506040513d601f19601f8201168201806040525081019061199b9190615c6a565b60405163e6a4390560e01b81526001600160a01b0389811660048301528881166024830152919091169063e6a4390590604401602060405180830381865afa1580156119eb573d6000803e3d6000fd5b505050506040513d601f19601f82011682018060405250810190611a0f9190615c6a565b600d80546001600160a01b039283166001600160a01b0319918216179091554260055560128054928716929091168217905560009081526007602090815260408220805460ff19166001179055601190526103207f4ad3b33220dddc71b994a52d72c06b10862965f7d926534c05c00fb7e819e7b7556101f47f17bc176d2408558f6e4111feebc3cab4e16b63e967be91cde721f4c8a488b552556002905261012c7f08037d7b151cc412d25674a4e66b334d9ae9d2e5517a7feaae5cdb828bf1c62855681043561a8829300000602855611aed87896000196144ea565b611afa86896000196144ea565b601a80546001600160a01b0385166001600160a01b03199182168117909255601c805482169092179091556003602b55602a805490911661dead179055611388601755610fa06018556101f46019556127106025556127746026556276a700602755620d2f00602955611b6c826145ed565b8015611bb4576000805460ff60a81b19169055604051600181527f7f26b83ff96e1f2b6a682f133852f6798a09c465da95921460cefb38474024989060200160405180910390a15b5050505050505050565b601c546001600160a01b0316331480611be157506000546001600160a01b031633145b80611bf65750600e546001600160a01b031633145b611c125760405162461bcd60e51b815260040161132990615bb2565b602b55565b601c546001600160a01b0316331480611c3a57506000546001600160a01b031633145b80611c4f5750600e546001600160a01b031633145b611c6b5760405162461bcd60e51b815260040161132990615bb2565b6023805460ff19166001179055565b336000908152600760205260409020611c9481600161463d565b60038101548015611cbe57600c54611cb6906001600160a01b031633836143b4565b600060038301555b600c60009054906101000a90046001600160a01b03166001600160a01b0316632e05661b6040518163ffffffff1660e01b8152600401600060405180830381600087803b158015611d0e57600080fd5b505af1158015611d22573d6000803e3d6000fd5b505050505050565b6000821580611d395750600583115b15611d4657506000611d5f565b6064611d528484615c87565b611d5c9190615c48565b90505b92915050565b601c546001600160a01b0316331480611d8857506000546001600160a01b031633145b80611d9d5750600e546001600160a01b031633145b611db95760405162461bcd60e51b815260040161132990615bb2565b60009182526011602052604090912055565b6001600160a01b038181166000818152600760205260408082206001810154600a5492516370a0823160e01b8152600481019590955294929384938493849384938493849316906370a0823190602401602060405180830381865afa158015611e38573d6000803e3d6000fd5b505050506040513d601f19601f82011682018060405250810190611e5c9190615c2f565b600a54604051636eb1769f60e11b81526001600160a01b038d81166004830152306024830152929a5091169063dd62ed3e90604401602060405180830381865afa158015611eae573d6000803e3d6000fd5b505050506040513d601f19601f82011682018060405250810190611ed29190615c2f565b96508060030154611ee28b6125b3565b611eec9190615c17565b6001600160a01b03909a16600090815260136020908152604080832054601b8352818420546015845282852054601490945291909320549b9d9a9c999b999a9299909850909650945092505050565b601c546001600160a01b0316331480611f5e57506000546001600160a01b031633145b80611f735750600e546001600160a01b031633145b611f8f5760405162461bcd60e51b815260040161132990615bb2565b602a80546001600160a01b0319166001600160a01b0392909216919091179055565b601c546001600160a01b0316331480611fd457506000546001600160a01b031633145b80611fe95750600e546001600160a01b031633145b6120055760405162461bcd60e51b815260040161132990615bb2565b6001600160a01b03919091166000908152602d60205260409020805460ff1916911515919091179055565b601c546001600160a01b031633148061205357506000546001600160a01b031633145b806120685750600e546001600160a01b031633145b6120845760405162461bcd60e51b815260040161132990615bb2565b600e80546001600160a01b0319166001600160a01b0392909216919091179055565b6001600160a01b03831660009081526010602052604081208054606091908484036120cf578094505b8493508467ffffffffffffffff8111156120eb576120eb6158e0565b604051908082528060200260200182016040528015612114578160200160208202803683370190505b5092506000865b6121258789615c17565b8110156121b85782811061213e575093506121bd915050565b83818154811061215057612150615ca6565b9060005260206000200160009054906101000a90046001600160a01b031685838151811061218057612180615ca6565b6001600160a01b0390921660209283029190910190910152816121a281615cbc565b92505080806121b090615cbc565b91505061211b565b505050505b935093915050565b6121cd6146c2565b6121d760006145ed565b565b601c546001600160a01b03163314806121fc57506000546001600160a01b031633145b806122115750600e546001600160a01b031633145b61222d5760405162461bcd60e51b815260040161132990615bb2565b805182511461227e5760405162461bcd60e51b815260206004820152601a60248201527f4172726179206c656e6774687320646f206e6f74206d617463680000000000006044820152606401611329565b60005b82518110156113a55781818151811061229c5761229c615ca6565b6020026020010151600760008584815181106122ba576122ba615ca6565b6020908102919091018101516001600160a01b031682528181019290925260409081016000208351815460ff191690151517815591830151600183015582015160028201556060909101516003909101558061231581615cbc565b915050612281565b6001600160a01b0381166000908152601d60205260409020805460609182918067ffffffffffffffff811115612355576123556158e0565b60405190808252806020026020018201604052801561237e578160200160208202803683370190505b5093508067ffffffffffffffff81111561239a5761239a6158e0565b6040519080825280602002602001820160405280156123c3578160200160208202803683370190505b5092506000805b828110156124a3578281106123e25750505050915091565b60008482815481106123f6576123f6615ca6565b9060005260206000200160009054906101000a90046001600160a01b031690508087848151811061242957612429615ca6565b6001600160a01b039283166020918202929092018101919091529082166000908152601f82526040808220549280529020546124659190615c17565b86848151811061247757612477615ca6565b60209081029190910101528261248c81615cbc565b93505050808061249b90615cbc565b9150506123ca565b50505050915091565b601c546001600160a01b03163314806124cf57506000546001600160a01b031633145b806124e45750600e546001600160a01b031633145b6125005760405162461bcd60e51b815260040161132990615bb2565b602855565b6010602052816000526040600020818154811061252157600080fd5b6000918252602090912001546001600160a01b03169150829050565b601c546001600160a01b031633148061256057506000546001600160a01b031633145b806125755750600e546001600160a01b031633145b6125915760405162461bcd60e51b815260040161132990615bb2565b601c80546001600160a01b0319166001600160a01b0392909216919091179055565b6001600160a01b0381166000908152600760205260408120600181810154909190156126a157600482015442908082111561269e5760006125f48284615cd5565b85600301546126039190615c87565b6005860154600287015491925090600081831161262157600061262b565b61262b8284615cd5565b905080841161263a578361263c565b805b6002880154895491955090670de0b6b3a76400009061265b8783615c87565b6126659190615c48565b8a600101546126749190615c17565b89600101546126839190615c87565b61268d9190615c48565b6126979190615cd5565b9850505050505b50505b5050919050565b60235460ff16156126eb5760405162461bcd60e51b815260206004820152600d60248201526c6465706f73697420706175736560981b6044820152606401611329565b600b5483101561272f5760405162461bcd60e51b815260206004820152600f60248201526e6465706f73697420746f6f206c6f7760881b6044820152606401611329565b3383602c60008282546127429190615c17565b9091555061275290508183613f14565b600a5461276a906001600160a01b031682308761471c565b6127778185856001614848565b61277f6140ed565b6127c3817f0000000000000000000000000000000000000000000000000000000000000000602554876127b29190615c87565b6127bc9190615c48565b60016141d0565b600c60009054906101000a90046001600160a01b03166001600160a01b0316632e05661b6040518163ffffffff1660e01b8152600401600060405180830381600087803b15801561281357600080fd5b505af1158015612827573d6000803e3d6000fd5b505050506128358285614ba9565b612840848284614db4565b60405184906001600160a01b038316907fe1fffcc4923d04b559f4d29a8bfc6cda04eb5b0d3c460751c2402c5c5cc9109c90600090a350505050565b6001600160a01b0381166000908152601d602052604090205460011015611461576001600160a01b03811660009081526020808052604080832054601f9092528220546128c99190615c17565b6001600160a01b03831660009081526022602052604080822054815160a081019092529293508061291b7f00000000000000000000000000000000000000000000000000000000000000006002615c87565b81526020017f000000000000000000000000000000000000000000000000000000000000000081526020017f000000000000000000000000000000000000000000000000000000000000000081526020017f000000000000000000000000000000000000000000000000000000000000000081526020017f0000000000000000000000000000000000000000000000000000000000000000815250905060058210156129f7576129cd84828585614e70565b156129f7576129dd826001615c17565b6001600160a01b0385166000908152602260205260409020555b50505050565b600a54600c54602c54600154602e546001600160a01b03948516946012941692849290916000808080612a2e61506d565b600b546012546023549d9e9c9d9b9c9a9b999a9899979892979196506001600160a01b0316945060ff1692509050565b604080516002808252606082018352600092839291906020830190803683375050600a5482519293506001600160a01b031691839150600090612aa357612aa3615ca6565b6001600160a01b039283166020918202929092010152600c54825191169082906001908110612ad457612ad4615ca6565b6001600160a01b0392831660209182029290920101526009546000911663d06ca61f612b01600287615c48565b846040518363ffffffff1660e01b8152600401612b1f9291906158c7565b600060405180830381865afa158015612b3c573d6000803e3d6000fd5b505050506040513d6000823e601f3d908101601f19168201604052612b649190810190615cec565b905080600181518110612b7957612b79615ca6565b602002602001015192505050919050565b601c546001600160a01b0316331480612bad57506000546001600160a01b031633145b80612bc25750600e546001600160a01b031633145b612bde5760405162461bcd60e51b815260040161132990615bb2565b612be66140ed565b600455565b333214612c275760405162461bcd60e51b815260206004820152600a6024820152693737ba1027b934b3b4b760b11b6044820152606401611329565b3360009081526008602052604090206003810154428115801590612c4a57508181115b15612ccb576005830154600090612c618484615cd5565b8560040154612c709190615c87565b612c7a9190615c48565b90506000846002015485600101548660000154612c979190615cd5565b612ca19190615cd5565b905080821115612caf578091505b81856001016000828254612cc39190615c17565b909155505050505b81811115612cdb57600383018190555b602b54836006015410612d255760405162461bcd60e51b81526020600482015260126024820152710e6e0cacac8aae0a8d2daca40d2e640dac2f60731b6044820152606401611329565b600683018054906000612d3783615cbc565b91905055506000612d4661513b565b905084811115612d985760405162461bcd60e51b815260206004820152601860248201527f746f6b656e20616d6f756e7420697320746f6f206d75636800000000000000006044820152606401611329565b600c54602a54612db7916001600160a01b03908116913391168461471c565b60028401546001850154855460009291612dd091615cd5565b612dda9190615cd5565b905060008560040154866005015483612df39190615c87565b612dfd9190615c48565b60048701839055602954909150808211612e595760405162461bcd60e51b815260206004820152601c60248201527f72656c656173654475726174696f6e20697320746f6f2073686f7274000000006044820152606401611329565b612e638183615cd5565b6005880155600c5460408051632e05661b60e01b815290516001600160a01b0390921691632e05661b9160048082019260009290919082900301818387803b158015612eae57600080fd5b505af1158015612ec2573d6000803e3d6000fd5b505050505050505050505050565b6040805160028082526060820183526000928392839283926020830190803683375050600c5482519293506001600160a01b031691839150600090612f1757612f17615ca6565b6001600160a01b039283166020918202929092010152600a54825191169082906001908110612f4857612f48615ca6565b6001600160a01b03928316602091820292909201015260095460405163d06ca61f60e01b8152600092919091169063d06ca61f90612f8c90899086906004016158c7565b600060405180830381865afa158015612fa9573d6000803e3d6000fd5b505050506040513d6000823e601f3d908101601f19168201604052612fd19190810190615cec565b905080600181518110612fe657612fe6615ca6565b60200260200101519450612710601754866130019190615c87565b61300b9190615c48565b93506127106018548661301e9190615c87565b6130289190615c48565b925061271061303561506d565b61303f9085615c87565b6130499190615c48565b9496939550505050565b601c546001600160a01b031633148061307657506000546001600160a01b031633145b8061308b5750600e546001600160a01b031633145b6130a75760405162461bcd60e51b815260040161132990615bb2565b6130b1828261516c565b5050565b601c546001600160a01b03163314806130d857506000546001600160a01b031633145b806130ed5750600e546001600160a01b031633145b6131095760405162461bcd60e51b815260040161132990615bb2565b601781905560195460185461271091906114199084615c17565b601c546001600160a01b031633148061314657506000546001600160a01b031633145b8061315b5750600e546001600160a01b031633145b6131775760405162461bcd60e51b815260040161132990615bb2565b601a80546001600160a01b0319166001600160a01b0392909216919091179055565b601c546001600160a01b03163314806131bc57506000546001600160a01b031633145b806131d15750600e546001600160a01b031633145b6131ed5760405162461bcd60e51b815260040161132990615bb2565b6016805460ff1916911515919091179055565b601c546001600160a01b031633148061322357506000546001600160a01b031633145b806132385750600e546001600160a01b031633145b6132545760405162461bcd60e51b815260040161132990615bb2565b601280546001600160a01b039092166001600160a01b0319909216821790556000908152600760205260409020805460ff19166001179055565b601c546001600160a01b03163314806132b157506000546001600160a01b031633145b806132c65750600e546001600160a01b031633145b6132e25760405162461bcd60e51b815260040161132990615bb2565b60198190556018546017546127109183916114199190615c17565b6000806000600d60009054906101000a90046001600160a01b03169050600080826001600160a01b0316630902f1ac6040518163ffffffff1660e01b8152600401606060405180830381865afa15801561335b573d6000803e3d6000fd5b505050506040513d601f19601f8201168201806040525081019061337f9190615d99565b50600c54600a546001600160701b0393841695509190921692506001600160a01b03918216911610156133b7578194508093506133be565b8094508193505b5050509091565b3332146134095760405162461bcd60e51b815260206004820152601260248201527131b630b4b6a628103737ba1027b934b3b4b760711b6044820152606401611329565b33600090815260086020526040902060038101544290158015906134305750816003015481115b156134b6576000826005015483600301548361344c9190615cd5565b846004015461345b9190615c87565b6134659190615c48565b905060008360020154846001015485600001546134829190615cd5565b61348c9190615cd5565b90508082111561349a578091505b818460010160008282546134ae9190615c17565b909155505050505b6001820154801561356057600d546134d8906001600160a01b031633836143b4565b60008360010181905550808360020160008282546134f69190615c17565b9091555050600c5460405163899d9c9d60e01b8152336004820152602481018390526001600160a01b039091169063899d9c9d90604401600060405180830381600087803b15801561354757600080fd5b505af115801561355b573d6000803e3d6000fd5b505050505b826003015482111561357457600383018290555b600c60009054906101000a90046001600160a01b03166001600160a01b0316632e05661b6040518163ffffffff1660e01b8152600401600060405180830381600087803b1580156135c457600080fd5b505af11580156135d8573d6000803e3d6000fd5b50505050505050565b60245460008190036135f05750565b7f00000000000000000000000000000000000000000000000000000000000000004261361c8284615c17565b81101561362857505050565b6000826136358584615cd5565b61363f9190615c48565b905061364b8382615c87565b6136559085615c17565b602455602554613685827f0000000000000000000000000000000000000000000000000000000000000000615ec2565b826026546136939190615ec2565b61369d9083615c87565b6136a79190615c48565b6025555050505050565b601c546001600160a01b03163314806136d457506000546001600160a01b031633145b806136e95750600e546001600160a01b031633145b6137055760405162461bcd60e51b815260040161132990615bb2565b602955565b3332146137465760405162461bcd60e51b815260206004820152600a6024820152693737ba1027b934b3b4b760b11b6044820152606401611329565b60165460ff16156137815760405162461bcd60e51b8152602060048201526005602482015264706175736560d81b6044820152606401611329565b6012546137989033906001600160a01b0316613f14565b600c546137b0906001600160a01b031633308461471c565b600a546040516370a0823160e01b81523060048201526001600160a01b039091169060009082906370a0823190602401602060405180830381865afa1580156137fd573d6000803e3d6000fd5b505050506040513d601f19601f820116820180604052508101906138219190615c2f565b60408051600280825260608201835292935060009290916020830190803683375050600c5482519293506001600160a01b03169183915060009061386757613867615ca6565b6001600160a01b039283166020918202929092010152600a5482519116908290600190811061389857613898615ca6565b6001600160a01b039283166020918202929092010152600954604051635c11d79560e01b8152911690635c11d795906138de908790600090869030904290600401615ece565b600060405180830381600087803b1580156138f857600080fd5b505af115801561390c573d6000803e3d6000fd5b50506040516370a0823160e01b8152306004820152600092508491506001600160a01b038616906370a0823190602401602060405180830381865afa158015613959573d6000803e3d6000fd5b505050506040513d601f19601f8201168201806040525081019061397d9190615c2f565b6139879190615cd5565b905060006127106017548361399c9190615c87565b6139a69190615c48565b600a549091506139c0906001600160a01b031633836143b4565b6000612710601854846139d39190615c87565b6139dd9190615c48565b90506139ec3382600080614848565b6139f46140ed565b60007f000000000000000000000000000000000000000000000000000000000000000060255483613a259190615c87565b613a2f9190615c48565b9050613a3d338260006141d0565b336000908152601b602052604081208054839290613a5c908490615c17565b909155505060195460009061271090613a759087615c87565b613a7f9190615c48565b600a54600e54919250613a9f916001600160a01b039182169116836143b4565b600e54604051632841a14360e01b8152600481018390526001600160a01b0390911690632841a14390602401600060405180830381600087803b158015613ae557600080fd5b505af1158015613af9573d6000803e3d6000fd5b50505050600081848688613b0d9190615cd5565b613b179190615cd5565b613b219190615cd5565b600a54601c54919250613b41916001600160a01b039182169116836143b4565b600c60009054906101000a90046001600160a01b03166001600160a01b0316632e05661b6040518163ffffffff1660e01b8152600401600060405180830381600087803b158015613b9157600080fd5b505af1158015613ba5573d6000803e3d6000fd5b50506040518792508c915033907fed7a144fad14804d5c249145e3e0e2b63a9eb455b76aee5bc92d711e9bba3e4a90600090a450505050505050505050565b601d602052816000526040600020818154811061252157600080fd5b601c546001600160a01b0316331480613c2357506000546001600160a01b031633145b80613c385750600e546001600160a01b031633145b613c545760405162461bcd60e51b815260040161132990615bb2565b601254613c6b9083906001600160a01b0316613f14565b613c736140ed565b6130b1828260006141d0565b6000806000806000600d60009054906101000a90046001600160a01b03166001600160a01b03166318160ddd6040518163ffffffff1660e01b8152600401602060405180830381865afa158015613cda573d6000803e3d6000fd5b505050506040513d601f19601f82011682018060405250810190613cfe9190615c2f565b600d546040516370a0823160e01b81523060048201529196506001600160a01b0316906370a0823190602401602060405180830381865afa158015613d47573d6000803e3d6000fd5b505050506040513d601f19601f82011682018060405250810190613d6b9190615c2f565b9350602b5492506028549150613d7f61513b565b90509091929394565b336000908152602d602052604090205460ff1680613db057506000546001600160a01b031633145b613dcc5760405162461bcd60e51b815260040161132990615bdb565b6130b18282613f14565b613dde6146c2565b6001600160a01b038116613e435760405162461bcd60e51b815260206004820152602660248201527f4f776e61626c653a206e6577206f776e657220697320746865207a65726f206160448201526564647265737360d01b6064820152608401611329565b611461816145ed565b601c546001600160a01b0316331480613e6f57506000546001600160a01b031633145b80613e845750600e546001600160a01b031633145b613ea05760405162461bcd60e51b815260040161132990615bb2565b602454600003613eaf57426024555b6023805460ff19169055565b601c546001600160a01b0316331480613ede57506000546001600160a01b031633145b80613ef35750600e546001600160a01b031633145b613f0f5760405162461bcd60e51b815260040161132990615bb2565b602655565b6001600160a01b0382166000908152600760205260409020805460ff166113a5576001600160a01b038216600003613f7a5760405162461bcd60e51b81526020600482015260096024820152680696e7669746f7220360bc1b6044820152606401611329565b6001600160a01b03821660009081526007602052604090205460ff16613fd45760405162461bcd60e51b815260206004820152600f60248201526e696e7669746f72202141637469766560881b6044820152606401611329565b6001600160a01b038083166000818152601d60209081526040808320805460018181018355918552838520018054968a166001600160a01b03199788168117909155808552601e84528285208054881687179055600f84528285208054881687179055948452601083529083208054918201815583529082200180549093169091179091555b7f00000000000000000000000000000000000000000000000000000000000000008110156140dc576001600160a01b03831660009081526015602052604081208054600192906140ab908490615c17565b90915550506001600160a01b039283166000908152600f60205260409020549092169182156140dc5760010161405a565b50805460ff19166001178155505050565b6140f56135e1565b600554600190429080821161410957505050565b6004830182905560028301546005840154808210614128575050505050565b84546003860154811580159061413e5750806000105b156135d857600061414f8688615cd5565b6141599083615c87565b905060006141678686615cd5565b905080821115614175578091505b8361418883670de0b6b3a7640000615c87565b6141929190615c48565b8960010160008282546141a59190615c17565b92505081905550818960020160008282546141c09190615c17565b9091555050505050505050505050565b6001600160a01b0383166000908152600760205260408120906141f490829061463d565b60018101546142038482615c17565b6001808401829055549091506142198582615c17565b600254909150670de0b6b3a76400006142328285615c87565b61423c9190615c48565b600285015584156143a9577f00000000000000000000000000000000000000000000000000000000000000006000888180805b858110156143a2576001600160a01b038085166000908152600f602052604090205416925082156143a2576001600160a01b038316600090815260076020526040812095506142bf90869061463d565b600081815260116020526040812054612710906142dc908f615c87565b6142e69190615c48565b6001600160a01b038516600090815260136020526040812080549293508392909190614313908490615c17565b90915550506001600160a01b038416600090815260146020526040812080548f9290614340908490615c17565b9091555050600186015492506143568184615c17565b600187018190559250670de0b6b3a76400006143728985615c87565b61437c9190615c48565b600287015561438b818a615c17565b9850839450508061439b90615cbc565b905061426f565b5050505050505b506001555050505050565b806000036143c157505050565b6040516370a0823160e01b8152306004820152839082906001600160a01b038316906370a0823190602401602060405180830381865afa158015614409573d6000803e3d6000fd5b505050506040513d601f19601f8201168201806040525081019061442d9190615c2f565b10156144705760405162461bcd60e51b81526020600482015260126024820152710c4c2d8c2dcc6ca40dcdee840cadcdeeaced60731b6044820152606401611329565b60405163a9059cbb60e01b81526001600160a01b0384811660048301526024820184905282169063a9059cbb906044016020604051808303816000875af11580156144bf573d6000803e3d6000fd5b505050506040513d601f19601f820116820180604052508101906144e39190615f0a565b5050505050565b604080516001600160a01b038481166024830152604480830185905283518084039091018152606490920183526020820180516001600160e01b031663095ea7b360e01b17905291516000928392908716916145469190615f27565b6000604051808303816000865af19150503d8060008114614583576040519150601f19603f3d011682016040523d82523d6000602084013e614588565b606091505b50915091508180156145b25750805115806145b25750808060200190518101906145b29190615f0a565b6144e35760405162461bcd60e51b815260206004820152600c60248201526b185c1c1c9bdd994819985a5b60a21b6044820152606401611329565b600080546001600160a01b038381166001600160a01b0319831681178455604051919092169283917f8be0079c531659141344cd1fd0a4f28419497f9722a3daafe3b4186f6b6457e09190a35050565b801561464b5761464b6140ed565b6001820154156130b1576000670de0b6b3a7640000600180015484600101546146749190615c87565b61467e9190615c48565b905060008360020154826146929190615cd5565b905080156129f757818460020181905550808460030160008282546146b79190615c17565b909155505050505050565b6000546001600160a01b031633146121d75760405162461bcd60e51b815260206004820181905260248201527f4f776e61626c653a2063616c6c6572206973206e6f7420746865206f776e65726044820152606401611329565b6040516370a0823160e01b81526001600160a01b038481166004830152859183918316906370a0823190602401602060405180830381865afa158015614766573d6000803e3d6000fd5b505050506040513d601f19601f8201168201806040525081019061478a9190615c2f565b10156147cd5760405162461bcd60e51b81526020600482015260126024820152710c4c2d8c2dcc6ca40dcdee840cadcdeeaced60731b6044820152606401611329565b6040516323b872dd60e01b81526001600160a01b0385811660048301528481166024830152604482018490528216906323b872dd906064016020604051808303816000875af1158015614824573d6000803e3d6000fd5b505050506040513d601f19601f82011682018060405250810190611d229190615f0a565b600c546040516370a0823160e01b81523060048201526001600160a01b0390911690819060009082906370a0823190602401602060405180830381865afa158015614897573d6000803e3d6000fd5b505050506040513d601f19601f820116820180604052508101906148bb9190615c2f565b600a546040805160028082526060820183529394506001600160a01b039092169260009291602083019080368337019050509050818160008151811061490357614903615ca6565b60200260200101906001600160a01b031690816001600160a01b031681525050848160018151811061493757614937615ca6565b6001600160a01b03928316602091820292909201015260095416635c11d79561496160028b615c48565b898430426040518663ffffffff1660e01b8152600401614985959493929190615ece565b600060405180830381600087803b15801561499f57600080fd5b505af11580156149b3573d6000803e3d6000fd5b50506040516370a0823160e01b8152306004820152600092508591506001600160a01b038716906370a0823190602401602060405180830381865afa158015614a00573d6000803e3d6000fd5b505050506040513d601f19601f82011682018060405250810190614a249190615c2f565b614a2e9190615cd5565b9050600087614a4857601a546001600160a01b0316614a4a565b305b90506000600960009054906101000a90046001600160a01b03166001600160a01b031663e8e33700868a60028f614a819190615c48565b6040516001600160e01b031960e086901b1681526001600160a01b039384166004820152918316602483015260448201526064810187905260006084820181905260a482015290851660c48201524260e4820152610104016060604051808303816000875af1158015614af8573d6000803e3d6000fd5b505050506040513d601f19601f82011682018060405250810190614b1c9190615f62565b925050508815614b3557614b308c8261521d565b612ec2565b600c5460405163899d9c9d60e01b81526001600160a01b038481166004830152602482018490529091169063899d9c9d90604401600060405180830381600087803b158015614b8357600080fd5b505af1158015614b97573d6000803e3d6000fd5b50505050505050505050505050505050565b6001600160a01b0382811660008181526022602052604080822054600e5491516370a0823160e01b815260048101949094529391929116906370a0823190602401602060405180830381865afa158015614c07573d6000803e3d6000fd5b505050506040513d601f19601f82011682018060405250810190614c2b9190615c2f565b90506000614c398385611d2a565b9050600083118015614c4b5750600082115b15614c6a57614c5a8582615337565b614c6585848661541b565b6144e3565b6001600160a01b038086166000908152601e6020526040812054909116905b6001600160a01b03821615801590614c9f575080155b156135d8576001600160a01b0382811660008181526022602052604080822054600e5491516370a0823160e01b815260048101949094529391929116906370a0823190602401602060405180830381865afa158015614d02573d6000803e3d6000fd5b505050506040513d601f19601f82011682018060405250810190614d269190615c2f565b9050600082118015614d385750600081115b15614d625760019250614d4b8289611d2a565b9450614d578486615337565b614d6284838a61541b565b6001600160a01b038085166000818152601e60205260409020549091169003614d8e5760009350614dad565b6001600160a01b039384166000908152601e6020526040902054909316925b5050614c89565b6001600160a01b038216600090815260208052604081208054859290614ddb908490615c17565b909155508190505b6001600160a01b038116156129f7576001600160a01b0381166000908152601f602052604081208054869290614e1a908490615c17565b90915550614e2990508161287c565b6001600160a01b038082166000818152601e60205260409020549091169003614e50575060005b6001600160a01b039081166000908152601e602052604090205416614de3565b6001600160a01b0384166000908152601d6020908152604080832080548251818502810185019093528083528493830182828015614ed757602002820191906000526020600020905b81546001600160a01b03168152600190910190602001808311614eb9575b50505050509050848360058110614ef057614ef0615ca6565b6020020151841061505f576000805b6001600160a01b0388166000908152601d602052604090205481101561505c5784600003614fe6577f000000000000000000000000000000000000000000000000000000000000000060206000858481518110614f5e57614f5e615ca6565b60200260200101516001600160a01b03166001600160a01b0316815260200190815260200160002054601f6000868581518110614f9d57614f9d615ca6565b60200260200101516001600160a01b03166001600160a01b0316815260200190815260200160002054614fd09190615c17565b10614fe157614fde82615cbc565b91505b615038565b600160226000858481518110614ffe57614ffe615ca6565b60200260200101516001600160a01b03166001600160a01b0316815260200190815260200160002054106150385761503582615cbc565b91505b6002821061504c5760019350505050615065565b61505581615cbc565b9050614eff565b50505b60009150505b949350505050565b602554602454600091908083036150845750919050565b7f0000000000000000000000000000000000000000000000000000000000000000426150b08284615c17565b8110156150c05750919392505050565b6000826150cd8584615cd5565b6150d79190615c48565b60265490915060005b8281101561512f577f00000000000000000000000000000000000000000000000000000000000000006151138389615c87565b61511d9190615c48565b965061512881615cbc565b90506150e0565b50949695505050505050565b60008060006151486132fd565b91509150818160285461515b9190615c87565b6151659190615c48565b9250505090565b604080516000808252602082019092526001600160a01b0384169083906040516151969190615f27565b60006040518083038185875af1925050503d80600081146151d3576040519150601f19603f3d011682016040523d82523d6000602084013e6151d8565b606091505b50509050806113a55760405162461bcd60e51b8152602060048201526011602482015270195d1a081d1c985b9cd9995c8819985a5b607a1b6044820152606401611329565b6001600160a01b0382166000908152600860205260409020600381015442811580159061524957508181115b156152ca5760058301546000906152608484615cd5565b856004015461526f9190615c87565b6152799190615c48565b905060008460020154856001015486600001546152969190615cd5565b6152a09190615cd5565b9050808211156152ae578091505b818560010160008282546152c29190615c17565b909155505050505b600283015460018401548454600092916152e391615cd5565b6152ed9190615cd5565b9050848460000160008282546153039190615c17565b9091555061531390508582615c17565b6004850155602754600585015582821115611d225760038401829055505050505050565b60007f0000000000000000000000000000000000000000000000000000000000000000602554836153689190615c87565b6153729190615c48565b9050615380838260006141d0565b6001600160a01b0383166000818152602260205260408082205490519092849284927fb6e5be43155b74262b7be6ccc5012bb6df33759145b8a6d4bc9f3e98c6d87b489190a4600a546153dd906001600160a01b031685856143b4565b8281856001600160a01b03167f449ba527ea8f6ec8dc6af63b425e187506ac5b1635308d35ba1fe32da2b0d2e360405160405180910390a450505050565b6001600160a01b038084166000908152601e6020526040812054909116908390615446826001615c17565b90505b6001600160a01b03831615801590615462575060058211155b15611d22576001600160a01b0383166000908152602260205260408120549061548b8287611d2a565b90508382118061549a57508282145b156154c0576154a98582615337565b8193508160016154b99190615c17565b92506154df565b8382036154df576154d18582615531565b6154dc826001615c17565b93505b6001600160a01b038086166000818152601e6020526040902054909116900361550b576000945061552a565b6001600160a01b039485166000908152601e6020526040902054909416935b5050615449565b60007f0000000000000000000000000000000000000000000000000000000000000000602554836155629190615c87565b61556c9190615c48565b90506000606461557d836014615c87565b6155879190615c48565b9050615595848260006141d0565b6001600160a01b0384166000818152602260205260408082205490519092849284927fb6e5be43155b74262b7be6ccc5012bb6df33759145b8a6d4bc9f3e98c6d87b489190a4600060646155ea866014615c87565b6155f49190615c48565b600a5490915061560e906001600160a01b031687836143b4565b8082876001600160a01b03167f449ba527ea8f6ec8dc6af63b425e187506ac5b1635308d35ba1fe32da2b0d2e360405160405180910390a4505050505050565b60006020828403121561566057600080fd5b5035919050565b6001600160a01b038116811461146157600080fd5b801515811461146157600080fd5b60008060006060848603121561569f57600080fd5b83356156aa81615667565b92506020840135915060408401356156c18161567c565b809150509250925092565b6000602082840312156156de57600080fd5b81356156e981615667565b9392505050565b60008060006060848603121561570557600080fd5b833561571081615667565b9250602084013561572081615667565b929592945050506040919091013590565b6000806040838503121561574457600080fd5b823561574f81615667565b946020939093013593505050565b600080600080600080600060e0888a03121561577857600080fd5b873561578381615667565b9650602088013561579381615667565b955060408801356157a381615667565b945060608801356157b381615667565b935060808801356157c381615667565b925060a08801356157d381615667565b915060c08801356157e381615667565b8091505092959891949750929550565b6000806040838503121561580657600080fd5b50508035926020909101359150565b6000806040838503121561582857600080fd5b823561583381615667565b915060208301356158438161567c565b809150509250929050565b60008060006060848603121561586357600080fd5b833561586e81615667565b95602085013595506040909401359392505050565b600081518084526020808501945080840160005b838110156158bc5781516001600160a01b031687529582019590820190600101615897565b509495945050505050565b8281526040602082015260006150656040830184615883565b634e487b7160e01b600052604160045260246000fd5b6040516080810167ffffffffffffffff81118282101715615919576159196158e0565b60405290565b604051601f8201601f1916810167ffffffffffffffff81118282101715615948576159486158e0565b604052919050565b600067ffffffffffffffff82111561596a5761596a6158e0565b5060051b60200190565b600082601f83011261598557600080fd5b8135602061599a61599583615950565b61591f565b82815260079290921b840181019181810190868411156159b957600080fd5b8286015b84811015615a1557608081890312156159d65760008081fd5b6159de6158f6565b81356159e98161567c565b8152818501358582015260408083013590820152606080830135908201528352918301916080016159bd565b509695505050505050565b60008060408385031215615a3357600080fd5b823567ffffffffffffffff80821115615a4b57600080fd5b818501915085601f830112615a5f57600080fd5b81356020615a6f61599583615950565b82815260059290921b84018101918181019089841115615a8e57600080fd5b948201945b83861015615ab5578535615aa681615667565b82529482019490820190615a93565b96505086013592505080821115615acb57600080fd5b50615ad885828601615974565b9150509250929050565b604081526000615af56040830185615883565b82810360208481019190915284518083528582019282019060005b81811015615b2c57845183529383019391830191600101615b10565b5090979650505050505050565b600080600060608486031215615b4e57600080fd5b833592506020840135915060408401356156c181615667565b600060208284031215615b7957600080fd5b81356156e98161567c565b60008060408385031215615b9757600080fd5b8235615ba281615667565b9150602083013561584381615667565b6020808252600f908201526e1bdb9b1e481dda1a5d19481b1a5cdd608a1b604082015260600190565b6020808252600c908201526b1bdb9b1e481c1c9bda9958dd60a21b604082015260600190565b634e487b7160e01b600052601160045260246000fd5b60008219821115615c2a57615c2a615c01565b500190565b600060208284031215615c4157600080fd5b5051919050565b600082615c6557634e487b7160e01b600052601260045260246000fd5b500490565b600060208284031215615c7c57600080fd5b81516156e981615667565b6000816000190483118215151615615ca157615ca1615c01565b500290565b634e487b7160e01b600052603260045260246000fd5b600060018201615cce57615cce615c01565b5060010190565b600082821015615ce757615ce7615c01565b500390565b60006020808385031215615cff57600080fd5b825167ffffffffffffffff811115615d1657600080fd5b8301601f81018513615d2757600080fd5b8051615d3561599582615950565b81815260059190911b82018301908381019087831115615d5457600080fd5b928401925b82841015615d7257835182529284019290840190615d59565b979650505050505050565b80516001600160701b0381168114615d9457600080fd5b919050565b600080600060608486031215615dae57600080fd5b615db784615d7d565b9250615dc560208501615d7d565b9150604084015163ffffffff811681146156c157600080fd5b600181815b80851115615e19578160001904821115615dff57615dff615c01565b80851615615e0c57918102915b93841c9390800290615de3565b509250929050565b600082615e3057506001611d5f565b81615e3d57506000611d5f565b8160018114615e535760028114615e5d57615e79565b6001915050611d5f565b60ff841115615e6e57615e6e615c01565b50506001821b611d5f565b5060208310610133831016604e8410600b8410161715615e9c575081810a611d5f565b615ea68383615dde565b8060001904821115615eba57615eba615c01565b029392505050565b6000611d5c8383615e21565b85815284602082015260a060408201526000615eed60a0830186615883565b6001600160a01b0394909416606083015250608001529392505050565b600060208284031215615f1c57600080fd5b81516156e98161567c565b6000825160005b81811015615f485760208186018101518583015201615f2e565b81811115615f57576000828501525b509190910192915050565b600080600060608486031215615f7757600080fd5b835192506020840151915060408401519050925092509256fea26469706673582212204dd7dbe8b7ecaf8fc9890d28d50b2f653232f955e232d6eacf4c2ff8c94eca0f64736f6c634300080f0033",
  "devdoc": {
    "kind": "dev",
    "methods": {
      "owner()": {
        "details": "Returns the address of the current owner."
      },
      "renounceOwnership()": {
        "details": "Leaves the contract without owner. It will not be possible to call `onlyOwner` functions. Can only be called by the current owner. NOTE: Renouncing ownership will leave the contract without an owner, thereby disabling any functionality that is only available to the owner."
      },
      "transferOwnership(address)": {
        "details": "Transfers ownership of the contract to a new account (`newOwner`). Can only be called by the current owner."
      }
    },
    "version": 1
  },
  "userdoc": {
    "kind": "user",
    "methods": {},
    "version": 1
  },
  "storageLayout": {
    "storage": [
      {
        "astId": 690,
        "contract": "contracts/MintPool.sol:MintPool",
        "label": "_owner",
        "offset": 0,
        "slot": "0",
        "type": "t_address"
      },
      {
        "astId": 139,
        "contract": "contracts/MintPool.sol:MintPool",
        "label": "_initialized",
        "offset": 20,
        "slot": "0",
        "type": "t_uint8"
      },
      {
        "astId": 142,
        "contract": "contracts/MintPool.sol:MintPool",
        "label": "_initializing",
        "offset": 21,
        "slot": "0",
        "type": "t_bool"
      },
      {
        "astId": 2977,
        "contract": "contracts/MintPool.sol:MintPool",
        "label": "poolInfo",
        "offset": 0,
        "slot": "1",
        "type": "t_struct(PoolInfo)2959_storage"
      },
      {
        "astId": 2982,
        "contract": "contracts/MintPool.sol:MintPool",
        "label": "userInfo",
        "offset": 0,
        "slot": "7",
        "type": "t_mapping(t_address,t_struct(UserInfo)2946_storage)"
      },
      {
        "astId": 2987,
        "contract": "contracts/MintPool.sol:MintPool",
        "label": "_userLPInfo",
        "offset": 0,
        "slot": "8",
        "type": "t_mapping(t_address,t_struct(UserLPInfo)2974_storage)"
      },
      {
        "astId": 2990,
        "contract": "contracts/MintPool.sol:MintPool",
        "label": "_swapRouter",
        "offset": 0,
        "slot": "9",
        "type": "t_contract(ISwapRouter)7142"
      },
      {
        "astId": 2992,
        "contract": "contracts/MintPool.sol:MintPool",
        "label": "_usdt",
        "offset": 0,
        "slot": "10",
        "type": "t_address"
      },
      {
        "astId": 2994,
        "contract": "contracts/MintPool.sol:MintPool",
        "label": "_minAmount",
        "offset": 0,
        "slot": "11",
        "type": "t_uint256"
      },
      {
        "astId": 2996,
        "contract": "contracts/MintPool.sol:MintPool",
        "label": "_mintRewardToken",
        "offset": 0,
        "slot": "12",
        "type": "t_address"
      },
      {
        "astId": 2998,
        "contract": "contracts/MintPool.sol:MintPool",
        "label": "_lp",
        "offset": 0,
        "slot": "13",
        "type": "t_address"
      },
      {
        "astId": 3001,
        "contract": "contracts/MintPool.sol:MintPool",
        "label": "_nft",
        "offset": 0,
        "slot": "14",
        "type": "t_contract(INFT)7033"
      },
      {
        "astId": 3005,
        "contract": "contracts/MintPool.sol:MintPool",
        "label": "_invitor",
        "offset": 0,
        "slot": "15",
        "type": "t_mapping(t_address,t_address)"
      },
      {
        "astId": 3010,
        "contract": "contracts/MintPool.sol:MintPool",
        "label": "_binder",
        "offset": 0,
        "slot": "16",
        "type": "t_mapping(t_address,t_array(t_address)dyn_storage)"
      },
      {
        "astId": 3014,
        "contract": "contracts/MintPool.sol:MintPool",
        "label": "_inviteFee",
        "offset": 0,
        "slot": "17",
        "type": "t_mapping(t_uint256,t_uint256)"
      },
      {
        "astId": 3019,
        "contract": "contracts/MintPool.sol:MintPool",
        "label": "_defaultInvitor",
        "offset": 0,
        "slot": "18",
        "type": "t_address"
      },
      {
        "astId": 3023,
        "contract": "contracts/MintPool.sol:MintPool",
        "label": "_inviteAmount",
        "offset": 0,
        "slot": "19",
        "type": "t_mapping(t_address,t_uint256)"
      },
      {
        "astId": 3027,
        "contract": "contracts/MintPool.sol:MintPool",
        "label": "_teamAmount",
        "offset": 0,
        "slot": "20",
        "type": "t_mapping(t_address,t_uint256)"
      },
      {
        "astId": 3031,
        "contract": "contracts/MintPool.sol:MintPool",
        "label": "_teamNum",
        "offset": 0,
        "slot": "21",
        "type": "t_mapping(t_address,t_uint256)"
      },
      {
        "astId": 3033,
        "contract": "contracts/MintPool.sol:MintPool",
        "label": "_pauseSell",
        "offset": 0,
        "slot": "22",
        "type": "t_bool"
      },
      {
        "astId": 3035,
        "contract": "contracts/MintPool.sol:MintPool",
        "label": "_sellSelfRate",
        "offset": 0,
        "slot": "23",
        "type": "t_uint256"
      },
      {
        "astId": 3037,
        "contract": "contracts/MintPool.sol:MintPool",
        "label": "_sellJoinRate",
        "offset": 0,
        "slot": "24",
        "type": "t_uint256"
      },
      {
        "astId": 3039,
        "contract": "contracts/MintPool.sol:MintPool",
        "label": "_sellNFTRate",
        "offset": 0,
        "slot": "25",
        "type": "t_uint256"
      },
      {
        "astId": 3041,
        "contract": "contracts/MintPool.sol:MintPool",
        "label": "_sellLPReceiver",
        "offset": 0,
        "slot": "26",
        "type": "t_address"
      },
      {
        "astId": 3045,
        "contract": "contracts/MintPool.sol:MintPool",
        "label": "_sellJoinAmount",
        "offset": 0,
        "slot": "27",
        "type": "t_mapping(t_address,t_uint256)"
      },
      {
        "astId": 3047,
        "contract": "contracts/MintPool.sol:MintPool",
        "label": "_fundAddress",
        "offset": 0,
        "slot": "28",
        "type": "t_address"
      },
      {
        "astId": 3052,
        "contract": "contracts/MintPool.sol:MintPool",
        "label": "referrals",
        "offset": 0,
        "slot": "29",
        "type": "t_mapping(t_address,t_array(t_address)dyn_storage)"
      },
      {
        "astId": 3056,
        "contract": "contracts/MintPool.sol:MintPool",
        "label": "superAccount",
        "offset": 0,
        "slot": "30",
        "type": "t_mapping(t_address,t_address)"
      },
      {
        "astId": 3060,
        "contract": "contracts/MintPool.sol:MintPool",
        "label": "referralAmount",
        "offset": 0,
        "slot": "31",
        "type": "t_mapping(t_address,t_uint256)"
      },
      {
        "astId": 3064,
        "contract": "contracts/MintPool.sol:MintPool",
        "label": "depositAmount",
        "offset": 0,
        "slot": "32",
        "type": "t_mapping(t_address,t_uint256)"
      },
      {
        "astId": 3068,
        "contract": "contracts/MintPool.sol:MintPool",
        "label": "referralReward",
        "offset": 0,
        "slot": "33",
        "type": "t_mapping(t_address,t_uint256)"
      },
      {
        "astId": 3072,
        "contract": "contracts/MintPool.sol:MintPool",
        "label": "userLevel",
        "offset": 0,
        "slot": "34",
        "type": "t_mapping(t_address,t_uint256)"
      },
      {
        "astId": 3089,
        "contract": "contracts/MintPool.sol:MintPool",
        "label": "_pauseJoin",
        "offset": 0,
        "slot": "35",
        "type": "t_bool"
      },
      {
        "astId": 3091,
        "contract": "contracts/MintPool.sol:MintPool",
        "label": "_lastDailyUpTime",
        "offset": 0,
        "slot": "36",
        "type": "t_uint256"
      },
      {
        "astId": 3093,
        "contract": "contracts/MintPool.sol:MintPool",
        "label": "_lastAmountRate",
        "offset": 0,
        "slot": "37",
        "type": "t_uint256"
      },
      {
        "astId": 3095,
        "contract": "contracts/MintPool.sol:MintPool",
        "label": "_amountDailyUp",
        "offset": 0,
        "slot": "38",
        "type": "t_uint256"
      },
      {
        "astId": 3103,
        "contract": "contracts/MintPool.sol:MintPool",
        "label": "_lpReleaseDuration",
        "offset": 0,
        "slot": "39",
        "type": "t_uint256"
      },
      {
        "astId": 3105,
        "contract": "contracts/MintPool.sol:MintPool",
        "label": "_speedUpCost",
        "offset": 0,
        "slot": "40",
        "type": "t_uint256"
      },
      {
        "astId": 3107,
        "contract": "contracts/MintPool.sol:MintPool",
        "label": "_speedUpDuration",
        "offset": 0,
        "slot": "41",
        "type": "t_uint256"
      },
      {
        "astId": 3109,
        "contract": "contracts/MintPool.sol:MintPool",
        "label": "_speedUpReceiver",
        "offset": 0,
        "slot": "42",
        "type": "t_address"
      },
      {
        "astId": 3111,
        "contract": "contracts/MintPool.sol:MintPool",
        "label": "_speedUpMaxTime",
        "offset": 0,
        "slot": "43",
        "type": "t_uint256"
      },
      {
        "astId": 3113,
        "contract": "contracts/MintPool.sol:MintPool",
        "label": "_totalUsdt",
        "offset": 0,
        "slot": "44",
        "type": "t_uint256"
      },
      {
        "astId": 3117,
        "contract": "contracts/MintPool.sol:MintPool",
        "label": "_inProject",
        "offset": 0,
        "slot": "45",
        "type": "t_mapping(t_address,t_bool)"
      },
      {
        "astId": 3119,
        "contract": "contracts/MintPool.sol:MintPool",
        "label": "_lastDailyReward",
        "offset": 0,
        "slot": "46",
        "type": "t_uint256"
      }
    ],
    "types": {
      "t_address": {
        "encoding": "inplace",
        "label": "address",
        "numberOfBytes": "20"
      },
      "t_array(t_address)dyn_storage": {
        "base": "t_address",
        "encoding": "dynamic_array",
        "label": "address[]",
        "numberOfBytes": "32"
      },
      "t_bool": {
        "encoding": "inplace",
        "label": "bool",
        "numberOfBytes": "1"
      },
      "t_contract(INFT)7033": {
        "encoding": "inplace",
        "label": "contract INFT",
        "numberOfBytes": "20"
      },
      "t_contract(ISwapRouter)7142": {
        "encoding": "inplace",
        "label": "contract ISwapRouter",
        "numberOfBytes": "20"
      },
      "t_mapping(t_address,t_address)": {
        "encoding": "mapping",
        "key": "t_address",
        "label": "mapping(address => address)",
        "numberOfBytes": "32",
        "value": "t_address"
      },
      "t_mapping(t_address,t_array(t_address)dyn_storage)": {
        "encoding": "mapping",
        "key": "t_address",
        "label": "mapping(address => address[])",
        "numberOfBytes": "32",
        "value": "t_array(t_address)dyn_storage"
      },
      "t_mapping(t_address,t_bool)": {
        "encoding": "mapping",
        "key": "t_address",
        "label": "mapping(address => bool)",
        "numberOfBytes": "32",
        "value": "t_bool"
      },
      "t_mapping(t_address,t_struct(UserInfo)2946_storage)": {
        "encoding": "mapping",
        "key": "t_address",
        "label": "mapping(address => struct MintPool.UserInfo)",
        "numberOfBytes": "32",
        "value": "t_struct(UserInfo)2946_storage"
      },
      "t_mapping(t_address,t_struct(UserLPInfo)2974_storage)": {
        "encoding": "mapping",
        "key": "t_address",
        "label": "mapping(address => struct MintPool.UserLPInfo)",
        "numberOfBytes": "32",
        "value": "t_struct(UserLPInfo)2974_storage"
      },
      "t_mapping(t_address,t_uint256)": {
        "encoding": "mapping",
        "key": "t_address",
        "label": "mapping(address => uint256)",
        "numberOfBytes": "32",
        "value": "t_uint256"
      },
      "t_mapping(t_uint256,t_uint256)": {
        "encoding": "mapping",
        "key": "t_uint256",
        "label": "mapping(uint256 => uint256)",
        "numberOfBytes": "32",
        "value": "t_uint256"
      },
      "t_struct(PoolInfo)2959_storage": {
        "encoding": "inplace",
        "label": "struct MintPool.PoolInfo",
        "members": [
          {
            "astId": 2948,
            "contract": "contracts/MintPool.sol:MintPool",
            "label": "totalAmount",
            "offset": 0,
            "slot": "0",
            "type": "t_uint256"
          },
          {
            "astId": 2950,
            "contract": "contracts/MintPool.sol:MintPool",
            "label": "accMintPerShare",
            "offset": 0,
            "slot": "1",
            "type": "t_uint256"
          },
          {
            "astId": 2952,
            "contract": "contracts/MintPool.sol:MintPool",
            "label": "accMintReward",
            "offset": 0,
            "slot": "2",
            "type": "t_uint256"
          },
          {
            "astId": 2954,
            "contract": "contracts/MintPool.sol:MintPool",
            "label": "mintPerSec",
            "offset": 0,
            "slot": "3",
            "type": "t_uint256"
          },
          {
            "astId": 2956,
            "contract": "contracts/MintPool.sol:MintPool",
            "label": "lastMintTime",
            "offset": 0,
            "slot": "4",
            "type": "t_uint256"
          },
          {
            "astId": 2958,
            "contract": "contracts/MintPool.sol:MintPool",
            "label": "totalMintReward",
            "offset": 0,
            "slot": "5",
            "type": "t_uint256"
          }
        ],
        "numberOfBytes": "192"
      },
      "t_struct(UserInfo)2946_storage": {
        "encoding": "inplace",
        "label": "struct MintPool.UserInfo",
        "members": [
          {
            "astId": 2939,
            "contract": "contracts/MintPool.sol:MintPool",
            "label": "isActive",
            "offset": 0,
            "slot": "0",
            "type": "t_bool"
          },
          {
            "astId": 2941,
            "contract": "contracts/MintPool.sol:MintPool",
            "label": "amount",
            "offset": 0,
            "slot": "1",
            "type": "t_uint256"
          },
          {
            "astId": 2943,
            "contract": "contracts/MintPool.sol:MintPool",
            "label": "rewardMintDebt",
            "offset": 0,
            "slot": "2",
            "type": "t_uint256"
          },
          {
            "astId": 2945,
            "contract": "contracts/MintPool.sol:MintPool",
            "label": "calMintReward",
            "offset": 0,
            "slot": "3",
            "type": "t_uint256"
          }
        ],
        "numberOfBytes": "128"
      },
      "t_struct(UserLPInfo)2974_storage": {
        "encoding": "inplace",
        "label": "struct MintPool.UserLPInfo",
        "members": [
          {
            "astId": 2961,
            "contract": "contracts/MintPool.sol:MintPool",
            "label": "lockAmount",
            "offset": 0,
            "slot": "0",
            "type": "t_uint256"
          },
          {
            "astId": 2963,
            "contract": "contracts/MintPool.sol:MintPool",
            "label": "calAmount",
            "offset": 0,
            "slot": "1",
            "type": "t_uint256"
          },
          {
            "astId": 2965,
            "contract": "contracts/MintPool.sol:MintPool",
            "label": "claimedAmount",
            "offset": 0,
            "slot": "2",
            "type": "t_uint256"
          },
          {
            "astId": 2967,
            "contract": "contracts/MintPool.sol:MintPool",
            "label": "lastReleaseTime",
            "offset": 0,
            "slot": "3",
            "type": "t_uint256"
          },
          {
            "astId": 2969,
            "contract": "contracts/MintPool.sol:MintPool",
            "label": "releaseInitAmount",
            "offset": 0,
            "slot": "4",
            "type": "t_uint256"
          },
          {
            "astId": 2971,
            "contract": "contracts/MintPool.sol:MintPool",
            "label": "releaseDuration",
            "offset": 0,
            "slot": "5",
            "type": "t_uint256"
          },
          {
            "astId": 2973,
            "contract": "contracts/MintPool.sol:MintPool",
            "label": "speedUpTime",
            "offset": 0,
            "slot": "6",
            "type": "t_uint256"
          }
        ],
        "numberOfBytes": "224"
      },
      "t_uint256": {
        "encoding": "inplace",
        "label": "uint256",
        "numberOfBytes": "32"
      },
      "t_uint8": {
        "encoding": "inplace",
        "label": "uint8",
        "numberOfBytes": "1"
      }
    }
  }
}