{
  "address": "0xA16c96022d99a7fa412BAac81c5B541C2fb4102D",
  "abi": [
    {
      "anonymous": false,
      "inputs": [
        {
          "indexed": true,
          "internalType": "address",
          "name": "account",
          "type": "address"
        },
        {
          "indexed": true,
          "internalType": "uint256",
          "name": "amount",
          "type": "uint256"
        }
      ],
      "name": "Deposit",
      "type": "event"
    },
    {
      "anonymous": false,
      "inputs": [
        {
          "indexed": false,
          "internalType": "uint8",
          "name": "version",
          "type": "uint8"
        }
      ],
      "name": "Initialized",
      "type": "event"
    },
    {
      "anonymous": false,
      "inputs": [
        {
          "indexed": true,
          "internalType": "address",
          "name": "previousOwner",
          "type": "address"
        },
        {
          "indexed": true,
          "internalType": "address",
          "name": "newOwner",
          "type": "address"
        }
      ],
      "name": "OwnershipTransferred",
      "type": "event"
    },
    {
      "anonymous": false,
      "inputs": [
        {
          "indexed": true,
          "internalType": "address",
          "name": "account",
          "type": "address"
        },
        {
          "indexed": true,
          "internalType": "uint256",
          "name": "tokenAmount",
          "type": "uint256"
        },
        {
          "indexed": true,
          "internalType": "uint256",
          "name": "selfAmount",
          "type": "uint256"
        }
      ],
      "name": "Sell",
      "type": "event"
    },
    {
      "anonymous": false,
      "inputs": [
        {
          "indexed": true,
          "internalType": "address",
          "name": "account",
          "type": "address"
        },
        {
          "indexed": true,
          "internalType": "uint256",
          "name": "level",
          "type": "uint256"
        },
        {
          "indexed": true,
          "internalType": "uint256",
          "name": "powerAmount",
          "type": "uint256"
        }
      ],
      "name": "nftPowerReward",
      "type": "event"
    },
    {
      "anonymous": false,
      "inputs": [
        {
          "indexed": true,
          "internalType": "address",
          "name": "account",
          "type": "address"
        },
        {
          "indexed": true,
          "internalType": "uint256",
          "name": "level",
          "type": "uint256"
        },
        {
          "indexed": true,
          "internalType": "uint256",
          "name": "tokenAmount",
          "type": "uint256"
        }
      ],
      "name": "nftTokenReward",
      "type": "event"
    },
    {
      "inputs": [],
      "name": "_amountDailyUp",
      "outputs": [
        {
          "internalType": "uint256",
          "name": "",
          "type": "uint256"
        }
      ],
      "stateMutability": "view",
      "type": "function"
    },
    {
      "inputs": [
        {
          "internalType": "address",
          "name": "",
          "type": "address"
        },
        {
          "internalType": "uint256",
          "name": "",
          "type": "uint256"
        }
      ],
      "name": "_binder",
      "outputs": [
        {
          "internalType": "address",
          "name": "",
          "type": "address"
        }
      ],
      "stateMutability": "view",
      "type": "function"
    },
    {
      "inputs": [],
      "name": "_fundAddress",
      "outputs": [
        {
          "internalType": "address",
          "name": "",
          "type": "address"
        }
      ],
      "stateMutability": "view",
      "type": "function"
    },
    {
      "inputs": [],
      "name": "_getReserves",
      "outputs": [
        {
          "internalType": "uint256",
          "name": "rUsdt",
          "type": "uint256"
        },
        {
          "internalType": "uint256",
          "name": "rToken",
          "type": "uint256"
        }
      ],
      "stateMutability": "view",
      "type": "function"
    },
    {
      "inputs": [
        {
          "internalType": "address",
          "name": "",
          "type": "address"
        }
      ],
      "name": "_inProject",
      "outputs": [
        {
          "internalType": "bool",
          "name": "",
          "type": "bool"
        }
      ],
      "stateMutability": "view",
      "type": "function"
    },
    {
      "inputs": [
        {
          "internalType": "address",
          "name": "",
          "type": "address"
        }
      ],
      "name": "_inviteAmount",
      "outputs": [
        {
          "internalType": "uint256",
          "name": "",
          "type": "uint256"
        }
      ],
      "stateMutability": "view",
      "type": "function"
    },
    {
      "inputs": [
        {
          "internalType": "uint256",
          "name": "",
          "type": "uint256"
        }
      ],
      "name": "_inviteFee",
      "outputs": [
        {
          "internalType": "uint256",
          "name": "",
          "type": "uint256"
        }
      ],
      "stateMutability": "view",
      "type": "function"
    },
    {
      "inputs": [
        {
          "internalType": "address",
          "name": "",
          "type": "address"
        }
      ],
      "name": "_invitor",
      "outputs": [
        {
          "internalType": "address",
          "name": "",
          "type": "address"
        }
      ],
      "stateMutability": "view",
      "type": "function"
    },
    {
      "inputs": [],
      "name": "_lastAmountRate",
      "outputs": [
        {
          "internalType": "uint256",
          "name": "",
          "type": "uint256"
        }
      ],
      "stateMutability": "view",
      "type": "function"
    },
    {
      "inputs": [],
      "name": "_lastDailyUpTime",
      "outputs": [
        {
          "internalType": "uint256",
          "name": "",
          "type": "uint256"
        }
      ],
      "stateMutability": "view",
      "type": "function"
    },
    {
      "inputs": [],
      "name": "_lp",
      "outputs": [
        {
          "internalType": "address",
          "name": "",
          "type": "address"
        }
      ],
      "stateMutability": "view",
      "type": "function"
    },
    {
      "inputs": [],
      "name": "_lpReleaseDuration",
      "outputs": [
        {
          "internalType": "uint256",
          "name": "",
          "type": "uint256"
        }
      ],
      "stateMutability": "view",
      "type": "function"
    },
    {
      "inputs": [],
      "name": "_nft",
      "outputs": [
        {
          "internalType": "contract INFT",
          "name": "",
          "type": "address"
        }
      ],
      "stateMutability": "view",
      "type": "function"
    },
    {
      "inputs": [],
      "name": "_pauseSell",
      "outputs": [
        {
          "internalType": "bool",
          "name": "",
          "type": "bool"
        }
      ],
      "stateMutability": "view",
      "type": "function"
    },
    {
      "inputs": [],
      "name": "_sellJoinRate",
      "outputs": [
        {
          "internalType": "uint256",
          "name": "",
          "type": "uint256"
        }
      ],
      "stateMutability": "view",
      "type": "function"
    },
    {
      "inputs": [],
      "name": "_sellLPReceiver",
      "outputs": [
        {
          "internalType": "address",
          "name": "",
          "type": "address"
        }
      ],
      "stateMutability": "view",
      "type": "function"
    },
    {
      "inputs": [],
      "name": "_sellNFTRate",
      "outputs": [
        {
          "internalType": "uint256",
          "name": "",
          "type": "uint256"
        }
      ],
      "stateMutability": "view",
      "type": "function"
    },
    {
      "inputs": [],
      "name": "_sellSelfRate",
      "outputs": [
        {
          "internalType": "uint256",
          "name": "",
          "type": "uint256"
        }
      ],
      "stateMutability": "view",
      "type": "function"
    },
    {
      "inputs": [],
      "name": "_speedUpDuration",
      "outputs": [
        {
          "internalType": "uint256",
          "name": "",
          "type": "uint256"
        }
      ],
      "stateMutability": "view",
      "type": "function"
    },
    {
      "inputs": [],
      "name": "_speedUpReceiver",
      "outputs": [
        {
          "internalType": "address",
          "name": "",
          "type": "address"
        }
      ],
      "stateMutability": "view",
      "type": "function"
    },
    {
      "inputs": [
        {
          "internalType": "address",
          "name": "",
          "type": "address"
        }
      ],
      "name": "_teamAmount",
      "outputs": [
        {
          "internalType": "uint256",
          "name": "",
          "type": "uint256"
        }
      ],
      "stateMutability": "view",
      "type": "function"
    },
    {
      "inputs": [
        {
          "internalType": "address",
          "name": "",
          "type": "address"
        }
      ],
      "name": "_teamNum",
      "outputs": [
        {
          "internalType": "uint256",
          "name": "",
          "type": "uint256"
        }
      ],
      "stateMutability": "view",
      "type": "function"
    },
    {
      "inputs": [
        {
          "internalType": "address",
          "name": "",
          "type": "address"
        }
      ],
      "name": "_userLPInfo",
      "outputs": [
        {
          "internalType": "uint256",
          "name": "lockAmount",
          "type": "uint256"
        },
        {
          "internalType": "uint256",
          "name": "calAmount",
          "type": "uint256"
        },
        {
          "internalType": "uint256",
          "name": "claimedAmount",
          "type": "uint256"
        },
        {
          "internalType": "uint256",
          "name": "lastReleaseTime",
          "type": "uint256"
        },
        {
          "internalType": "uint256",
          "name": "releaseInitAmount",
          "type": "uint256"
        },
        {
          "internalType": "uint256",
          "name": "releaseDuration",
          "type": "uint256"
        },
        {
          "internalType": "uint256",
          "name": "speedUpTime",
          "type": "uint256"
        }
      ],
      "stateMutability": "view",
      "type": "function"
    },
    {
      "inputs": [
        {
          "internalType": "address",
          "name": "account",
          "type": "address"
        },
        {
          "internalType": "uint256",
          "name": "amount",
          "type": "uint256"
        }
      ],
      "name": "addMintAmount",
      "outputs": [],
      "stateMutability": "nonpayable",
      "type": "function"
    },
    {
      "inputs": [
        {
          "internalType": "uint256",
          "name": "reward",
          "type": "uint256"
        }
      ],
      "name": "addTotalMintReward",
      "outputs": [],
      "stateMutability": "nonpayable",
      "type": "function"
    },
    {
      "inputs": [
        {
          "internalType": "address",
          "name": "account",
          "type": "address"
        },
        {
          "internalType": "uint256",
          "name": "amount",
          "type": "uint256"
        },
        {
          "internalType": "bool",
          "name": "calInvite",
          "type": "bool"
        }
      ],
      "name": "addUserAmount",
      "outputs": [],
      "stateMutability": "nonpayable",
      "type": "function"
    },
    {
      "inputs": [
        {
          "internalType": "address[]",
          "name": "users",
          "type": "address[]"
        },
        {
          "components": [
            {
              "internalType": "bool",
              "name": "isActive",
              "type": "bool"
            },
            {
              "internalType": "uint256",
              "name": "amount",
              "type": "uint256"
            },
            {
              "internalType": "uint256",
              "name": "rewardMintDebt",
              "type": "uint256"
            },
            {
              "internalType": "uint256",
              "name": "calMintReward",
              "type": "uint256"
            }
          ],
          "internalType": "struct MintPool.UserInfo[]",
          "name": "userInfos",
          "type": "tuple[]"
        }
      ],
      "name": "batchInsertUserInfo",
      "outputs": [],
      "stateMutability": "nonpayable",
      "type": "function"
    },
    {
      "inputs": [
        {
          "internalType": "address",
          "name": "account",
          "type": "address"
        },
        {
          "internalType": "address",
          "name": "invitor",
          "type": "address"
        }
      ],
      "name": "bindInvitor",
      "outputs": [],
      "stateMutability": "nonpayable",
      "type": "function"
    },
    {
      "inputs": [
        {
          "internalType": "uint256",
          "name": "userRewardLevel",
          "type": "uint256"
        },
        {
          "internalType": "uint256",
          "name": "amount",
          "type": "uint256"
        }
      ],
      "name": "calculateNFTReward",
      "outputs": [
        {
          "internalType": "uint256",
          "name": "",
          "type": "uint256"
        }
      ],
      "stateMutability": "pure",
      "type": "function"
    },
    {
      "inputs": [
        {
          "internalType": "address",
          "name": "invitor",
          "type": "address"
        }
      ],
      "name": "checkForLevelUp",
      "outputs": [],
      "stateMutability": "nonpayable",
      "type": "function"
    },
    {
      "inputs": [],
      "name": "claim",
      "outputs": [],
      "stateMutability": "nonpayable",
      "type": "function"
    },
    {
      "inputs": [
        {
          "internalType": "address",
          "name": "to",
          "type": "address"
        },
        {
          "internalType": "uint256",
          "name": "amount",
          "type": "uint256"
        }
      ],
      "name": "claimBalance",
      "outputs": [],
      "stateMutability": "nonpayable",
      "type": "function"
    },
    {
      "inputs": [],
      "name": "claimLP",
      "outputs": [],
      "stateMutability": "nonpayable",
      "type": "function"
    },
    {
      "inputs": [
        {
          "internalType": "address",
          "name": "token",
          "type": "address"
        },
        {
          "internalType": "address",
          "name": "to",
          "type": "address"
        },
        {
          "internalType": "uint256",
          "name": "amount",
          "type": "uint256"
        }
      ],
      "name": "claimToken",
      "outputs": [],
      "stateMutability": "nonpayable",
      "type": "function"
    },
    {
      "inputs": [],
      "name": "close",
      "outputs": [],
      "stateMutability": "nonpayable",
      "type": "function"
    },
    {
      "inputs": [
        {
          "internalType": "uint256",
          "name": "amount",
          "type": "uint256"
        },
        {
          "internalType": "uint256",
          "name": "minTokenAmount",
          "type": "uint256"
        },
        {
          "internalType": "address",
          "name": "invitor",
          "type": "address"
        }
      ],
      "name": "deposit",
      "outputs": [],
      "stateMutability": "nonpayable",
      "type": "function"
    },
    {
      "inputs": [
        {
          "internalType": "address",
          "name": "",
          "type": "address"
        }
      ],
      "name": "depositAmount",
      "outputs": [
        {
          "internalType": "uint256",
          "name": "",
          "type": "uint256"
        }
      ],
      "stateMutability": "view",
      "type": "function"
    },
    {
      "inputs": [],
      "name": "getBaseInfo",
      "outputs": [
        {
          "internalType": "address",
          "name": "usdt",
          "type": "address"
        },
        {
          "internalType": "uint256",
          "name": "usdtDecimals",
          "type": "uint256"
        },
        {
          "internalType": "address",
          "name": "mintRewardToken",
          "type": "address"
        },
        {
          "internalType": "uint256",
          "name": "mintRewardTokenDecimals",
          "type": "uint256"
        },
        {
          "internalType": "uint256",
          "name": "totalUsdt",
          "type": "uint256"
        },
        {
          "internalType": "uint256",
          "name": "totalAmount",
          "type": "uint256"
        },
        {
          "internalType": "uint256",
          "name": "lastDailyReward",
          "type": "uint256"
        },
        {
          "internalType": "uint256",
          "name": "dailyAmountRate",
          "type": "uint256"
        },
        {
          "internalType": "uint256",
          "name": "minAmount",
          "type": "uint256"
        },
        {
          "internalType": "address",
          "name": "defaultInvitor",
          "type": "address"
        },
        {
          "internalType": "bool",
          "name": "pauseJoin",
          "type": "bool"
        }
      ],
      "stateMutability": "view",
      "type": "function"
    },
    {
      "inputs": [
        {
          "internalType": "address",
          "name": "account",
          "type": "address"
        }
      ],
      "name": "getBinderLength",
      "outputs": [
        {
          "internalType": "uint256",
          "name": "",
          "type": "uint256"
        }
      ],
      "stateMutability": "view",
      "type": "function"
    },
    {
      "inputs": [
        {
          "internalType": "address",
          "name": "account",
          "type": "address"
        },
        {
          "internalType": "uint256",
          "name": "start",
          "type": "uint256"
        },
        {
          "internalType": "uint256",
          "name": "length",
          "type": "uint256"
        }
      ],
      "name": "getBinderList",
      "outputs": [
        {
          "internalType": "uint256",
          "name": "returnCount",
          "type": "uint256"
        },
        {
          "internalType": "address[]",
          "name": "binders",
          "type": "address[]"
        }
      ],
      "stateMutability": "view",
      "type": "function"
    },
    {
      "inputs": [
        {
          "internalType": "address",
          "name": "account",
          "type": "address"
        }
      ],
      "name": "getDirectList",
      "outputs": [
        {
          "internalType": "address[]",
          "name": "binders",
          "type": "address[]"
        },
        {
          "internalType": "uint256[]",
          "name": "teamAmounts",
          "type": "uint256[]"
        }
      ],
      "stateMutability": "view",
      "type": "function"
    },
    {
      "inputs": [
        {
          "internalType": "uint256",
          "name": "usdtAmount",
          "type": "uint256"
        }
      ],
      "name": "getJoinTokenAmountOut",
      "outputs": [
        {
          "internalType": "uint256",
          "name": "tokenAmount",
          "type": "uint256"
        }
      ],
      "stateMutability": "view",
      "type": "function"
    },
    {
      "inputs": [],
      "name": "getLPInfo",
      "outputs": [
        {
          "internalType": "uint256",
          "name": "totalLP",
          "type": "uint256"
        },
        {
          "internalType": "uint256",
          "name": "lockLP",
          "type": "uint256"
        },
        {
          "internalType": "uint256",
          "name": "speedUpMaxTime",
          "type": "uint256"
        },
        {
          "internalType": "uint256",
          "name": "speedCostUsdt",
          "type": "uint256"
        },
        {
          "internalType": "uint256",
          "name": "speedCostToken",
          "type": "uint256"
        }
      ],
      "stateMutability": "view",
      "type": "function"
    },
    {
      "inputs": [
        {
          "internalType": "address",
          "name": "account",
          "type": "address"
        }
      ],
      "name": "getPendingMintReward",
      "outputs": [
        {
          "internalType": "uint256",
          "name": "reward",
          "type": "uint256"
        }
      ],
      "stateMutability": "view",
      "type": "function"
    },
    {
      "inputs": [
        {
          "internalType": "uint256",
          "name": "tokenAmount",
          "type": "uint256"
        }
      ],
      "name": "getSellUsdtOut",
      "outputs": [
        {
          "internalType": "uint256",
          "name": "usdtAmount",
          "type": "uint256"
        },
        {
          "internalType": "uint256",
          "name": "selfUsdt",
          "type": "uint256"
        },
        {
          "internalType": "uint256",
          "name": "mintAmount",
          "type": "uint256"
        }
      ],
      "stateMutability": "view",
      "type": "function"
    },
    {
      "inputs": [
        {
          "internalType": "address",
          "name": "account",
          "type": "address"
        }
      ],
      "name": "getUserInfo",
      "outputs": [
        {
          "internalType": "uint256",
          "name": "amount",
          "type": "uint256"
        },
        {
          "internalType": "uint256",
          "name": "usdtBalance",
          "type": "uint256"
        },
        {
          "internalType": "uint256",
          "name": "usdtAllowance",
          "type": "uint256"
        },
        {
          "internalType": "uint256",
          "name": "pendingMintReward",
          "type": "uint256"
        },
        {
          "internalType": "uint256",
          "name": "inviteAmount",
          "type": "uint256"
        },
        {
          "internalType": "uint256",
          "name": "sellJoinAmount",
          "type": "uint256"
        },
        {
          "internalType": "uint256",
          "name": "teamNum",
          "type": "uint256"
        },
        {
          "internalType": "uint256",
          "name": "teamAmount",
          "type": "uint256"
        }
      ],
      "stateMutability": "view",
      "type": "function"
    },
    {
      "inputs": [
        {
          "internalType": "address",
          "name": "account",
          "type": "address"
        }
      ],
      "name": "getUserLPInfo",
      "outputs": [
        {
          "internalType": "uint256",
          "name": "lockAmount",
          "type": "uint256"
        },
        {
          "internalType": "uint256",
          "name": "calAmount",
          "type": "uint256"
        },
        {
          "internalType": "uint256",
          "name": "claimedAmount",
          "type": "uint256"
        },
        {
          "internalType": "uint256",
          "name": "lastReleaseTime",
          "type": "uint256"
        },
        {
          "internalType": "uint256",
          "name": "releaseInitAmount",
          "type": "uint256"
        },
        {
          "internalType": "uint256",
          "name": "releaseDuration",
          "type": "uint256"
        },
        {
          "internalType": "uint256",
          "name": "speedUpTime",
          "type": "uint256"
        },
        {
          "internalType": "uint256",
          "name": "tokenBalance",
          "type": "uint256"
        },
        {
          "internalType": "uint256",
          "name": "tokenAllowance",
          "type": "uint256"
        }
      ],
      "stateMutability": "view",
      "type": "function"
    },
    {
      "inputs": [
        {
          "internalType": "address",
          "name": "account",
          "type": "address"
        }
      ],
      "name": "getUserNFTLevel",
      "outputs": [
        {
          "internalType": "uint256",
          "name": "",
          "type": "uint256"
        }
      ],
      "stateMutability": "view",
      "type": "function"
    },
    {
      "inputs": [
        {
          "internalType": "address",
          "name": "swapRouter",
          "type": "address"
        },
        {
          "internalType": "address",
          "name": "usdt",
          "type": "address"
        },
        {
          "internalType": "address",
          "name": "mintRewardToken",
          "type": "address"
        },
        {
          "internalType": "address",
          "name": "nft",
          "type": "address"
        },
        {
          "internalType": "address",
          "name": "defaultInvitor",
          "type": "address"
        },
        {
          "internalType": "address",
          "name": "fundAddress",
          "type": "address"
        },
        {
          "internalType": "address",
          "name": "_owner",
          "type": "address"
        }
      ],
      "name": "initialize",
      "outputs": [],
      "stateMutability": "nonpayable",
      "type": "function"
    },
    {
      "inputs": [],
      "name": "open",
      "outputs": [],
      "stateMutability": "nonpayable",
      "type": "function"
    },
    {
      "inputs": [],
      "name": "owner",
      "outputs": [
        {
          "internalType": "address",
          "name": "",
          "type": "address"
        }
      ],
      "stateMutability": "view",
      "type": "function"
    },
    {
      "inputs": [],
      "name": "poolInfo",
      "outputs": [
        {
          "internalType": "uint256",
          "name": "totalAmount",
          "type": "uint256"
        },
        {
          "internalType": "uint256",
          "name": "accMintPerShare",
          "type": "uint256"
        },
        {
          "internalType": "uint256",
          "name": "accMintReward",
          "type": "uint256"
        },
        {
          "internalType": "uint256",
          "name": "mintPerSec",
          "type": "uint256"
        },
        {
          "internalType": "uint256",
          "name": "lastMintTime",
          "type": "uint256"
        },
        {
          "internalType": "uint256",
          "name": "totalMintReward",
          "type": "uint256"
        }
      ],
      "stateMutability": "view",
      "type": "function"
    },
    {
      "inputs": [
        {
          "internalType": "address",
          "name": "",
          "type": "address"
        }
      ],
      "name": "referralAmount",
      "outputs": [
        {
          "internalType": "uint256",
          "name": "",
          "type": "uint256"
        }
      ],
      "stateMutability": "view",
      "type": "function"
    },
    {
      "inputs": [
        {
          "internalType": "address",
          "name": "",
          "type": "address"
        }
      ],
      "name": "referralReward",
      "outputs": [
        {
          "internalType": "uint256",
          "name": "",
          "type": "uint256"
        }
      ],
      "stateMutability": "view",
      "type": "function"
    },
    {
      "inputs": [
        {
          "internalType": "address",
          "name": "",
          "type": "address"
        },
        {
          "internalType": "uint256",
          "name": "",
          "type": "uint256"
        }
      ],
      "name": "referrals",
      "outputs": [
        {
          "internalType": "address",
          "name": "",
          "type": "address"
        }
      ],
      "stateMutability": "view",
      "type": "function"
    },
    {
      "inputs": [],
      "name": "renounceOwnership",
      "outputs": [],
      "stateMutability": "nonpayable",
      "type": "function"
    },
    {
      "inputs": [
        {
          "internalType": "uint256",
          "name": "tokenAmount",
          "type": "uint256"
        }
      ],
      "name": "sell",
      "outputs": [],
      "stateMutability": "nonpayable",
      "type": "function"
    },
    {
      "inputs": [
        {
          "internalType": "uint256",
          "name": "r",
          "type": "uint256"
        }
      ],
      "name": "setAmountDailyUp",
      "outputs": [],
      "stateMutability": "nonpayable",
      "type": "function"
    },
    {
      "inputs": [
        {
          "internalType": "address",
          "name": "adr",
          "type": "address"
        }
      ],
      "name": "setDefaultInvitor",
      "outputs": [],
      "stateMutability": "nonpayable",
      "type": "function"
    },
    {
      "inputs": [
        {
          "internalType": "address",
          "name": "a",
          "type": "address"
        }
      ],
      "name": "setFundAddress",
      "outputs": [],
      "stateMutability": "nonpayable",
      "type": "function"
    },
    {
      "inputs": [
        {
          "internalType": "address",
          "name": "adr",
          "type": "address"
        },
        {
          "internalType": "bool",
          "name": "enable",
          "type": "bool"
        }
      ],
      "name": "setInProject",
      "outputs": [],
      "stateMutability": "nonpayable",
      "type": "function"
    },
    {
      "inputs": [
        {
          "internalType": "uint256",
          "name": "i",
          "type": "uint256"
        },
        {
          "internalType": "uint256",
          "name": "fee",
          "type": "uint256"
        }
      ],
      "name": "setInviteFee",
      "outputs": [],
      "stateMutability": "nonpayable",
      "type": "function"
    },
    {
      "inputs": [
        {
          "internalType": "uint256",
          "name": "d",
          "type": "uint256"
        }
      ],
      "name": "setLPReleaseDuration",
      "outputs": [],
      "stateMutability": "nonpayable",
      "type": "function"
    },
    {
      "inputs": [
        {
          "internalType": "uint256",
          "name": "r",
          "type": "uint256"
        }
      ],
      "name": "setLastAmountRate",
      "outputs": [],
      "stateMutability": "nonpayable",
      "type": "function"
    },
    {
      "inputs": [
        {
          "internalType": "uint256",
          "name": "t",
          "type": "uint256"
        }
      ],
      "name": "setLastDailyUpTime",
      "outputs": [],
      "stateMutability": "nonpayable",
      "type": "function"
    },
    {
      "inputs": [
        {
          "internalType": "uint256",
          "name": "mintPerSec",
          "type": "uint256"
        }
      ],
      "name": "setMintPerSec",
      "outputs": [],
      "stateMutability": "nonpayable",
      "type": "function"
    },
    {
      "inputs": [
        {
          "internalType": "address",
          "name": "_nftAddress",
          "type": "address"
        }
      ],
      "name": "setNFTAddress",
      "outputs": [],
      "stateMutability": "nonpayable",
      "type": "function"
    },
    {
      "inputs": [
        {
          "internalType": "bool",
          "name": "p",
          "type": "bool"
        }
      ],
      "name": "setPauseSell",
      "outputs": [],
      "stateMutability": "nonpayable",
      "type": "function"
    },
    {
      "inputs": [
        {
          "internalType": "address",
          "name": "a",
          "type": "address"
        }
      ],
      "name": "setSeedUpReceiver",
      "outputs": [],
      "stateMutability": "nonpayable",
      "type": "function"
    },
    {
      "inputs": [
        {
          "internalType": "uint256",
          "name": "r",
          "type": "uint256"
        }
      ],
      "name": "setSellJoinRate",
      "outputs": [],
      "stateMutability": "nonpayable",
      "type": "function"
    },
    {
      "inputs": [
        {
          "internalType": "address",
          "name": "a",
          "type": "address"
        }
      ],
      "name": "setSellLPReceiver",
      "outputs": [],
      "stateMutability": "nonpayable",
      "type": "function"
    },
    {
      "inputs": [
        {
          "internalType": "uint256",
          "name": "r",
          "type": "uint256"
        }
      ],
      "name": "setSellNFTRate",
      "outputs": [],
      "stateMutability": "nonpayable",
      "type": "function"
    },
    {
      "inputs": [
        {
          "internalType": "uint256",
          "name": "r",
          "type": "uint256"
        }
      ],
      "name": "setSellSelfRate",
      "outputs": [],
      "stateMutability": "nonpayable",
      "type": "function"
    },
    {
      "inputs": [
        {
          "internalType": "uint256",
          "name": "c",
          "type": "uint256"
        }
      ],
      "name": "setSpeedUpCost",
      "outputs": [],
      "stateMutability": "nonpayable",
      "type": "function"
    },
    {
      "inputs": [
        {
          "internalType": "uint256",
          "name": "d",
          "type": "uint256"
        }
      ],
      "name": "setSpeedUpDuration",
      "outputs": [],
      "stateMutability": "nonpayable",
      "type": "function"
    },
    {
      "inputs": [
        {
          "internalType": "uint256",
          "name": "mt",
          "type": "uint256"
        }
      ],
      "name": "setSpeedUpMaxTime",
      "outputs": [],
      "stateMutability": "nonpayable",
      "type": "function"
    },
    {
      "inputs": [
        {
          "internalType": "address",
          "name": "account",
          "type": "address"
        },
        {
          "internalType": "uint256",
          "name": "level",
          "type": "uint256"
        }
      ],
      "name": "setUserLevel",
      "outputs": [],
      "stateMutability": "nonpayable",
      "type": "function"
    },
    {
      "inputs": [
        {
          "internalType": "uint256",
          "name": "maxTokenAmount",
          "type": "uint256"
        }
      ],
      "name": "speedUpLP",
      "outputs": [],
      "stateMutability": "nonpayable",
      "type": "function"
    },
    {
      "inputs": [
        {
          "internalType": "address",
          "name": "",
          "type": "address"
        }
      ],
      "name": "superAccount",
      "outputs": [
        {
          "internalType": "address",
          "name": "",
          "type": "address"
        }
      ],
      "stateMutability": "view",
      "type": "function"
    },
    {
      "inputs": [
        {
          "internalType": "address",
          "name": "newOwner",
          "type": "address"
        }
      ],
      "name": "transferOwnership",
      "outputs": [],
      "stateMutability": "nonpayable",
      "type": "function"
    },
    {
      "inputs": [],
      "name": "updateDailyUpRate",
      "outputs": [],
      "stateMutability": "nonpayable",
      "type": "function"
    },
    {
      "inputs": [
        {
          "internalType": "address",
          "name": "",
          "type": "address"
        }
      ],
      "name": "userInfo",
      "outputs": [
        {
          "internalType": "bool",
          "name": "isActive",
          "type": "bool"
        },
        {
          "internalType": "uint256",
          "name": "amount",
          "type": "uint256"
        },
        {
          "internalType": "uint256",
          "name": "rewardMintDebt",
          "type": "uint256"
        },
        {
          "internalType": "uint256",
          "name": "calMintReward",
          "type": "uint256"
        }
      ],
      "stateMutability": "view",
      "type": "function"
    },
    {
      "inputs": [
        {
          "internalType": "address",
          "name": "",
          "type": "address"
        }
      ],
      "name": "userLevel",
      "outputs": [
        {
          "internalType": "uint256",
          "name": "",
          "type": "uint256"
        }
      ],
      "stateMutability": "view",
      "type": "function"
    },
    {
      "inputs": [],
      "name": "v1Amount",
      "outputs": [
        {
          "internalType": "uint256",
          "name": "",
          "type": "uint256"
        }
      ],
      "stateMutability": "view",
      "type": "function"
    },
    {
      "inputs": [],
      "name": "v2Amount",
      "outputs": [
        {
          "internalType": "uint256",
          "name": "",
          "type": "uint256"
        }
      ],
      "stateMutability": "view",
      "type": "function"
    },
    {
      "inputs": [],
      "name": "v3Amount",
      "outputs": [
        {
          "internalType": "uint256",
          "name": "",
          "type": "uint256"
        }
      ],
      "stateMutability": "view",
      "type": "function"
    },
    {
      "inputs": [],
      "name": "v4Amount",
      "outputs": [
        {
          "internalType": "uint256",
          "name": "",
          "type": "uint256"
        }
      ],
      "stateMutability": "view",
      "type": "function"
    },
    {
      "inputs": [],
      "name": "v5Amount",
      "outputs": [
        {
          "internalType": "uint256",
          "name": "",
          "type": "uint256"
        }
      ],
      "stateMutability": "view",
      "type": "function"
    },
    {
      "stateMutability": "payable",
      "type": "receive"
    }
  ],
  "transactionHash": "0x156d0da8ccc3a347bc7fc2ac894c149403222bc5b31bc2dbcf5783b22993a16e",
  "args": [],
  "solcInputHash": "4765f952901190a43a4844bfb90ab4a9",
  "bytecode": "0x610180604052600360805268878678326eac90000060a05269043c33c193756480000060c052690a968163f0a57b40000060e052691fc3842bd1f071c00000610100526969e10de76676d0800000610120526127106101405262015180610160523480156200006d57600080fd5b5062000079336200007f565b620000cf565b600080546001600160a01b038381166001600160a01b0319831681178455604051919092169283917f8be0079c531659141344cd1fd0a4f28419497f9722a3daafe3b4186f6b6457e09190a35050565b60805160a05160c05160e05161010051610120516101405161016051615fc9620001976000396000818161170c015281816135f5015261508901526000818161278501528181613664015281816139fb015281816150ed0152818161533e015261553801526000818161058b0152612994015260008181610725015261296e015260008181610bfa01526129480152600081816108260152612922015260008181611002015281816128f50152614f2c01526000818161405f015261424c0152615fc96000f3fe6080604052600436106104ce5760003560e01c806385dc300411610276578063b79190451161014f578063e4849b32116100c1578063f0c52e4c11610085578063f0c52e4c1461120d578063f12e6eb71461124a578063f2fde38b1461126a578063f48544c31461128a578063fcfff16f146112a0578063fd3cf885146112b557600080fd5b8063e4849b3214611147578063e5d6563314611167578063e697b5d814611197578063e9f22169146111b7578063ec747edb146111d757600080fd5b8063cef6632d11610113578063cef6632d1461109a578063d5559e21146110c7578063dde40dda146110dd578063de44391a146110fd578063e20ae39214611112578063e3ca487a1461112757600080fd5b8063b791904514610fd0578063bc980f8c14610ff0578063cc396be114611024578063ce4d9f151461105a578063ce5611431461108457600080fd5b8063a5b64e5e116101e8578063b1a8c459116101ac578063b1a8c45914610f1a578063b272d7c314610f3a578063b38dcd7114610f5a578063b612511014610f70578063b64cf2d914610f90578063b75265d314610fb057600080fd5b8063a5b64e5e14610e5c578063a779fe9214610e7c578063aa1a8c6014610e92578063aa8b38d914610ecd578063ac86af9414610eed57600080fd5b806394f738a21161023a57806394f738a214610d345780639551ae4414610d5457806395d4c7bb14610dcf57806398300e1814610dfc578063a40a789c14610e1c578063a4e48ed814610e3c57600080fd5b806385dc300414610c895780638a56d30614610ca95780638da5cb5b14610cc95780638dbdbe6d14610ce757806393b556ad14610d0757600080fd5b80634e71d92d116103a85780636ca9ee1b1161031a5780637d3643b5116102de5780637d3643b514610b9a5780637f15b36b14610bc8578063815a7beb14610be85780638230af5a14610c1c578063834f8f5514610c3c5780638593b2b114610c6957600080fd5b80636ca9ee1b14610af45780636e18b6db14610b0a5780636ec42c2c14610b37578063715018a614610b655780637512474e14610b7a57600080fd5b80635f84aecd1161036c5780635f84aecd146109ed5780636386c1c714610a03578063681982a714610a5e578063692c7bf714610a7e57806369d0373814610a9e57806369da132614610abe57600080fd5b80634e71d92d1461091457806350f62da7146109295780635239a993146109555780635a2f3d09146109755780635ca8e3f2146109cd57600080fd5b80631e8074b511610441578063358764761161040557806335876476146107d45780633a0dde51146107f45780633bf5f934146108145780633c6369fc1461084857806343d726d6146108d5578063449fe500146108ea57600080fd5b80631e8074b51461071357806326e641ea14610747578063280e31cc146107675780632e0dd9c71461079457806333f5780e146107b457600080fd5b80630c28525d116104935780630c28525d146105bb578063119f3eb6146105db578063125bfb661461063f5780631703dd121461065f5780631959a002146106755780631b967ad4146106dd57600080fd5b80625a3ff1146104da578063029a0c9d146105175780630600ffc1146105395780630681c58d146105595780630b2ef5f71461057957600080fd5b366104d557005b600080fd5b3480156104e657600080fd5b50600d546104fa906001600160a01b031681565b6040516001600160a01b0390911681526020015b60405180910390f35b34801561052357600080fd5b50610537610532366004615651565b6112d5565b005b34801561054557600080fd5b5061053761055436600461568d565b611337565b34801561056557600080fd5b50610537610574366004615651565b6113aa565b34801561058557600080fd5b506105ad7f000000000000000000000000000000000000000000000000000000000000000081565b60405190815260200161050e565b3480156105c757600080fd5b506105376105d6366004615651565b611464565b3480156105e757600080fd5b506105fb6105f63660046156cf565b61150d565b60408051998a5260208a0198909852968801959095526060870193909352608086019190915260a085015260c084015260e08301526101008201526101200161050e565b34801561064b57600080fd5b5061053761065a3660046156f3565b611641565b34801561066b57600080fd5b506105ad60255481565b34801561068157600080fd5b506106bb6106903660046156cf565b600760205260009081526040902080546001820154600283015460039093015460ff90921692909184565b604080519415158552602085019390935291830152606082015260800161050e565b3480156106e957600080fd5b506105ad6106f83660046156cf565b6001600160a01b031660009081526010602052604090205490565b34801561071f57600080fd5b506105ad7f000000000000000000000000000000000000000000000000000000000000000081565b34801561075357600080fd5b50610537610762366004615651565b6116a0565b34801561077357600080fd5b506105ad6107823660046156cf565b60226020526000908152604090205481565b3480156107a057600080fd5b506105376107af366004615651565b611739565b3480156107c057600080fd5b506105376107cf366004615734565b611792565b3480156107e057600080fd5b506105376107ef366004615760565b611802565b34801561080057600080fd5b5061053761080f366004615651565b611bbe565b34801561082057600080fd5b506105ad7f000000000000000000000000000000000000000000000000000000000000000081565b34801561085457600080fd5b506108a06108633660046156cf565b6008602052600090815260409020805460018201546002830154600384015460048501546005860154600690960154949593949293919290919087565b604080519788526020880196909652948601939093526060850191909152608084015260a083015260c082015260e00161050e565b3480156108e157600080fd5b50610537611c17565b3480156108f657600080fd5b506016546109049060ff1681565b604051901515815260200161050e565b34801561092057600080fd5b50610537611c7a565b34801561093557600080fd5b506105ad6109443660046156cf565b602080526000908152604090205481565b34801561096157600080fd5b506105ad6109703660046157f6565b611d2a565b34801561098157600080fd5b506001546002546003546004546005546006546109a095949392919086565b604080519687526020870195909552938501929092526060840152608083015260a082015260c00161050e565b3480156109d957600080fd5b506105376109e83660046157f6565b611d65565b3480156109f957600080fd5b506105ad60265481565b348015610a0f57600080fd5b50610a23610a1e3660046156cf565b611dcb565b604080519889526020890197909752958701949094526060860192909252608085015260a084015260c083015260e08201526101000161050e565b348015610a6a57600080fd5b50610537610a793660046156cf565b611f3b565b348015610a8a57600080fd5b50610537610a99366004615818565b611fb1565b348015610aaa57600080fd5b50610537610ab93660046156cf565b612030565b348015610aca57600080fd5b506104fa610ad93660046156cf565b600f602052600090815260409020546001600160a01b031681565b348015610b0057600080fd5b506105ad60275481565b348015610b1657600080fd5b506105ad610b253660046156cf565b60216020526000908152604090205481565b348015610b4357600080fd5b50610b57610b52366004615851565b6120a6565b60405161050e9291906158ca565b348015610b7157600080fd5b506105376121c5565b348015610b8657600080fd5b50610537610b95366004615a23565b6121d9565b348015610ba657600080fd5b50610bba610bb53660046156cf565b61231d565b60405161050e929190615ae5565b348015610bd457600080fd5b50610537610be3366004615651565b6124ac565b348015610bf457600080fd5b506105ad7f000000000000000000000000000000000000000000000000000000000000000081565b348015610c2857600080fd5b50601c546104fa906001600160a01b031681565b348015610c4857600080fd5b506105ad610c573660046156cf565b60146020526000908152604090205481565b348015610c7557600080fd5b506104fa610c84366004615734565b612505565b348015610c9557600080fd5b50610537610ca43660046156cf565b61253d565b348015610cb557600080fd5b506105ad610cc43660046156cf565b6125b3565b348015610cd557600080fd5b506000546001600160a01b03166104fa565b348015610cf357600080fd5b50610537610d02366004615b3c565b6126a8565b348015610d1357600080fd5b506105ad610d223660046156cf565b60156020526000908152604090205481565b348015610d4057600080fd5b50610537610d4f3660046156cf565b61287c565b348015610d6057600080fd5b50610d69612a00565b604080516001600160a01b039c8d168152602081019b909b52988b16988a01989098526060890196909652608088019490945260a087019290925260c086015260e08501526101008401529092166101208201529015156101408201526101600161050e565b348015610ddb57600080fd5b506105ad610dea3660046156cf565b601f6020526000908152604090205481565b348015610e0857600080fd5b50600e546104fa906001600160a01b031681565b348015610e2857600080fd5b506105ad610e37366004615651565b612a61565b348015610e4857600080fd5b50610537610e57366004615651565b612b8d565b348015610e6857600080fd5b50610537610e77366004615651565b612bee565b348015610e8857600080fd5b506105ad60295481565b348015610e9e57600080fd5b50610eb2610ead366004615651565b612ed3565b6040805193845260208401929092529082015260600161050e565b348015610ed957600080fd5b50610537610ee8366004615734565b613056565b348015610ef957600080fd5b506105ad610f083660046156cf565b60136020526000908152604090205481565b348015610f2657600080fd5b50610537610f35366004615651565b6130b8565b348015610f4657600080fd5b50601a546104fa906001600160a01b031681565b348015610f6657600080fd5b506105ad60195481565b348015610f7c57600080fd5b50610537610f8b3660046156cf565b613126565b348015610f9c57600080fd5b50610537610fab366004615b6a565b61319c565b348015610fbc57600080fd5b50610537610fcb3660046156cf565b613203565b348015610fdc57600080fd5b50610537610feb366004615651565b613291565b348015610ffc57600080fd5b506105ad7f000000000000000000000000000000000000000000000000000000000000000081565b34801561103057600080fd5b506104fa61103f3660046156cf565b601e602052600090815260409020546001600160a01b031681565b34801561106657600080fd5b5061106f613300565b6040805192835260208301919091520161050e565b34801561109057600080fd5b506105ad60175481565b3480156110a657600080fd5b506105ad6110b5366004615651565b60116020526000908152604090205481565b3480156110d357600080fd5b506105ad60245481565b3480156110e957600080fd5b50602a546104fa906001600160a01b031681565b34801561110957600080fd5b506105376133c8565b34801561111e57600080fd5b506105376135e4565b34801561113357600080fd5b50610537611142366004615651565b6136b4565b34801561115357600080fd5b50610537611162366004615651565b61370d565b34801561117357600080fd5b506109046111823660046156cf565b602d6020526000908152604090205460ff1681565b3480156111a357600080fd5b506104fa6111b2366004615734565b613be7565b3480156111c357600080fd5b506105376111d2366004615734565b613c03565b3480156111e357600080fd5b506105ad6111f23660046156cf565b6001600160a01b031660009081526022602052604090205490565b34801561121957600080fd5b50611222613c82565b604080519586526020860194909452928401919091526060830152608082015260a00161050e565b34801561125657600080fd5b50610537611265366004615b87565b613d8b565b34801561127657600080fd5b506105376112853660046156cf565b613dd9565b34801561129657600080fd5b506105ad60185481565b3480156112ac57600080fd5b50610537613e4f565b3480156112c157600080fd5b506105376112d0366004615651565b613ebe565b601c546001600160a01b03163314806112f857506000546001600160a01b031633145b8061130d5750600e546001600160a01b031633145b6113325760405162461bcd60e51b815260040161132990615bb5565b60405180910390fd5b602455565b336000908152602d602052604090205460ff168061135f57506000546001600160a01b031633145b61137b5760405162461bcd60e51b815260040161132990615bde565b6012546113929084906001600160a01b0316613f17565b61139a6140f0565b6113a58383836141d3565b505050565b601c546001600160a01b03163314806113cd57506000546001600160a01b031633145b806113e25750600e546001600160a01b031633145b6113fe5760405162461bcd60e51b815260040161132990615bb5565b60188190556019546017546127109190611419908490615c1a565b6114239190615c1a565b11156114615760405162461bcd60e51b815260206004820152600d60248201526c72617465206f766572666c6f7760981b6044820152606401611329565b50565b601c546001600160a01b031633148061148757506000546001600160a01b031633145b8061149c5750600e546001600160a01b031633145b6114b85760405162461bcd60e51b815260040161132990615bb5565b600081116115085760405162461bcd60e51b815260206004820152601960248201527f72656c65617365206475726174696f6e206d757374203e2030000000000000006044820152606401611329565b602755565b6001600160a01b03818116600081815260086020526040808220805460018201546002830154600480850154600586015460068701546003880154600c5499516370a0823160e01b81529485019b909b52959a94999398939791969095948493919216906370a0823190602401602060405180830381865afa158015611597573d6000803e3d6000fd5b505050506040513d601f19601f820116820180604052508101906115bb9190615c32565b600c54604051636eb1769f60e11b81526001600160a01b038e8116600483015230602483015292955091169063dd62ed3e90604401602060405180830381865afa15801561160d573d6000803e3d6000fd5b505050506040513d601f19601f820116820180604052508101906116319190615c32565b9150509193959799909294969850565b601c546001600160a01b031633148061166457506000546001600160a01b031633145b806116795750600e546001600160a01b031633145b6116955760405162461bcd60e51b815260040161132990615bb5565b6113a58383836143b7565b336000908152602d602052604090205460ff16806116c857506000546001600160a01b031633145b6116e45760405162461bcd60e51b815260040161132990615bde565b6116ec6140f0565b80600160050160008282546117019190615c1a565b9091555061173190507f000000000000000000000000000000000000000000000000000000000000000082615c4b565b600455602e55565b601c546001600160a01b031633148061175c57506000546001600160a01b031633145b806117715750600e546001600160a01b031633145b61178d5760405162461bcd60e51b815260040161132990615bb5565b602555565b601c546001600160a01b03163314806117b557506000546001600160a01b031633145b806117ca5750600e546001600160a01b031633145b6117e65760405162461bcd60e51b815260040161132990615bb5565b6001600160a01b03909116600090815260226020526040902055565b600054600160a81b900460ff161580801561182a57506000546001600160a01b90910460ff16105b8061184b5750303b15801561184b5750600054600160a01b900460ff166001145b6118ae5760405162461bcd60e51b815260206004820152602e60248201527f496e697469616c697a61626c653a20636f6e747261637420697320616c72656160448201526d191e481a5b9a5d1a585b1a5e995960921b6064820152608401611329565b6000805460ff60a01b1916600160a01b17905580156118db576000805460ff60a81b1916600160a81b1790555b6023805460ff19166001179055600980546001600160a01b03808b166001600160a01b03199283168117909355600a80548b8316908416179055678ac7230489e80000600b55600e8054898316908416179055600c8054918a16919092161790556040805163c45a015560e01b8152905163c45a0155916004808201926020929091908290030181865afa158015611977573d6000803e3d6000fd5b505050506040513d601f19601f8201168201806040525081019061199b9190615c6d565b60405163e6a4390560e01b81526001600160a01b0389811660048301528881166024830152919091169063e6a4390590604401602060405180830381865afa1580156119eb573d6000803e3d6000fd5b505050506040513d601f19601f82011682018060405250810190611a0f9190615c6d565b600d80546001600160a01b039283166001600160a01b0319918216179091554260055560128054928716929091168217905560009081526007602090815260408220805460ff19166001179055601190526103207f4ad3b33220dddc71b994a52d72c06b10862965f7d926534c05c00fb7e819e7b7556101f47f17bc176d2408558f6e4111feebc3cab4e16b63e967be91cde721f4c8a488b552556002905261012c7f08037d7b151cc412d25674a4e66b334d9ae9d2e5517a7feaae5cdb828bf1c62855681043561a8829300000602855611aed87896000196144ed565b611afa86896000196144ed565b601a80546001600160a01b0385166001600160a01b03199182168117909255601c805482169092179091556003602b55602a805490911661dead179055611388601755610fa06018556101f46019556127106025556127746026556276a700602755620d2f00602955611b6c826145f0565b8015611bb4576000805460ff60a81b19169055604051600181527f7f26b83ff96e1f2b6a682f133852f6798a09c465da95921460cefb38474024989060200160405180910390a15b5050505050505050565b601c546001600160a01b0316331480611be157506000546001600160a01b031633145b80611bf65750600e546001600160a01b031633145b611c125760405162461bcd60e51b815260040161132990615bb5565b602b55565b601c546001600160a01b0316331480611c3a57506000546001600160a01b031633145b80611c4f5750600e546001600160a01b031633145b611c6b5760405162461bcd60e51b815260040161132990615bb5565b6023805460ff19166001179055565b336000908152600760205260409020611c94816001614640565b60038101548015611cbe57600c54611cb6906001600160a01b031633836143b7565b600060038301555b600c60009054906101000a90046001600160a01b03166001600160a01b0316632e05661b6040518163ffffffff1660e01b8152600401600060405180830381600087803b158015611d0e57600080fd5b505af1158015611d22573d6000803e3d6000fd5b505050505050565b6000821580611d395750600583115b15611d4657506000611d5f565b6064611d528484615c8a565b611d5c9190615c4b565b90505b92915050565b601c546001600160a01b0316331480611d8857506000546001600160a01b031633145b80611d9d5750600e546001600160a01b031633145b611db95760405162461bcd60e51b815260040161132990615bb5565b60009182526011602052604090912055565b6001600160a01b038181166000818152600760205260408082206001810154600a5492516370a0823160e01b8152600481019590955294929384938493849384938493849316906370a0823190602401602060405180830381865afa158015611e38573d6000803e3d6000fd5b505050506040513d601f19601f82011682018060405250810190611e5c9190615c32565b600a54604051636eb1769f60e11b81526001600160a01b038d81166004830152306024830152929a5091169063dd62ed3e90604401602060405180830381865afa158015611eae573d6000803e3d6000fd5b505050506040513d601f19601f82011682018060405250810190611ed29190615c32565b96508060030154611ee28b6125b3565b611eec9190615c1a565b6001600160a01b03909a16600090815260136020908152604080832054601b8352818420546015845282852054601490945291909320549b9d9a9c999b999a9299909850909650945092505050565b601c546001600160a01b0316331480611f5e57506000546001600160a01b031633145b80611f735750600e546001600160a01b031633145b611f8f5760405162461bcd60e51b815260040161132990615bb5565b602a80546001600160a01b0319166001600160a01b0392909216919091179055565b601c546001600160a01b0316331480611fd457506000546001600160a01b031633145b80611fe95750600e546001600160a01b031633145b6120055760405162461bcd60e51b815260040161132990615bb5565b6001600160a01b03919091166000908152602d60205260409020805460ff1916911515919091179055565b601c546001600160a01b031633148061205357506000546001600160a01b031633145b806120685750600e546001600160a01b031633145b6120845760405162461bcd60e51b815260040161132990615bb5565b600e80546001600160a01b0319166001600160a01b0392909216919091179055565b6001600160a01b03831660009081526010602052604081208054606091908484036120cf578094505b8493508467ffffffffffffffff8111156120eb576120eb6158e3565b604051908082528060200260200182016040528015612114578160200160208202803683370190505b5092506000865b6121258789615c1a565b8110156121b85782811061213e575093506121bd915050565b83818154811061215057612150615ca9565b9060005260206000200160009054906101000a90046001600160a01b031685838151811061218057612180615ca9565b6001600160a01b0390921660209283029190910190910152816121a281615cbf565b92505080806121b090615cbf565b91505061211b565b505050505b935093915050565b6121cd6146c5565b6121d760006145f0565b565b601c546001600160a01b03163314806121fc57506000546001600160a01b031633145b806122115750600e546001600160a01b031633145b61222d5760405162461bcd60e51b815260040161132990615bb5565b805182511461227e5760405162461bcd60e51b815260206004820152601a60248201527f4172726179206c656e6774687320646f206e6f74206d617463680000000000006044820152606401611329565b60005b82518110156113a55781818151811061229c5761229c615ca9565b6020026020010151600760008584815181106122ba576122ba615ca9565b6020908102919091018101516001600160a01b031682528181019290925260409081016000208351815460ff191690151517815591830151600183015582015160028201556060909101516003909101558061231581615cbf565b915050612281565b6001600160a01b0381166000908152601d60205260409020805460609182918067ffffffffffffffff811115612355576123556158e3565b60405190808252806020026020018201604052801561237e578160200160208202803683370190505b5093508067ffffffffffffffff81111561239a5761239a6158e3565b6040519080825280602002602001820160405280156123c3578160200160208202803683370190505b5092506000805b828110156124a3578281106123e25750505050915091565b60008482815481106123f6576123f6615ca9565b9060005260206000200160009054906101000a90046001600160a01b031690508087848151811061242957612429615ca9565b6001600160a01b039283166020918202929092018101919091529082166000908152601f82526040808220549280529020546124659190615c1a565b86848151811061247757612477615ca9565b60209081029190910101528261248c81615cbf565b93505050808061249b90615cbf565b9150506123ca565b50505050915091565b601c546001600160a01b03163314806124cf57506000546001600160a01b031633145b806124e45750600e546001600160a01b031633145b6125005760405162461bcd60e51b815260040161132990615bb5565b602855565b6010602052816000526040600020818154811061252157600080fd5b6000918252602090912001546001600160a01b03169150829050565b601c546001600160a01b031633148061256057506000546001600160a01b031633145b806125755750600e546001600160a01b031633145b6125915760405162461bcd60e51b815260040161132990615bb5565b601c80546001600160a01b0319166001600160a01b0392909216919091179055565b6001600160a01b0381166000908152600760205260408120600181810154909190156126a157600482015442908082111561269e5760006125f48284615cd8565b85600301546126039190615c8a565b6005860154600287015491925090600081831161262157600061262b565b61262b8284615cd8565b905080841161263a578361263c565b805b6002880154895491955090670de0b6b3a76400009061265b8783615c8a565b6126659190615c4b565b8a600101546126749190615c1a565b89600101546126839190615c8a565b61268d9190615c4b565b6126979190615cd8565b9850505050505b50505b5050919050565b60235460ff16156126eb5760405162461bcd60e51b815260206004820152600d60248201526c6465706f73697420706175736560981b6044820152606401611329565b600b5483101561272f5760405162461bcd60e51b815260206004820152600f60248201526e6465706f73697420746f6f206c6f7760881b6044820152606401611329565b3383602c60008282546127429190615c1a565b9091555061275290508183613f17565b600a5461276a906001600160a01b031682308761471f565b612777818585600161484b565b61277f6140f0565b6127c3817f0000000000000000000000000000000000000000000000000000000000000000602554876127b29190615c8a565b6127bc9190615c4b565b60016141d3565b600c60009054906101000a90046001600160a01b03166001600160a01b0316632e05661b6040518163ffffffff1660e01b8152600401600060405180830381600087803b15801561281357600080fd5b505af1158015612827573d6000803e3d6000fd5b505050506128358285614bac565b612840848284614db7565b60405184906001600160a01b038316907fe1fffcc4923d04b559f4d29a8bfc6cda04eb5b0d3c460751c2402c5c5cc9109c90600090a350505050565b6001600160a01b0381166000908152601d602052604090205460011015611461576001600160a01b03811660009081526020808052604080832054601f9092528220546128c99190615c1a565b6001600160a01b03831660009081526022602052604080822054815160a081019092529293508061291b7f00000000000000000000000000000000000000000000000000000000000000006002615c8a565b81526020017f000000000000000000000000000000000000000000000000000000000000000081526020017f000000000000000000000000000000000000000000000000000000000000000081526020017f000000000000000000000000000000000000000000000000000000000000000081526020017f000000000000000000000000000000000000000000000000000000000000000081525090506129c484828585614e73565b80156129d05750600582105b156129fa576129e0826001615c1a565b6001600160a01b0385166000908152602260205260409020555b50505050565b600a54600c54602c54600154602e546001600160a01b03948516946012941692849290916000808080612a31615070565b600b546012546023549d9e9c9d9b9c9a9b999a9899979892979196506001600160a01b0316945060ff1692509050565b604080516002808252606082018352600092839291906020830190803683375050600a5482519293506001600160a01b031691839150600090612aa657612aa6615ca9565b6001600160a01b039283166020918202929092010152600c54825191169082906001908110612ad757612ad7615ca9565b6001600160a01b0392831660209182029290920101526009546000911663d06ca61f612b04600287615c4b565b846040518363ffffffff1660e01b8152600401612b229291906158ca565b600060405180830381865afa158015612b3f573d6000803e3d6000fd5b505050506040513d6000823e601f3d908101601f19168201604052612b679190810190615cef565b905080600181518110612b7c57612b7c615ca9565b602002602001015192505050919050565b601c546001600160a01b0316331480612bb057506000546001600160a01b031633145b80612bc55750600e546001600160a01b031633145b612be15760405162461bcd60e51b815260040161132990615bb5565b612be96140f0565b600455565b333214612c2a5760405162461bcd60e51b815260206004820152600a6024820152693737ba1027b934b3b4b760b11b6044820152606401611329565b3360009081526008602052604090206003810154428115801590612c4d57508181115b15612cce576005830154600090612c648484615cd8565b8560040154612c739190615c8a565b612c7d9190615c4b565b90506000846002015485600101548660000154612c9a9190615cd8565b612ca49190615cd8565b905080821115612cb2578091505b81856001016000828254612cc69190615c1a565b909155505050505b81811115612cde57600383018190555b602b54836006015410612d285760405162461bcd60e51b81526020600482015260126024820152710e6e0cacac8aae0a8d2daca40d2e640dac2f60731b6044820152606401611329565b600683018054906000612d3a83615cbf565b91905055506000612d4961513e565b905084811115612d9b5760405162461bcd60e51b815260206004820152601860248201527f746f6b656e20616d6f756e7420697320746f6f206d75636800000000000000006044820152606401611329565b600c54602a54612dba916001600160a01b03908116913391168461471f565b60028401546001850154855460009291612dd391615cd8565b612ddd9190615cd8565b905060008560040154866005015483612df69190615c8a565b612e009190615c4b565b60048701839055602954909150808211612e5c5760405162461bcd60e51b815260206004820152601c60248201527f72656c656173654475726174696f6e20697320746f6f2073686f7274000000006044820152606401611329565b612e668183615cd8565b6005880155600c5460408051632e05661b60e01b815290516001600160a01b0390921691632e05661b9160048082019260009290919082900301818387803b158015612eb157600080fd5b505af1158015612ec5573d6000803e3d6000fd5b505050505050505050505050565b6040805160028082526060820183526000928392839283926020830190803683375050600c5482519293506001600160a01b031691839150600090612f1a57612f1a615ca9565b6001600160a01b039283166020918202929092010152600a54825191169082906001908110612f4b57612f4b615ca9565b6001600160a01b03928316602091820292909201015260095460405163d06ca61f60e01b8152600092919091169063d06ca61f90612f8f90899086906004016158ca565b600060405180830381865afa158015612fac573d6000803e3d6000fd5b505050506040513d6000823e601f3d908101601f19168201604052612fd49190810190615cef565b905080600181518110612fe957612fe9615ca9565b60200260200101519450612710601754866130049190615c8a565b61300e9190615c4b565b9350612710601854866130219190615c8a565b61302b9190615c4b565b9250612710613038615070565b6130429085615c8a565b61304c9190615c4b565b9496939550505050565b601c546001600160a01b031633148061307957506000546001600160a01b031633145b8061308e5750600e546001600160a01b031633145b6130aa5760405162461bcd60e51b815260040161132990615bb5565b6130b4828261516f565b5050565b601c546001600160a01b03163314806130db57506000546001600160a01b031633145b806130f05750600e546001600160a01b031633145b61310c5760405162461bcd60e51b815260040161132990615bb5565b601781905560195460185461271091906114199084615c1a565b601c546001600160a01b031633148061314957506000546001600160a01b031633145b8061315e5750600e546001600160a01b031633145b61317a5760405162461bcd60e51b815260040161132990615bb5565b601a80546001600160a01b0319166001600160a01b0392909216919091179055565b601c546001600160a01b03163314806131bf57506000546001600160a01b031633145b806131d45750600e546001600160a01b031633145b6131f05760405162461bcd60e51b815260040161132990615bb5565b6016805460ff1916911515919091179055565b601c546001600160a01b031633148061322657506000546001600160a01b031633145b8061323b5750600e546001600160a01b031633145b6132575760405162461bcd60e51b815260040161132990615bb5565b601280546001600160a01b039092166001600160a01b0319909216821790556000908152600760205260409020805460ff19166001179055565b601c546001600160a01b03163314806132b457506000546001600160a01b031633145b806132c95750600e546001600160a01b031633145b6132e55760405162461bcd60e51b815260040161132990615bb5565b60198190556018546017546127109183916114199190615c1a565b6000806000600d60009054906101000a90046001600160a01b03169050600080826001600160a01b0316630902f1ac6040518163ffffffff1660e01b8152600401606060405180830381865afa15801561335e573d6000803e3d6000fd5b505050506040513d601f19601f820116820180604052508101906133829190615d9c565b50600c54600a546001600160701b0393841695509190921692506001600160a01b03918216911610156133ba578194508093506133c1565b8094508193505b5050509091565b33321461340c5760405162461bcd60e51b815260206004820152601260248201527131b630b4b6a628103737ba1027b934b3b4b760711b6044820152606401611329565b33600090815260086020526040902060038101544290158015906134335750816003015481115b156134b9576000826005015483600301548361344f9190615cd8565b846004015461345e9190615c8a565b6134689190615c4b565b905060008360020154846001015485600001546134859190615cd8565b61348f9190615cd8565b90508082111561349d578091505b818460010160008282546134b19190615c1a565b909155505050505b6001820154801561356357600d546134db906001600160a01b031633836143b7565b60008360010181905550808360020160008282546134f99190615c1a565b9091555050600c5460405163899d9c9d60e01b8152336004820152602481018390526001600160a01b039091169063899d9c9d90604401600060405180830381600087803b15801561354a57600080fd5b505af115801561355e573d6000803e3d6000fd5b505050505b826003015482111561357757600383018290555b600c60009054906101000a90046001600160a01b03166001600160a01b0316632e05661b6040518163ffffffff1660e01b8152600401600060405180830381600087803b1580156135c757600080fd5b505af11580156135db573d6000803e3d6000fd5b50505050505050565b60245460008190036135f35750565b7f00000000000000000000000000000000000000000000000000000000000000004261361f8284615c1a565b81101561362b57505050565b6000826136388584615cd8565b6136429190615c4b565b905061364e8382615c8a565b6136589085615c1a565b602455602554613688827f0000000000000000000000000000000000000000000000000000000000000000615ec5565b826026546136969190615ec5565b6136a09083615c8a565b6136aa9190615c4b565b6025555050505050565b601c546001600160a01b03163314806136d757506000546001600160a01b031633145b806136ec5750600e546001600160a01b031633145b6137085760405162461bcd60e51b815260040161132990615bb5565b602955565b3332146137495760405162461bcd60e51b815260206004820152600a6024820152693737ba1027b934b3b4b760b11b6044820152606401611329565b60165460ff16156137845760405162461bcd60e51b8152602060048201526005602482015264706175736560d81b6044820152606401611329565b60125461379b9033906001600160a01b0316613f17565b600c546137b3906001600160a01b031633308461471f565b600a546040516370a0823160e01b81523060048201526001600160a01b039091169060009082906370a0823190602401602060405180830381865afa158015613800573d6000803e3d6000fd5b505050506040513d601f19601f820116820180604052508101906138249190615c32565b60408051600280825260608201835292935060009290916020830190803683375050600c5482519293506001600160a01b03169183915060009061386a5761386a615ca9565b6001600160a01b039283166020918202929092010152600a5482519116908290600190811061389b5761389b615ca9565b6001600160a01b039283166020918202929092010152600954604051635c11d79560e01b8152911690635c11d795906138e1908790600090869030904290600401615ed1565b600060405180830381600087803b1580156138fb57600080fd5b505af115801561390f573d6000803e3d6000fd5b50506040516370a0823160e01b8152306004820152600092508491506001600160a01b038616906370a0823190602401602060405180830381865afa15801561395c573d6000803e3d6000fd5b505050506040513d601f19601f820116820180604052508101906139809190615c32565b61398a9190615cd8565b905060006127106017548361399f9190615c8a565b6139a99190615c4b565b600a549091506139c3906001600160a01b031633836143b7565b6000612710601854846139d69190615c8a565b6139e09190615c4b565b90506139ef338260008061484b565b6139f76140f0565b60007f000000000000000000000000000000000000000000000000000000000000000060255483613a289190615c8a565b613a329190615c4b565b9050613a40338260006141d3565b336000908152601b602052604081208054839290613a5f908490615c1a565b909155505060195460009061271090613a789087615c8a565b613a829190615c4b565b600a54600e54919250613aa2916001600160a01b039182169116836143b7565b600e54604051632841a14360e01b8152600481018390526001600160a01b0390911690632841a14390602401600060405180830381600087803b158015613ae857600080fd5b505af1158015613afc573d6000803e3d6000fd5b50505050600081848688613b109190615cd8565b613b1a9190615cd8565b613b249190615cd8565b600a54601c54919250613b44916001600160a01b039182169116836143b7565b600c60009054906101000a90046001600160a01b03166001600160a01b0316632e05661b6040518163ffffffff1660e01b8152600401600060405180830381600087803b158015613b9457600080fd5b505af1158015613ba8573d6000803e3d6000fd5b50506040518792508c915033907fed7a144fad14804d5c249145e3e0e2b63a9eb455b76aee5bc92d711e9bba3e4a90600090a450505050505050505050565b601d602052816000526040600020818154811061252157600080fd5b601c546001600160a01b0316331480613c2657506000546001600160a01b031633145b80613c3b5750600e546001600160a01b031633145b613c575760405162461bcd60e51b815260040161132990615bb5565b601254613c6e9083906001600160a01b0316613f17565b613c766140f0565b6130b4828260006141d3565b6000806000806000600d60009054906101000a90046001600160a01b03166001600160a01b03166318160ddd6040518163ffffffff1660e01b8152600401602060405180830381865afa158015613cdd573d6000803e3d6000fd5b505050506040513d601f19601f82011682018060405250810190613d019190615c32565b600d546040516370a0823160e01b81523060048201529196506001600160a01b0316906370a0823190602401602060405180830381865afa158015613d4a573d6000803e3d6000fd5b505050506040513d601f19601f82011682018060405250810190613d6e9190615c32565b9350602b5492506028549150613d8261513e565b90509091929394565b336000908152602d602052604090205460ff1680613db357506000546001600160a01b031633145b613dcf5760405162461bcd60e51b815260040161132990615bde565b6130b48282613f17565b613de16146c5565b6001600160a01b038116613e465760405162461bcd60e51b815260206004820152602660248201527f4f776e61626c653a206e6577206f776e657220697320746865207a65726f206160448201526564647265737360d01b6064820152608401611329565b611461816145f0565b601c546001600160a01b0316331480613e7257506000546001600160a01b031633145b80613e875750600e546001600160a01b031633145b613ea35760405162461bcd60e51b815260040161132990615bb5565b602454600003613eb257426024555b6023805460ff19169055565b601c546001600160a01b0316331480613ee157506000546001600160a01b031633145b80613ef65750600e546001600160a01b031633145b613f125760405162461bcd60e51b815260040161132990615bb5565b602655565b6001600160a01b0382166000908152600760205260409020805460ff166113a5576001600160a01b038216600003613f7d5760405162461bcd60e51b81526020600482015260096024820152680696e7669746f7220360bc1b6044820152606401611329565b6001600160a01b03821660009081526007602052604090205460ff16613fd75760405162461bcd60e51b815260206004820152600f60248201526e696e7669746f72202141637469766560881b6044820152606401611329565b6001600160a01b038083166000818152601d60209081526040808320805460018181018355918552838520018054968a166001600160a01b03199788168117909155808552601e84528285208054881687179055600f84528285208054881687179055948452601083529083208054918201815583529082200180549093169091179091555b7f00000000000000000000000000000000000000000000000000000000000000008110156140df576001600160a01b03831660009081526015602052604081208054600192906140ae908490615c1a565b90915550506001600160a01b039283166000908152600f60205260409020549092169182156140df5760010161405d565b50805460ff19166001178155505050565b6140f86135e4565b600554600190429080821161410c57505050565b600483018290556002830154600584015480821061412b575050505050565b8454600386015481158015906141415750806000105b156135db5760006141528688615cd8565b61415c9083615c8a565b9050600061416a8686615cd8565b905080821115614178578091505b8361418b83670de0b6b3a7640000615c8a565b6141959190615c4b565b8960010160008282546141a89190615c1a565b92505081905550818960020160008282546141c39190615c1a565b9091555050505050505050505050565b6001600160a01b0383166000908152600760205260408120906141f7908290614640565b60018101546142068482615c1a565b60018084018290555490915061421c8582615c1a565b600254909150670de0b6b3a76400006142358285615c8a565b61423f9190615c4b565b600285015584156143ac577f00000000000000000000000000000000000000000000000000000000000000006000888180805b858110156143a5576001600160a01b038085166000908152600f602052604090205416925082156143a5576001600160a01b038316600090815260076020526040812095506142c2908690614640565b600081815260116020526040812054612710906142df908f615c8a565b6142e99190615c4b565b6001600160a01b038516600090815260136020526040812080549293508392909190614316908490615c1a565b90915550506001600160a01b038416600090815260146020526040812080548f9290614343908490615c1a565b9091555050600186015492506143598184615c1a565b600187018190559250670de0b6b3a76400006143758985615c8a565b61437f9190615c4b565b600287015561438e818a615c1a565b9850839450508061439e90615cbf565b9050614272565b5050505050505b506001555050505050565b806000036143c457505050565b6040516370a0823160e01b8152306004820152839082906001600160a01b038316906370a0823190602401602060405180830381865afa15801561440c573d6000803e3d6000fd5b505050506040513d601f19601f820116820180604052508101906144309190615c32565b10156144735760405162461bcd60e51b81526020600482015260126024820152710c4c2d8c2dcc6ca40dcdee840cadcdeeaced60731b6044820152606401611329565b60405163a9059cbb60e01b81526001600160a01b0384811660048301526024820184905282169063a9059cbb906044016020604051808303816000875af11580156144c2573d6000803e3d6000fd5b505050506040513d601f19601f820116820180604052508101906144e69190615f0d565b5050505050565b604080516001600160a01b038481166024830152604480830185905283518084039091018152606490920183526020820180516001600160e01b031663095ea7b360e01b17905291516000928392908716916145499190615f2a565b6000604051808303816000865af19150503d8060008114614586576040519150601f19603f3d011682016040523d82523d6000602084013e61458b565b606091505b50915091508180156145b55750805115806145b55750808060200190518101906145b59190615f0d565b6144e65760405162461bcd60e51b815260206004820152600c60248201526b185c1c1c9bdd994819985a5b60a21b6044820152606401611329565b600080546001600160a01b038381166001600160a01b0319831681178455604051919092169283917f8be0079c531659141344cd1fd0a4f28419497f9722a3daafe3b4186f6b6457e09190a35050565b801561464e5761464e6140f0565b6001820154156130b4576000670de0b6b3a7640000600180015484600101546146779190615c8a565b6146819190615c4b565b905060008360020154826146959190615cd8565b905080156129fa57818460020181905550808460030160008282546146ba9190615c1a565b909155505050505050565b6000546001600160a01b031633146121d75760405162461bcd60e51b815260206004820181905260248201527f4f776e61626c653a2063616c6c6572206973206e6f7420746865206f776e65726044820152606401611329565b6040516370a0823160e01b81526001600160a01b038481166004830152859183918316906370a0823190602401602060405180830381865afa158015614769573d6000803e3d6000fd5b505050506040513d601f19601f8201168201806040525081019061478d9190615c32565b10156147d05760405162461bcd60e51b81526020600482015260126024820152710c4c2d8c2dcc6ca40dcdee840cadcdeeaced60731b6044820152606401611329565b6040516323b872dd60e01b81526001600160a01b0385811660048301528481166024830152604482018490528216906323b872dd906064016020604051808303816000875af1158015614827573d6000803e3d6000fd5b505050506040513d601f19601f82011682018060405250810190611d229190615f0d565b600c546040516370a0823160e01b81523060048201526001600160a01b0390911690819060009082906370a0823190602401602060405180830381865afa15801561489a573d6000803e3d6000fd5b505050506040513d601f19601f820116820180604052508101906148be9190615c32565b600a546040805160028082526060820183529394506001600160a01b039092169260009291602083019080368337019050509050818160008151811061490657614906615ca9565b60200260200101906001600160a01b031690816001600160a01b031681525050848160018151811061493a5761493a615ca9565b6001600160a01b03928316602091820292909201015260095416635c11d79561496460028b615c4b565b898430426040518663ffffffff1660e01b8152600401614988959493929190615ed1565b600060405180830381600087803b1580156149a257600080fd5b505af11580156149b6573d6000803e3d6000fd5b50506040516370a0823160e01b8152306004820152600092508591506001600160a01b038716906370a0823190602401602060405180830381865afa158015614a03573d6000803e3d6000fd5b505050506040513d601f19601f82011682018060405250810190614a279190615c32565b614a319190615cd8565b9050600087614a4b57601a546001600160a01b0316614a4d565b305b90506000600960009054906101000a90046001600160a01b03166001600160a01b031663e8e33700868a60028f614a849190615c4b565b6040516001600160e01b031960e086901b1681526001600160a01b039384166004820152918316602483015260448201526064810187905260006084820181905260a482015290851660c48201524260e4820152610104016060604051808303816000875af1158015614afb573d6000803e3d6000fd5b505050506040513d601f19601f82011682018060405250810190614b1f9190615f65565b925050508815614b3857614b338c82615220565b612ec5565b600c5460405163899d9c9d60e01b81526001600160a01b038481166004830152602482018490529091169063899d9c9d90604401600060405180830381600087803b158015614b8657600080fd5b505af1158015614b9a573d6000803e3d6000fd5b50505050505050505050505050505050565b6001600160a01b0382811660008181526022602052604080822054600e5491516370a0823160e01b815260048101949094529391929116906370a0823190602401602060405180830381865afa158015614c0a573d6000803e3d6000fd5b505050506040513d601f19601f82011682018060405250810190614c2e9190615c32565b90506000614c3c8385611d2a565b9050600083118015614c4e5750600082115b15614c6d57614c5d858261533a565b614c6885848661541e565b6144e6565b6001600160a01b038086166000908152601e6020526040812054909116905b6001600160a01b03821615801590614ca2575080155b156135db576001600160a01b0382811660008181526022602052604080822054600e5491516370a0823160e01b815260048101949094529391929116906370a0823190602401602060405180830381865afa158015614d05573d6000803e3d6000fd5b505050506040513d601f19601f82011682018060405250810190614d299190615c32565b9050600082118015614d3b5750600081115b15614d655760019250614d4e8289611d2a565b9450614d5a848661533a565b614d6584838a61541e565b6001600160a01b038085166000818152601e60205260409020549091169003614d915760009350614db0565b6001600160a01b039384166000908152601e6020526040902054909316925b5050614c8c565b6001600160a01b038216600090815260208052604081208054859290614dde908490615c1a565b909155508190505b6001600160a01b038116156129fa576001600160a01b0381166000908152601f602052604081208054869290614e1d908490615c1a565b90915550614e2c90508161287c565b6001600160a01b038082166000818152601e60205260409020549091169003614e53575060005b6001600160a01b039081166000908152601e602052604090205416614de6565b6001600160a01b0384166000908152601d6020908152604080832080548251818502810185019093528083528493830182828015614eda57602002820191906000526020600020905b81546001600160a01b03168152600190910190602001808311614ebc575b50505050509050848360058110614ef357614ef3615ca9565b60200201518410615062576000805b6001600160a01b0388166000908152601d602052604090205481101561505f5784600003614fe9577f000000000000000000000000000000000000000000000000000000000000000060206000858481518110614f6157614f61615ca9565b60200260200101516001600160a01b03166001600160a01b0316815260200190815260200160002054601f6000868581518110614fa057614fa0615ca9565b60200260200101516001600160a01b03166001600160a01b0316815260200190815260200160002054614fd39190615c1a565b10614fe457614fe182615cbf565b91505b61503b565b60016022600085848151811061500157615001615ca9565b60200260200101516001600160a01b03166001600160a01b03168152602001908152602001600020541061503b5761503882615cbf565b91505b6002821061504f5760019350505050615068565b61505881615cbf565b9050614f02565b50505b60009150505b949350505050565b602554602454600091908083036150875750919050565b7f0000000000000000000000000000000000000000000000000000000000000000426150b38284615c1a565b8110156150c35750919392505050565b6000826150d08584615cd8565b6150da9190615c4b565b60265490915060005b82811015615132577f00000000000000000000000000000000000000000000000000000000000000006151168389615c8a565b6151209190615c4b565b965061512b81615cbf565b90506150e3565b50949695505050505050565b600080600061514b613300565b91509150818160285461515e9190615c8a565b6151689190615c4b565b9250505090565b604080516000808252602082019092526001600160a01b0384169083906040516151999190615f2a565b60006040518083038185875af1925050503d80600081146151d6576040519150601f19603f3d011682016040523d82523d6000602084013e6151db565b606091505b50509050806113a55760405162461bcd60e51b8152602060048201526011602482015270195d1a081d1c985b9cd9995c8819985a5b607a1b6044820152606401611329565b6001600160a01b0382166000908152600860205260409020600381015442811580159061524c57508181115b156152cd5760058301546000906152638484615cd8565b85600401546152729190615c8a565b61527c9190615c4b565b905060008460020154856001015486600001546152999190615cd8565b6152a39190615cd8565b9050808211156152b1578091505b818560010160008282546152c59190615c1a565b909155505050505b600283015460018401548454600092916152e691615cd8565b6152f09190615cd8565b9050848460000160008282546153069190615c1a565b9091555061531690508582615c1a565b6004850155602754600585015582821115611d225760038401829055505050505050565b60007f00000000000000000000000000000000000000000000000000000000000000006025548361536b9190615c8a565b6153759190615c4b565b9050615383838260006141d3565b6001600160a01b0383166000818152602260205260408082205490519092849284927fb6e5be43155b74262b7be6ccc5012bb6df33759145b8a6d4bc9f3e98c6d87b489190a4600a546153e0906001600160a01b031685856143b7565b8281856001600160a01b03167f449ba527ea8f6ec8dc6af63b425e187506ac5b1635308d35ba1fe32da2b0d2e360405160405180910390a450505050565b6001600160a01b038084166000908152601e6020526040812054909116908390615449826001615c1a565b90505b6001600160a01b03831615801590615465575060058211155b15611d22576001600160a01b0383166000908152602260205260408120549061548e8287611d2a565b90508382118061549d57508282145b156154c3576154ac858261533a565b8193508160016154bc9190615c1a565b92506154e2565b8382036154e2576154d48582615534565b6154df826001615c1a565b93505b6001600160a01b038086166000818152601e6020526040902054909116900361550e576000945061552d565b6001600160a01b039485166000908152601e6020526040902054909416935b505061544c565b60007f0000000000000000000000000000000000000000000000000000000000000000602554836155659190615c8a565b61556f9190615c4b565b905060006064615580836014615c8a565b61558a9190615c4b565b9050615598848260006141d3565b6001600160a01b0384166000818152602260205260408082205490519092849284927fb6e5be43155b74262b7be6ccc5012bb6df33759145b8a6d4bc9f3e98c6d87b489190a4600060646155ed866014615c8a565b6155f79190615c4b565b600a54909150615611906001600160a01b031687836143b7565b8082876001600160a01b03167f449ba527ea8f6ec8dc6af63b425e187506ac5b1635308d35ba1fe32da2b0d2e360405160405180910390a4505050505050565b60006020828403121561566357600080fd5b5035919050565b6001600160a01b038116811461146157600080fd5b801515811461146157600080fd5b6000806000606084860312156156a257600080fd5b83356156ad8161566a565b92506020840135915060408401356156c48161567f565b809150509250925092565b6000602082840312156156e157600080fd5b81356156ec8161566a565b9392505050565b60008060006060848603121561570857600080fd5b83356157138161566a565b925060208401356157238161566a565b929592945050506040919091013590565b6000806040838503121561574757600080fd5b82356157528161566a565b946020939093013593505050565b600080600080600080600060e0888a03121561577b57600080fd5b87356157868161566a565b965060208801356157968161566a565b955060408801356157a68161566a565b945060608801356157b68161566a565b935060808801356157c68161566a565b925060a08801356157d68161566a565b915060c08801356157e68161566a565b8091505092959891949750929550565b6000806040838503121561580957600080fd5b50508035926020909101359150565b6000806040838503121561582b57600080fd5b82356158368161566a565b915060208301356158468161567f565b809150509250929050565b60008060006060848603121561586657600080fd5b83356158718161566a565b95602085013595506040909401359392505050565b600081518084526020808501945080840160005b838110156158bf5781516001600160a01b03168752958201959082019060010161589a565b509495945050505050565b8281526040602082015260006150686040830184615886565b634e487b7160e01b600052604160045260246000fd5b6040516080810167ffffffffffffffff8111828210171561591c5761591c6158e3565b60405290565b604051601f8201601f1916810167ffffffffffffffff8111828210171561594b5761594b6158e3565b604052919050565b600067ffffffffffffffff82111561596d5761596d6158e3565b5060051b60200190565b600082601f83011261598857600080fd5b8135602061599d61599883615953565b615922565b82815260079290921b840181019181810190868411156159bc57600080fd5b8286015b84811015615a1857608081890312156159d95760008081fd5b6159e16158f9565b81356159ec8161567f565b8152818501358582015260408083013590820152606080830135908201528352918301916080016159c0565b509695505050505050565b60008060408385031215615a3657600080fd5b823567ffffffffffffffff80821115615a4e57600080fd5b818501915085601f830112615a6257600080fd5b81356020615a7261599883615953565b82815260059290921b84018101918181019089841115615a9157600080fd5b948201945b83861015615ab8578535615aa98161566a565b82529482019490820190615a96565b96505086013592505080821115615ace57600080fd5b50615adb85828601615977565b9150509250929050565b604081526000615af86040830185615886565b82810360208481019190915284518083528582019282019060005b81811015615b2f57845183529383019391830191600101615b13565b5090979650505050505050565b600080600060608486031215615b5157600080fd5b833592506020840135915060408401356156c48161566a565b600060208284031215615b7c57600080fd5b81356156ec8161567f565b60008060408385031215615b9a57600080fd5b8235615ba58161566a565b915060208301356158468161566a565b6020808252600f908201526e1bdb9b1e481dda1a5d19481b1a5cdd608a1b604082015260600190565b6020808252600c908201526b1bdb9b1e481c1c9bda9958dd60a21b604082015260600190565b634e487b7160e01b600052601160045260246000fd5b60008219821115615c2d57615c2d615c04565b500190565b600060208284031215615c4457600080fd5b5051919050565b600082615c6857634e487b7160e01b600052601260045260246000fd5b500490565b600060208284031215615c7f57600080fd5b81516156ec8161566a565b6000816000190483118215151615615ca457615ca4615c04565b500290565b634e487b7160e01b600052603260045260246000fd5b600060018201615cd157615cd1615c04565b5060010190565b600082821015615cea57615cea615c04565b500390565b60006020808385031215615d0257600080fd5b825167ffffffffffffffff811115615d1957600080fd5b8301601f81018513615d2a57600080fd5b8051615d3861599882615953565b81815260059190911b82018301908381019087831115615d5757600080fd5b928401925b82841015615d7557835182529284019290840190615d5c565b979650505050505050565b80516001600160701b0381168114615d9757600080fd5b919050565b600080600060608486031215615db157600080fd5b615dba84615d80565b9250615dc860208501615d80565b9150604084015163ffffffff811681146156c457600080fd5b600181815b80851115615e1c578160001904821115615e0257615e02615c04565b80851615615e0f57918102915b93841c9390800290615de6565b509250929050565b600082615e3357506001611d5f565b81615e4057506000611d5f565b8160018114615e565760028114615e6057615e7c565b6001915050611d5f565b60ff841115615e7157615e71615c04565b50506001821b611d5f565b5060208310610133831016604e8410600b8410161715615e9f575081810a611d5f565b615ea98383615de1565b8060001904821115615ebd57615ebd615c04565b029392505050565b6000611d5c8383615e24565b85815284602082015260a060408201526000615ef060a0830186615886565b6001600160a01b0394909416606083015250608001529392505050565b600060208284031215615f1f57600080fd5b81516156ec8161567f565b6000825160005b81811015615f4b5760208186018101518583015201615f31565b81811115615f5a576000828501525b509190910192915050565b600080600060608486031215615f7a57600080fd5b835192506020840151915060408401519050925092509256fea2646970667358221220115c5dc22b6155df5fb580f9850db3333445e8c942d7690f912815919db335d264736f6c634300080f0033",
  "devdoc": {
    "kind": "dev",
    "methods": {
      "owner()": {
        "details": "Returns the address of the current owner."
      },
      "renounceOwnership()": {
        "details": "Leaves the contract without owner. It will not be possible to call `onlyOwner` functions. Can only be called by the current owner. NOTE: Renouncing ownership will leave the contract without an owner, thereby disabling any functionality that is only available to the owner."
      },
      "transferOwnership(address)": {
        "details": "Transfers ownership of the contract to a new account (`newOwner`). Can only be called by the current owner."
      }
    },
    "version": 1
  },
  "userdoc": {
    "kind": "user",
    "methods": {},
    "version": 1
  },
  "storageLayout": {
    "storage": [
      {
        "astId": 506,
        "contract": "contracts/MintPool.sol:MintPool",
        "label": "_owner",
        "offset": 0,
        "slot": "0",
        "type": "t_address"
      },
      {
        "astId": 6,
        "contract": "contracts/MintPool.sol:MintPool",
        "label": "_initialized",
        "offset": 20,
        "slot": "0",
        "type": "t_uint8"
      },
      {
        "astId": 9,
        "contract": "contracts/MintPool.sol:MintPool",
        "label": "_initializing",
        "offset": 21,
        "slot": "0",
        "type": "t_bool"
      },
      {
        "astId": 774,
        "contract": "contracts/MintPool.sol:MintPool",
        "label": "poolInfo",
        "offset": 0,
        "slot": "1",
        "type": "t_struct(PoolInfo)756_storage"
      },
      {
        "astId": 779,
        "contract": "contracts/MintPool.sol:MintPool",
        "label": "userInfo",
        "offset": 0,
        "slot": "7",
        "type": "t_mapping(t_address,t_struct(UserInfo)743_storage)"
      },
      {
        "astId": 784,
        "contract": "contracts/MintPool.sol:MintPool",
        "label": "_userLPInfo",
        "offset": 0,
        "slot": "8",
        "type": "t_mapping(t_address,t_struct(UserLPInfo)771_storage)"
      },
      {
        "astId": 787,
        "contract": "contracts/MintPool.sol:MintPool",
        "label": "_swapRouter",
        "offset": 0,
        "slot": "9",
        "type": "t_contract(ISwapRouter)4923"
      },
      {
        "astId": 789,
        "contract": "contracts/MintPool.sol:MintPool",
        "label": "_usdt",
        "offset": 0,
        "slot": "10",
        "type": "t_address"
      },
      {
        "astId": 791,
        "contract": "contracts/MintPool.sol:MintPool",
        "label": "_minAmount",
        "offset": 0,
        "slot": "11",
        "type": "t_uint256"
      },
      {
        "astId": 793,
        "contract": "contracts/MintPool.sol:MintPool",
        "label": "_mintRewardToken",
        "offset": 0,
        "slot": "12",
        "type": "t_address"
      },
      {
        "astId": 795,
        "contract": "contracts/MintPool.sol:MintPool",
        "label": "_lp",
        "offset": 0,
        "slot": "13",
        "type": "t_address"
      },
      {
        "astId": 798,
        "contract": "contracts/MintPool.sol:MintPool",
        "label": "_nft",
        "offset": 0,
        "slot": "14",
        "type": "t_contract(INFT)4814"
      },
      {
        "astId": 802,
        "contract": "contracts/MintPool.sol:MintPool",
        "label": "_invitor",
        "offset": 0,
        "slot": "15",
        "type": "t_mapping(t_address,t_address)"
      },
      {
        "astId": 807,
        "contract": "contracts/MintPool.sol:MintPool",
        "label": "_binder",
        "offset": 0,
        "slot": "16",
        "type": "t_mapping(t_address,t_array(t_address)dyn_storage)"
      },
      {
        "astId": 811,
        "contract": "contracts/MintPool.sol:MintPool",
        "label": "_inviteFee",
        "offset": 0,
        "slot": "17",
        "type": "t_mapping(t_uint256,t_uint256)"
      },
      {
        "astId": 816,
        "contract": "contracts/MintPool.sol:MintPool",
        "label": "_defaultInvitor",
        "offset": 0,
        "slot": "18",
        "type": "t_address"
      },
      {
        "astId": 820,
        "contract": "contracts/MintPool.sol:MintPool",
        "label": "_inviteAmount",
        "offset": 0,
        "slot": "19",
        "type": "t_mapping(t_address,t_uint256)"
      },
      {
        "astId": 824,
        "contract": "contracts/MintPool.sol:MintPool",
        "label": "_teamAmount",
        "offset": 0,
        "slot": "20",
        "type": "t_mapping(t_address,t_uint256)"
      },
      {
        "astId": 828,
        "contract": "contracts/MintPool.sol:MintPool",
        "label": "_teamNum",
        "offset": 0,
        "slot": "21",
        "type": "t_mapping(t_address,t_uint256)"
      },
      {
        "astId": 830,
        "contract": "contracts/MintPool.sol:MintPool",
        "label": "_pauseSell",
        "offset": 0,
        "slot": "22",
        "type": "t_bool"
      },
      {
        "astId": 832,
        "contract": "contracts/MintPool.sol:MintPool",
        "label": "_sellSelfRate",
        "offset": 0,
        "slot": "23",
        "type": "t_uint256"
      },
      {
        "astId": 834,
        "contract": "contracts/MintPool.sol:MintPool",
        "label": "_sellJoinRate",
        "offset": 0,
        "slot": "24",
        "type": "t_uint256"
      },
      {
        "astId": 836,
        "contract": "contracts/MintPool.sol:MintPool",
        "label": "_sellNFTRate",
        "offset": 0,
        "slot": "25",
        "type": "t_uint256"
      },
      {
        "astId": 838,
        "contract": "contracts/MintPool.sol:MintPool",
        "label": "_sellLPReceiver",
        "offset": 0,
        "slot": "26",
        "type": "t_address"
      },
      {
        "astId": 842,
        "contract": "contracts/MintPool.sol:MintPool",
        "label": "_sellJoinAmount",
        "offset": 0,
        "slot": "27",
        "type": "t_mapping(t_address,t_uint256)"
      },
      {
        "astId": 844,
        "contract": "contracts/MintPool.sol:MintPool",
        "label": "_fundAddress",
        "offset": 0,
        "slot": "28",
        "type": "t_address"
      },
      {
        "astId": 849,
        "contract": "contracts/MintPool.sol:MintPool",
        "label": "referrals",
        "offset": 0,
        "slot": "29",
        "type": "t_mapping(t_address,t_array(t_address)dyn_storage)"
      },
      {
        "astId": 853,
        "contract": "contracts/MintPool.sol:MintPool",
        "label": "superAccount",
        "offset": 0,
        "slot": "30",
        "type": "t_mapping(t_address,t_address)"
      },
      {
        "astId": 857,
        "contract": "contracts/MintPool.sol:MintPool",
        "label": "referralAmount",
        "offset": 0,
        "slot": "31",
        "type": "t_mapping(t_address,t_uint256)"
      },
      {
        "astId": 861,
        "contract": "contracts/MintPool.sol:MintPool",
        "label": "depositAmount",
        "offset": 0,
        "slot": "32",
        "type": "t_mapping(t_address,t_uint256)"
      },
      {
        "astId": 865,
        "contract": "contracts/MintPool.sol:MintPool",
        "label": "referralReward",
        "offset": 0,
        "slot": "33",
        "type": "t_mapping(t_address,t_uint256)"
      },
      {
        "astId": 869,
        "contract": "contracts/MintPool.sol:MintPool",
        "label": "userLevel",
        "offset": 0,
        "slot": "34",
        "type": "t_mapping(t_address,t_uint256)"
      },
      {
        "astId": 886,
        "contract": "contracts/MintPool.sol:MintPool",
        "label": "_pauseJoin",
        "offset": 0,
        "slot": "35",
        "type": "t_bool"
      },
      {
        "astId": 888,
        "contract": "contracts/MintPool.sol:MintPool",
        "label": "_lastDailyUpTime",
        "offset": 0,
        "slot": "36",
        "type": "t_uint256"
      },
      {
        "astId": 890,
        "contract": "contracts/MintPool.sol:MintPool",
        "label": "_lastAmountRate",
        "offset": 0,
        "slot": "37",
        "type": "t_uint256"
      },
      {
        "astId": 892,
        "contract": "contracts/MintPool.sol:MintPool",
        "label": "_amountDailyUp",
        "offset": 0,
        "slot": "38",
        "type": "t_uint256"
      },
      {
        "astId": 900,
        "contract": "contracts/MintPool.sol:MintPool",
        "label": "_lpReleaseDuration",
        "offset": 0,
        "slot": "39",
        "type": "t_uint256"
      },
      {
        "astId": 902,
        "contract": "contracts/MintPool.sol:MintPool",
        "label": "_speedUpCost",
        "offset": 0,
        "slot": "40",
        "type": "t_uint256"
      },
      {
        "astId": 904,
        "contract": "contracts/MintPool.sol:MintPool",
        "label": "_speedUpDuration",
        "offset": 0,
        "slot": "41",
        "type": "t_uint256"
      },
      {
        "astId": 906,
        "contract": "contracts/MintPool.sol:MintPool",
        "label": "_speedUpReceiver",
        "offset": 0,
        "slot": "42",
        "type": "t_address"
      },
      {
        "astId": 908,
        "contract": "contracts/MintPool.sol:MintPool",
        "label": "_speedUpMaxTime",
        "offset": 0,
        "slot": "43",
        "type": "t_uint256"
      },
      {
        "astId": 910,
        "contract": "contracts/MintPool.sol:MintPool",
        "label": "_totalUsdt",
        "offset": 0,
        "slot": "44",
        "type": "t_uint256"
      },
      {
        "astId": 914,
        "contract": "contracts/MintPool.sol:MintPool",
        "label": "_inProject",
        "offset": 0,
        "slot": "45",
        "type": "t_mapping(t_address,t_bool)"
      },
      {
        "astId": 916,
        "contract": "contracts/MintPool.sol:MintPool",
        "label": "_lastDailyReward",
        "offset": 0,
        "slot": "46",
        "type": "t_uint256"
      }
    ],
    "types": {
      "t_address": {
        "encoding": "inplace",
        "label": "address",
        "numberOfBytes": "20"
      },
      "t_array(t_address)dyn_storage": {
        "base": "t_address",
        "encoding": "dynamic_array",
        "label": "address[]",
        "numberOfBytes": "32"
      },
      "t_bool": {
        "encoding": "inplace",
        "label": "bool",
        "numberOfBytes": "1"
      },
      "t_contract(INFT)4814": {
        "encoding": "inplace",
        "label": "contract INFT",
        "numberOfBytes": "20"
      },
      "t_contract(ISwapRouter)4923": {
        "encoding": "inplace",
        "label": "contract ISwapRouter",
        "numberOfBytes": "20"
      },
      "t_mapping(t_address,t_address)": {
        "encoding": "mapping",
        "key": "t_address",
        "label": "mapping(address => address)",
        "numberOfBytes": "32",
        "value": "t_address"
      },
      "t_mapping(t_address,t_array(t_address)dyn_storage)": {
        "encoding": "mapping",
        "key": "t_address",
        "label": "mapping(address => address[])",
        "numberOfBytes": "32",
        "value": "t_array(t_address)dyn_storage"
      },
      "t_mapping(t_address,t_bool)": {
        "encoding": "mapping",
        "key": "t_address",
        "label": "mapping(address => bool)",
        "numberOfBytes": "32",
        "value": "t_bool"
      },
      "t_mapping(t_address,t_struct(UserInfo)743_storage)": {
        "encoding": "mapping",
        "key": "t_address",
        "label": "mapping(address => struct MintPool.UserInfo)",
        "numberOfBytes": "32",
        "value": "t_struct(UserInfo)743_storage"
      },
      "t_mapping(t_address,t_struct(UserLPInfo)771_storage)": {
        "encoding": "mapping",
        "key": "t_address",
        "label": "mapping(address => struct MintPool.UserLPInfo)",
        "numberOfBytes": "32",
        "value": "t_struct(UserLPInfo)771_storage"
      },
      "t_mapping(t_address,t_uint256)": {
        "encoding": "mapping",
        "key": "t_address",
        "label": "mapping(address => uint256)",
        "numberOfBytes": "32",
        "value": "t_uint256"
      },
      "t_mapping(t_uint256,t_uint256)": {
        "encoding": "mapping",
        "key": "t_uint256",
        "label": "mapping(uint256 => uint256)",
        "numberOfBytes": "32",
        "value": "t_uint256"
      },
      "t_struct(PoolInfo)756_storage": {
        "encoding": "inplace",
        "label": "struct MintPool.PoolInfo",
        "members": [
          {
            "astId": 745,
            "contract": "contracts/MintPool.sol:MintPool",
            "label": "totalAmount",
            "offset": 0,
            "slot": "0",
            "type": "t_uint256"
          },
          {
            "astId": 747,
            "contract": "contracts/MintPool.sol:MintPool",
            "label": "accMintPerShare",
            "offset": 0,
            "slot": "1",
            "type": "t_uint256"
          },
          {
            "astId": 749,
            "contract": "contracts/MintPool.sol:MintPool",
            "label": "accMintReward",
            "offset": 0,
            "slot": "2",
            "type": "t_uint256"
          },
          {
            "astId": 751,
            "contract": "contracts/MintPool.sol:MintPool",
            "label": "mintPerSec",
            "offset": 0,
            "slot": "3",
            "type": "t_uint256"
          },
          {
            "astId": 753,
            "contract": "contracts/MintPool.sol:MintPool",
            "label": "lastMintTime",
            "offset": 0,
            "slot": "4",
            "type": "t_uint256"
          },
          {
            "astId": 755,
            "contract": "contracts/MintPool.sol:MintPool",
            "label": "totalMintReward",
            "offset": 0,
            "slot": "5",
            "type": "t_uint256"
          }
        ],
        "numberOfBytes": "192"
      },
      "t_struct(UserInfo)743_storage": {
        "encoding": "inplace",
        "label": "struct MintPool.UserInfo",
        "members": [
          {
            "astId": 736,
            "contract": "contracts/MintPool.sol:MintPool",
            "label": "isActive",
            "offset": 0,
            "slot": "0",
            "type": "t_bool"
          },
          {
            "astId": 738,
            "contract": "contracts/MintPool.sol:MintPool",
            "label": "amount",
            "offset": 0,
            "slot": "1",
            "type": "t_uint256"
          },
          {
            "astId": 740,
            "contract": "contracts/MintPool.sol:MintPool",
            "label": "rewardMintDebt",
            "offset": 0,
            "slot": "2",
            "type": "t_uint256"
          },
          {
            "astId": 742,
            "contract": "contracts/MintPool.sol:MintPool",
            "label": "calMintReward",
            "offset": 0,
            "slot": "3",
            "type": "t_uint256"
          }
        ],
        "numberOfBytes": "128"
      },
      "t_struct(UserLPInfo)771_storage": {
        "encoding": "inplace",
        "label": "struct MintPool.UserLPInfo",
        "members": [
          {
            "astId": 758,
            "contract": "contracts/MintPool.sol:MintPool",
            "label": "lockAmount",
            "offset": 0,
            "slot": "0",
            "type": "t_uint256"
          },
          {
            "astId": 760,
            "contract": "contracts/MintPool.sol:MintPool",
            "label": "calAmount",
            "offset": 0,
            "slot": "1",
            "type": "t_uint256"
          },
          {
            "astId": 762,
            "contract": "contracts/MintPool.sol:MintPool",
            "label": "claimedAmount",
            "offset": 0,
            "slot": "2",
            "type": "t_uint256"
          },
          {
            "astId": 764,
            "contract": "contracts/MintPool.sol:MintPool",
            "label": "lastReleaseTime",
            "offset": 0,
            "slot": "3",
            "type": "t_uint256"
          },
          {
            "astId": 766,
            "contract": "contracts/MintPool.sol:MintPool",
            "label": "releaseInitAmount",
            "offset": 0,
            "slot": "4",
            "type": "t_uint256"
          },
          {
            "astId": 768,
            "contract": "contracts/MintPool.sol:MintPool",
            "label": "releaseDuration",
            "offset": 0,
            "slot": "5",
            "type": "t_uint256"
          },
          {
            "astId": 770,
            "contract": "contracts/MintPool.sol:MintPool",
            "label": "speedUpTime",
            "offset": 0,
            "slot": "6",
            "type": "t_uint256"
          }
        ],
        "numberOfBytes": "224"
      },
      "t_uint256": {
        "encoding": "inplace",
        "label": "uint256",
        "numberOfBytes": "32"
      },
      "t_uint8": {
        "encoding": "inplace",
        "label": "uint8",
        "numberOfBytes": "1"
      }
    }
  }
}