{
  "address": "0x5eA27bC04417DC7f1a72b11B13eb72a33E27d3a5",
  "abi": [
    {
      "anonymous": false,
      "inputs": [
        {
          "indexed": true,
          "internalType": "address",
          "name": "owner",
          "type": "address"
        },
        {
          "indexed": true,
          "internalType": "address",
          "name": "approved",
          "type": "address"
        },
        {
          "indexed": true,
          "internalType": "uint256",
          "name": "tokenId",
          "type": "uint256"
        }
      ],
      "name": "Approval",
      "type": "event"
    },
    {
      "anonymous": false,
      "inputs": [
        {
          "indexed": true,
          "internalType": "address",
          "name": "owner",
          "type": "address"
        },
        {
          "indexed": true,
          "internalType": "address",
          "name": "operator",
          "type": "address"
        },
        {
          "indexed": false,
          "internalType": "bool",
          "name": "approved",
          "type": "bool"
        }
      ],
      "name": "ApprovalForAll",
      "type": "event"
    },
    {
      "anonymous": false,
      "inputs": [
        {
          "indexed": false,
          "internalType": "uint8",
          "name": "version",
          "type": "uint8"
        }
      ],
      "name": "Initialized",
      "type": "event"
    },
    {
      "anonymous": false,
      "inputs": [
        {
          "indexed": true,
          "internalType": "address",
          "name": "previousOwner",
          "type": "address"
        },
        {
          "indexed": true,
          "internalType": "address",
          "name": "newOwner",
          "type": "address"
        }
      ],
      "name": "OwnershipTransferred",
      "type": "event"
    },
    {
      "anonymous": false,
      "inputs": [
        {
          "indexed": true,
          "internalType": "address",
          "name": "from",
          "type": "address"
        },
        {
          "indexed": true,
          "internalType": "address",
          "name": "to",
          "type": "address"
        },
        {
          "indexed": true,
          "internalType": "uint256",
          "name": "tokenId",
          "type": "uint256"
        }
      ],
      "name": "Transfer",
      "type": "event"
    },
    {
      "inputs": [],
      "name": "_baseUri",
      "outputs": [
        {
          "internalType": "string",
          "name": "",
          "type": "string"
        }
      ],
      "stateMutability": "view",
      "type": "function"
    },
    {
      "inputs": [
        {
          "internalType": "address",
          "name": "",
          "type": "address"
        }
      ],
      "name": "_claimedReward",
      "outputs": [
        {
          "internalType": "uint256",
          "name": "",
          "type": "uint256"
        }
      ],
      "stateMutability": "view",
      "type": "function"
    },
    {
      "inputs": [],
      "name": "_maxTotal",
      "outputs": [
        {
          "internalType": "uint256",
          "name": "",
          "type": "uint256"
        }
      ],
      "stateMutability": "view",
      "type": "function"
    },
    {
      "inputs": [],
      "name": "_mintPoolAddress",
      "outputs": [
        {
          "internalType": "address",
          "name": "",
          "type": "address"
        }
      ],
      "stateMutability": "view",
      "type": "function"
    },
    {
      "inputs": [
        {
          "internalType": "address",
          "name": "",
          "type": "address"
        }
      ],
      "name": "_minter",
      "outputs": [
        {
          "internalType": "bool",
          "name": "",
          "type": "bool"
        }
      ],
      "stateMutability": "view",
      "type": "function"
    },
    {
      "inputs": [
        {
          "internalType": "uint256",
          "name": "",
          "type": "uint256"
        }
      ],
      "name": "_nftRewardDebt",
      "outputs": [
        {
          "internalType": "uint256",
          "name": "",
          "type": "uint256"
        }
      ],
      "stateMutability": "view",
      "type": "function"
    },
    {
      "inputs": [
        {
          "internalType": "address",
          "name": "",
          "type": "address"
        }
      ],
      "name": "_rewardAdmin",
      "outputs": [
        {
          "internalType": "bool",
          "name": "",
          "type": "bool"
        }
      ],
      "stateMutability": "view",
      "type": "function"
    },
    {
      "inputs": [],
      "name": "_sameUri",
      "outputs": [
        {
          "internalType": "string",
          "name": "",
          "type": "string"
        }
      ],
      "stateMutability": "view",
      "type": "function"
    },
    {
      "inputs": [],
      "name": "_suffix",
      "outputs": [
        {
          "internalType": "string",
          "name": "",
          "type": "string"
        }
      ],
      "stateMutability": "view",
      "type": "function"
    },
    {
      "inputs": [],
      "name": "_tokenId",
      "outputs": [
        {
          "internalType": "uint256",
          "name": "",
          "type": "uint256"
        }
      ],
      "stateMutability": "view",
      "type": "function"
    },
    {
      "inputs": [],
      "name": "_totalReward",
      "outputs": [
        {
          "internalType": "uint256",
          "name": "",
          "type": "uint256"
        }
      ],
      "stateMutability": "view",
      "type": "function"
    },
    {
      "inputs": [],
      "name": "accRewardPerShare",
      "outputs": [
        {
          "internalType": "uint256",
          "name": "",
          "type": "uint256"
        }
      ],
      "stateMutability": "view",
      "type": "function"
    },
    {
      "inputs": [
        {
          "internalType": "uint256",
          "name": "rewardAmount",
          "type": "uint256"
        }
      ],
      "name": "addTokenReward",
      "outputs": [],
      "stateMutability": "nonpayable",
      "type": "function"
    },
    {
      "inputs": [
        {
          "internalType": "address",
          "name": "to",
          "type": "address"
        },
        {
          "internalType": "uint256",
          "name": "tokenId",
          "type": "uint256"
        }
      ],
      "name": "approve",
      "outputs": [],
      "stateMutability": "nonpayable",
      "type": "function"
    },
    {
      "inputs": [
        {
          "internalType": "address",
          "name": "owner",
          "type": "address"
        }
      ],
      "name": "balanceOf",
      "outputs": [
        {
          "internalType": "uint256",
          "name": "",
          "type": "uint256"
        }
      ],
      "stateMutability": "view",
      "type": "function"
    },
    {
      "inputs": [
        {
          "internalType": "address",
          "name": "to",
          "type": "address"
        },
        {
          "internalType": "uint256",
          "name": "amount",
          "type": "uint256"
        }
      ],
      "name": "claimBalance",
      "outputs": [],
      "stateMutability": "nonpayable",
      "type": "function"
    },
    {
      "inputs": [],
      "name": "claimReward",
      "outputs": [],
      "stateMutability": "nonpayable",
      "type": "function"
    },
    {
      "inputs": [
        {
          "internalType": "address",
          "name": "token",
          "type": "address"
        },
        {
          "internalType": "address",
          "name": "to",
          "type": "address"
        },
        {
          "internalType": "uint256",
          "name": "amount",
          "type": "uint256"
        }
      ],
      "name": "claimToken",
      "outputs": [],
      "stateMutability": "nonpayable",
      "type": "function"
    },
    {
      "inputs": [],
      "name": "fundAddress",
      "outputs": [
        {
          "internalType": "address",
          "name": "",
          "type": "address"
        }
      ],
      "stateMutability": "view",
      "type": "function"
    },
    {
      "inputs": [
        {
          "internalType": "uint256",
          "name": "tokenId",
          "type": "uint256"
        }
      ],
      "name": "getApproved",
      "outputs": [
        {
          "internalType": "address",
          "name": "",
          "type": "address"
        }
      ],
      "stateMutability": "view",
      "type": "function"
    },
    {
      "inputs": [
        {
          "internalType": "address",
          "name": "account",
          "type": "address"
        }
      ],
      "name": "getUserInfo",
      "outputs": [
        {
          "internalType": "uint256",
          "name": "nftNum",
          "type": "uint256"
        },
        {
          "internalType": "uint256",
          "name": "claimedReward",
          "type": "uint256"
        },
        {
          "internalType": "uint256",
          "name": "pendingToken",
          "type": "uint256"
        }
      ],
      "stateMutability": "view",
      "type": "function"
    },
    {
      "inputs": [
        {
          "internalType": "address",
          "name": "",
          "type": "address"
        }
      ],
      "name": "hasMinted",
      "outputs": [
        {
          "internalType": "bool",
          "name": "",
          "type": "bool"
        }
      ],
      "stateMutability": "view",
      "type": "function"
    },
    {
      "inputs": [
        {
          "internalType": "address",
          "name": "_fundAddress",
          "type": "address"
        },
        {
          "internalType": "address",
          "name": "_rewardToken",
          "type": "address"
        },
        {
          "internalType": "address",
          "name": "_owner",
          "type": "address"
        }
      ],
      "name": "initialize",
      "outputs": [],
      "stateMutability": "nonpayable",
      "type": "function"
    },
    {
      "inputs": [
        {
          "internalType": "address",
          "name": "owner",
          "type": "address"
        },
        {
          "internalType": "address",
          "name": "operator",
          "type": "address"
        }
      ],
      "name": "isApprovedForAll",
      "outputs": [
        {
          "internalType": "bool",
          "name": "",
          "type": "bool"
        }
      ],
      "stateMutability": "view",
      "type": "function"
    },
    {
      "inputs": [],
      "name": "mint",
      "outputs": [],
      "stateMutability": "nonpayable",
      "type": "function"
    },
    {
      "inputs": [
        {
          "internalType": "address",
          "name": "to",
          "type": "address"
        },
        {
          "internalType": "uint256",
          "name": "num",
          "type": "uint256"
        }
      ],
      "name": "mint",
      "outputs": [],
      "stateMutability": "nonpayable",
      "type": "function"
    },
    {
      "inputs": [
        {
          "internalType": "address[]",
          "name": "to",
          "type": "address[]"
        }
      ],
      "name": "mint",
      "outputs": [],
      "stateMutability": "nonpayable",
      "type": "function"
    },
    {
      "inputs": [],
      "name": "name",
      "outputs": [
        {
          "internalType": "string",
          "name": "",
          "type": "string"
        }
      ],
      "stateMutability": "view",
      "type": "function"
    },
    {
      "inputs": [],
      "name": "owner",
      "outputs": [
        {
          "internalType": "address",
          "name": "",
          "type": "address"
        }
      ],
      "stateMutability": "view",
      "type": "function"
    },
    {
      "inputs": [
        {
          "internalType": "uint256",
          "name": "tokenId",
          "type": "uint256"
        }
      ],
      "name": "ownerOf",
      "outputs": [
        {
          "internalType": "address",
          "name": "",
          "type": "address"
        }
      ],
      "stateMutability": "view",
      "type": "function"
    },
    {
      "inputs": [
        {
          "internalType": "uint256",
          "name": "nftId",
          "type": "uint256"
        }
      ],
      "name": "pendingNFTReward",
      "outputs": [
        {
          "internalType": "uint256",
          "name": "reward",
          "type": "uint256"
        }
      ],
      "stateMutability": "view",
      "type": "function"
    },
    {
      "inputs": [
        {
          "internalType": "address",
          "name": "account",
          "type": "address"
        }
      ],
      "name": "pendingReward",
      "outputs": [
        {
          "internalType": "uint256",
          "name": "reward",
          "type": "uint256"
        }
      ],
      "stateMutability": "view",
      "type": "function"
    },
    {
      "inputs": [],
      "name": "renounceOwnership",
      "outputs": [],
      "stateMutability": "nonpayable",
      "type": "function"
    },
    {
      "inputs": [],
      "name": "rewardToken",
      "outputs": [
        {
          "internalType": "address",
          "name": "",
          "type": "address"
        }
      ],
      "stateMutability": "view",
      "type": "function"
    },
    {
      "inputs": [
        {
          "internalType": "address",
          "name": "from",
          "type": "address"
        },
        {
          "internalType": "address",
          "name": "to",
          "type": "address"
        },
        {
          "internalType": "uint256",
          "name": "tokenId",
          "type": "uint256"
        }
      ],
      "name": "safeTransferFrom",
      "outputs": [],
      "stateMutability": "nonpayable",
      "type": "function"
    },
    {
      "inputs": [
        {
          "internalType": "address",
          "name": "from",
          "type": "address"
        },
        {
          "internalType": "address",
          "name": "to",
          "type": "address"
        },
        {
          "internalType": "uint256",
          "name": "tokenId",
          "type": "uint256"
        },
        {
          "internalType": "bytes",
          "name": "data",
          "type": "bytes"
        }
      ],
      "name": "safeTransferFrom",
      "outputs": [],
      "stateMutability": "nonpayable",
      "type": "function"
    },
    {
      "inputs": [
        {
          "internalType": "uint256",
          "name": "accRewardPerShare_",
          "type": "uint256"
        }
      ],
      "name": "setAccRewardPerShare",
      "outputs": [],
      "stateMutability": "nonpayable",
      "type": "function"
    },
    {
      "inputs": [
        {
          "internalType": "address",
          "name": "operator",
          "type": "address"
        },
        {
          "internalType": "bool",
          "name": "approved",
          "type": "bool"
        }
      ],
      "name": "setApprovalForAll",
      "outputs": [],
      "stateMutability": "nonpayable",
      "type": "function"
    },
    {
      "inputs": [
        {
          "internalType": "string",
          "name": "uri",
          "type": "string"
        },
        {
          "internalType": "string",
          "name": "suffix",
          "type": "string"
        }
      ],
      "name": "setBaseUri",
      "outputs": [],
      "stateMutability": "nonpayable",
      "type": "function"
    },
    {
      "inputs": [
        {
          "internalType": "address[]",
          "name": "users_",
          "type": "address[]"
        },
        {
          "internalType": "uint256[]",
          "name": "reward_",
          "type": "uint256[]"
        }
      ],
      "name": "setClaimedReward",
      "outputs": [],
      "stateMutability": "nonpayable",
      "type": "function"
    },
    {
      "inputs": [
        {
          "internalType": "address",
          "name": "a",
          "type": "address"
        }
      ],
      "name": "setFundAddress",
      "outputs": [],
      "stateMutability": "nonpayable",
      "type": "function"
    },
    {
      "inputs": [
        {
          "internalType": "address[]",
          "name": "users_",
          "type": "address[]"
        },
        {
          "internalType": "bool[]",
          "name": "hasMinted_",
          "type": "bool[]"
        }
      ],
      "name": "setHasMinted",
      "outputs": [],
      "stateMutability": "nonpayable",
      "type": "function"
    },
    {
      "inputs": [
        {
          "internalType": "uint256",
          "name": "maxTotal",
          "type": "uint256"
        }
      ],
      "name": "setMaxTotal",
      "outputs": [],
      "stateMutability": "nonpayable",
      "type": "function"
    },
    {
      "inputs": [
        {
          "internalType": "address",
          "name": "minter",
          "type": "address"
        },
        {
          "internalType": "bool",
          "name": "enable",
          "type": "bool"
        }
      ],
      "name": "setMinter",
      "outputs": [],
      "stateMutability": "nonpayable",
      "type": "function"
    },
    {
      "inputs": [
        {
          "internalType": "address",
          "name": "mintPoolAddress",
          "type": "address"
        }
      ],
      "name": "setMintpool",
      "outputs": [],
      "stateMutability": "nonpayable",
      "type": "function"
    },
    {
      "inputs": [
        {
          "internalType": "uint256[]",
          "name": "tokenIds_",
          "type": "uint256[]"
        },
        {
          "internalType": "uint256[]",
          "name": "nftRewardDebt_",
          "type": "uint256[]"
        }
      ],
      "name": "setNftRewardDebt",
      "outputs": [],
      "stateMutability": "nonpayable",
      "type": "function"
    },
    {
      "inputs": [
        {
          "internalType": "address",
          "name": "a",
          "type": "address"
        },
        {
          "internalType": "bool",
          "name": "enable",
          "type": "bool"
        }
      ],
      "name": "setRewardAdmin",
      "outputs": [],
      "stateMutability": "nonpayable",
      "type": "function"
    },
    {
      "inputs": [
        {
          "internalType": "address",
          "name": "_rewardToken",
          "type": "address"
        }
      ],
      "name": "setRewardToken",
      "outputs": [],
      "stateMutability": "nonpayable",
      "type": "function"
    },
    {
      "inputs": [
        {
          "internalType": "string",
          "name": "uri",
          "type": "string"
        }
      ],
      "name": "setSameUri",
      "outputs": [],
      "stateMutability": "nonpayable",
      "type": "function"
    },
    {
      "inputs": [
        {
          "internalType": "uint256",
          "name": "totalReward",
          "type": "uint256"
        }
      ],
      "name": "setTotalReward",
      "outputs": [],
      "stateMutability": "nonpayable",
      "type": "function"
    },
    {
      "inputs": [
        {
          "internalType": "bytes4",
          "name": "interfaceId",
          "type": "bytes4"
        }
      ],
      "name": "supportsInterface",
      "outputs": [
        {
          "internalType": "bool",
          "name": "",
          "type": "bool"
        }
      ],
      "stateMutability": "view",
      "type": "function"
    },
    {
      "inputs": [],
      "name": "symbol",
      "outputs": [
        {
          "internalType": "string",
          "name": "",
          "type": "string"
        }
      ],
      "stateMutability": "view",
      "type": "function"
    },
    {
      "inputs": [
        {
          "internalType": "uint256",
          "name": "index",
          "type": "uint256"
        }
      ],
      "name": "tokenByIndex",
      "outputs": [
        {
          "internalType": "uint256",
          "name": "",
          "type": "uint256"
        }
      ],
      "stateMutability": "view",
      "type": "function"
    },
    {
      "inputs": [
        {
          "internalType": "address",
          "name": "owner",
          "type": "address"
        },
        {
          "internalType": "uint256",
          "name": "index",
          "type": "uint256"
        }
      ],
      "name": "tokenOfOwnerByIndex",
      "outputs": [
        {
          "internalType": "uint256",
          "name": "",
          "type": "uint256"
        }
      ],
      "stateMutability": "view",
      "type": "function"
    },
    {
      "inputs": [
        {
          "internalType": "uint256",
          "name": "id",
          "type": "uint256"
        }
      ],
      "name": "tokenURI",
      "outputs": [
        {
          "internalType": "string",
          "name": "",
          "type": "string"
        }
      ],
      "stateMutability": "view",
      "type": "function"
    },
    {
      "inputs": [],
      "name": "totalSupply",
      "outputs": [
        {
          "internalType": "uint256",
          "name": "",
          "type": "uint256"
        }
      ],
      "stateMutability": "view",
      "type": "function"
    },
    {
      "inputs": [
        {
          "internalType": "address",
          "name": "from",
          "type": "address"
        },
        {
          "internalType": "address",
          "name": "to",
          "type": "address"
        },
        {
          "internalType": "uint256",
          "name": "tokenId",
          "type": "uint256"
        }
      ],
      "name": "transferFrom",
      "outputs": [],
      "stateMutability": "nonpayable",
      "type": "function"
    },
    {
      "inputs": [
        {
          "internalType": "address",
          "name": "newOwner",
          "type": "address"
        }
      ],
      "name": "transferOwnership",
      "outputs": [],
      "stateMutability": "nonpayable",
      "type": "function"
    }
  ],
  "transactionHash": "0x200b88fc0707dcfa614ac5a5b8401560ac8386921483f021411db706d9494b93",
  "args": [],
  "solcInputHash": "35c03766901468b2dac6332c186175da",
  "bytecode": "0x608060405260016101005534801561001657600080fd5b506135a6806100266000396000f3fe608060405234801561001057600080fd5b506004361061038e5760003560e01c8063715018a6116101de578063b88d4fde1161010f578063df4542a3116100ad578063f2fde38b1161007c578063f2fde38b146107e6578063f40f0f52146107f9578063f7c618c11461080c578063fa4fe7b21461082057600080fd5b8063df4542a314610770578063e51564e214610783578063e82bef2914610796578063e985e9c5146107aa57600080fd5b8063c0c53b8b116100e9578063c0c53b8b14610724578063c87b56dd14610737578063ccaf2f411461074a578063cf456ae71461075d57600080fd5b8063b88d4fde146106eb578063bc78f0d5146106fe578063bd075b841461071157600080fd5b80638da5cb5b1161017c578063a22cb46511610156578063a22cb465146106aa578063aa2bf676146106bd578063aa8b38d9146106d0578063b88a802f146106e357600080fd5b80638da5cb5b14610687578063939d62371461069857806395d89b41146106a257600080fd5b806380796bbf116101b857806380796bbf1461062b5780638093f3eb1461063e57806385dc3004146106615780638aee81271461067457600080fd5b8063715018a6146105fd57806373767cd01461060557806374786f561461061857600080fd5b80632a165b7e116102c35780634a54f6cc116102615780636386c1c7116102305780636386c1c71461058e578063678bb77b146105bc57806370a08231146105e057806370bba14b146105f357600080fd5b80634a54f6cc1461054b5780634f6ccce71461055e5780635729d04e146105715780636352211e1461057b57600080fd5b806338e21cce1161029d57806338e21cce146104f95780633e63eb2a1461051d57806340c10f191461052557806342842e0e1461053857600080fd5b80632a165b7e146104a45780632f745c59146104c557806334529a79146104d857600080fd5b806318160ddd116103305780631cb05fbe1161030a5780631cb05fbe1461046057806323b872dd1461047457806324822514146104875780632841a1431461049157600080fd5b806318160ddd1461043357806318af9a0a146104455780631a63b1461461044d57600080fd5b8063095ea7b31161036c578063095ea7b3146103fb5780631249c58b14610410578063125bfb6614610418578063130e995b1461042b57600080fd5b806301ffc9a71461039357806306fdde03146103bb578063081812fc146103d0575b600080fd5b6103a66103a13660046129da565b610833565b60405190151581526020015b60405180910390f35b6103c361085e565b6040516103b29190612a4f565b6103e36103de366004612a62565b6108f0565b6040516001600160a01b0390911681526020016103b2565b61040e610409366004612a97565b610917565b005b61040e610a31565b61040e610426366004612ac1565b610c23565b6103c3610d8e565b6099545b6040519081526020016103b2565b6103c3610e1c565b61040e61045b366004612afd565b610e29565b610104546103e3906001600160a01b031681565b61040e610482366004612ac1565b610e54565b6104376101005481565b61040e61049f366004612a62565b610e85565b6104376104b2366004612afd565b6101096020526000908152604090205481565b6104376104d3366004612a97565b610f3c565b6104376104e6366004612a62565b6101066020526000908152604090205481565b6103a6610507366004612afd565b60ff602081905260009182526040909120541681565b6103c3610fd2565b61040e610533366004612a97565b610fdf565b61040e610546366004612ac1565b6110a1565b61040e610559366004612a62565b6110bc565b61043761056c366004612a62565b6110ca565b6104376101085481565b6103e3610589366004612a62565b61115d565b6105a161059c366004612afd565b6111bd565b604080519384526020840192909252908201526060016103b2565b6103a66105ca366004612afd565b6101076020526000908152604090205460ff1681565b6104376105ee366004612afd565b6111fb565b6104376101015481565b61040e611281565b61040e610613366004612b26565b611295565b61040e610626366004612c3a565b611301565b61040e610639366004612d76565b61137f565b6103a661064c366004612afd565b60fe6020526000908152604090205460ff1681565b61040e61066f366004612afd565b6113d8565b61040e610682366004612afd565b61143b565b60c9546001600160a01b03166103e3565b6104376101055481565b6103c361149e565b61040e6106b8366004612b26565b6114ad565b61040e6106cb366004612a62565b6114b8565b61040e6106de366004612a97565b6114fe565b61040e611548565b61040e6106f9366004612dda565b6116fb565b61040e61070c366004612a62565b611733565b61040e61071f366004612e56565b611741565b61040e610732366004612e8b565b6117b4565b6103c3610745366004612a62565b6119b4565b61040e610758366004612ece565b611b13565b61040e61076b366004612b26565b611b5f565b61040e61077e366004612f5e565b611bca565b61040e610791366004612fb8565b611c34565b610102546103e3906001600160a01b031681565b6103a66107b8366004612fef565b6001600160a01b039182166000908152606a6020908152604080832093909416825291909152205460ff1690565b61040e6107f4366004612afd565b611ca5565b610437610807366004612afd565b611d1b565b610103546103e3906001600160a01b031681565b61043761082e366004612a62565b611d66565b60006001600160e01b0319821663780e9d6360e01b1480610858575061085882611d94565b92915050565b60606065805461086d90613022565b80601f016020809104026020016040519081016040528092919081815260200182805461089990613022565b80156108e65780601f106108bb576101008083540402835291602001916108e6565b820191906000526020600020905b8154815290600101906020018083116108c957829003601f168201915b5050505050905090565b60006108fb82611de4565b506000908152606960205260409020546001600160a01b031690565b60006109228261115d565b9050806001600160a01b0316836001600160a01b0316036109945760405162461bcd60e51b815260206004820152602160248201527f4552433732313a20617070726f76616c20746f2063757272656e74206f776e656044820152603960f91b60648201526084015b60405180910390fd5b336001600160a01b03821614806109b057506109b081336107b8565b610a225760405162461bcd60e51b815260206004820152603d60248201527f4552433732313a20617070726f76652063616c6c6572206973206e6f7420746f60448201527f6b656e206f776e6572206f7220617070726f76656420666f7220616c6c000000606482015260840161098b565b610a2c8383611e43565b505050565b323314610a925760405162461bcd60e51b815260206004820152602960248201527f4f6e6c792065787465726e616c20757365722063616e2063616c6c207468697360448201526810333ab731ba34b7b760b91b606482015260840161098b565b33600090815260ff60208190526040909120541615610af35760405162461bcd60e51b815260206004820152601f60248201527f596f75206861766520616c7265616479206d696e74656420746865204e465400604482015260640161098b565b6101045460405163ec747edb60e01b81523360048201526000916001600160a01b03169063ec747edb90602401602060405180830381865afa158015610b3d573d6000803e3d6000fd5b505050506040513d601f19601f82011682018060405250810190610b61919061305c565b905060008111610b9e5760405162461bcd60e51b8152602060048201526008602482015267139bc81b195d995b60c21b604482015260640161098b565b8015610c205761010054610bb23382611eb1565b64e8d4a5100061010554610bc691906130a1565b60008281526101066020526040902055600101610100819055610101546099541115610c045760405162461bcd60e51b815260040161098b906130b5565b5033600090815260ff60205260409020805460ff191660011790555b50565b610102546001600160a01b0316331480610c47575060c9546001600160a01b031633145b610c635760405162461bcd60e51b815260040161098b906130df565b6040516370a0823160e01b8152306004820152839082906001600160a01b038316906370a0823190602401602060405180830381865afa158015610cab573d6000803e3d6000fd5b505050506040513d601f19601f82011682018060405250810190610ccf919061305c565b1015610d145760405162461bcd60e51b8152602060048201526014602482015273496e73756666696369656e742062616c616e636560601b604482015260640161098b565b60405163a9059cbb60e01b81526001600160a01b0384811660048301526024820184905282169063a9059cbb906044016020604051808303816000875af1158015610d63573d6000803e3d6000fd5b505050506040513d601f19601f82011682018060405250810190610d879190613108565b5050505050565b60fc8054610d9b90613022565b80601f0160208091040260200160405190810160405280929190818152602001828054610dc790613022565b8015610e145780601f10610de957610100808354040283529160200191610e14565b820191906000526020600020905b815481529060010190602001808311610df757829003601f168201915b505050505081565b60fd8054610d9b90613022565b610e3161204a565b61010480546001600160a01b0319166001600160a01b0392909216919091179055565b610e5e33826120a4565b610e7a5760405162461bcd60e51b815260040161098b90613125565b610a2c838383612123565b336000908152610107602052604090205460ff16610ed95760405162461bcd60e51b815260206004820152601160248201527037b7363c903932bbb0b9321030b236b4b760791b604482015260640161098b565b6000610ee460995490565b90508015610f385780610efc8364e8d4a51000613172565b610f0691906130a1565b6101056000828254610f189190613191565b92505081905550816101086000828254610f329190613191565b90915550505b5050565b6000610f47836111fb565b8210610fa95760405162461bcd60e51b815260206004820152602b60248201527f455243373231456e756d657261626c653a206f776e657220696e646578206f7560448201526a74206f6620626f756e647360a81b606482015260840161098b565b506001600160a01b03919091166000908152609760209081526040808320938352929052205490565b60fb8054610d9b90613022565b33600090815260fe602052604090205460ff1661102c5760405162461bcd60e51b815260206004820152600b60248201526a37b7363c9036b4b73a32b960a91b604482015260640161098b565b6101005460005b82811015611075576110458483611eb1565b64e8d4a510006101055461105991906130a1565b6000838152610106602052604090205560019182019101611033565b50610100819055610101546099541115610a2c5760405162461bcd60e51b815260040161098b906130b5565b610a2c838383604051806020016040528060008152506116fb565b6110c461204a565b61010555565b60006110d560995490565b82106111385760405162461bcd60e51b815260206004820152602c60248201527f455243373231456e756d657261626c653a20676c6f62616c20696e646578206f60448201526b7574206f6620626f756e647360a01b606482015260840161098b565b6099828154811061114b5761114b6131a9565b90600052602060002001549050919050565b6000818152606760205260408120546001600160a01b0316806108585760405162461bcd60e51b8152602060048201526018602482015277115490cdcc8c4e881a5b9d985b1a59081d1bdad95b88125160421b604482015260640161098b565b60008060006111cb846111fb565b6001600160a01b0385166000908152610109602052604090205490935091506111f384611d1b565b929491935050565b60006001600160a01b0382166112655760405162461bcd60e51b815260206004820152602960248201527f4552433732313a2061646472657373207a65726f206973206e6f7420612076616044820152683634b21037bbb732b960b91b606482015260840161098b565b506001600160a01b031660009081526068602052604090205490565b61128961204a565b6112936000612294565b565b610102546001600160a01b03163314806112b9575060c9546001600160a01b031633145b6112d55760405162461bcd60e51b815260040161098b906130df565b6001600160a01b0391909116600090815261010760205260409020805460ff1916911515919091179055565b61130961204a565b60005b8251811015610a2c57818181518110611327576113276131a9565b602002602001015160ff6000858481518110611345576113456131a9565b6020908102919091018101516001600160a01b03168252810191909152604001600020805460ff191691151591909117905560010161130c565b610102546001600160a01b03163314806113a3575060c9546001600160a01b031633145b6113bf5760405162461bcd60e51b815260040161098b906130df565b60fb6113cb838261320d565b5060fc610a2c828261320d565b610102546001600160a01b03163314806113fc575060c9546001600160a01b031633145b6114185760405162461bcd60e51b815260040161098b906130df565b61010280546001600160a01b0319166001600160a01b0392909216919091179055565b610102546001600160a01b031633148061145f575060c9546001600160a01b031633145b61147b5760405162461bcd60e51b815260040161098b906130df565b61010380546001600160a01b0319166001600160a01b0392909216919091179055565b60606066805461086d90613022565b610f383383836122e6565b610102546001600160a01b03163314806114dc575060c9546001600160a01b031633145b6114f85760405162461bcd60e51b815260040161098b906130df565b61010155565b610102546001600160a01b0316331480611522575060c9546001600160a01b031633145b61153e5760405162461bcd60e51b815260040161098b906130df565b610f3882826123b4565b600061155333611d1b565b610103546040516370a0823160e01b81523060048201529192506001600160a01b031690829082906370a0823190602401602060405180830381865afa1580156115a1573d6000803e3d6000fd5b505050506040513d601f19601f820116820180604052508101906115c5919061305c565b101561160a5760405162461bcd60e51b8152602060048201526014602482015273496e73756666696369656e742062616c616e636560601b604482015260640161098b565b60405163a9059cbb60e01b8152336004820152602481018390526001600160a01b0382169063a9059cbb906044016020604051808303816000875af1158015611657573d6000803e3d6000fd5b505050506040513d601f19601f8201168201806040525081019061167b9190613108565b506000611687336111fb565b905060005b818110156116d05764e8d4a51000610105546116a891906130a1565b61010660006116b73385610f3c565b815260208101919091526040016000205560010161168c565b503360009081526101096020526040812080548592906116f1908490613191565b9091555050505050565b61170533836120a4565b6117215760405162461bcd60e51b815260040161098b90613125565b61172d84848484612461565b50505050565b61173b61204a565b61010855565b61174961204a565b60005b815181101561178e5761177b82828151811061176a5761176a6131a9565b602002602001015161010054611eb1565b610100805460019081019091550161174c565b50610101546099541115610c205760405162461bcd60e51b815260040161098b906130b5565b600054610100900460ff16158080156117d45750600054600160ff909116105b806117ee5750303b1580156117ee575060005460ff166001145b6118515760405162461bcd60e51b815260206004820152602e60248201527f496e697469616c697a61626c653a20636f6e747261637420697320616c72656160448201526d191e481a5b9a5d1a585b1a5e995960921b606482015260840161098b565b6000805460ff191660011790558015611874576000805461ff0019166101001790555b6118ba604051806040016040528060068152602001651093d4d3919560d21b815250604051806040016040528060068152602001651093d4d3919560d21b815250612494565b61010280546001600160a01b038087166001600160a01b0319928316179092556101038054928616929091169190911790556103786101015560408051608081019091526051808252613520602083013960fb90611918908261320d565b50604080518082019091526005815264173539b7b760d91b602082015260fc90611942908261320d565b5060408051602081019091526000815260fd9061195f908261320d565b5061196982612294565b801561172d576000805461ff0019169055604051600181527f7f26b83ff96e1f2b6a682f133852f6798a09c465da95921460cefb38474024989060200160405180910390a150505050565b6060600060fb80546119c590613022565b80601f01602080910402602001604051908101604052809291908181526020018280546119f190613022565b8015611a3e5780601f10611a1357610100808354040283529160200191611a3e565b820191906000526020600020905b815481529060010190602001808311611a2157829003601f168201915b505050505090508051600003611ade5760fd8054611a5b90613022565b80601f0160208091040260200160405190810160405280929190818152602001828054611a8790613022565b8015611ad45780601f10611aa957610100808354040283529160200191611ad4565b820191906000526020600020905b815481529060010190602001808311611ab757829003601f168201915b5050505050611b0c565b80611ae8846124c5565b60fc604051602001611afc939291906132cd565b6040516020818303038152906040525b9392505050565b610102546001600160a01b0316331480611b37575060c9546001600160a01b031633145b611b535760405162461bcd60e51b815260040161098b906130df565b60fd610f38828261320d565b610102546001600160a01b0316331480611b83575060c9546001600160a01b031633145b611b9f5760405162461bcd60e51b815260040161098b906130df565b6001600160a01b0391909116600090815260fe60205260409020805460ff1916911515919091179055565b611bd261204a565b60005b8251811015610a2c57818181518110611bf057611bf06131a9565b60200260200101516101066000848481518110611c0f57611c0f6131a9565b6020026020010151815260200190815260200160002081905550806001019050611bd5565b611c3c61204a565b60005b8251811015610a2c57818181518110611c5a57611c5a6131a9565b60200260200101516101096000858481518110611c7957611c796131a9565b6020908102919091018101516001600160a01b0316825281019190915260400160002055600101611c3f565b611cad61204a565b6001600160a01b038116611d125760405162461bcd60e51b815260206004820152602660248201527f4f776e61626c653a206e6577206f776e657220697320746865207a65726f206160448201526564647265737360d01b606482015260840161098b565b610c2081612294565b600080611d27836111fb565b905060005b81811015611d5f57611d4161082e8583610f3c565b611d4b9084613191565b925080611d578161336d565b915050611d2c565b5050919050565b6000818152610106602052604081205461010554611d8a9064e8d4a51000906130a1565b6108589190613386565b60006001600160e01b031982166380ac58cd60e01b1480611dc557506001600160e01b03198216635b5e139f60e01b145b8061085857506301ffc9a760e01b6001600160e01b0319831614610858565b6000818152606760205260409020546001600160a01b0316610c205760405162461bcd60e51b8152602060048201526018602482015277115490cdcc8c4e881a5b9d985b1a59081d1bdad95b88125160421b604482015260640161098b565b600081815260696020526040902080546001600160a01b0319166001600160a01b0384169081179091558190611e788261115d565b6001600160a01b03167f8c5be1e5ebec7d5bd14f71427d1e84f3dd0314c0f7b2291e5b200ac8c7c3b92560405160405180910390a45050565b6001600160a01b038216611f075760405162461bcd60e51b815260206004820181905260248201527f4552433732313a206d696e7420746f20746865207a65726f2061646472657373604482015260640161098b565b6000818152606760205260409020546001600160a01b031615611f6c5760405162461bcd60e51b815260206004820152601c60248201527f4552433732313a20746f6b656e20616c7265616479206d696e74656400000000604482015260640161098b565b611f7a6000838360016125c6565b6000818152606760205260409020546001600160a01b031615611fdf5760405162461bcd60e51b815260206004820152601c60248201527f4552433732313a20746f6b656e20616c7265616479206d696e74656400000000604482015260640161098b565b6001600160a01b038216600081815260686020908152604080832080546001019055848352606790915280822080546001600160a01b0319168417905551839291907fddf252ad1be2c89b69c2b068fc378daa952ba7f163c4a11628f55a4df523b3ef908290a45050565b60c9546001600160a01b031633146112935760405162461bcd60e51b815260206004820181905260248201527f4f776e61626c653a2063616c6c6572206973206e6f7420746865206f776e6572604482015260640161098b565b6000806120b08361115d565b9050806001600160a01b0316846001600160a01b031614806120f757506001600160a01b038082166000908152606a602090815260408083209388168352929052205460ff165b8061211b5750836001600160a01b0316612110846108f0565b6001600160a01b0316145b949350505050565b826001600160a01b03166121368261115d565b6001600160a01b03161461215c5760405162461bcd60e51b815260040161098b9061339d565b6001600160a01b0382166121be5760405162461bcd60e51b8152602060048201526024808201527f4552433732313a207472616e7366657220746f20746865207a65726f206164646044820152637265737360e01b606482015260840161098b565b6121cb83838360016125c6565b826001600160a01b03166121de8261115d565b6001600160a01b0316146122045760405162461bcd60e51b815260040161098b9061339d565b600081815260696020908152604080832080546001600160a01b03199081169091556001600160a01b0387811680865260688552838620805460001901905590871680865283862080546001019055868652606790945282852080549092168417909155905184937fddf252ad1be2c89b69c2b068fc378daa952ba7f163c4a11628f55a4df523b3ef91a4505050565b60c980546001600160a01b038381166001600160a01b0319831681179093556040519116919082907f8be0079c531659141344cd1fd0a4f28419497f9722a3daafe3b4186f6b6457e090600090a35050565b816001600160a01b0316836001600160a01b0316036123475760405162461bcd60e51b815260206004820152601960248201527f4552433732313a20617070726f766520746f2063616c6c657200000000000000604482015260640161098b565b6001600160a01b038381166000818152606a6020908152604080832094871680845294825291829020805460ff191686151590811790915591519182527f17307eab39ab6107e8899845ad3d59bd9653f200f220920489ca2b5937696c31910160405180910390a3505050565b604080516000808252602082019092526001600160a01b0384169083906040516123de91906133e2565b60006040518083038185875af1925050503d806000811461241b576040519150601f19603f3d011682016040523d82523d6000602084013e612420565b606091505b5050905080610a2c5760405162461bcd60e51b815260206004820152600d60248201526c1d1c985b9cd9995c8819985a5b609a1b604482015260640161098b565b61246c848484612123565b612478848484846126f3565b61172d5760405162461bcd60e51b815260040161098b906133fe565b600054610100900460ff166124bb5760405162461bcd60e51b815260040161098b90613450565b610f3882826127f4565b6060816000036124ec5750506040805180820190915260018152600360fc1b602082015290565b8160005b811561251657806125008161336d565b915061250f9050600a836130a1565b91506124f0565b60008167ffffffffffffffff81111561253157612531612b5d565b6040519080825280601f01601f19166020018201604052801561255b576020820181803683370190505b5090505b841561211b57612570600183613386565b915061257d600a8661349b565b612588906030613191565b60f81b81838151811061259d5761259d6131a9565b60200101906001600160f81b031916908160001a9053506125bf600a866130a1565b945061255f565b60018111156126355760405162461bcd60e51b815260206004820152603560248201527f455243373231456e756d657261626c653a20636f6e7365637574697665207472604482015274185b9cd9995c9cc81b9bdd081cdd5c1c1bdc9d1959605a1b606482015260840161098b565b816001600160a01b0385166126915761268c81609980546000838152609a60205260408120829055600182018355919091527f72a152ddfb8e864297c917af52ea6c1c68aead0fee1a62673fcc7e0c94979d000155565b6126b4565b836001600160a01b0316856001600160a01b0316146126b4576126b48582612834565b6001600160a01b0384166126d0576126cb816128d1565b610d87565b846001600160a01b0316846001600160a01b031614610d8757610d878482612980565b60006001600160a01b0384163b156127e957604051630a85bd0160e11b81526001600160a01b0385169063150b7a02906127379033908990889088906004016134af565b6020604051808303816000875af1925050508015612772575060408051601f3d908101601f1916820190925261276f918101906134ec565b60015b6127cf573d8080156127a0576040519150601f19603f3d011682016040523d82523d6000602084013e6127a5565b606091505b5080516000036127c75760405162461bcd60e51b815260040161098b906133fe565b805181602001fd5b6001600160e01b031916630a85bd0160e11b14905061211b565b506001949350505050565b600054610100900460ff1661281b5760405162461bcd60e51b815260040161098b90613450565b6065612827838261320d565b506066610a2c828261320d565b60006001612841846111fb565b61284b9190613386565b60008381526098602052604090205490915080821461289e576001600160a01b03841660009081526097602090815260408083208584528252808320548484528184208190558352609890915290208190555b5060009182526098602090815260408084208490556001600160a01b039094168352609781528383209183525290812055565b6099546000906128e390600190613386565b6000838152609a60205260408120546099805493945090928490811061290b5761290b6131a9565b90600052602060002001549050806099838154811061292c5761292c6131a9565b6000918252602080832090910192909255828152609a9091526040808220849055858252812055609980548061296457612964613509565b6001900381819060005260206000200160009055905550505050565b600061298b836111fb565b6001600160a01b039093166000908152609760209081526040808320868452825280832085905593825260989052919091209190915550565b6001600160e01b031981168114610c2057600080fd5b6000602082840312156129ec57600080fd5b8135611b0c816129c4565b60005b83811015612a125781810151838201526020016129fa565b8381111561172d5750506000910152565b60008151808452612a3b8160208601602086016129f7565b601f01601f19169290920160200192915050565b602081526000611b0c6020830184612a23565b600060208284031215612a7457600080fd5b5035919050565b80356001600160a01b0381168114612a9257600080fd5b919050565b60008060408385031215612aaa57600080fd5b612ab383612a7b565b946020939093013593505050565b600080600060608486031215612ad657600080fd5b612adf84612a7b565b9250612aed60208501612a7b565b9150604084013590509250925092565b600060208284031215612b0f57600080fd5b611b0c82612a7b565b8015158114610c2057600080fd5b60008060408385031215612b3957600080fd5b612b4283612a7b565b91506020830135612b5281612b18565b809150509250929050565b634e487b7160e01b600052604160045260246000fd5b604051601f8201601f1916810167ffffffffffffffff81118282101715612b9c57612b9c612b5d565b604052919050565b600067ffffffffffffffff821115612bbe57612bbe612b5d565b5060051b60200190565b600082601f830112612bd957600080fd5b81356020612bee612be983612ba4565b612b73565b82815260059290921b84018101918181019086841115612c0d57600080fd5b8286015b84811015612c2f57612c2281612a7b565b8352918301918301612c11565b509695505050505050565b60008060408385031215612c4d57600080fd5b823567ffffffffffffffff80821115612c6557600080fd5b612c7186838701612bc8565b9350602091508185013581811115612c8857600080fd5b85019050601f81018613612c9b57600080fd5b8035612ca9612be982612ba4565b81815260059190911b82018301908381019088831115612cc857600080fd5b928401925b82841015612cef578335612ce081612b18565b82529284019290840190612ccd565b80955050505050509250929050565b600067ffffffffffffffff831115612d1857612d18612b5d565b612d2b601f8401601f1916602001612b73565b9050828152838383011115612d3f57600080fd5b828260208301376000602084830101529392505050565b600082601f830112612d6757600080fd5b611b0c83833560208501612cfe565b60008060408385031215612d8957600080fd5b823567ffffffffffffffff80821115612da157600080fd5b612dad86838701612d56565b93506020850135915080821115612dc357600080fd5b50612dd085828601612d56565b9150509250929050565b60008060008060808587031215612df057600080fd5b612df985612a7b565b9350612e0760208601612a7b565b925060408501359150606085013567ffffffffffffffff811115612e2a57600080fd5b8501601f81018713612e3b57600080fd5b612e4a87823560208401612cfe565b91505092959194509250565b600060208284031215612e6857600080fd5b813567ffffffffffffffff811115612e7f57600080fd5b61211b84828501612bc8565b600080600060608486031215612ea057600080fd5b612ea984612a7b565b9250612eb760208501612a7b565b9150612ec560408501612a7b565b90509250925092565b600060208284031215612ee057600080fd5b813567ffffffffffffffff811115612ef757600080fd5b61211b84828501612d56565b600082601f830112612f1457600080fd5b81356020612f24612be983612ba4565b82815260059290921b84018101918181019086841115612f4357600080fd5b8286015b84811015612c2f5780358352918301918301612f47565b60008060408385031215612f7157600080fd5b823567ffffffffffffffff80821115612f8957600080fd5b612f9586838701612f03565b93506020850135915080821115612fab57600080fd5b50612dd085828601612f03565b60008060408385031215612fcb57600080fd5b823567ffffffffffffffff80821115612fe357600080fd5b612f9586838701612bc8565b6000806040838503121561300257600080fd5b61300b83612a7b565b915061301960208401612a7b565b90509250929050565b600181811c9082168061303657607f821691505b60208210810361305657634e487b7160e01b600052602260045260246000fd5b50919050565b60006020828403121561306e57600080fd5b5051919050565b634e487b7160e01b600052601260045260246000fd5b634e487b7160e01b600052601160045260246000fd5b6000826130b0576130b0613075565b500490565b60208082526010908201526f0e8dee8c2d840e6eae0e0d8f240dac2f60831b604082015260600190565b6020808252600f908201526e1bdb9b1e481dda1a5d19481b1a5cdd608a1b604082015260600190565b60006020828403121561311a57600080fd5b8151611b0c81612b18565b6020808252602d908201527f4552433732313a2063616c6c6572206973206e6f7420746f6b656e206f776e6560408201526c1c881bdc88185c1c1c9bdd9959609a1b606082015260800190565b600081600019048311821515161561318c5761318c61308b565b500290565b600082198211156131a4576131a461308b565b500190565b634e487b7160e01b600052603260045260246000fd5b601f821115610a2c57600081815260208120601f850160051c810160208610156131e65750805b601f850160051c820191505b81811015613205578281556001016131f2565b505050505050565b815167ffffffffffffffff81111561322757613227612b5d565b61323b816132358454613022565b846131bf565b602080601f83116001811461327057600084156132585750858301515b600019600386901b1c1916600185901b178555613205565b600085815260208120601f198616915b8281101561329f57888601518255948401946001909101908401613280565b50858210156132bd5787850151600019600388901b60f8161c191681555b5050505050600190811b01905550565b6000845160206132e08285838a016129f7565b8551918401916132f38184848a016129f7565b855492019160009061330481613022565b6001828116801561331c57600181146133315761335d565b60ff198416875282151583028701945061335d565b896000528560002060005b848110156133555781548982015290830190870161333c565b505082870194505b50929a9950505050505050505050565b60006001820161337f5761337f61308b565b5060010190565b6000828210156133985761339861308b565b500390565b60208082526025908201527f4552433732313a207472616e736665722066726f6d20696e636f72726563742060408201526437bbb732b960d91b606082015260800190565b600082516133f48184602087016129f7565b9190910192915050565b60208082526032908201527f4552433732313a207472616e7366657220746f206e6f6e20455243373231526560408201527131b2b4bb32b91034b6b83632b6b2b73a32b960711b606082015260800190565b6020808252602b908201527f496e697469616c697a61626c653a20636f6e7472616374206973206e6f74206960408201526a6e697469616c697a696e6760a81b606082015260800190565b6000826134aa576134aa613075565b500690565b6001600160a01b03858116825284166020820152604081018390526080606082018190526000906134e290830184612a23565b9695505050505050565b6000602082840312156134fe57600080fd5b8151611b0c816129c4565b634e487b7160e01b600052603160045260246000fdfe68747470733a2f2f676174657761792e70696e6174612e636c6f75642f697066732f516d556f6953685a7076786b6e48576e5331764a4b366e6d47724b754276697a3348707158466a79344e7037416f2fa264697066735822122097cb7351f08f74421ba14a9af4f3c9b92d1848b67bebc62a32685d8c3656a27164736f6c634300080f0033",
  "devdoc": {
    "kind": "dev",
    "methods": {
      "approve(address,uint256)": {
        "details": "See {IERC721-approve}."
      },
      "balanceOf(address)": {
        "details": "See {IERC721-balanceOf}."
      },
      "getApproved(uint256)": {
        "details": "See {IERC721-getApproved}."
      },
      "isApprovedForAll(address,address)": {
        "details": "See {IERC721-isApprovedForAll}."
      },
      "name()": {
        "details": "See {IERC721Metadata-name}."
      },
      "owner()": {
        "details": "Returns the address of the current owner."
      },
      "ownerOf(uint256)": {
        "details": "See {IERC721-ownerOf}."
      },
      "renounceOwnership()": {
        "details": "Leaves the contract without owner. It will not be possible to call `onlyOwner` functions. Can only be called by the current owner. NOTE: Renouncing ownership will leave the contract without an owner, thereby disabling any functionality that is only available to the owner."
      },
      "safeTransferFrom(address,address,uint256)": {
        "details": "See {IERC721-safeTransferFrom}."
      },
      "safeTransferFrom(address,address,uint256,bytes)": {
        "details": "See {IERC721-safeTransferFrom}."
      },
      "setApprovalForAll(address,bool)": {
        "details": "See {IERC721-setApprovalForAll}."
      },
      "supportsInterface(bytes4)": {
        "details": "See {IERC165-supportsInterface}."
      },
      "symbol()": {
        "details": "See {IERC721Metadata-symbol}."
      },
      "tokenByIndex(uint256)": {
        "details": "See {IERC721Enumerable-tokenByIndex}."
      },
      "tokenOfOwnerByIndex(address,uint256)": {
        "details": "See {IERC721Enumerable-tokenOfOwnerByIndex}."
      },
      "totalSupply()": {
        "details": "See {IERC721Enumerable-totalSupply}."
      },
      "transferFrom(address,address,uint256)": {
        "details": "See {IERC721-transferFrom}."
      },
      "transferOwnership(address)": {
        "details": "Transfers ownership of the contract to a new account (`newOwner`). Can only be called by the current owner."
      }
    },
    "version": 1
  },
  "userdoc": {
    "kind": "user",
    "methods": {},
    "version": 1
  },
  "storageLayout": {
    "storage": [
      {
        "astId": 164,
        "contract": "contracts/BosNft.sol:BOSNFT",
        "label": "_initialized",
        "offset": 0,
        "slot": "0",
        "type": "t_uint8"
      },
      {
        "astId": 167,
        "contract": "contracts/BosNft.sol:BOSNFT",
        "label": "_initializing",
        "offset": 1,
        "slot": "0",
        "type": "t_bool"
      },
      {
        "astId": 3359,
        "contract": "contracts/BosNft.sol:BOSNFT",
        "label": "__gap",
        "offset": 0,
        "slot": "1",
        "type": "t_array(t_uint256)50_storage"
      },
      {
        "astId": 4358,
        "contract": "contracts/BosNft.sol:BOSNFT",
        "label": "__gap",
        "offset": 0,
        "slot": "51",
        "type": "t_array(t_uint256)50_storage"
      },
      {
        "astId": 1489,
        "contract": "contracts/BosNft.sol:BOSNFT",
        "label": "_name",
        "offset": 0,
        "slot": "101",
        "type": "t_string_storage"
      },
      {
        "astId": 1491,
        "contract": "contracts/BosNft.sol:BOSNFT",
        "label": "_symbol",
        "offset": 0,
        "slot": "102",
        "type": "t_string_storage"
      },
      {
        "astId": 1495,
        "contract": "contracts/BosNft.sol:BOSNFT",
        "label": "_owners",
        "offset": 0,
        "slot": "103",
        "type": "t_mapping(t_uint256,t_address)"
      },
      {
        "astId": 1499,
        "contract": "contracts/BosNft.sol:BOSNFT",
        "label": "_balances",
        "offset": 0,
        "slot": "104",
        "type": "t_mapping(t_address,t_uint256)"
      },
      {
        "astId": 1503,
        "contract": "contracts/BosNft.sol:BOSNFT",
        "label": "_tokenApprovals",
        "offset": 0,
        "slot": "105",
        "type": "t_mapping(t_uint256,t_address)"
      },
      {
        "astId": 1509,
        "contract": "contracts/BosNft.sol:BOSNFT",
        "label": "_operatorApprovals",
        "offset": 0,
        "slot": "106",
        "type": "t_mapping(t_address,t_mapping(t_address,t_bool))"
      },
      {
        "astId": 2411,
        "contract": "contracts/BosNft.sol:BOSNFT",
        "label": "__gap",
        "offset": 0,
        "slot": "107",
        "type": "t_array(t_uint256)44_storage"
      },
      {
        "astId": 2565,
        "contract": "contracts/BosNft.sol:BOSNFT",
        "label": "_ownedTokens",
        "offset": 0,
        "slot": "151",
        "type": "t_mapping(t_address,t_mapping(t_uint256,t_uint256))"
      },
      {
        "astId": 2569,
        "contract": "contracts/BosNft.sol:BOSNFT",
        "label": "_ownedTokensIndex",
        "offset": 0,
        "slot": "152",
        "type": "t_mapping(t_uint256,t_uint256)"
      },
      {
        "astId": 2572,
        "contract": "contracts/BosNft.sol:BOSNFT",
        "label": "_allTokens",
        "offset": 0,
        "slot": "153",
        "type": "t_array(t_uint256)dyn_storage"
      },
      {
        "astId": 2576,
        "contract": "contracts/BosNft.sol:BOSNFT",
        "label": "_allTokensIndex",
        "offset": 0,
        "slot": "154",
        "type": "t_mapping(t_uint256,t_uint256)"
      },
      {
        "astId": 2920,
        "contract": "contracts/BosNft.sol:BOSNFT",
        "label": "__gap",
        "offset": 0,
        "slot": "155",
        "type": "t_array(t_uint256)46_storage"
      },
      {
        "astId": 11,
        "contract": "contracts/BosNft.sol:BOSNFT",
        "label": "_owner",
        "offset": 0,
        "slot": "201",
        "type": "t_address"
      },
      {
        "astId": 131,
        "contract": "contracts/BosNft.sol:BOSNFT",
        "label": "__gap",
        "offset": 0,
        "slot": "202",
        "type": "t_array(t_uint256)49_storage"
      },
      {
        "astId": 6761,
        "contract": "contracts/BosNft.sol:BOSNFT",
        "label": "_baseUri",
        "offset": 0,
        "slot": "251",
        "type": "t_string_storage"
      },
      {
        "astId": 6763,
        "contract": "contracts/BosNft.sol:BOSNFT",
        "label": "_suffix",
        "offset": 0,
        "slot": "252",
        "type": "t_string_storage"
      },
      {
        "astId": 6765,
        "contract": "contracts/BosNft.sol:BOSNFT",
        "label": "_sameUri",
        "offset": 0,
        "slot": "253",
        "type": "t_string_storage"
      },
      {
        "astId": 6769,
        "contract": "contracts/BosNft.sol:BOSNFT",
        "label": "_minter",
        "offset": 0,
        "slot": "254",
        "type": "t_mapping(t_address,t_bool)"
      },
      {
        "astId": 6773,
        "contract": "contracts/BosNft.sol:BOSNFT",
        "label": "hasMinted",
        "offset": 0,
        "slot": "255",
        "type": "t_mapping(t_address,t_bool)"
      },
      {
        "astId": 6776,
        "contract": "contracts/BosNft.sol:BOSNFT",
        "label": "_tokenId",
        "offset": 0,
        "slot": "256",
        "type": "t_uint256"
      },
      {
        "astId": 6778,
        "contract": "contracts/BosNft.sol:BOSNFT",
        "label": "_maxTotal",
        "offset": 0,
        "slot": "257",
        "type": "t_uint256"
      },
      {
        "astId": 6780,
        "contract": "contracts/BosNft.sol:BOSNFT",
        "label": "fundAddress",
        "offset": 0,
        "slot": "258",
        "type": "t_address"
      },
      {
        "astId": 6782,
        "contract": "contracts/BosNft.sol:BOSNFT",
        "label": "rewardToken",
        "offset": 0,
        "slot": "259",
        "type": "t_address"
      },
      {
        "astId": 6784,
        "contract": "contracts/BosNft.sol:BOSNFT",
        "label": "_mintPoolAddress",
        "offset": 0,
        "slot": "260",
        "type": "t_address"
      },
      {
        "astId": 6786,
        "contract": "contracts/BosNft.sol:BOSNFT",
        "label": "accRewardPerShare",
        "offset": 0,
        "slot": "261",
        "type": "t_uint256"
      },
      {
        "astId": 6790,
        "contract": "contracts/BosNft.sol:BOSNFT",
        "label": "_nftRewardDebt",
        "offset": 0,
        "slot": "262",
        "type": "t_mapping(t_uint256,t_uint256)"
      },
      {
        "astId": 6794,
        "contract": "contracts/BosNft.sol:BOSNFT",
        "label": "_rewardAdmin",
        "offset": 0,
        "slot": "263",
        "type": "t_mapping(t_address,t_bool)"
      },
      {
        "astId": 6796,
        "contract": "contracts/BosNft.sol:BOSNFT",
        "label": "_totalReward",
        "offset": 0,
        "slot": "264",
        "type": "t_uint256"
      },
      {
        "astId": 6800,
        "contract": "contracts/BosNft.sol:BOSNFT",
        "label": "_claimedReward",
        "offset": 0,
        "slot": "265",
        "type": "t_mapping(t_address,t_uint256)"
      }
    ],
    "types": {
      "t_address": {
        "encoding": "inplace",
        "label": "address",
        "numberOfBytes": "20"
      },
      "t_array(t_uint256)44_storage": {
        "base": "t_uint256",
        "encoding": "inplace",
        "label": "uint256[44]",
        "numberOfBytes": "1408"
      },
      "t_array(t_uint256)46_storage": {
        "base": "t_uint256",
        "encoding": "inplace",
        "label": "uint256[46]",
        "numberOfBytes": "1472"
      },
      "t_array(t_uint256)49_storage": {
        "base": "t_uint256",
        "encoding": "inplace",
        "label": "uint256[49]",
        "numberOfBytes": "1568"
      },
      "t_array(t_uint256)50_storage": {
        "base": "t_uint256",
        "encoding": "inplace",
        "label": "uint256[50]",
        "numberOfBytes": "1600"
      },
      "t_array(t_uint256)dyn_storage": {
        "base": "t_uint256",
        "encoding": "dynamic_array",
        "label": "uint256[]",
        "numberOfBytes": "32"
      },
      "t_bool": {
        "encoding": "inplace",
        "label": "bool",
        "numberOfBytes": "1"
      },
      "t_mapping(t_address,t_bool)": {
        "encoding": "mapping",
        "key": "t_address",
        "label": "mapping(address => bool)",
        "numberOfBytes": "32",
        "value": "t_bool"
      },
      "t_mapping(t_address,t_mapping(t_address,t_bool))": {
        "encoding": "mapping",
        "key": "t_address",
        "label": "mapping(address => mapping(address => bool))",
        "numberOfBytes": "32",
        "value": "t_mapping(t_address,t_bool)"
      },
      "t_mapping(t_address,t_mapping(t_uint256,t_uint256))": {
        "encoding": "mapping",
        "key": "t_address",
        "label": "mapping(address => mapping(uint256 => uint256))",
        "numberOfBytes": "32",
        "value": "t_mapping(t_uint256,t_uint256)"
      },
      "t_mapping(t_address,t_uint256)": {
        "encoding": "mapping",
        "key": "t_address",
        "label": "mapping(address => uint256)",
        "numberOfBytes": "32",
        "value": "t_uint256"
      },
      "t_mapping(t_uint256,t_address)": {
        "encoding": "mapping",
        "key": "t_uint256",
        "label": "mapping(uint256 => address)",
        "numberOfBytes": "32",
        "value": "t_address"
      },
      "t_mapping(t_uint256,t_uint256)": {
        "encoding": "mapping",
        "key": "t_uint256",
        "label": "mapping(uint256 => uint256)",
        "numberOfBytes": "32",
        "value": "t_uint256"
      },
      "t_string_storage": {
        "encoding": "bytes",
        "label": "string",
        "numberOfBytes": "32"
      },
      "t_uint256": {
        "encoding": "inplace",
        "label": "uint256",
        "numberOfBytes": "32"
      },
      "t_uint8": {
        "encoding": "inplace",
        "label": "uint8",
        "numberOfBytes": "1"
      }
    }
  }
}