{
  "address": "0xcd0FdA1cFE7bE7DEB45e363199F025c43b052955",
  "abi": [
    {
      "anonymous": false,
      "inputs": [
        {
          "indexed": true,
          "internalType": "address",
          "name": "owner",
          "type": "address"
        },
        {
          "indexed": true,
          "internalType": "address",
          "name": "spender",
          "type": "address"
        },
        {
          "indexed": false,
          "internalType": "uint256",
          "name": "value",
          "type": "uint256"
        }
      ],
      "name": "Approval",
      "type": "event"
    },
    {
      "anonymous": false,
      "inputs": [
        {
          "indexed": false,
          "internalType": "uint8",
          "name": "version",
          "type": "uint8"
        }
      ],
      "name": "Initialized",
      "type": "event"
    },
    {
      "anonymous": false,
      "inputs": [
        {
          "indexed": true,
          "internalType": "address",
          "name": "previousOwner",
          "type": "address"
        },
        {
          "indexed": true,
          "internalType": "address",
          "name": "newOwner",
          "type": "address"
        }
      ],
      "name": "OwnershipTransferred",
      "type": "event"
    },
    {
      "anonymous": false,
      "inputs": [
        {
          "indexed": true,
          "internalType": "address",
          "name": "from",
          "type": "address"
        },
        {
          "indexed": true,
          "internalType": "address",
          "name": "to",
          "type": "address"
        },
        {
          "indexed": false,
          "internalType": "uint256",
          "name": "value",
          "type": "uint256"
        }
      ],
      "name": "Transfer",
      "type": "event"
    },
    {
      "inputs": [],
      "name": "__getReserves",
      "outputs": [
        {
          "internalType": "uint256",
          "name": "rOther",
          "type": "uint256"
        },
        {
          "internalType": "uint256",
          "name": "rThis",
          "type": "uint256"
        }
      ],
      "stateMutability": "view",
      "type": "function"
    },
    {
      "inputs": [
        {
          "internalType": "address",
          "name": "",
          "type": "address"
        }
      ],
      "name": "_balances",
      "outputs": [
        {
          "internalType": "uint256",
          "name": "",
          "type": "uint256"
        }
      ],
      "stateMutability": "view",
      "type": "function"
    },
    {
      "inputs": [
        {
          "internalType": "address",
          "name": "",
          "type": "address"
        }
      ],
      "name": "_feeWhiteList",
      "outputs": [
        {
          "internalType": "bool",
          "name": "",
          "type": "bool"
        }
      ],
      "stateMutability": "view",
      "type": "function"
    },
    {
      "inputs": [],
      "name": "_getReserves",
      "outputs": [
        {
          "internalType": "uint256",
          "name": "rOther",
          "type": "uint256"
        },
        {
          "internalType": "uint256",
          "name": "rThis",
          "type": "uint256"
        },
        {
          "internalType": "uint256",
          "name": "balanceOther",
          "type": "uint256"
        }
      ],
      "stateMutability": "view",
      "type": "function"
    },
    {
      "inputs": [],
      "name": "_giveRewardRate",
      "outputs": [
        {
          "internalType": "uint256",
          "name": "",
          "type": "uint256"
        }
      ],
      "stateMutability": "view",
      "type": "function"
    },
    {
      "inputs": [],
      "name": "_lastGiveRewardTime",
      "outputs": [
        {
          "internalType": "uint256",
          "name": "",
          "type": "uint256"
        }
      ],
      "stateMutability": "view",
      "type": "function"
    },
    {
      "inputs": [],
      "name": "_mainPair",
      "outputs": [
        {
          "internalType": "address",
          "name": "",
          "type": "address"
        }
      ],
      "stateMutability": "view",
      "type": "function"
    },
    {
      "inputs": [],
      "name": "_mintPool",
      "outputs": [
        {
          "internalType": "contract IMintPool",
          "name": "",
          "type": "address"
        }
      ],
      "stateMutability": "view",
      "type": "function"
    },
    {
      "inputs": [],
      "name": "_pauseGiveReward",
      "outputs": [
        {
          "internalType": "bool",
          "name": "",
          "type": "bool"
        }
      ],
      "stateMutability": "view",
      "type": "function"
    },
    {
      "inputs": [],
      "name": "_sellPoolDestroyRate",
      "outputs": [
        {
          "internalType": "uint256",
          "name": "",
          "type": "uint256"
        }
      ],
      "stateMutability": "view",
      "type": "function"
    },
    {
      "inputs": [],
      "name": "_sellPoolRate",
      "outputs": [
        {
          "internalType": "uint256",
          "name": "",
          "type": "uint256"
        }
      ],
      "stateMutability": "view",
      "type": "function"
    },
    {
      "inputs": [],
      "name": "_startBuy",
      "outputs": [
        {
          "internalType": "bool",
          "name": "",
          "type": "bool"
        }
      ],
      "stateMutability": "view",
      "type": "function"
    },
    {
      "inputs": [],
      "name": "_startSell",
      "outputs": [
        {
          "internalType": "bool",
          "name": "",
          "type": "bool"
        }
      ],
      "stateMutability": "view",
      "type": "function"
    },
    {
      "inputs": [],
      "name": "_strictCheck",
      "outputs": [
        {
          "internalType": "bool",
          "name": "",
          "type": "bool"
        }
      ],
      "stateMutability": "view",
      "type": "function"
    },
    {
      "inputs": [
        {
          "internalType": "address",
          "name": "",
          "type": "address"
        }
      ],
      "name": "_swapPairList",
      "outputs": [
        {
          "internalType": "bool",
          "name": "",
          "type": "bool"
        }
      ],
      "stateMutability": "view",
      "type": "function"
    },
    {
      "inputs": [],
      "name": "_swapRouter",
      "outputs": [
        {
          "internalType": "contract ISwapRouter",
          "name": "",
          "type": "address"
        }
      ],
      "stateMutability": "view",
      "type": "function"
    },
    {
      "inputs": [
        {
          "internalType": "address",
          "name": "",
          "type": "address"
        }
      ],
      "name": "_swapRouters",
      "outputs": [
        {
          "internalType": "bool",
          "name": "",
          "type": "bool"
        }
      ],
      "stateMutability": "view",
      "type": "function"
    },
    {
      "inputs": [],
      "name": "_totalMintReward",
      "outputs": [
        {
          "internalType": "uint256",
          "name": "",
          "type": "uint256"
        }
      ],
      "stateMutability": "view",
      "type": "function"
    },
    {
      "inputs": [],
      "name": "_usdt",
      "outputs": [
        {
          "internalType": "address",
          "name": "",
          "type": "address"
        }
      ],
      "stateMutability": "view",
      "type": "function"
    },
    {
      "inputs": [
        {
          "internalType": "address",
          "name": "account",
          "type": "address"
        },
        {
          "internalType": "uint256",
          "name": "lpAmount",
          "type": "uint256"
        }
      ],
      "name": "addLPAmount",
      "outputs": [],
      "stateMutability": "nonpayable",
      "type": "function"
    },
    {
      "inputs": [
        {
          "internalType": "address",
          "name": "_user",
          "type": "address"
        }
      ],
      "name": "addToBlacklist",
      "outputs": [],
      "stateMutability": "nonpayable",
      "type": "function"
    },
    {
      "inputs": [
        {
          "internalType": "address",
          "name": "account",
          "type": "address"
        },
        {
          "internalType": "uint256",
          "name": "lpAmount",
          "type": "uint256"
        }
      ],
      "name": "addUserLPAmount",
      "outputs": [],
      "stateMutability": "nonpayable",
      "type": "function"
    },
    {
      "inputs": [
        {
          "internalType": "address",
          "name": "owner",
          "type": "address"
        },
        {
          "internalType": "address",
          "name": "spender",
          "type": "address"
        }
      ],
      "name": "allowance",
      "outputs": [
        {
          "internalType": "uint256",
          "name": "",
          "type": "uint256"
        }
      ],
      "stateMutability": "view",
      "type": "function"
    },
    {
      "inputs": [
        {
          "internalType": "address",
          "name": "spender",
          "type": "address"
        },
        {
          "internalType": "uint256",
          "name": "amount",
          "type": "uint256"
        }
      ],
      "name": "approve",
      "outputs": [
        {
          "internalType": "bool",
          "name": "",
          "type": "bool"
        }
      ],
      "stateMutability": "nonpayable",
      "type": "function"
    },
    {
      "inputs": [
        {
          "internalType": "address",
          "name": "account",
          "type": "address"
        }
      ],
      "name": "balanceOf",
      "outputs": [
        {
          "internalType": "uint256",
          "name": "",
          "type": "uint256"
        }
      ],
      "stateMutability": "view",
      "type": "function"
    },
    {
      "inputs": [
        {
          "internalType": "address[]",
          "name": "addr",
          "type": "address[]"
        },
        {
          "internalType": "bool",
          "name": "enable",
          "type": "bool"
        }
      ],
      "name": "batchSetFeeWhiteList",
      "outputs": [],
      "stateMutability": "nonpayable",
      "type": "function"
    },
    {
      "inputs": [
        {
          "internalType": "address",
          "name": "",
          "type": "address"
        }
      ],
      "name": "blacklist",
      "outputs": [
        {
          "internalType": "bool",
          "name": "",
          "type": "bool"
        }
      ],
      "stateMutability": "view",
      "type": "function"
    },
    {
      "inputs": [],
      "name": "claimBalance",
      "outputs": [],
      "stateMutability": "nonpayable",
      "type": "function"
    },
    {
      "inputs": [
        {
          "internalType": "address",
          "name": "token",
          "type": "address"
        },
        {
          "internalType": "uint256",
          "name": "amount",
          "type": "uint256"
        }
      ],
      "name": "claimToken",
      "outputs": [],
      "stateMutability": "nonpayable",
      "type": "function"
    },
    {
      "inputs": [],
      "name": "decimals",
      "outputs": [
        {
          "internalType": "uint8",
          "name": "",
          "type": "uint8"
        }
      ],
      "stateMutability": "view",
      "type": "function"
    },
    {
      "inputs": [],
      "name": "destroySupply",
      "outputs": [
        {
          "internalType": "uint256",
          "name": "",
          "type": "uint256"
        }
      ],
      "stateMutability": "view",
      "type": "function"
    },
    {
      "inputs": [],
      "name": "fundAddress",
      "outputs": [
        {
          "internalType": "address",
          "name": "",
          "type": "address"
        }
      ],
      "stateMutability": "view",
      "type": "function"
    },
    {
      "inputs": [],
      "name": "getTokenInfo",
      "outputs": [
        {
          "internalType": "uint256",
          "name": "validTotal",
          "type": "uint256"
        },
        {
          "internalType": "uint256",
          "name": "maxTotal",
          "type": "uint256"
        },
        {
          "internalType": "uint256",
          "name": "destroyTotal",
          "type": "uint256"
        },
        {
          "internalType": "uint256",
          "name": "price",
          "type": "uint256"
        },
        {
          "internalType": "uint256",
          "name": "rewardTotal",
          "type": "uint256"
        },
        {
          "internalType": "uint256",
          "name": "nextReward",
          "type": "uint256"
        },
        {
          "internalType": "uint256",
          "name": "usdtDecimals",
          "type": "uint256"
        },
        {
          "internalType": "uint256",
          "name": "tokenDecimals",
          "type": "uint256"
        }
      ],
      "stateMutability": "view",
      "type": "function"
    },
    {
      "inputs": [],
      "name": "getTokenPrice",
      "outputs": [
        {
          "internalType": "uint256",
          "name": "price",
          "type": "uint256"
        }
      ],
      "stateMutability": "view",
      "type": "function"
    },
    {
      "inputs": [
        {
          "internalType": "address",
          "name": "account",
          "type": "address"
        }
      ],
      "name": "getUserInfo",
      "outputs": [
        {
          "internalType": "uint256",
          "name": "lpAmount",
          "type": "uint256"
        },
        {
          "internalType": "uint256",
          "name": "lpBalance",
          "type": "uint256"
        }
      ],
      "stateMutability": "view",
      "type": "function"
    },
    {
      "inputs": [],
      "name": "giveMintReward",
      "outputs": [],
      "stateMutability": "nonpayable",
      "type": "function"
    },
    {
      "inputs": [
        {
          "internalType": "address",
          "name": "_router",
          "type": "address"
        },
        {
          "internalType": "address",
          "name": "_usdtAddress",
          "type": "address"
        },
        {
          "internalType": "uint256",
          "name": "_supply",
          "type": "uint256"
        },
        {
          "internalType": "address",
          "name": "_receive",
          "type": "address"
        },
        {
          "internalType": "address",
          "name": "_fund",
          "type": "address"
        },
        {
          "internalType": "address",
          "name": "_owner",
          "type": "address"
        }
      ],
      "name": "initialize",
      "outputs": [],
      "stateMutability": "nonpayable",
      "type": "function"
    },
    {
      "inputs": [
        {
          "internalType": "address",
          "name": "account",
          "type": "address"
        },
        {
          "internalType": "uint256",
          "name": "amount",
          "type": "uint256"
        }
      ],
      "name": "mint",
      "outputs": [],
      "stateMutability": "nonpayable",
      "type": "function"
    },
    {
      "inputs": [],
      "name": "name",
      "outputs": [
        {
          "internalType": "string",
          "name": "",
          "type": "string"
        }
      ],
      "stateMutability": "view",
      "type": "function"
    },
    {
      "inputs": [],
      "name": "owner",
      "outputs": [
        {
          "internalType": "address",
          "name": "",
          "type": "address"
        }
      ],
      "stateMutability": "view",
      "type": "function"
    },
    {
      "inputs": [
        {
          "internalType": "address",
          "name": "_user",
          "type": "address"
        }
      ],
      "name": "removeFromBlacklist",
      "outputs": [],
      "stateMutability": "nonpayable",
      "type": "function"
    },
    {
      "inputs": [],
      "name": "renounceOwnership",
      "outputs": [],
      "stateMutability": "nonpayable",
      "type": "function"
    },
    {
      "inputs": [
        {
          "internalType": "address",
          "name": "addr",
          "type": "address"
        },
        {
          "internalType": "bool",
          "name": "enable",
          "type": "bool"
        }
      ],
      "name": "setFeeWhiteList",
      "outputs": [],
      "stateMutability": "nonpayable",
      "type": "function"
    },
    {
      "inputs": [
        {
          "internalType": "address",
          "name": "addr",
          "type": "address"
        }
      ],
      "name": "setFundAddress",
      "outputs": [],
      "stateMutability": "nonpayable",
      "type": "function"
    },
    {
      "inputs": [
        {
          "internalType": "uint256",
          "name": "r",
          "type": "uint256"
        }
      ],
      "name": "setGiveRewardRate",
      "outputs": [],
      "stateMutability": "nonpayable",
      "type": "function"
    },
    {
      "inputs": [
        {
          "internalType": "uint256",
          "name": "t",
          "type": "uint256"
        }
      ],
      "name": "setLastGiveRewardTime",
      "outputs": [],
      "stateMutability": "nonpayable",
      "type": "function"
    },
    {
      "inputs": [
        {
          "internalType": "address",
          "name": "p",
          "type": "address"
        }
      ],
      "name": "setMinPool",
      "outputs": [],
      "stateMutability": "nonpayable",
      "type": "function"
    },
    {
      "inputs": [
        {
          "internalType": "bool",
          "name": "p",
          "type": "bool"
        }
      ],
      "name": "setPauseGiveReward",
      "outputs": [],
      "stateMutability": "nonpayable",
      "type": "function"
    },
    {
      "inputs": [
        {
          "internalType": "uint256",
          "name": "rate",
          "type": "uint256"
        }
      ],
      "name": "setSellPoolDestroyRate",
      "outputs": [],
      "stateMutability": "nonpayable",
      "type": "function"
    },
    {
      "inputs": [
        {
          "internalType": "uint256",
          "name": "rate",
          "type": "uint256"
        }
      ],
      "name": "setSellPoolRate",
      "outputs": [],
      "stateMutability": "nonpayable",
      "type": "function"
    },
    {
      "inputs": [
        {
          "internalType": "bool",
          "name": "enable",
          "type": "bool"
        }
      ],
      "name": "setStartBuy",
      "outputs": [],
      "stateMutability": "nonpayable",
      "type": "function"
    },
    {
      "inputs": [
        {
          "internalType": "bool",
          "name": "enable",
          "type": "bool"
        }
      ],
      "name": "setStartSell",
      "outputs": [],
      "stateMutability": "nonpayable",
      "type": "function"
    },
    {
      "inputs": [
        {
          "internalType": "bool",
          "name": "enable",
          "type": "bool"
        }
      ],
      "name": "setStrictCheck",
      "outputs": [],
      "stateMutability": "nonpayable",
      "type": "function"
    },
    {
      "inputs": [
        {
          "internalType": "address",
          "name": "addr",
          "type": "address"
        },
        {
          "internalType": "bool",
          "name": "enable",
          "type": "bool"
        }
      ],
      "name": "setSwapPairList",
      "outputs": [],
      "stateMutability": "nonpayable",
      "type": "function"
    },
    {
      "inputs": [
        {
          "internalType": "address",
          "name": "addr",
          "type": "address"
        },
        {
          "internalType": "bool",
          "name": "enable",
          "type": "bool"
        }
      ],
      "name": "setSwapRouter",
      "outputs": [],
      "stateMutability": "nonpayable",
      "type": "function"
    },
    {
      "inputs": [],
      "name": "symbol",
      "outputs": [
        {
          "internalType": "string",
          "name": "",
          "type": "string"
        }
      ],
      "stateMutability": "view",
      "type": "function"
    },
    {
      "inputs": [],
      "name": "totalSupply",
      "outputs": [
        {
          "internalType": "uint256",
          "name": "",
          "type": "uint256"
        }
      ],
      "stateMutability": "view",
      "type": "function"
    },
    {
      "inputs": [
        {
          "internalType": "address",
          "name": "recipient",
          "type": "address"
        },
        {
          "internalType": "uint256",
          "name": "amount",
          "type": "uint256"
        }
      ],
      "name": "transfer",
      "outputs": [
        {
          "internalType": "bool",
          "name": "",
          "type": "bool"
        }
      ],
      "stateMutability": "nonpayable",
      "type": "function"
    },
    {
      "inputs": [
        {
          "internalType": "address",
          "name": "sender",
          "type": "address"
        },
        {
          "internalType": "address",
          "name": "recipient",
          "type": "address"
        },
        {
          "internalType": "uint256",
          "name": "amount",
          "type": "uint256"
        }
      ],
      "name": "transferFrom",
      "outputs": [
        {
          "internalType": "bool",
          "name": "",
          "type": "bool"
        }
      ],
      "stateMutability": "nonpayable",
      "type": "function"
    },
    {
      "inputs": [
        {
          "internalType": "address",
          "name": "newOwner",
          "type": "address"
        }
      ],
      "name": "transferOwnership",
      "outputs": [],
      "stateMutability": "nonpayable",
      "type": "function"
    },
    {
      "inputs": [
        {
          "internalType": "address",
          "name": "account",
          "type": "address"
        },
        {
          "internalType": "uint256",
          "name": "lpAmount",
          "type": "uint256"
        }
      ],
      "name": "updateLPAmount",
      "outputs": [],
      "stateMutability": "nonpayable",
      "type": "function"
    },
    {
      "inputs": [
        {
          "internalType": "address[]",
          "name": "account",
          "type": "address[]"
        },
        {
          "internalType": "uint256[]",
          "name": "lpAmount",
          "type": "uint256[]"
        }
      ],
      "name": "updateLPAmounts",
      "outputs": [],
      "stateMutability": "nonpayable",
      "type": "function"
    },
    {
      "inputs": [],
      "name": "validSupply",
      "outputs": [
        {
          "internalType": "uint256",
          "name": "",
          "type": "uint256"
        }
      ],
      "stateMutability": "view",
      "type": "function"
    },
    {
      "stateMutability": "payable",
      "type": "receive"
    }
  ],
  "transactionHash": "0xd5649b8739004fd76453110c7ba0d9d2ede7879234054e45540bcf801073a41f",
  "args": [],
  "solcInputHash": "352f3653d0e1299161146bf55d5d022f",
  "bytecode": "0x60a06040526201518060805234801561001757600080fd5b50608051613a7c6100336000396000610e5e0152613a7c6000f3fe6080604052600436106103bc5760003560e01c8063715018a6116101f2578063b2887bec1161010d578063dd62ed3e116100a0578063f2fde38b1161006f578063f2fde38b14610b91578063f7c8aeb814610bb1578063f9f92be414610bd1578063ff9935cb14610c0157600080fd5b8063dd62ed3e14610ae5578063e24b04a814610b2b578063e2b8e07214610b4b578063e82bef2914610b6c57600080fd5b8063c6c3e04c116100dc578063c6c3e04c14610a54578063c882f4dd14610a74578063ce4d9f1514610a95578063d83d414314610ac557600080fd5b8063b2887bec146109d4578063b292ab3b146109f4578063be3601f814610a14578063c0ed1d0514610a3457600080fd5b80638da5cb5b11610185578063a5696d8911610154578063a5696d8914610924578063a842486114610944578063a9059cbb14610964578063abb1dc441461098457600080fd5b80638da5cb5b146108c657806395d89b41146108e4578063984d11fc146108f95780639917e2db1461090e57600080fd5b80637af3d95d116101c15780637af3d95d146108465780637bf5799f1461086657806385dc300414610886578063899d9c9d146108a657600080fd5b8063715018a6146107f157806373a0a6c314610806578063776645a61461081b5780637a37a0ed1461083157600080fd5b80633c11100d116102e257806355eaf295116102755780636ae5e569116102445780636ae5e5691461076e5780636e986dcc1461078e5780636ebcf607146107a457806370a08231146107d157600080fd5b806355eaf295146106e35780636386c1c71461070357806363b9fb2e14610738578063652421e41461075857600080fd5b806345413033116102b1578063454130331461066e57806346c123b61461068e5780634b94f50e146106ae578063537df3b6146106c357600080fd5b80633c11100d146105d957806340c10f19146106095780634188bf5a1461062957806344337ea11461064e57600080fd5b8063206c17bb1161035a5780632e05661b116103295780632e05661b146105735780632e52ea3b1461058857806330509bca146105a2578063313ce567146105b757600080fd5b8063206c17bb146104e55780632171dcc91461051d57806323b872dd1461053d57806327ea09c81461055d57600080fd5b806306fdde031161039657806306fdde031461045e578063095ea7b3146104805780631698755f146104a057806318160ddd146104c257600080fd5b806301873d8f146103c857806301986fad1461040d57806304c23ffe1461043d57600080fd5b366103c357005b600080fd5b3480156103d457600080fd5b506103f86103e336600461326f565b606f6020526000908152604090205460ff1681565b60405190151581526020015b60405180910390f35b34801561041957600080fd5b506103f861042836600461326f565b606a6020526000908152604090205460ff1681565b34801561044957600080fd5b506071546103f890600160a01b900460ff1681565b34801561046a57600080fd5b50610473610c21565b60405161040491906132b8565b34801561048c57600080fd5b506103f861049b3660046132eb565b610cb3565b3480156104ac57600080fd5b506104c06104bb3660046132eb565b610cca565b005b3480156104ce57600080fd5b506104d7610d03565b604051908152602001610404565b3480156104f157600080fd5b50606d54610505906001600160a01b031681565b6040516001600160a01b039091168152602001610404565b34801561052957600080fd5b506104c0610538366004613325565b610d1f565b34801561054957600080fd5b506103f861055836600461335e565b610db8565b34801561056957600080fd5b506104d760765481565b34801561057f57600080fd5b506104c0610e4f565b34801561059457600080fd5b506074546103f89060ff1681565b3480156105ae57600080fd5b506104c0610fe3565b3480156105c357600080fd5b5060695460405160ff9091168152602001610404565b3480156105e557600080fd5b506103f86105f436600461326f565b606e6020526000908152604090205460ff1681565b34801561061557600080fd5b506104c06106243660046132eb565b611000565b34801561063557600080fd5b506070546105059061010090046001600160a01b031681565b34801561065a57600080fd5b506104c061066936600461326f565b6110c9565b34801561067a57600080fd5b506104c061068936600461339f565b6110f5565b34801561069a57600080fd5b506104c06106a936600461339f565b61116d565b3480156106ba57600080fd5b506104d76111f0565b3480156106cf57600080fd5b506104c06106de36600461326f565b611239565b3480156106ef57600080fd5b50607254610505906001600160a01b031681565b34801561070f57600080fd5b5061072361071e36600461326f565b611262565b60408051928352602083019190915201610404565b34801561074457600080fd5b506104c061075336600461339f565b6112f2565b34801561076457600080fd5b506104d760785481565b34801561077a57600080fd5b506104c06107893660046133bc565b611375565b34801561079a57600080fd5b506104d760775481565b3480156107b057600080fd5b506104d76107bf36600461326f565b60656020526000908152604090205481565b3480156107dd57600080fd5b506104d76107ec36600461326f565b6113df565b3480156107fd57600080fd5b506104c06113fa565b34801561081257600080fd5b506104d761140c565b34801561082757600080fd5b506104d760735481565b34801561083d57600080fd5b5061072361142d565b34801561085257600080fd5b506104c06108613660046134b4565b6114ef565b34801561087257600080fd5b506104c06108813660046132eb565b6115cb565b34801561089257600080fd5b506104c06108a136600461326f565b611661565b3480156108b257600080fd5b506104c06108c13660046132eb565b611705565b3480156108d257600080fd5b506033546001600160a01b0316610505565b3480156108f057600080fd5b50610473611778565b34801561090557600080fd5b506104d7611787565b34801561091a57600080fd5b506104d760755481565b34801561093057600080fd5b506104c061093f3660046132eb565b6117b6565b34801561095057600080fd5b506104c061095f366004613325565b611837565b34801561097057600080fd5b506103f861097f3660046132eb565b6118c7565b34801561099057600080fd5b5061099961192a565b604080519889526020890197909752958701949094526060860192909252608085015260a084015260c083015260e082015261010001610404565b3480156109e057600080fd5b506104c06109ef36600461356f565b6119b7565b348015610a0057600080fd5b506104c0610a0f36600461326f565b611a82565b348015610a2057600080fd5b50607154610505906001600160a01b031681565b348015610a4057600080fd5b506104c0610a4f36600461339f565b611b21565b348015610a6057600080fd5b506104c0610a6f3660046133bc565b611ba4565b348015610a8057600080fd5b506071546103f890600160b01b900460ff1681565b348015610aa157600080fd5b50610aaa611c0e565b60408051938452602084019290925290820152606001610404565b348015610ad157600080fd5b506104c0610ae0366004613325565b611c9c565b348015610af157600080fd5b506104d7610b003660046135b6565b6001600160a01b03918216600090815260666020908152604080832093909416825291909152205490565b348015610b3757600080fd5b506104c0610b463660046133bc565b611d2c565b348015610b5757600080fd5b506071546103f890600160a81b900460ff1681565b348015610b7857600080fd5b506069546105059061010090046001600160a01b031681565b348015610b9d57600080fd5b506104c0610bac36600461326f565b611d96565b348015610bbd57600080fd5b506104c0610bcc3660046133bc565b611e0f565b348015610bdd57600080fd5b506103f8610bec36600461326f565b60796020526000908152604090205460ff1681565b348015610c0d57600080fd5b506104c0610c1c3660046135e4565b611e79565b606060678054610c309061365d565b80601f0160208091040260200160405190810160405280929190818152602001828054610c5c9061365d565b8015610ca95780601f10610c7e57610100808354040283529160200191610ca9565b820191906000526020600020905b815481529060010190602001808311610c8c57829003601f168201915b5050505050905090565b6000610cc03384846123a5565b5060015b92915050565b336000908152606a602052604090205460ff1615610cff57606954610cff90839061010090046001600160a01b031683612407565b5050565b6000610d0d61140c565b606c54610d1a91906136a7565b905090565b336000818152606a602052604090205460ff168015610d6757506069546001600160a01b03828116610100909204161480610d6757506033546001600160a01b038281169116145b610d8c5760405162461bcd60e51b8152600401610d83906136be565b60405180910390fd5b506001600160a01b03919091166000908152606f60205260409020805460ff1916911515919091179055565b6000610dc5848484612512565b6001600160a01b038416600090815260666020908152604080832033845290915290205460001914610e45576001600160a01b0384166000908152606660209081526040808320338452909152902054610e209083906136a7565b6001600160a01b03851660009081526066602090815260408083203384529091529020555b5060019392505050565b60745460ff1615610e5c57565b7f0000000000000000000000000000000000000000000000000000000000000000607354610e8a91906136e7565b421015610e9357565b6072546001600160a01b03166000819003610eab5750565b4260735560755460705460009161271091610ed39061010090046001600160a01b03166113df565b610edd91906136ff565b610ee7919061371e565b607054909150610f069061010090046001600160a01b0316838361275c565b607060019054906101000a90046001600160a01b03166001600160a01b031663fff6cae96040518163ffffffff1660e01b8152600401600060405180830381600087803b158015610f5657600080fd5b505af1158015610f6a573d6000803e3d6000fd5b505060405163137320f560e11b8152600481018490526001600160a01b03851692506326e641ea9150602401600060405180830381600087803b158015610fb057600080fd5b505af1158015610fc4573d6000803e3d6000fd5b505050508060766000828254610fda91906136e7565b90915550505050565b606954610ffe9061010090046001600160a01b0316476127a9565b565b611008612856565b6001600160a01b03821661105e5760405162461bcd60e51b815260206004820152601f60248201527f45524332303a206d696e7420746f20746865207a65726f2061646472657373006044820152606401610d83565b80606c600082825461107091906136e7565b90915550506001600160a01b0382166000818152606560209081526040808320805486019055518481527fddf252ad1be2c89b69c2b068fc378daa952ba7f163c4a11628f55a4df523b3ef910160405180910390a35050565b6110d1612856565b6001600160a01b03166000908152607960205260409020805460ff19166001179055565b336000818152606a602052604090205460ff16801561113d57506069546001600160a01b0382811661010090920416148061113d57506033546001600160a01b038281169116145b6111595760405162461bcd60e51b8152600401610d83906136be565b506074805460ff1916911515919091179055565b336000818152606a602052604090205460ff1680156111b557506069546001600160a01b038281166101009092041614806111b557506033546001600160a01b038281169116145b6111d15760405162461bcd60e51b8152600401610d83906136be565b5060718054911515600160a01b0260ff60a01b19909216919091179055565b60008060006111fd61142d565b90925090508015611234576069548190839061121d9060ff16600a613824565b61122791906136ff565b611231919061371e565b92505b505090565b611241612856565b6001600160a01b03166000908152607960205260409020805460ff19169055565b6001600160a01b038181166000818152606b60205260408082205460705491516370a0823160e01b81526004810194909452939192610100909104909116906370a0823190602401602060405180830381865afa1580156112c7573d6000803e3d6000fd5b505050506040513d601f19601f820116820180604052508101906112eb9190613833565b9050915091565b336000818152606a602052604090205460ff16801561133a57506069546001600160a01b0382811661010090920416148061133a57506033546001600160a01b038281169116145b6113565760405162461bcd60e51b8152600401610d83906136be565b5060718054911515600160a81b0260ff60a81b19909216919091179055565b336000818152606a602052604090205460ff1680156113bd57506069546001600160a01b038281166101009092041614806113bd57506033546001600160a01b038281169116145b6113d95760405162461bcd60e51b8152600401610d83906136be565b50607755565b6001600160a01b031660009081526065602052604090205490565b611402612856565b610ffe60006128b0565b600061141961dead6113df565b61142360006113df565b610d1a91906136e7565b6000806000607060019054906101000a90046001600160a01b03169050600080826001600160a01b0316630902f1ac6040518163ffffffff1660e01b8152600401606060405180830381865afa15801561148b573d6000803e3d6000fd5b505050506040513d601f19601f820116820180604052508101906114af9190613863565b506071546001600160701b039283169450911691506001600160a01b0316308110156114e0578295508194506114e7565b8195508294505b505050509091565b336000818152606a602052604090205460ff16801561153757506069546001600160a01b0382811661010090920416148061153757506033546001600160a01b038281169116145b6115535760405162461bcd60e51b8152600401610d83906136be565b60005b83518110156115c557828181518110611571576115716138b3565b6020026020010151606b600086848151811061158f5761158f6138b3565b6020908102919091018101516001600160a01b0316825281019190915260400160002055806115bd816138c9565b915050611556565b50505050565b336000818152606a602052604090205460ff16801561161357506069546001600160a01b0382811661010090920416148061161357506033546001600160a01b038281169116145b61162f5760405162461bcd60e51b8152600401610d83906136be565b6001600160a01b0383166000908152606b6020526040812080548492906116579084906136e7565b9091555050505050565b336000818152606a602052604090205460ff1680156116a957506069546001600160a01b038281166101009092041614806116a957506033546001600160a01b038281169116145b6116c55760405162461bcd60e51b8152600401610d83906136be565b5060698054610100600160a81b0319166101006001600160a01b03939093169283021790556000908152606a60205260409020805460ff19166001179055565b6072546001600160a01b031633146117505760405162461bcd60e51b815260206004820152600e60248201526d1bdb9b1e481b5a5b9d081c1bdbdb60921b6044820152606401610d83565b6001600160a01b0382166000908152606b602052604081208054839290610fda9084906136e7565b606060688054610c309061365d565b6070546000906117a49061010090046001600160a01b03166113df565b6117ac610d03565b610d1a91906136a7565b336000818152606a602052604090205460ff1680156117fe57506069546001600160a01b038281166101009092041614806117fe57506033546001600160a01b038281169116145b61181a5760405162461bcd60e51b8152600401610d83906136be565b506001600160a01b039091166000908152606b6020526040902055565b336000818152606a602052604090205460ff16801561187f57506069546001600160a01b0382811661010090920416148061187f57506033546001600160a01b038281169116145b61189b5760405162461bcd60e51b8152600401610d83906136be565b506001600160a01b03919091166000908152606e60205260409020805460ff1916911515919091179055565b3360009081526079602052604081205460ff161561191f5760405162461bcd60e51b815260206004820152601560248201527414d95b99195c881a5cc8189b1858dadb1a5cdd1959605a1b6044820152606401610d83565b610cc0338484612512565b60008060008060008060008061193e611787565b9750611948610d03565b965061195261140c565b955061195c6111f0565b94506076549350612710607554611987607060019054906101000a90046001600160a01b03166113df565b61199191906136ff565b61199b919061371e565b6069549899979896979596949590946012945060ff1692509050565b336000818152606a602052604090205460ff1680156119ff57506069546001600160a01b038281166101009092041614806119ff57506033546001600160a01b038281169116145b611a1b5760405162461bcd60e51b8152600401610d83906136be565b60005b83518110156115c55782606a6000868481518110611a3e57611a3e6138b3565b6020908102919091018101516001600160a01b03168252810191909152604001600020805460ff191691151591909117905580611a7a816138c9565b915050611a1e565b336000818152606a602052604090205460ff168015611aca57506069546001600160a01b03828116610100909204161480611aca57506033546001600160a01b038281169116145b611ae65760405162461bcd60e51b8152600401610d83906136be565b50607280546001600160a01b039092166001600160a01b0319909216821790556000908152606a60205260409020805460ff19166001179055565b336000818152606a602052604090205460ff168015611b6957506069546001600160a01b03828116610100909204161480611b6957506033546001600160a01b038281169116145b611b855760405162461bcd60e51b8152600401610d83906136be565b5060718054911515600160b01b0260ff60b01b19909216919091179055565b336000818152606a602052604090205460ff168015611bec57506069546001600160a01b03828116610100909204161480611bec57506033546001600160a01b038281169116145b611c085760405162461bcd60e51b8152600401610d83906136be565b50607355565b6000806000611c1b61142d565b6071546070546040516370a0823160e01b81526001600160a01b036101009092048216600482015293965091945016906370a0823190602401602060405180830381865afa158015611c71573d6000803e3d6000fd5b505050506040513d601f19601f82011682018060405250810190611c959190613833565b9050909192565b336000818152606a602052604090205460ff168015611ce457506069546001600160a01b03828116610100909204161480611ce457506033546001600160a01b038281169116145b611d005760405162461bcd60e51b8152600401610d83906136be565b506001600160a01b03919091166000908152606a60205260409020805460ff1916911515919091179055565b336000818152606a602052604090205460ff168015611d7457506069546001600160a01b03828116610100909204161480611d7457506033546001600160a01b038281169116145b611d905760405162461bcd60e51b8152600401610d83906136be565b50607855565b611d9e612856565b6001600160a01b038116611e035760405162461bcd60e51b815260206004820152602660248201527f4f776e61626c653a206e6577206f776e657220697320746865207a65726f206160448201526564647265737360d01b6064820152608401610d83565b611e0c816128b0565b50565b336000818152606a602052604090205460ff168015611e5757506069546001600160a01b03828116610100909204161480611e5757506033546001600160a01b038281169116145b611e735760405162461bcd60e51b8152600401610d83906136be565b50607555565b600054610100900460ff1615808015611e995750600054600160ff909116105b80611eb35750303b158015611eb3575060005460ff166001145b611f165760405162461bcd60e51b815260206004820152602e60248201527f496e697469616c697a61626c653a20636f6e747261637420697320616c72656160448201526d191e481a5b9a5d1a585b1a5e995960921b6064820152608401610d83565b6000805460ff191660011790558015611f39576000805461ff0019166101001790555b60408051808201909152600b81526a426c6f636b2053746f726d60a81b6020820152606790611f689082613930565b506040805180820190915260038152621093d560ea1b6020820152606890611f909082613930565b506069805460ff199081166012179091556071805460ff60a01b1916600160a01b179055607480548216600190811790915560466075556103e8607755612710607855606d80546001600160a01b038b166001600160a01b0319909116811790915530600090815260666020908152604080832084845282528083206000199055606f82528083208054909616909417909455825163c45a015560e01b815292518b94919363c45a01559260048281019391928290030181865afa15801561205c573d6000803e3d6000fd5b505050506040513d601f19601f8201168201806040525081019061208091906139f0565b607180546001600160a01b0319166001600160a01b038b811691821790925560405163095ea7b360e01b81529185166004830152600019602483015291925063095ea7b3906044016020604051808303816000875af11580156120e7573d6000803e3d6000fd5b505050506040513d601f19601f8201168201806040525081019061210b9190613a0d565b506071546040516364e329cb60e11b81523060048201526001600160a01b03918216602482015260009183169063c9c65396906044016020604051808303816000875af1158015612160573d6000803e3d6000fd5b505050506040513d601f19601f8201168201806040525081019061218491906139f0565b6001600160a01b0381166000818152606e60205260408120805460ff1916600117905560708054610100909302610100600160a81b031990931692909217909155909150670de0b6b3a7640000906121dc828b6136ff565b606c8190556001600160a01b038a1660008181526065602090815260408083208590555184815293945084937fddf252ad1be2c89b69c2b068fc378daa952ba7f163c4a11628f55a4df523b3ef910160405180910390a360698054610100600160a81b0319166101006001600160a01b038c8116918202929092179092558b81166000908152606a6020526040808220805460ff19908116600190811790925594835281832080548616821790553083528183208054861682179055928a1682528082208054851684179055338252812080548416831790557f6021fa82de881996a3e5fd2d032f74dfe72746b8a66c5510d4ab1a3cb789150780548416831790557f335328446f5a016d99ac6481f9fc72f87ea5b00823fecac528cf7c0cce27f2708054841683179055739e80518a58442293c607c788c85ea8cc08885c0890527fea7a11da43e61a807df35bdcc02dc59a1e38dbc69a9ee92ec18577f57f55f3c38054909216179055612350886128b0565b505050505050801561239c576000805461ff0019169055604051600181527f7f26b83ff96e1f2b6a682f133852f6798a09c465da95921460cefb38474024989060200160405180910390a15b50505050505050565b6001600160a01b0383811660008181526066602090815260408083209487168084529482529182902085905590518481527f8c5be1e5ebec7d5bd14f71427d1e84f3dd0314c0f7b2291e5b200ac8c7c3b92591015b60405180910390a3505050565b604080516001600160a01b038481166024830152604480830185905283518084039091018152606490920183526020820180516001600160e01b031663a9059cbb60e01b17905291516000928392908716916124639190613a2a565b6000604051808303816000865af19150503d80600081146124a0576040519150601f19603f3d011682016040523d82523d6000602084013e6124a5565b606091505b50915091508180156124cf5750805115806124cf5750808060200190518101906124cf9190613a0d565b61250b5760405162461bcd60e51b815260206004820152600d60248201526c1d1c985b9cd9995c8819985a5b609a1b6044820152606401610d83565b5050505050565b600061251d846113df565b9050818110156125605760405162461bcd60e51b815260206004820152600e60248201526d125b9d985b1a5908185b5bdd5b9d60921b6044820152606401610d83565b6001600160a01b0384166000908152606a602052604081205460ff161580156125a257506001600160a01b0384166000908152606a602052604090205460ff16155b156125d7575060016000620186a06125bd846201869f6136ff565b6125c7919061371e565b9050808411156125d5578093505b505b6070546000908190819081906001600160a01b03898116610100909204161480156126115750336000908152606f602052604090205460ff165b1561265d5761261f87612902565b9050801561265d576001600160a01b0389166000908152606b602052604081208054909350829184916126539084906136e7565b9091555060019450505b6070546000906001600160a01b036101009091048116908b160361274257607154600160a01b900460ff161561269d576126968861296d565b90506126a9565b6126a688612ad6565b90505b8015612742576001600160a01b0389166000908152606b60205260409020548111156127105760405162461bcd60e51b8152602060048201526016602482015275696e73756666696369656e74206c697175696469747960501b6044820152606401610d83565b6001600160a01b0389166000908152606b6020526040812080548392906127389084906136a7565b9091555060019450505b6127508a8a8a89888a612bb0565b50505050505050505050565b6001600160a01b0383166000908152606560205260409020546127809082906136a7565b6001600160a01b0384166000908152606560205260409020556127a4838383612e65565b505050565b604080516000808252602082019092526001600160a01b0384169083906040516127d39190613a2a565b60006040518083038185875af1925050503d8060008114612810576040519150601f19603f3d011682016040523d82523d6000602084013e612815565b606091505b50509050806127a45760405162461bcd60e51b815260206004820152600d60248201526c1d1c985b9cd9995c8819985a5b609a1b6044820152606401610d83565b6033546001600160a01b03163314610ffe5760405162461bcd60e51b815260206004820181905260248201527f4f776e61626c653a2063616c6c6572206973206e6f7420746865206f776e65726044820152606401610d83565b603380546001600160a01b038381166001600160a01b0319831681179093556040519116919082907f8be0079c531659141344cd1fd0a4f28419497f9722a3daafe3b4186f6b6457e090600090a35050565b600080600080612910611c0e565b925092509250600080841180156129275750600083115b15612944578261293785886136ff565b612941919061371e565b90505b61294e81856136e7565b82106129645761296082878686612edd565b5094505b50505050919050565b60008060008061297b611c0e565b92509250925082811015612a465760705461010090046001600160a01b03166000908152606560205260409020546129b49086906136a7565b607060019054906101000a90046001600160a01b03166001600160a01b03166318160ddd6040518163ffffffff1660e01b8152600401602060405180830381865afa158015612a07573d6000803e3d6000fd5b505050506040513d601f19601f82011682018060405250810190612a2b9190613833565b612a3590876136ff565b612a3f919061371e565b9350612ace565b60008084118015612a575750600083115b1561296457612a6686846136a7565b612a7085886136ff565b612a7a919061371e565b9050612a8684826136e7565b8210156129645760405162461bcd60e51b8152602060048201526016602482015275696e73756666696369656e74206c697175696469747960501b6044820152606401610d83565b505050919050565b6000806000612ae3611c0e565b925050915081811015612ba95760705461010090046001600160a01b0316600090815260656020526040902054612b1b9085906136a7565b607060019054906101000a90046001600160a01b03166001600160a01b03166318160ddd6040518163ffffffff1660e01b8152600401602060405180830381865afa158015612b6e573d6000803e3d6000fd5b505050506040513d601f19601f82011682018060405250810190612b929190613833565b612b9c90866136ff565b612ba6919061371e565b92505b5050919050565b6001600160a01b038616600090815260656020526040902054612bd385826136a7565b6001600160a01b0388166000908152606560205260409020819055905082612e5e578115612c51578315612c4c57607154600160b01b900460ff16612c4c5760405162461bcd60e51b815260206004820152600f60248201526e1bdb9b1e481cdd185c9d081cd95b1b608a1b6044820152606401610d83565b612e5e565b6001600160a01b0387166000908152606e602052604090205460ff1615612cf5578315612c4c57607154600160a81b900460ff168015612c9f5750606d546001600160a01b03878116911614155b612c4c5760405162461bcd60e51b815260206004820152602160248201527f6f6e6c792073746172742062757920616e64206e6f742073776170526f7574656044820152603960f91b6064820152608401610d83565b6001600160a01b0386166000908152606e602052604090205460ff1615612e5e578315612d6757607154600160b01b900460ff16612d675760405162461bcd60e51b815260206004820152600f60248201526e1bdb9b1e481cdd185c9d081cd95b1b608a1b6044820152606401610d83565b6000612d72876113df565b905061271060775482612d8591906136ff565b612d8f919061371e565b861115612dd55760405162461bcd60e51b81526020600482015260146024820152733737ba1032b737bab3b4103837b7b62a37b5b2b760611b6044820152606401610d83565b600061271060785488612de891906136ff565b612df2919061371e565b90508015612e5b57612e078861dead8361275c565b876001600160a01b031663fff6cae96040518163ffffffff1660e01b8152600401600060405180830381600087803b158015612e4257600080fd5b505af1158015612e56573d6000803e3d6000fd5b505050505b50505b61239c8787875b6001600160a01b038216600090815260656020526040902054612e899082906136e7565b6001600160a01b0380841660008181526065602052604090819020939093559151908516907fddf252ad1be2c89b69c2b068fc378daa952ba7f163c4a11628f55a4df523b3ef906123fa9085815260200190565b6000806000607060019054906101000a90046001600160a01b03166001600160a01b03166318160ddd6040518163ffffffff1660e01b8152600401602060405180830381865afa158015612f35573d6000803e3d6000fd5b505050506040513d601f19601f82011682018060405250810190612f599190613833565b90506000606d60009054906101000a90046001600160a01b03166001600160a01b031663c45a01556040518163ffffffff1660e01b8152600401602060405180830381865afa158015612fb0573d6000803e3d6000fd5b505050506040513d601f19601f82011682018060405250810190612fd491906139f0565b6001600160a01b031663017e7e586040518163ffffffff1660e01b8152600401602060405180830381865afa158015613011573d6000803e3d6000fd5b505050506040513d601f19601f8201168201806040525081019061303591906139f0565b60705460408051637464fc3d60e01b815290519293506001600160a01b03808516151593600093610100900490911691637464fc3d9160048083019260209291908290030181865afa15801561308f573d6000803e3d6000fd5b505050506040513d601f19601f820116820180604052508101906130b39190613833565b905081156131585780156131585760006130d56130d0898b6136ff565b6131d2565b905060006130e2836131d2565b9050808211156131555760006130f882846136a7565b61310290886136ff565b61310d9060086136ff565b9050600061311c8360086136ff565b6131278560116136ff565b61313191906136e7565b905061313d818361371e565b985088156131525761314f89896136e7565b97505b50505b50505b6000613164898c6136a7565b90508460000361318f576103e861317e6130d08c846136ff565b61318891906136a7565b96506131c4565b6131c18961319d87846136ff565b6131a7919061371e565b896131b2888e6136ff565b6131bc919061371e565b613242565b96505b505050505094509492505050565b6000600382111561323357508060006131ec60028361371e565b6131f79060016136e7565b90505b8181101561322d57905080600281613212818661371e565b61321c91906136e7565b613226919061371e565b90506131fa565b50919050565b811561323d575060015b919050565b60008183106132515781613253565b825b9392505050565b6001600160a01b0381168114611e0c57600080fd5b60006020828403121561328157600080fd5b81356132538161325a565b60005b838110156132a757818101518382015260200161328f565b838111156115c55750506000910152565b60208152600082518060208401526132d781604085016020870161328c565b601f01601f19169190910160400192915050565b600080604083850312156132fe57600080fd5b82356133098161325a565b946020939093013593505050565b8015158114611e0c57600080fd5b6000806040838503121561333857600080fd5b82356133438161325a565b9150602083013561335381613317565b809150509250929050565b60008060006060848603121561337357600080fd5b833561337e8161325a565b9250602084013561338e8161325a565b929592945050506040919091013590565b6000602082840312156133b157600080fd5b813561325381613317565b6000602082840312156133ce57600080fd5b5035919050565b634e487b7160e01b600052604160045260246000fd5b604051601f8201601f1916810167ffffffffffffffff81118282101715613414576134146133d5565b604052919050565b600067ffffffffffffffff821115613436576134366133d5565b5060051b60200190565b600082601f83011261345157600080fd5b813560206134666134618361341c565b6133eb565b82815260059290921b8401810191818101908684111561348557600080fd5b8286015b848110156134a957803561349c8161325a565b8352918301918301613489565b509695505050505050565b600080604083850312156134c757600080fd5b823567ffffffffffffffff808211156134df57600080fd5b6134eb86838701613440565b935060209150818501358181111561350257600080fd5b85019050601f8101861361351557600080fd5b80356135236134618261341c565b81815260059190911b8201830190838101908883111561354257600080fd5b928401925b8284101561356057833582529284019290840190613547565b80955050505050509250929050565b6000806040838503121561358257600080fd5b823567ffffffffffffffff81111561359957600080fd5b6135a585828601613440565b925050602083013561335381613317565b600080604083850312156135c957600080fd5b82356135d48161325a565b915060208301356133538161325a565b60008060008060008060c087890312156135fd57600080fd5b86356136088161325a565b955060208701356136188161325a565b945060408701359350606087013561362f8161325a565b9250608087013561363f8161325a565b915060a087013561364f8161325a565b809150509295509295509295565b600181811c9082168061367157607f821691505b60208210810361322d57634e487b7160e01b600052602260045260246000fd5b634e487b7160e01b600052601160045260246000fd5b6000828210156136b9576136b9613691565b500390565b6020808252600f908201526e1bdb9b1e481dda1a5d19481b1a5cdd608a1b604082015260600190565b600082198211156136fa576136fa613691565b500190565b600081600019048311821515161561371957613719613691565b500290565b60008261373b57634e487b7160e01b600052601260045260246000fd5b500490565b600181815b8085111561377b57816000190482111561376157613761613691565b8085161561376e57918102915b93841c9390800290613745565b509250929050565b60008261379257506001610cc4565b8161379f57506000610cc4565b81600181146137b557600281146137bf576137db565b6001915050610cc4565b60ff8411156137d0576137d0613691565b50506001821b610cc4565b5060208310610133831016604e8410600b84101617156137fe575081810a610cc4565b6138088383613740565b806000190482111561381c5761381c613691565b029392505050565b600061325360ff841683613783565b60006020828403121561384557600080fd5b5051919050565b80516001600160701b038116811461323d57600080fd5b60008060006060848603121561387857600080fd5b6138818461384c565b925061388f6020850161384c565b9150604084015163ffffffff811681146138a857600080fd5b809150509250925092565b634e487b7160e01b600052603260045260246000fd5b6000600182016138db576138db613691565b5060010190565b601f8211156127a457600081815260208120601f850160051c810160208610156139095750805b601f850160051c820191505b8181101561392857828155600101613915565b505050505050565b815167ffffffffffffffff81111561394a5761394a6133d5565b61395e81613958845461365d565b846138e2565b602080601f831160018114613993576000841561397b5750858301515b600019600386901b1c1916600185901b178555613928565b600085815260208120601f198616915b828110156139c2578886015182559484019460019091019084016139a3565b50858210156139e05787850151600019600388901b60f8161c191681555b5050505050600190811b01905550565b600060208284031215613a0257600080fd5b81516132538161325a565b600060208284031215613a1f57600080fd5b815161325381613317565b60008251613a3c81846020870161328c565b919091019291505056fea26469706673582212209d495f05baed84156c692720bed2592b3047e9109dc26efde49242398587475164736f6c634300080f0033",
  "devdoc": {
    "kind": "dev",
    "methods": {
      "allowance(address,address)": {
        "details": "Returns the remaining number of tokens that `spender` will be allowed to spend on behalf of `owner` through {transferFrom}. This is zero by default. This value changes when {approve} or {transferFrom} are called."
      },
      "approve(address,uint256)": {
        "details": "Sets `amount` as the allowance of `spender` over the caller's tokens. Returns a boolean value indicating whether the operation succeeded. IMPORTANT: Beware that changing an allowance with this method brings the risk that someone may use both the old and the new allowance by unfortunate transaction ordering. One possible solution to mitigate this race condition is to first reduce the spender's allowance to 0 and set the desired value afterwards: https://github.com/ethereum/EIPs/issues/20#issuecomment-263524729 Emits an {Approval} event."
      },
      "balanceOf(address)": {
        "details": "Returns the amount of tokens owned by `account`."
      },
      "owner()": {
        "details": "Returns the address of the current owner."
      },
      "renounceOwnership()": {
        "details": "Leaves the contract without owner. It will not be possible to call `onlyOwner` functions. Can only be called by the current owner. NOTE: Renouncing ownership will leave the contract without an owner, thereby disabling any functionality that is only available to the owner."
      },
      "totalSupply()": {
        "details": "Returns the amount of tokens in existence."
      },
      "transferOwnership(address)": {
        "details": "Transfers ownership of the contract to a new account (`newOwner`). Can only be called by the current owner."
      }
    },
    "version": 1
  },
  "userdoc": {
    "kind": "user",
    "methods": {},
    "version": 1
  },
  "storageLayout": {
    "storage": [
      {
        "astId": 164,
        "contract": "contracts/BosToken.sol:BosToken",
        "label": "_initialized",
        "offset": 0,
        "slot": "0",
        "type": "t_uint8"
      },
      {
        "astId": 167,
        "contract": "contracts/BosToken.sol:BosToken",
        "label": "_initializing",
        "offset": 1,
        "slot": "0",
        "type": "t_bool"
      },
      {
        "astId": 1839,
        "contract": "contracts/BosToken.sol:BosToken",
        "label": "__gap",
        "offset": 0,
        "slot": "1",
        "type": "t_array(t_uint256)50_storage"
      },
      {
        "astId": 11,
        "contract": "contracts/BosToken.sol:BosToken",
        "label": "_owner",
        "offset": 0,
        "slot": "51",
        "type": "t_address"
      },
      {
        "astId": 131,
        "contract": "contracts/BosToken.sol:BosToken",
        "label": "__gap",
        "offset": 0,
        "slot": "52",
        "type": "t_array(t_uint256)49_storage"
      },
      {
        "astId": 4012,
        "contract": "contracts/BosToken.sol:BosToken",
        "label": "_balances",
        "offset": 0,
        "slot": "101",
        "type": "t_mapping(t_address,t_uint256)"
      },
      {
        "astId": 4018,
        "contract": "contracts/BosToken.sol:BosToken",
        "label": "_allowances",
        "offset": 0,
        "slot": "102",
        "type": "t_mapping(t_address,t_mapping(t_address,t_uint256))"
      },
      {
        "astId": 4020,
        "contract": "contracts/BosToken.sol:BosToken",
        "label": "_name",
        "offset": 0,
        "slot": "103",
        "type": "t_string_storage"
      },
      {
        "astId": 4022,
        "contract": "contracts/BosToken.sol:BosToken",
        "label": "_symbol",
        "offset": 0,
        "slot": "104",
        "type": "t_string_storage"
      },
      {
        "astId": 4024,
        "contract": "contracts/BosToken.sol:BosToken",
        "label": "_decimals",
        "offset": 0,
        "slot": "105",
        "type": "t_uint8"
      },
      {
        "astId": 4026,
        "contract": "contracts/BosToken.sol:BosToken",
        "label": "fundAddress",
        "offset": 1,
        "slot": "105",
        "type": "t_address"
      },
      {
        "astId": 4030,
        "contract": "contracts/BosToken.sol:BosToken",
        "label": "_feeWhiteList",
        "offset": 0,
        "slot": "106",
        "type": "t_mapping(t_address,t_bool)"
      },
      {
        "astId": 4035,
        "contract": "contracts/BosToken.sol:BosToken",
        "label": "_userInfo",
        "offset": 0,
        "slot": "107",
        "type": "t_mapping(t_address,t_struct(UserInfo)4008_storage)"
      },
      {
        "astId": 4037,
        "contract": "contracts/BosToken.sol:BosToken",
        "label": "_tTotal",
        "offset": 0,
        "slot": "108",
        "type": "t_uint256"
      },
      {
        "astId": 4040,
        "contract": "contracts/BosToken.sol:BosToken",
        "label": "_swapRouter",
        "offset": 0,
        "slot": "109",
        "type": "t_contract(ISwapRouter)9947"
      },
      {
        "astId": 4044,
        "contract": "contracts/BosToken.sol:BosToken",
        "label": "_swapPairList",
        "offset": 0,
        "slot": "110",
        "type": "t_mapping(t_address,t_bool)"
      },
      {
        "astId": 4048,
        "contract": "contracts/BosToken.sol:BosToken",
        "label": "_swapRouters",
        "offset": 0,
        "slot": "111",
        "type": "t_mapping(t_address,t_bool)"
      },
      {
        "astId": 4050,
        "contract": "contracts/BosToken.sol:BosToken",
        "label": "inSwap",
        "offset": 0,
        "slot": "112",
        "type": "t_bool"
      },
      {
        "astId": 4052,
        "contract": "contracts/BosToken.sol:BosToken",
        "label": "_mainPair",
        "offset": 1,
        "slot": "112",
        "type": "t_address"
      },
      {
        "astId": 4054,
        "contract": "contracts/BosToken.sol:BosToken",
        "label": "_usdt",
        "offset": 0,
        "slot": "113",
        "type": "t_address"
      },
      {
        "astId": 4056,
        "contract": "contracts/BosToken.sol:BosToken",
        "label": "_strictCheck",
        "offset": 20,
        "slot": "113",
        "type": "t_bool"
      },
      {
        "astId": 4058,
        "contract": "contracts/BosToken.sol:BosToken",
        "label": "_startBuy",
        "offset": 21,
        "slot": "113",
        "type": "t_bool"
      },
      {
        "astId": 4060,
        "contract": "contracts/BosToken.sol:BosToken",
        "label": "_startSell",
        "offset": 22,
        "slot": "113",
        "type": "t_bool"
      },
      {
        "astId": 4063,
        "contract": "contracts/BosToken.sol:BosToken",
        "label": "_mintPool",
        "offset": 0,
        "slot": "114",
        "type": "t_contract(IMintPool)9823"
      },
      {
        "astId": 4065,
        "contract": "contracts/BosToken.sol:BosToken",
        "label": "_lastGiveRewardTime",
        "offset": 0,
        "slot": "115",
        "type": "t_uint256"
      },
      {
        "astId": 4070,
        "contract": "contracts/BosToken.sol:BosToken",
        "label": "_pauseGiveReward",
        "offset": 0,
        "slot": "116",
        "type": "t_bool"
      },
      {
        "astId": 4072,
        "contract": "contracts/BosToken.sol:BosToken",
        "label": "_giveRewardRate",
        "offset": 0,
        "slot": "117",
        "type": "t_uint256"
      },
      {
        "astId": 4074,
        "contract": "contracts/BosToken.sol:BosToken",
        "label": "_totalMintReward",
        "offset": 0,
        "slot": "118",
        "type": "t_uint256"
      },
      {
        "astId": 4076,
        "contract": "contracts/BosToken.sol:BosToken",
        "label": "_sellPoolRate",
        "offset": 0,
        "slot": "119",
        "type": "t_uint256"
      },
      {
        "astId": 4078,
        "contract": "contracts/BosToken.sol:BosToken",
        "label": "_sellPoolDestroyRate",
        "offset": 0,
        "slot": "120",
        "type": "t_uint256"
      },
      {
        "astId": 4082,
        "contract": "contracts/BosToken.sol:BosToken",
        "label": "blacklist",
        "offset": 0,
        "slot": "121",
        "type": "t_mapping(t_address,t_bool)"
      }
    ],
    "types": {
      "t_address": {
        "encoding": "inplace",
        "label": "address",
        "numberOfBytes": "20"
      },
      "t_array(t_uint256)49_storage": {
        "base": "t_uint256",
        "encoding": "inplace",
        "label": "uint256[49]",
        "numberOfBytes": "1568"
      },
      "t_array(t_uint256)50_storage": {
        "base": "t_uint256",
        "encoding": "inplace",
        "label": "uint256[50]",
        "numberOfBytes": "1600"
      },
      "t_bool": {
        "encoding": "inplace",
        "label": "bool",
        "numberOfBytes": "1"
      },
      "t_contract(IMintPool)9823": {
        "encoding": "inplace",
        "label": "contract IMintPool",
        "numberOfBytes": "20"
      },
      "t_contract(ISwapRouter)9947": {
        "encoding": "inplace",
        "label": "contract ISwapRouter",
        "numberOfBytes": "20"
      },
      "t_mapping(t_address,t_bool)": {
        "encoding": "mapping",
        "key": "t_address",
        "label": "mapping(address => bool)",
        "numberOfBytes": "32",
        "value": "t_bool"
      },
      "t_mapping(t_address,t_mapping(t_address,t_uint256))": {
        "encoding": "mapping",
        "key": "t_address",
        "label": "mapping(address => mapping(address => uint256))",
        "numberOfBytes": "32",
        "value": "t_mapping(t_address,t_uint256)"
      },
      "t_mapping(t_address,t_struct(UserInfo)4008_storage)": {
        "encoding": "mapping",
        "key": "t_address",
        "label": "mapping(address => struct BosToken.UserInfo)",
        "numberOfBytes": "32",
        "value": "t_struct(UserInfo)4008_storage"
      },
      "t_mapping(t_address,t_uint256)": {
        "encoding": "mapping",
        "key": "t_address",
        "label": "mapping(address => uint256)",
        "numberOfBytes": "32",
        "value": "t_uint256"
      },
      "t_string_storage": {
        "encoding": "bytes",
        "label": "string",
        "numberOfBytes": "32"
      },
      "t_struct(UserInfo)4008_storage": {
        "encoding": "inplace",
        "label": "struct BosToken.UserInfo",
        "members": [
          {
            "astId": 4005,
            "contract": "contracts/BosToken.sol:BosToken",
            "label": "lpAmount",
            "offset": 0,
            "slot": "0",
            "type": "t_uint256"
          },
          {
            "astId": 4007,
            "contract": "contracts/BosToken.sol:BosToken",
            "label": "preLP",
            "offset": 0,
            "slot": "1",
            "type": "t_bool"
          }
        ],
        "numberOfBytes": "64"
      },
      "t_uint256": {
        "encoding": "inplace",
        "label": "uint256",
        "numberOfBytes": "32"
      },
      "t_uint8": {
        "encoding": "inplace",
        "label": "uint8",
        "numberOfBytes": "1"
      }
    }
  }
}