{
  "address": "0x05051816022D536b7A2a47e9670F70AA33a68060",
  "abi": [
    {
      "anonymous": false,
      "inputs": [
        {
          "indexed": true,
          "internalType": "address",
          "name": "account",
          "type": "address"
        },
        {
          "indexed": true,
          "internalType": "uint256",
          "name": "amount",
          "type": "uint256"
        }
      ],
      "name": "Deposit",
      "type": "event"
    },
    {
      "anonymous": false,
      "inputs": [
        {
          "indexed": false,
          "internalType": "uint8",
          "name": "version",
          "type": "uint8"
        }
      ],
      "name": "Initialized",
      "type": "event"
    },
    {
      "anonymous": false,
      "inputs": [
        {
          "indexed": true,
          "internalType": "address",
          "name": "previousOwner",
          "type": "address"
        },
        {
          "indexed": true,
          "internalType": "address",
          "name": "newOwner",
          "type": "address"
        }
      ],
      "name": "OwnershipTransferred",
      "type": "event"
    },
    {
      "anonymous": false,
      "inputs": [
        {
          "indexed": true,
          "internalType": "address",
          "name": "account",
          "type": "address"
        },
        {
          "indexed": true,
          "internalType": "uint256",
          "name": "tokenAmount",
          "type": "uint256"
        },
        {
          "indexed": true,
          "internalType": "uint256",
          "name": "selfAmount",
          "type": "uint256"
        }
      ],
      "name": "Sell",
      "type": "event"
    },
    {
      "anonymous": false,
      "inputs": [
        {
          "indexed": true,
          "internalType": "address",
          "name": "account",
          "type": "address"
        },
        {
          "indexed": true,
          "internalType": "uint256",
          "name": "level",
          "type": "uint256"
        },
        {
          "indexed": true,
          "internalType": "uint256",
          "name": "powerAmount",
          "type": "uint256"
        }
      ],
      "name": "nftPowerReward",
      "type": "event"
    },
    {
      "anonymous": false,
      "inputs": [
        {
          "indexed": true,
          "internalType": "address",
          "name": "account",
          "type": "address"
        },
        {
          "indexed": true,
          "internalType": "uint256",
          "name": "level",
          "type": "uint256"
        },
        {
          "indexed": true,
          "internalType": "uint256",
          "name": "tokenAmount",
          "type": "uint256"
        }
      ],
      "name": "nftTokenReward",
      "type": "event"
    },
    {
      "inputs": [],
      "name": "_amountDailyUp",
      "outputs": [
        {
          "internalType": "uint256",
          "name": "",
          "type": "uint256"
        }
      ],
      "stateMutability": "view",
      "type": "function"
    },
    {
      "inputs": [
        {
          "internalType": "address",
          "name": "",
          "type": "address"
        },
        {
          "internalType": "uint256",
          "name": "",
          "type": "uint256"
        }
      ],
      "name": "_binder",
      "outputs": [
        {
          "internalType": "address",
          "name": "",
          "type": "address"
        }
      ],
      "stateMutability": "view",
      "type": "function"
    },
    {
      "inputs": [],
      "name": "_fundAddress",
      "outputs": [
        {
          "internalType": "address",
          "name": "",
          "type": "address"
        }
      ],
      "stateMutability": "view",
      "type": "function"
    },
    {
      "inputs": [],
      "name": "_getReserves",
      "outputs": [
        {
          "internalType": "uint256",
          "name": "rUsdt",
          "type": "uint256"
        },
        {
          "internalType": "uint256",
          "name": "rToken",
          "type": "uint256"
        }
      ],
      "stateMutability": "view",
      "type": "function"
    },
    {
      "inputs": [
        {
          "internalType": "address",
          "name": "",
          "type": "address"
        }
      ],
      "name": "_inProject",
      "outputs": [
        {
          "internalType": "bool",
          "name": "",
          "type": "bool"
        }
      ],
      "stateMutability": "view",
      "type": "function"
    },
    {
      "inputs": [
        {
          "internalType": "address",
          "name": "",
          "type": "address"
        }
      ],
      "name": "_inviteAmount",
      "outputs": [
        {
          "internalType": "uint256",
          "name": "",
          "type": "uint256"
        }
      ],
      "stateMutability": "view",
      "type": "function"
    },
    {
      "inputs": [
        {
          "internalType": "uint256",
          "name": "",
          "type": "uint256"
        }
      ],
      "name": "_inviteFee",
      "outputs": [
        {
          "internalType": "uint256",
          "name": "",
          "type": "uint256"
        }
      ],
      "stateMutability": "view",
      "type": "function"
    },
    {
      "inputs": [
        {
          "internalType": "address",
          "name": "",
          "type": "address"
        }
      ],
      "name": "_invitor",
      "outputs": [
        {
          "internalType": "address",
          "name": "",
          "type": "address"
        }
      ],
      "stateMutability": "view",
      "type": "function"
    },
    {
      "inputs": [],
      "name": "_lastAmountRate",
      "outputs": [
        {
          "internalType": "uint256",
          "name": "",
          "type": "uint256"
        }
      ],
      "stateMutability": "view",
      "type": "function"
    },
    {
      "inputs": [],
      "name": "_lastDailyUpTime",
      "outputs": [
        {
          "internalType": "uint256",
          "name": "",
          "type": "uint256"
        }
      ],
      "stateMutability": "view",
      "type": "function"
    },
    {
      "inputs": [],
      "name": "_lp",
      "outputs": [
        {
          "internalType": "address",
          "name": "",
          "type": "address"
        }
      ],
      "stateMutability": "view",
      "type": "function"
    },
    {
      "inputs": [],
      "name": "_lpReleaseDuration",
      "outputs": [
        {
          "internalType": "uint256",
          "name": "",
          "type": "uint256"
        }
      ],
      "stateMutability": "view",
      "type": "function"
    },
    {
      "inputs": [],
      "name": "_nft",
      "outputs": [
        {
          "internalType": "contract INFT",
          "name": "",
          "type": "address"
        }
      ],
      "stateMutability": "view",
      "type": "function"
    },
    {
      "inputs": [],
      "name": "_pauseSell",
      "outputs": [
        {
          "internalType": "bool",
          "name": "",
          "type": "bool"
        }
      ],
      "stateMutability": "view",
      "type": "function"
    },
    {
      "inputs": [],
      "name": "_sellJoinRate",
      "outputs": [
        {
          "internalType": "uint256",
          "name": "",
          "type": "uint256"
        }
      ],
      "stateMutability": "view",
      "type": "function"
    },
    {
      "inputs": [],
      "name": "_sellLPReceiver",
      "outputs": [
        {
          "internalType": "address",
          "name": "",
          "type": "address"
        }
      ],
      "stateMutability": "view",
      "type": "function"
    },
    {
      "inputs": [],
      "name": "_sellNFTRate",
      "outputs": [
        {
          "internalType": "uint256",
          "name": "",
          "type": "uint256"
        }
      ],
      "stateMutability": "view",
      "type": "function"
    },
    {
      "inputs": [],
      "name": "_sellSelfRate",
      "outputs": [
        {
          "internalType": "uint256",
          "name": "",
          "type": "uint256"
        }
      ],
      "stateMutability": "view",
      "type": "function"
    },
    {
      "inputs": [],
      "name": "_speedUpDuration",
      "outputs": [
        {
          "internalType": "uint256",
          "name": "",
          "type": "uint256"
        }
      ],
      "stateMutability": "view",
      "type": "function"
    },
    {
      "inputs": [],
      "name": "_speedUpReceiver",
      "outputs": [
        {
          "internalType": "address",
          "name": "",
          "type": "address"
        }
      ],
      "stateMutability": "view",
      "type": "function"
    },
    {
      "inputs": [
        {
          "internalType": "address",
          "name": "",
          "type": "address"
        }
      ],
      "name": "_teamAmount",
      "outputs": [
        {
          "internalType": "uint256",
          "name": "",
          "type": "uint256"
        }
      ],
      "stateMutability": "view",
      "type": "function"
    },
    {
      "inputs": [
        {
          "internalType": "address",
          "name": "",
          "type": "address"
        }
      ],
      "name": "_teamNum",
      "outputs": [
        {
          "internalType": "uint256",
          "name": "",
          "type": "uint256"
        }
      ],
      "stateMutability": "view",
      "type": "function"
    },
    {
      "inputs": [
        {
          "internalType": "address",
          "name": "",
          "type": "address"
        }
      ],
      "name": "_userLPInfo",
      "outputs": [
        {
          "internalType": "uint256",
          "name": "lockAmount",
          "type": "uint256"
        },
        {
          "internalType": "uint256",
          "name": "calAmount",
          "type": "uint256"
        },
        {
          "internalType": "uint256",
          "name": "claimedAmount",
          "type": "uint256"
        },
        {
          "internalType": "uint256",
          "name": "lastReleaseTime",
          "type": "uint256"
        },
        {
          "internalType": "uint256",
          "name": "releaseInitAmount",
          "type": "uint256"
        },
        {
          "internalType": "uint256",
          "name": "releaseDuration",
          "type": "uint256"
        },
        {
          "internalType": "uint256",
          "name": "speedUpTime",
          "type": "uint256"
        }
      ],
      "stateMutability": "view",
      "type": "function"
    },
    {
      "inputs": [
        {
          "internalType": "address",
          "name": "account",
          "type": "address"
        },
        {
          "internalType": "uint256",
          "name": "amount",
          "type": "uint256"
        }
      ],
      "name": "addMintAmount",
      "outputs": [],
      "stateMutability": "nonpayable",
      "type": "function"
    },
    {
      "inputs": [
        {
          "internalType": "uint256",
          "name": "reward",
          "type": "uint256"
        }
      ],
      "name": "addTotalMintReward",
      "outputs": [],
      "stateMutability": "nonpayable",
      "type": "function"
    },
    {
      "inputs": [
        {
          "internalType": "address",
          "name": "account",
          "type": "address"
        },
        {
          "internalType": "uint256",
          "name": "amount",
          "type": "uint256"
        },
        {
          "internalType": "bool",
          "name": "calInvite",
          "type": "bool"
        }
      ],
      "name": "addUserAmount",
      "outputs": [],
      "stateMutability": "nonpayable",
      "type": "function"
    },
    {
      "inputs": [
        {
          "internalType": "address[]",
          "name": "users",
          "type": "address[]"
        },
        {
          "components": [
            {
              "internalType": "bool",
              "name": "isActive",
              "type": "bool"
            },
            {
              "internalType": "uint256",
              "name": "amount",
              "type": "uint256"
            },
            {
              "internalType": "uint256",
              "name": "rewardMintDebt",
              "type": "uint256"
            },
            {
              "internalType": "uint256",
              "name": "calMintReward",
              "type": "uint256"
            }
          ],
          "internalType": "struct MintPool.UserInfo[]",
          "name": "userInfos",
          "type": "tuple[]"
        }
      ],
      "name": "batchInsertUserInfo",
      "outputs": [],
      "stateMutability": "nonpayable",
      "type": "function"
    },
    {
      "inputs": [
        {
          "internalType": "address",
          "name": "account",
          "type": "address"
        },
        {
          "internalType": "address",
          "name": "invitor",
          "type": "address"
        }
      ],
      "name": "bindInvitor",
      "outputs": [],
      "stateMutability": "nonpayable",
      "type": "function"
    },
    {
      "inputs": [
        {
          "internalType": "address",
          "name": "",
          "type": "address"
        }
      ],
      "name": "blacklist",
      "outputs": [
        {
          "internalType": "bool",
          "name": "",
          "type": "bool"
        }
      ],
      "stateMutability": "view",
      "type": "function"
    },
    {
      "inputs": [
        {
          "internalType": "uint256",
          "name": "userRewardLevel",
          "type": "uint256"
        },
        {
          "internalType": "uint256",
          "name": "amount",
          "type": "uint256"
        }
      ],
      "name": "calculateNFTReward",
      "outputs": [
        {
          "internalType": "uint256",
          "name": "",
          "type": "uint256"
        }
      ],
      "stateMutability": "pure",
      "type": "function"
    },
    {
      "inputs": [
        {
          "internalType": "address",
          "name": "invitor",
          "type": "address"
        }
      ],
      "name": "checkForLevelUp",
      "outputs": [],
      "stateMutability": "nonpayable",
      "type": "function"
    },
    {
      "inputs": [],
      "name": "claim",
      "outputs": [],
      "stateMutability": "nonpayable",
      "type": "function"
    },
    {
      "inputs": [
        {
          "internalType": "address",
          "name": "to",
          "type": "address"
        },
        {
          "internalType": "uint256",
          "name": "amount",
          "type": "uint256"
        }
      ],
      "name": "claimBalance",
      "outputs": [],
      "stateMutability": "nonpayable",
      "type": "function"
    },
    {
      "inputs": [],
      "name": "claimLP",
      "outputs": [],
      "stateMutability": "nonpayable",
      "type": "function"
    },
    {
      "inputs": [
        {
          "internalType": "address",
          "name": "token",
          "type": "address"
        },
        {
          "internalType": "address",
          "name": "to",
          "type": "address"
        },
        {
          "internalType": "uint256",
          "name": "amount",
          "type": "uint256"
        }
      ],
      "name": "claimToken",
      "outputs": [],
      "stateMutability": "nonpayable",
      "type": "function"
    },
    {
      "inputs": [],
      "name": "close",
      "outputs": [],
      "stateMutability": "nonpayable",
      "type": "function"
    },
    {
      "inputs": [
        {
          "internalType": "uint256",
          "name": "amount",
          "type": "uint256"
        },
        {
          "internalType": "uint256",
          "name": "minTokenAmount",
          "type": "uint256"
        },
        {
          "internalType": "address",
          "name": "invitor",
          "type": "address"
        }
      ],
      "name": "deposit",
      "outputs": [],
      "stateMutability": "nonpayable",
      "type": "function"
    },
    {
      "inputs": [
        {
          "internalType": "address",
          "name": "",
          "type": "address"
        }
      ],
      "name": "depositAmount",
      "outputs": [
        {
          "internalType": "uint256",
          "name": "",
          "type": "uint256"
        }
      ],
      "stateMutability": "view",
      "type": "function"
    },
    {
      "inputs": [],
      "name": "getBaseInfo",
      "outputs": [
        {
          "internalType": "address",
          "name": "usdt",
          "type": "address"
        },
        {
          "internalType": "uint256",
          "name": "usdtDecimals",
          "type": "uint256"
        },
        {
          "internalType": "address",
          "name": "mintRewardToken",
          "type": "address"
        },
        {
          "internalType": "uint256",
          "name": "mintRewardTokenDecimals",
          "type": "uint256"
        },
        {
          "internalType": "uint256",
          "name": "totalUsdt",
          "type": "uint256"
        },
        {
          "internalType": "uint256",
          "name": "totalAmount",
          "type": "uint256"
        },
        {
          "internalType": "uint256",
          "name": "lastDailyReward",
          "type": "uint256"
        },
        {
          "internalType": "uint256",
          "name": "dailyAmountRate",
          "type": "uint256"
        },
        {
          "internalType": "uint256",
          "name": "minAmount",
          "type": "uint256"
        },
        {
          "internalType": "address",
          "name": "defaultInvitor",
          "type": "address"
        },
        {
          "internalType": "bool",
          "name": "pauseJoin",
          "type": "bool"
        }
      ],
      "stateMutability": "view",
      "type": "function"
    },
    {
      "inputs": [
        {
          "internalType": "address",
          "name": "account",
          "type": "address"
        }
      ],
      "name": "getBinderLength",
      "outputs": [
        {
          "internalType": "uint256",
          "name": "",
          "type": "uint256"
        }
      ],
      "stateMutability": "view",
      "type": "function"
    },
    {
      "inputs": [
        {
          "internalType": "address",
          "name": "account",
          "type": "address"
        },
        {
          "internalType": "uint256",
          "name": "start",
          "type": "uint256"
        },
        {
          "internalType": "uint256",
          "name": "length",
          "type": "uint256"
        }
      ],
      "name": "getBinderList",
      "outputs": [
        {
          "internalType": "uint256",
          "name": "returnCount",
          "type": "uint256"
        },
        {
          "internalType": "address[]",
          "name": "binders",
          "type": "address[]"
        }
      ],
      "stateMutability": "view",
      "type": "function"
    },
    {
      "inputs": [
        {
          "internalType": "address",
          "name": "account",
          "type": "address"
        }
      ],
      "name": "getDirectList",
      "outputs": [
        {
          "internalType": "address[]",
          "name": "binders",
          "type": "address[]"
        },
        {
          "internalType": "uint256[]",
          "name": "teamAmounts",
          "type": "uint256[]"
        }
      ],
      "stateMutability": "view",
      "type": "function"
    },
    {
      "inputs": [
        {
          "internalType": "uint256",
          "name": "usdtAmount",
          "type": "uint256"
        }
      ],
      "name": "getJoinTokenAmountOut",
      "outputs": [
        {
          "internalType": "uint256",
          "name": "tokenAmount",
          "type": "uint256"
        }
      ],
      "stateMutability": "view",
      "type": "function"
    },
    {
      "inputs": [],
      "name": "getLPInfo",
      "outputs": [
        {
          "internalType": "uint256",
          "name": "totalLP",
          "type": "uint256"
        },
        {
          "internalType": "uint256",
          "name": "lockLP",
          "type": "uint256"
        },
        {
          "internalType": "uint256",
          "name": "speedUpMaxTime",
          "type": "uint256"
        },
        {
          "internalType": "uint256",
          "name": "speedCostUsdt",
          "type": "uint256"
        },
        {
          "internalType": "uint256",
          "name": "speedCostToken",
          "type": "uint256"
        }
      ],
      "stateMutability": "view",
      "type": "function"
    },
    {
      "inputs": [
        {
          "internalType": "address",
          "name": "account",
          "type": "address"
        }
      ],
      "name": "getPendingMintReward",
      "outputs": [
        {
          "internalType": "uint256",
          "name": "reward",
          "type": "uint256"
        }
      ],
      "stateMutability": "view",
      "type": "function"
    },
    {
      "inputs": [
        {
          "internalType": "uint256",
          "name": "tokenAmount",
          "type": "uint256"
        }
      ],
      "name": "getSellUsdtOut",
      "outputs": [
        {
          "internalType": "uint256",
          "name": "usdtAmount",
          "type": "uint256"
        },
        {
          "internalType": "uint256",
          "name": "selfUsdt",
          "type": "uint256"
        },
        {
          "internalType": "uint256",
          "name": "mintAmount",
          "type": "uint256"
        }
      ],
      "stateMutability": "view",
      "type": "function"
    },
    {
      "inputs": [
        {
          "internalType": "address",
          "name": "account",
          "type": "address"
        }
      ],
      "name": "getUserInfo",
      "outputs": [
        {
          "internalType": "uint256",
          "name": "amount",
          "type": "uint256"
        },
        {
          "internalType": "uint256",
          "name": "usdtBalance",
          "type": "uint256"
        },
        {
          "internalType": "uint256",
          "name": "usdtAllowance",
          "type": "uint256"
        },
        {
          "internalType": "uint256",
          "name": "pendingMintReward",
          "type": "uint256"
        },
        {
          "internalType": "uint256",
          "name": "inviteAmount",
          "type": "uint256"
        },
        {
          "internalType": "uint256",
          "name": "sellJoinAmount",
          "type": "uint256"
        },
        {
          "internalType": "uint256",
          "name": "teamNum",
          "type": "uint256"
        },
        {
          "internalType": "uint256",
          "name": "teamAmount",
          "type": "uint256"
        }
      ],
      "stateMutability": "view",
      "type": "function"
    },
    {
      "inputs": [
        {
          "internalType": "address",
          "name": "account",
          "type": "address"
        }
      ],
      "name": "getUserLPInfo",
      "outputs": [
        {
          "internalType": "uint256",
          "name": "lockAmount",
          "type": "uint256"
        },
        {
          "internalType": "uint256",
          "name": "calAmount",
          "type": "uint256"
        },
        {
          "internalType": "uint256",
          "name": "claimedAmount",
          "type": "uint256"
        },
        {
          "internalType": "uint256",
          "name": "lastReleaseTime",
          "type": "uint256"
        },
        {
          "internalType": "uint256",
          "name": "releaseInitAmount",
          "type": "uint256"
        },
        {
          "internalType": "uint256",
          "name": "releaseDuration",
          "type": "uint256"
        },
        {
          "internalType": "uint256",
          "name": "speedUpTime",
          "type": "uint256"
        },
        {
          "internalType": "uint256",
          "name": "tokenBalance",
          "type": "uint256"
        },
        {
          "internalType": "uint256",
          "name": "tokenAllowance",
          "type": "uint256"
        }
      ],
      "stateMutability": "view",
      "type": "function"
    },
    {
      "inputs": [
        {
          "internalType": "address",
          "name": "account",
          "type": "address"
        }
      ],
      "name": "getUserNFTLevel",
      "outputs": [
        {
          "internalType": "uint256",
          "name": "",
          "type": "uint256"
        }
      ],
      "stateMutability": "view",
      "type": "function"
    },
    {
      "inputs": [
        {
          "internalType": "address",
          "name": "swapRouter",
          "type": "address"
        },
        {
          "internalType": "address",
          "name": "usdt",
          "type": "address"
        },
        {
          "internalType": "address",
          "name": "mintRewardToken",
          "type": "address"
        },
        {
          "internalType": "address",
          "name": "nft",
          "type": "address"
        },
        {
          "internalType": "address",
          "name": "defaultInvitor",
          "type": "address"
        },
        {
          "internalType": "address",
          "name": "fundAddress",
          "type": "address"
        },
        {
          "internalType": "address",
          "name": "_owner",
          "type": "address"
        }
      ],
      "name": "initialize",
      "outputs": [],
      "stateMutability": "nonpayable",
      "type": "function"
    },
    {
      "inputs": [],
      "name": "open",
      "outputs": [],
      "stateMutability": "nonpayable",
      "type": "function"
    },
    {
      "inputs": [],
      "name": "owner",
      "outputs": [
        {
          "internalType": "address",
          "name": "",
          "type": "address"
        }
      ],
      "stateMutability": "view",
      "type": "function"
    },
    {
      "inputs": [],
      "name": "poolInfo",
      "outputs": [
        {
          "internalType": "uint256",
          "name": "totalAmount",
          "type": "uint256"
        },
        {
          "internalType": "uint256",
          "name": "accMintPerShare",
          "type": "uint256"
        },
        {
          "internalType": "uint256",
          "name": "accMintReward",
          "type": "uint256"
        },
        {
          "internalType": "uint256",
          "name": "mintPerSec",
          "type": "uint256"
        },
        {
          "internalType": "uint256",
          "name": "lastMintTime",
          "type": "uint256"
        },
        {
          "internalType": "uint256",
          "name": "totalMintReward",
          "type": "uint256"
        }
      ],
      "stateMutability": "view",
      "type": "function"
    },
    {
      "inputs": [
        {
          "internalType": "address",
          "name": "",
          "type": "address"
        }
      ],
      "name": "referralAmount",
      "outputs": [
        {
          "internalType": "uint256",
          "name": "",
          "type": "uint256"
        }
      ],
      "stateMutability": "view",
      "type": "function"
    },
    {
      "inputs": [
        {
          "internalType": "address",
          "name": "",
          "type": "address"
        }
      ],
      "name": "referralReward",
      "outputs": [
        {
          "internalType": "uint256",
          "name": "",
          "type": "uint256"
        }
      ],
      "stateMutability": "view",
      "type": "function"
    },
    {
      "inputs": [
        {
          "internalType": "address",
          "name": "",
          "type": "address"
        },
        {
          "internalType": "uint256",
          "name": "",
          "type": "uint256"
        }
      ],
      "name": "referrals",
      "outputs": [
        {
          "internalType": "address",
          "name": "",
          "type": "address"
        }
      ],
      "stateMutability": "view",
      "type": "function"
    },
    {
      "inputs": [],
      "name": "renounceOwnership",
      "outputs": [],
      "stateMutability": "nonpayable",
      "type": "function"
    },
    {
      "inputs": [
        {
          "internalType": "uint256",
          "name": "tokenAmount",
          "type": "uint256"
        }
      ],
      "name": "sell",
      "outputs": [],
      "stateMutability": "nonpayable",
      "type": "function"
    },
    {
      "inputs": [
        {
          "internalType": "uint256",
          "name": "r",
          "type": "uint256"
        }
      ],
      "name": "setAmountDailyUp",
      "outputs": [],
      "stateMutability": "nonpayable",
      "type": "function"
    },
    {
      "inputs": [
        {
          "internalType": "address",
          "name": "adr",
          "type": "address"
        }
      ],
      "name": "setDefaultInvitor",
      "outputs": [],
      "stateMutability": "nonpayable",
      "type": "function"
    },
    {
      "inputs": [
        {
          "internalType": "address",
          "name": "a",
          "type": "address"
        }
      ],
      "name": "setFundAddress",
      "outputs": [],
      "stateMutability": "nonpayable",
      "type": "function"
    },
    {
      "inputs": [
        {
          "internalType": "address",
          "name": "adr",
          "type": "address"
        },
        {
          "internalType": "bool",
          "name": "enable",
          "type": "bool"
        }
      ],
      "name": "setInProject",
      "outputs": [],
      "stateMutability": "nonpayable",
      "type": "function"
    },
    {
      "inputs": [
        {
          "internalType": "uint256",
          "name": "i",
          "type": "uint256"
        },
        {
          "internalType": "uint256",
          "name": "fee",
          "type": "uint256"
        }
      ],
      "name": "setInviteFee",
      "outputs": [],
      "stateMutability": "nonpayable",
      "type": "function"
    },
    {
      "inputs": [
        {
          "internalType": "uint256",
          "name": "d",
          "type": "uint256"
        }
      ],
      "name": "setLPReleaseDuration",
      "outputs": [],
      "stateMutability": "nonpayable",
      "type": "function"
    },
    {
      "inputs": [
        {
          "internalType": "uint256",
          "name": "r",
          "type": "uint256"
        }
      ],
      "name": "setLastAmountRate",
      "outputs": [],
      "stateMutability": "nonpayable",
      "type": "function"
    },
    {
      "inputs": [
        {
          "internalType": "uint256",
          "name": "t",
          "type": "uint256"
        }
      ],
      "name": "setLastDailyUpTime",
      "outputs": [],
      "stateMutability": "nonpayable",
      "type": "function"
    },
    {
      "inputs": [
        {
          "internalType": "uint256",
          "name": "mintPerSec",
          "type": "uint256"
        }
      ],
      "name": "setMintPerSec",
      "outputs": [],
      "stateMutability": "nonpayable",
      "type": "function"
    },
    {
      "inputs": [
        {
          "internalType": "address",
          "name": "_nftAddress",
          "type": "address"
        }
      ],
      "name": "setNFTAddress",
      "outputs": [],
      "stateMutability": "nonpayable",
      "type": "function"
    },
    {
      "inputs": [
        {
          "internalType": "bool",
          "name": "p",
          "type": "bool"
        }
      ],
      "name": "setPauseSell",
      "outputs": [],
      "stateMutability": "nonpayable",
      "type": "function"
    },
    {
      "inputs": [
        {
          "internalType": "address",
          "name": "a",
          "type": "address"
        }
      ],
      "name": "setSeedUpReceiver",
      "outputs": [],
      "stateMutability": "nonpayable",
      "type": "function"
    },
    {
      "inputs": [
        {
          "internalType": "uint256",
          "name": "r",
          "type": "uint256"
        }
      ],
      "name": "setSellJoinRate",
      "outputs": [],
      "stateMutability": "nonpayable",
      "type": "function"
    },
    {
      "inputs": [
        {
          "internalType": "address",
          "name": "a",
          "type": "address"
        }
      ],
      "name": "setSellLPReceiver",
      "outputs": [],
      "stateMutability": "nonpayable",
      "type": "function"
    },
    {
      "inputs": [
        {
          "internalType": "uint256",
          "name": "r",
          "type": "uint256"
        }
      ],
      "name": "setSellNFTRate",
      "outputs": [],
      "stateMutability": "nonpayable",
      "type": "function"
    },
    {
      "inputs": [
        {
          "internalType": "uint256",
          "name": "r",
          "type": "uint256"
        }
      ],
      "name": "setSellSelfRate",
      "outputs": [],
      "stateMutability": "nonpayable",
      "type": "function"
    },
    {
      "inputs": [
        {
          "internalType": "uint256",
          "name": "c",
          "type": "uint256"
        }
      ],
      "name": "setSpeedUpCost",
      "outputs": [],
      "stateMutability": "nonpayable",
      "type": "function"
    },
    {
      "inputs": [
        {
          "internalType": "uint256",
          "name": "d",
          "type": "uint256"
        }
      ],
      "name": "setSpeedUpDuration",
      "outputs": [],
      "stateMutability": "nonpayable",
      "type": "function"
    },
    {
      "inputs": [
        {
          "internalType": "uint256",
          "name": "mt",
          "type": "uint256"
        }
      ],
      "name": "setSpeedUpMaxTime",
      "outputs": [],
      "stateMutability": "nonpayable",
      "type": "function"
    },
    {
      "inputs": [
        {
          "internalType": "address",
          "name": "account",
          "type": "address"
        },
        {
          "internalType": "uint256",
          "name": "level",
          "type": "uint256"
        }
      ],
      "name": "setUserLevel",
      "outputs": [],
      "stateMutability": "nonpayable",
      "type": "function"
    },
    {
      "inputs": [
        {
          "internalType": "uint256",
          "name": "maxTokenAmount",
          "type": "uint256"
        }
      ],
      "name": "speedUpLP",
      "outputs": [],
      "stateMutability": "nonpayable",
      "type": "function"
    },
    {
      "inputs": [
        {
          "internalType": "address",
          "name": "",
          "type": "address"
        }
      ],
      "name": "superAccount",
      "outputs": [
        {
          "internalType": "address",
          "name": "",
          "type": "address"
        }
      ],
      "stateMutability": "view",
      "type": "function"
    },
    {
      "inputs": [
        {
          "internalType": "address",
          "name": "newOwner",
          "type": "address"
        }
      ],
      "name": "transferOwnership",
      "outputs": [],
      "stateMutability": "nonpayable",
      "type": "function"
    },
    {
      "inputs": [],
      "name": "updateDailyUpRate",
      "outputs": [],
      "stateMutability": "nonpayable",
      "type": "function"
    },
    {
      "inputs": [
        {
          "internalType": "address",
          "name": "",
          "type": "address"
        }
      ],
      "name": "userInfo",
      "outputs": [
        {
          "internalType": "bool",
          "name": "isActive",
          "type": "bool"
        },
        {
          "internalType": "uint256",
          "name": "amount",
          "type": "uint256"
        },
        {
          "internalType": "uint256",
          "name": "rewardMintDebt",
          "type": "uint256"
        },
        {
          "internalType": "uint256",
          "name": "calMintReward",
          "type": "uint256"
        }
      ],
      "stateMutability": "view",
      "type": "function"
    },
    {
      "inputs": [
        {
          "internalType": "address",
          "name": "",
          "type": "address"
        }
      ],
      "name": "userLevel",
      "outputs": [
        {
          "internalType": "uint256",
          "name": "",
          "type": "uint256"
        }
      ],
      "stateMutability": "view",
      "type": "function"
    },
    {
      "inputs": [],
      "name": "v1Amount",
      "outputs": [
        {
          "internalType": "uint256",
          "name": "",
          "type": "uint256"
        }
      ],
      "stateMutability": "view",
      "type": "function"
    },
    {
      "inputs": [],
      "name": "v2Amount",
      "outputs": [
        {
          "internalType": "uint256",
          "name": "",
          "type": "uint256"
        }
      ],
      "stateMutability": "view",
      "type": "function"
    },
    {
      "inputs": [],
      "name": "v3Amount",
      "outputs": [
        {
          "internalType": "uint256",
          "name": "",
          "type": "uint256"
        }
      ],
      "stateMutability": "view",
      "type": "function"
    },
    {
      "inputs": [],
      "name": "v4Amount",
      "outputs": [
        {
          "internalType": "uint256",
          "name": "",
          "type": "uint256"
        }
      ],
      "stateMutability": "view",
      "type": "function"
    },
    {
      "inputs": [],
      "name": "v5Amount",
      "outputs": [
        {
          "internalType": "uint256",
          "name": "",
          "type": "uint256"
        }
      ],
      "stateMutability": "view",
      "type": "function"
    },
    {
      "stateMutability": "payable",
      "type": "receive"
    }
  ],
  "transactionHash": "0x42760b9f157620beaae58d4721350f3a6fe1f800554b4eaf5caad93a1bf6235f",
  "args": [],
  "solcInputHash": "0d27a21e107f16826dd0041bbeaa360c",
  "bytecode": "0x610180604052600360805268878678326eac90000060a05269043c33c193756480000060c052690a968163f0a57b40000060e052691fc3842bd1f071c00000610100526969e10de76676d0800000610120526127106101405262015180610160523480156200006d57600080fd5b5062000079336200007f565b620000cf565b600080546001600160a01b038381166001600160a01b0319831681178455604051919092169283917f8be0079c531659141344cd1fd0a4f28419497f9722a3daafe3b4186f6b6457e09190a35050565b60805160a05160c05160e05161010051610120516101405161016051615ce462000197600039600081816117670152818161340c0152614ddd01526000818161256f0152818161347b0152818161384201528181614e4101528181615092015261528c015260008181610596015261277e0152600081816107300152612758015260008181610c050152612732015260008181610831015261270c01526000818161100d015281816126df0152614c80015260008181613eb601526140a30152615ce46000f3fe6080604052600436106104d95760003560e01c806385dc300411610281578063b79190451161015a578063e4849b32116100cc578063f12e6eb711610085578063f12e6eb714611255578063f2fde38b14611275578063f48544c314611295578063f9f92be4146112ab578063fcfff16f146112db578063fd3cf885146112f057600080fd5b8063e4849b3214611152578063e5d6563314611172578063e697b5d8146111a2578063e9f22169146111c2578063ec747edb146111e2578063f0c52e4c1461121857600080fd5b8063cef6632d1161011e578063cef6632d146110a5578063d5559e21146110d2578063dde40dda146110e8578063de44391a14611108578063e20ae3921461111d578063e3ca487a1461113257600080fd5b8063b791904514610fdb578063bc980f8c14610ffb578063cc396be11461102f578063ce4d9f1514611065578063ce5611431461108f57600080fd5b8063a5b64e5e116101f3578063b1a8c459116101b7578063b1a8c45914610f25578063b272d7c314610f45578063b38dcd7114610f65578063b612511014610f7b578063b64cf2d914610f9b578063b75265d314610fbb57600080fd5b8063a5b64e5e14610e67578063a779fe9214610e87578063aa1a8c6014610e9d578063aa8b38d914610ed8578063ac86af9414610ef857600080fd5b806394f738a21161024557806394f738a214610d3f5780639551ae4414610d5f57806395d4c7bb14610dda57806398300e1814610e07578063a40a789c14610e27578063a4e48ed814610e4757600080fd5b806385dc300414610c945780638a56d30614610cb45780638da5cb5b14610cd45780638dbdbe6d14610cf257806393b556ad14610d1257600080fd5b80634e71d92d116103b35780636ca9ee1b116103255780637d3643b5116102e95780637d3643b514610ba55780637f15b36b14610bd3578063815a7beb14610bf35780638230af5a14610c27578063834f8f5514610c475780638593b2b114610c7457600080fd5b80636ca9ee1b14610aff5780636e18b6db14610b155780636ec42c2c14610b42578063715018a614610b705780637512474e14610b8557600080fd5b80635f84aecd116103775780635f84aecd146109f85780636386c1c714610a0e578063681982a714610a69578063692c7bf714610a8957806369d0373814610aa957806369da132614610ac957600080fd5b80634e71d92d1461091f57806350f62da7146109345780635239a993146109605780635a2f3d09146109805780635ca8e3f2146109d857600080fd5b80631e8074b51161044c578063358764761161041057806335876476146107df5780633a0dde51146107ff5780633bf5f9341461081f5780633c6369fc1461085357806343d726d6146108e0578063449fe500146108f557600080fd5b80631e8074b51461071e57806326e641ea14610752578063280e31cc146107725780632e0dd9c71461079f57806333f5780e146107bf57600080fd5b80630c28525d1161049e5780630c28525d146105c6578063119f3eb6146105e6578063125bfb661461064a5780631703dd121461066a5780631959a002146106805780631b967ad4146106e857600080fd5b80625a3ff1146104e5578063029a0c9d146105225780630600ffc1146105445780630681c58d146105645780630b2ef5f71461058457600080fd5b366104e057005b600080fd5b3480156104f157600080fd5b50600d54610505906001600160a01b031681565b6040516001600160a01b0390911681526020015b60405180910390f35b34801561052e57600080fd5b5061054261053d3660046153a5565b611310565b005b34801561055057600080fd5b5061054261055f3660046153e8565b611372565b34801561057057600080fd5b5061054261057f3660046153a5565b6113f5565b34801561059057600080fd5b506105b87f000000000000000000000000000000000000000000000000000000000000000081565b604051908152602001610519565b3480156105d257600080fd5b506105426105e13660046153a5565b6114af565b3480156105f257600080fd5b50610606610601366004615428565b611558565b60408051998a5260208a0198909852968801959095526060870193909352608086019190915260a085015260c084015260e083015261010082015261012001610519565b34801561065657600080fd5b50610542610665366004615443565b61168c565b34801561067657600080fd5b506105b860255481565b34801561068c57600080fd5b506106c661069b366004615428565b600760205260009081526040902080546001820154600283015460039093015460ff90921692909184565b6040805194151585526020850193909352918301526060820152608001610519565b3480156106f457600080fd5b506105b8610703366004615428565b6001600160a01b031660009081526010602052604090205490565b34801561072a57600080fd5b506105b87f000000000000000000000000000000000000000000000000000000000000000081565b34801561075e57600080fd5b5061054261076d3660046153a5565b6116eb565b34801561077e57600080fd5b506105b861078d366004615428565b60226020526000908152604090205481565b3480156107ab57600080fd5b506105426107ba3660046153a5565b611794565b3480156107cb57600080fd5b506105426107da36600461547f565b6117ed565b3480156107eb57600080fd5b506105426107fa3660046154a9565b61185d565b34801561080b57600080fd5b5061054261081a3660046153a5565b611988565b34801561082b57600080fd5b506105b87f000000000000000000000000000000000000000000000000000000000000000081565b34801561085f57600080fd5b506108ab61086e366004615428565b6008602052600090815260409020805460018201546002830154600384015460048501546005860154600690960154949593949293919290919087565b604080519788526020880196909652948601939093526060850191909152608084015260a083015260c082015260e001610519565b3480156108ec57600080fd5b506105426119e1565b34801561090157600080fd5b5060165461090f9060ff1681565b6040519015158152602001610519565b34801561092b57600080fd5b50610542611a44565b34801561094057600080fd5b506105b861094f366004615428565b602080526000908152604090205481565b34801561096c57600080fd5b506105b861097b36600461552f565b611b24565b34801561098c57600080fd5b506001546002546003546004546005546006546109ab95949392919086565b604080519687526020870195909552938501929092526060840152608083015260a082015260c001610519565b3480156109e457600080fd5b506105426109f336600461552f565b611b5f565b348015610a0457600080fd5b506105b860265481565b348015610a1a57600080fd5b50610a2e610a29366004615428565b611bc5565b604080519889526020890197909752958701949094526060860192909252608085015260a084015260c083015260e082015261010001610519565b348015610a7557600080fd5b50610542610a84366004615428565b611d35565b348015610a9557600080fd5b50610542610aa4366004615551565b611dab565b348015610ab557600080fd5b50610542610ac4366004615428565b611e2a565b348015610ad557600080fd5b50610505610ae4366004615428565b600f602052600090815260409020546001600160a01b031681565b348015610b0b57600080fd5b506105b860275481565b348015610b2157600080fd5b506105b8610b30366004615428565b60216020526000908152604090205481565b348015610b4e57600080fd5b50610b62610b5d366004615588565b611ea0565b6040516105199291906155ff565b348015610b7c57600080fd5b50610542611fbf565b348015610b9157600080fd5b50610542610ba0366004615758565b611fd3565b348015610bb157600080fd5b50610bc5610bc0366004615428565b612117565b604051610519929190615818565b348015610bdf57600080fd5b50610542610bee3660046153a5565b6122a6565b348015610bff57600080fd5b506105b87f000000000000000000000000000000000000000000000000000000000000000081565b348015610c3357600080fd5b50601c54610505906001600160a01b031681565b348015610c5357600080fd5b506105b8610c62366004615428565b60146020526000908152604090205481565b348015610c8057600080fd5b50610505610c8f36600461547f565b6122ff565b348015610ca057600080fd5b50610542610caf366004615428565b612337565b348015610cc057600080fd5b506105b8610ccf366004615428565b6123ad565b348015610ce057600080fd5b506000546001600160a01b0316610505565b348015610cfe57600080fd5b50610542610d0d36600461586f565b6124a2565b348015610d1e57600080fd5b506105b8610d2d366004615428565b60156020526000908152604090205481565b348015610d4b57600080fd5b50610542610d5a366004615428565b612666565b348015610d6b57600080fd5b50610d746127e7565b604080516001600160a01b039c8d168152602081019b909b52988b16988a01989098526060890196909652608088019490945260a087019290925260c086015260e085015261010084015290921661012082015290151561014082015261016001610519565b348015610de657600080fd5b506105b8610df5366004615428565b601f6020526000908152604090205481565b348015610e1357600080fd5b50600e54610505906001600160a01b031681565b348015610e3357600080fd5b506105b8610e423660046153a5565b612848565b348015610e5357600080fd5b50610542610e623660046153a5565b612974565b348015610e7357600080fd5b50610542610e823660046153a5565b6129d5565b348015610e9357600080fd5b506105b860295481565b348015610ea957600080fd5b50610ebd610eb83660046153a5565b612cba565b60408051938452602084019290925290820152606001610519565b348015610ee457600080fd5b50610542610ef336600461547f565b612e3d565b348015610f0457600080fd5b506105b8610f13366004615428565b60136020526000908152604090205481565b348015610f3157600080fd5b50610542610f403660046153a5565b612e9f565b348015610f5157600080fd5b50601a54610505906001600160a01b031681565b348015610f7157600080fd5b506105b860195481565b348015610f8757600080fd5b50610542610f96366004615428565b612f0d565b348015610fa757600080fd5b50610542610fb63660046158a4565b612f83565b348015610fc757600080fd5b50610542610fd6366004615428565b612fea565b348015610fe757600080fd5b50610542610ff63660046153a5565b613078565b34801561100757600080fd5b506105b87f000000000000000000000000000000000000000000000000000000000000000081565b34801561103b57600080fd5b5061050561104a366004615428565b601e602052600090815260409020546001600160a01b031681565b34801561107157600080fd5b5061107a6130e7565b60408051928352602083019190915201610519565b34801561109b57600080fd5b506105b860175481565b3480156110b157600080fd5b506105b86110c03660046153a5565b60116020526000908152604090205481565b3480156110de57600080fd5b506105b860245481565b3480156110f457600080fd5b50602a54610505906001600160a01b031681565b34801561111457600080fd5b506105426131af565b34801561112957600080fd5b506105426133fb565b34801561113e57600080fd5b5061054261114d3660046153a5565b6134cb565b34801561115e57600080fd5b5061054261116d3660046153a5565b613524565b34801561117e57600080fd5b5061090f61118d366004615428565b602d6020526000908152604090205460ff1681565b3480156111ae57600080fd5b506105056111bd36600461547f565b613a2e565b3480156111ce57600080fd5b506105426111dd36600461547f565b613a4a565b3480156111ee57600080fd5b506105b86111fd366004615428565b6001600160a01b031660009081526022602052604090205490565b34801561122457600080fd5b5061122d613ac9565b604080519586526020860194909452928401919091526060830152608082015260a001610519565b34801561126157600080fd5b506105426112703660046158c8565b613bd2565b34801561128157600080fd5b50610542611290366004615428565b613c30565b3480156112a157600080fd5b506105b860185481565b3480156112b757600080fd5b5061090f6112c6366004615428565b602f6020526000908152604090205460ff1681565b3480156112e757600080fd5b50610542613ca6565b3480156112fc57600080fd5b5061054261130b3660046153a5565b613d15565b601c546001600160a01b031633148061133357506000546001600160a01b031633145b806113485750600e546001600160a01b031633145b61136d5760405162461bcd60e51b8152600401611364906158fb565b60405180910390fd5b602455565b601c546001600160a01b031633148061139557506000546001600160a01b031633145b806113aa5750600e546001600160a01b031633145b6113c65760405162461bcd60e51b8152600401611364906158fb565b6012546113dd9084906001600160a01b0316613d6e565b6113e5613f47565b6113f083838361402a565b505050565b601c546001600160a01b031633148061141857506000546001600160a01b031633145b8061142d5750600e546001600160a01b031633145b6114495760405162461bcd60e51b8152600401611364906158fb565b60188190556019546017546127109190611464908490615935565b61146e9190615935565b11156114ac5760405162461bcd60e51b815260206004820152600d60248201526c72617465206f766572666c6f7760981b6044820152606401611364565b50565b601c546001600160a01b03163314806114d257506000546001600160a01b031633145b806114e75750600e546001600160a01b031633145b6115035760405162461bcd60e51b8152600401611364906158fb565b600081116115535760405162461bcd60e51b815260206004820152601960248201527f72656c65617365206475726174696f6e206d757374203e2030000000000000006044820152606401611364565b602755565b6001600160a01b03818116600081815260086020526040808220805460018201546002830154600480850154600586015460068701546003880154600c5499516370a0823160e01b81529485019b909b52959a94999398939791969095948493919216906370a0823190602401602060405180830381865afa1580156115e2573d6000803e3d6000fd5b505050506040513d601f19601f82011682018060405250810190611606919061594d565b600c54604051636eb1769f60e11b81526001600160a01b038e8116600483015230602483015292955091169063dd62ed3e90604401602060405180830381865afa158015611658573d6000803e3d6000fd5b505050506040513d601f19601f8201168201806040525081019061167c919061594d565b9150509193959799909294969850565b601c546001600160a01b03163314806116af57506000546001600160a01b031633145b806116c45750600e546001600160a01b031633145b6116e05760405162461bcd60e51b8152600401611364906158fb565b6113f083838361420e565b601c546001600160a01b031633148061170e57506000546001600160a01b031633145b806117235750600e546001600160a01b031633145b61173f5760405162461bcd60e51b8152600401611364906158fb565b611747613f47565b806001600501600082825461175c9190615935565b9091555061178c90507f000000000000000000000000000000000000000000000000000000000000000082615966565b600455602e55565b601c546001600160a01b03163314806117b757506000546001600160a01b031633145b806117cc5750600e546001600160a01b031633145b6117e85760405162461bcd60e51b8152600401611364906158fb565b602555565b601c546001600160a01b031633148061181057506000546001600160a01b031633145b806118255750600e546001600160a01b031633145b6118415760405162461bcd60e51b8152600401611364906158fb565b6001600160a01b03909116600090815260226020526040902055565b600054600160a81b900460ff161580801561188557506000546001600160a01b90910460ff16105b806118a65750303b1580156118a65750600054600160a01b900460ff166001145b6119095760405162461bcd60e51b815260206004820152602e60248201527f496e697469616c697a61626c653a20636f6e747261637420697320616c72656160448201526d191e481a5b9a5d1a585b1a5e995960921b6064820152608401611364565b6000805460ff60a01b1916600160a01b1790558015611936576000805460ff60a81b1916600160a81b1790555b801561197e576000805460ff60a81b19169055604051600181527f7f26b83ff96e1f2b6a682f133852f6798a09c465da95921460cefb38474024989060200160405180910390a15b5050505050505050565b601c546001600160a01b03163314806119ab57506000546001600160a01b031633145b806119c05750600e546001600160a01b031633145b6119dc5760405162461bcd60e51b8152600401611364906158fb565b602b55565b601c546001600160a01b0316331480611a0457506000546001600160a01b031633145b80611a195750600e546001600160a01b031633145b611a355760405162461bcd60e51b8152600401611364906158fb565b6023805460ff19166001179055565b336000908152602f602052604090205460ff1615611a745760405162461bcd60e51b815260040161136490615988565b336000908152600760205260409020611a8e816001614344565b60038101548015611ab857600c54611ab0906001600160a01b0316338361420e565b600060038301555b600c60009054906101000a90046001600160a01b03166001600160a01b0316632e05661b6040518163ffffffff1660e01b8152600401600060405180830381600087803b158015611b0857600080fd5b505af1158015611b1c573d6000803e3d6000fd5b505050505050565b6000821580611b335750600583115b15611b4057506000611b59565b6064611b4c84846159aa565b611b569190615966565b90505b92915050565b601c546001600160a01b0316331480611b8257506000546001600160a01b031633145b80611b975750600e546001600160a01b031633145b611bb35760405162461bcd60e51b8152600401611364906158fb565b60009182526011602052604090912055565b6001600160a01b038181166000818152600760205260408082206001810154600a5492516370a0823160e01b8152600481019590955294929384938493849384938493849316906370a0823190602401602060405180830381865afa158015611c32573d6000803e3d6000fd5b505050506040513d601f19601f82011682018060405250810190611c56919061594d565b600a54604051636eb1769f60e11b81526001600160a01b038d81166004830152306024830152929a5091169063dd62ed3e90604401602060405180830381865afa158015611ca8573d6000803e3d6000fd5b505050506040513d601f19601f82011682018060405250810190611ccc919061594d565b96508060030154611cdc8b6123ad565b611ce69190615935565b6001600160a01b03909a16600090815260136020908152604080832054601b8352818420546015845282852054601490945291909320549b9d9a9c999b999a9299909850909650945092505050565b601c546001600160a01b0316331480611d5857506000546001600160a01b031633145b80611d6d5750600e546001600160a01b031633145b611d895760405162461bcd60e51b8152600401611364906158fb565b602a80546001600160a01b0319166001600160a01b0392909216919091179055565b601c546001600160a01b0316331480611dce57506000546001600160a01b031633145b80611de35750600e546001600160a01b031633145b611dff5760405162461bcd60e51b8152600401611364906158fb565b6001600160a01b03919091166000908152602d60205260409020805460ff1916911515919091179055565b601c546001600160a01b0316331480611e4d57506000546001600160a01b031633145b80611e625750600e546001600160a01b031633145b611e7e5760405162461bcd60e51b8152600401611364906158fb565b600e80546001600160a01b0319166001600160a01b0392909216919091179055565b6001600160a01b0383166000908152601060205260408120805460609190848403611ec9578094505b8493508467ffffffffffffffff811115611ee557611ee5615618565b604051908082528060200260200182016040528015611f0e578160200160208202803683370190505b5092506000865b611f1f8789615935565b811015611fb257828110611f3857509350611fb7915050565b838181548110611f4a57611f4a6159c9565b9060005260206000200160009054906101000a90046001600160a01b0316858381518110611f7a57611f7a6159c9565b6001600160a01b039092166020928302919091019091015281611f9c816159df565b9250508080611faa906159df565b915050611f15565b505050505b935093915050565b611fc76143c9565b611fd16000614423565b565b601c546001600160a01b0316331480611ff657506000546001600160a01b031633145b8061200b5750600e546001600160a01b031633145b6120275760405162461bcd60e51b8152600401611364906158fb565b80518251146120785760405162461bcd60e51b815260206004820152601a60248201527f4172726179206c656e6774687320646f206e6f74206d617463680000000000006044820152606401611364565b60005b82518110156113f057818181518110612096576120966159c9565b6020026020010151600760008584815181106120b4576120b46159c9565b6020908102919091018101516001600160a01b031682528181019290925260409081016000208351815460ff191690151517815591830151600183015582015160028201556060909101516003909101558061210f816159df565b91505061207b565b6001600160a01b0381166000908152601d60205260409020805460609182918067ffffffffffffffff81111561214f5761214f615618565b604051908082528060200260200182016040528015612178578160200160208202803683370190505b5093508067ffffffffffffffff81111561219457612194615618565b6040519080825280602002602001820160405280156121bd578160200160208202803683370190505b5092506000805b8281101561229d578281106121dc5750505050915091565b60008482815481106121f0576121f06159c9565b9060005260206000200160009054906101000a90046001600160a01b0316905080878481518110612223576122236159c9565b6001600160a01b039283166020918202929092018101919091529082166000908152601f825260408082205492805290205461225f9190615935565b868481518110612271576122716159c9565b602090810291909101015282612286816159df565b935050508080612295906159df565b9150506121c4565b50505050915091565b601c546001600160a01b03163314806122c957506000546001600160a01b031633145b806122de5750600e546001600160a01b031633145b6122fa5760405162461bcd60e51b8152600401611364906158fb565b602855565b6010602052816000526040600020818154811061231b57600080fd5b6000918252602090912001546001600160a01b03169150829050565b601c546001600160a01b031633148061235a57506000546001600160a01b031633145b8061236f5750600e546001600160a01b031633145b61238b5760405162461bcd60e51b8152600401611364906158fb565b601c80546001600160a01b0319166001600160a01b0392909216919091179055565b6001600160a01b03811660009081526007602052604081206001818101549091901561249b5760048201544290808211156124985760006123ee82846159f8565b85600301546123fd91906159aa565b6005860154600287015491925090600081831161241b576000612425565b61242582846159f8565b90508084116124345783612436565b805b6002880154895491955090670de0b6b3a76400009061245587836159aa565b61245f9190615966565b8a6001015461246e9190615935565b896001015461247d91906159aa565b6124879190615966565b61249191906159f8565b9850505050505b50505b5050919050565b60235460ff16156124dd5760405162461bcd60e51b8152602060048201526005602482015264706175736560d81b6044820152606401611364565b600b548310156125195760405162461bcd60e51b8152602060048201526007602482015266746f6f206c6f7760c81b6044820152606401611364565b3383602c600082825461252c9190615935565b9091555061253c90508183613d6e565b600a54612554906001600160a01b0316823087614473565b612561818585600161459f565b612569613f47565b6125ad817f00000000000000000000000000000000000000000000000000000000000000006025548761259c91906159aa565b6125a69190615966565b600161402a565b600c60009054906101000a90046001600160a01b03166001600160a01b0316632e05661b6040518163ffffffff1660e01b8152600401600060405180830381600087803b1580156125fd57600080fd5b505af1158015612611573d6000803e3d6000fd5b5050505061261f8285614900565b61262a848284614b0b565b60405184906001600160a01b038316907fe1fffcc4923d04b559f4d29a8bfc6cda04eb5b0d3c460751c2402c5c5cc9109c90600090a350505050565b6001600160a01b0381166000908152601d6020526040902054600110156114ac576001600160a01b03811660009081526020808052604080832054601f9092528220546126b39190615935565b6001600160a01b03831660009081526022602052604080822054815160a08101909252929350806127057f000000000000000000000000000000000000000000000000000000000000000060026159aa565b81526020017f000000000000000000000000000000000000000000000000000000000000000081526020017f000000000000000000000000000000000000000000000000000000000000000081526020017f000000000000000000000000000000000000000000000000000000000000000081526020017f0000000000000000000000000000000000000000000000000000000000000000815250905060058210156127e1576127b784828585614bc7565b156127e1576127c7826001615935565b6001600160a01b0385166000908152602260205260409020555b50505050565b600a54600c54602c54600154602e546001600160a01b03948516946012941692849290916000808080612818614dc4565b600b546012546023549d9e9c9d9b9c9a9b999a9899979892979196506001600160a01b0316945060ff1692509050565b604080516002808252606082018352600092839291906020830190803683375050600a5482519293506001600160a01b03169183915060009061288d5761288d6159c9565b6001600160a01b039283166020918202929092010152600c548251911690829060019081106128be576128be6159c9565b6001600160a01b0392831660209182029290920101526009546000911663d06ca61f6128eb600287615966565b846040518363ffffffff1660e01b81526004016129099291906155ff565b600060405180830381865afa158015612926573d6000803e3d6000fd5b505050506040513d6000823e601f3d908101601f1916820160405261294e9190810190615a0f565b905080600181518110612963576129636159c9565b602002602001015192505050919050565b601c546001600160a01b031633148061299757506000546001600160a01b031633145b806129ac5750600e546001600160a01b031633145b6129c85760405162461bcd60e51b8152600401611364906158fb565b6129d0613f47565b600455565b333214612a115760405162461bcd60e51b815260206004820152600a6024820152693737ba1027b934b3b4b760b11b6044820152606401611364565b3360009081526008602052604090206003810154428115801590612a3457508181115b15612ab5576005830154600090612a4b84846159f8565b8560040154612a5a91906159aa565b612a649190615966565b90506000846002015485600101548660000154612a8191906159f8565b612a8b91906159f8565b905080821115612a99578091505b81856001016000828254612aad9190615935565b909155505050505b81811115612ac557600383018190555b602b54836006015410612b0f5760405162461bcd60e51b81526020600482015260126024820152710e6e0cacac8aae0a8d2daca40d2e640dac2f60731b6044820152606401611364565b600683018054906000612b21836159df565b91905055506000612b30614e92565b905084811115612b825760405162461bcd60e51b815260206004820152601860248201527f746f6b656e20616d6f756e7420697320746f6f206d75636800000000000000006044820152606401611364565b600c54602a54612ba1916001600160a01b039081169133911684614473565b60028401546001850154855460009291612bba916159f8565b612bc491906159f8565b905060008560040154866005015483612bdd91906159aa565b612be79190615966565b60048701839055602954909150808211612c435760405162461bcd60e51b815260206004820152601c60248201527f72656c656173654475726174696f6e20697320746f6f2073686f7274000000006044820152606401611364565b612c4d81836159f8565b6005880155600c5460408051632e05661b60e01b815290516001600160a01b0390921691632e05661b9160048082019260009290919082900301818387803b158015612c9857600080fd5b505af1158015612cac573d6000803e3d6000fd5b505050505050505050505050565b6040805160028082526060820183526000928392839283926020830190803683375050600c5482519293506001600160a01b031691839150600090612d0157612d016159c9565b6001600160a01b039283166020918202929092010152600a54825191169082906001908110612d3257612d326159c9565b6001600160a01b03928316602091820292909201015260095460405163d06ca61f60e01b8152600092919091169063d06ca61f90612d7690899086906004016155ff565b600060405180830381865afa158015612d93573d6000803e3d6000fd5b505050506040513d6000823e601f3d908101601f19168201604052612dbb9190810190615a0f565b905080600181518110612dd057612dd06159c9565b6020026020010151945061271060175486612deb91906159aa565b612df59190615966565b935061271060185486612e0891906159aa565b612e129190615966565b9250612710612e1f614dc4565b612e2990856159aa565b612e339190615966565b9496939550505050565b601c546001600160a01b0316331480612e6057506000546001600160a01b031633145b80612e755750600e546001600160a01b031633145b612e915760405162461bcd60e51b8152600401611364906158fb565b612e9b8282614ec3565b5050565b601c546001600160a01b0316331480612ec257506000546001600160a01b031633145b80612ed75750600e546001600160a01b031633145b612ef35760405162461bcd60e51b8152600401611364906158fb565b601781905560195460185461271091906114649084615935565b601c546001600160a01b0316331480612f3057506000546001600160a01b031633145b80612f455750600e546001600160a01b031633145b612f615760405162461bcd60e51b8152600401611364906158fb565b601a80546001600160a01b0319166001600160a01b0392909216919091179055565b601c546001600160a01b0316331480612fa657506000546001600160a01b031633145b80612fbb5750600e546001600160a01b031633145b612fd75760405162461bcd60e51b8152600401611364906158fb565b6016805460ff1916911515919091179055565b601c546001600160a01b031633148061300d57506000546001600160a01b031633145b806130225750600e546001600160a01b031633145b61303e5760405162461bcd60e51b8152600401611364906158fb565b601280546001600160a01b039092166001600160a01b0319909216821790556000908152600760205260409020805460ff19166001179055565b601c546001600160a01b031633148061309b57506000546001600160a01b031633145b806130b05750600e546001600160a01b031633145b6130cc5760405162461bcd60e51b8152600401611364906158fb565b60198190556018546017546127109183916114649190615935565b6000806000600d60009054906101000a90046001600160a01b03169050600080826001600160a01b0316630902f1ac6040518163ffffffff1660e01b8152600401606060405180830381865afa158015613145573d6000803e3d6000fd5b505050506040513d601f19601f820116820180604052508101906131699190615ab7565b50600c54600a546001600160701b0393841695509190921692506001600160a01b03918216911610156131a1578194508093506131a8565b8094508193505b5050509091565b336000908152602f602052604090205460ff16156131df5760405162461bcd60e51b815260040161136490615988565b3332146132235760405162461bcd60e51b815260206004820152601260248201527131b630b4b6a628103737ba1027b934b3b4b760711b6044820152606401611364565b336000908152600860205260409020600381015442901580159061324a5750816003015481115b156132d0576000826005015483600301548361326691906159f8565b846004015461327591906159aa565b61327f9190615966565b9050600083600201548460010154856000015461329c91906159f8565b6132a691906159f8565b9050808211156132b4578091505b818460010160008282546132c89190615935565b909155505050505b6001820154801561337a57600d546132f2906001600160a01b0316338361420e565b60008360010181905550808360020160008282546133109190615935565b9091555050600c5460405163899d9c9d60e01b8152336004820152602481018390526001600160a01b039091169063899d9c9d90604401600060405180830381600087803b15801561336157600080fd5b505af1158015613375573d6000803e3d6000fd5b505050505b826003015482111561338e57600383018290555b600c60009054906101000a90046001600160a01b03166001600160a01b0316632e05661b6040518163ffffffff1660e01b8152600401600060405180830381600087803b1580156133de57600080fd5b505af11580156133f2573d6000803e3d6000fd5b50505050505050565b602454600081900361340a5750565b7f0000000000000000000000000000000000000000000000000000000000000000426134368284615935565b81101561344257505050565b60008261344f85846159f8565b6134599190615966565b905061346583826159aa565b61346f9085615935565b60245560255461349f827f0000000000000000000000000000000000000000000000000000000000000000615be0565b826026546134ad9190615be0565b6134b790836159aa565b6134c19190615966565b6025555050505050565b601c546001600160a01b03163314806134ee57506000546001600160a01b031633145b806135035750600e546001600160a01b031633145b61351f5760405162461bcd60e51b8152600401611364906158fb565b602955565b336000908152602f602052604090205460ff16156135545760405162461bcd60e51b815260040161136490615988565b3332146135905760405162461bcd60e51b815260206004820152600a6024820152693737ba1027b934b3b4b760b11b6044820152606401611364565b60165460ff16156135cb5760405162461bcd60e51b8152602060048201526005602482015264706175736560d81b6044820152606401611364565b6012546135e29033906001600160a01b0316613d6e565b600c546135fa906001600160a01b0316333084614473565b600a546040516370a0823160e01b81523060048201526001600160a01b039091169060009082906370a0823190602401602060405180830381865afa158015613647573d6000803e3d6000fd5b505050506040513d601f19601f8201168201806040525081019061366b919061594d565b60408051600280825260608201835292935060009290916020830190803683375050600c5482519293506001600160a01b0316918391506000906136b1576136b16159c9565b6001600160a01b039283166020918202929092010152600a548251911690829060019081106136e2576136e26159c9565b6001600160a01b039283166020918202929092010152600954604051635c11d79560e01b8152911690635c11d79590613728908790600090869030904290600401615bec565b600060405180830381600087803b15801561374257600080fd5b505af1158015613756573d6000803e3d6000fd5b50506040516370a0823160e01b8152306004820152600092508491506001600160a01b038616906370a0823190602401602060405180830381865afa1580156137a3573d6000803e3d6000fd5b505050506040513d601f19601f820116820180604052508101906137c7919061594d565b6137d191906159f8565b90506000612710601754836137e691906159aa565b6137f09190615966565b600a5490915061380a906001600160a01b0316338361420e565b60006127106018548461381d91906159aa565b6138279190615966565b9050613836338260008061459f565b61383e613f47565b60007f00000000000000000000000000000000000000000000000000000000000000006025548361386f91906159aa565b6138799190615966565b90506138873382600061402a565b336000908152601b6020526040812080548392906138a6908490615935565b9091555050601954600090612710906138bf90876159aa565b6138c99190615966565b600a54600e549192506138e9916001600160a01b0391821691168361420e565b600e54604051632841a14360e01b8152600481018390526001600160a01b0390911690632841a14390602401600060405180830381600087803b15801561392f57600080fd5b505af1158015613943573d6000803e3d6000fd5b5050505060008184868861395791906159f8565b61396191906159f8565b61396b91906159f8565b600a54601c5491925061398b916001600160a01b0391821691168361420e565b600c60009054906101000a90046001600160a01b03166001600160a01b0316632e05661b6040518163ffffffff1660e01b8152600401600060405180830381600087803b1580156139db57600080fd5b505af11580156139ef573d6000803e3d6000fd5b50506040518792508c915033907fed7a144fad14804d5c249145e3e0e2b63a9eb455b76aee5bc92d711e9bba3e4a90600090a450505050505050505050565b601d602052816000526040600020818154811061231b57600080fd5b601c546001600160a01b0316331480613a6d57506000546001600160a01b031633145b80613a825750600e546001600160a01b031633145b613a9e5760405162461bcd60e51b8152600401611364906158fb565b601254613ab59083906001600160a01b0316613d6e565b613abd613f47565b612e9b8282600061402a565b6000806000806000600d60009054906101000a90046001600160a01b03166001600160a01b03166318160ddd6040518163ffffffff1660e01b8152600401602060405180830381865afa158015613b24573d6000803e3d6000fd5b505050506040513d601f19601f82011682018060405250810190613b48919061594d565b600d546040516370a0823160e01b81523060048201529196506001600160a01b0316906370a0823190602401602060405180830381865afa158015613b91573d6000803e3d6000fd5b505050506040513d601f19601f82011682018060405250810190613bb5919061594d565b9350602b5492506028549150613bc9614e92565b90509091929394565b601c546001600160a01b0316331480613bf557506000546001600160a01b031633145b80613c0a5750600e546001600160a01b031633145b613c265760405162461bcd60e51b8152600401611364906158fb565b612e9b8282613d6e565b613c386143c9565b6001600160a01b038116613c9d5760405162461bcd60e51b815260206004820152602660248201527f4f776e61626c653a206e6577206f776e657220697320746865207a65726f206160448201526564647265737360d01b6064820152608401611364565b6114ac81614423565b601c546001600160a01b0316331480613cc957506000546001600160a01b031633145b80613cde5750600e546001600160a01b031633145b613cfa5760405162461bcd60e51b8152600401611364906158fb565b602454600003613d0957426024555b6023805460ff19169055565b601c546001600160a01b0316331480613d3857506000546001600160a01b031633145b80613d4d5750600e546001600160a01b031633145b613d695760405162461bcd60e51b8152600401611364906158fb565b602655565b6001600160a01b0382166000908152600760205260409020805460ff166113f0576001600160a01b038216600003613dd45760405162461bcd60e51b81526020600482015260096024820152680696e7669746f7220360bc1b6044820152606401611364565b6001600160a01b03821660009081526007602052604090205460ff16613e2e5760405162461bcd60e51b815260206004820152600f60248201526e696e7669746f72202141637469766560881b6044820152606401611364565b6001600160a01b038083166000818152601d60209081526040808320805460018181018355918552838520018054968a166001600160a01b03199788168117909155808552601e84528285208054881687179055600f84528285208054881687179055948452601083529083208054918201815583529082200180549093169091179091555b7f0000000000000000000000000000000000000000000000000000000000000000811015613f36576001600160a01b0383166000908152601560205260408120805460019290613f05908490615935565b90915550506001600160a01b039283166000908152600f6020526040902054909216918215613f3657600101613eb4565b50805460ff19166001178155505050565b613f4f6133fb565b6005546001904290808211613f6357505050565b6004830182905560028301546005840154808210613f82575050505050565b845460038601548115801590613f985750806000105b156133f2576000613fa986886159f8565b613fb390836159aa565b90506000613fc186866159f8565b905080821115613fcf578091505b83613fe283670de0b6b3a76400006159aa565b613fec9190615966565b896001016000828254613fff9190615935565b925050819055508189600201600082825461401a9190615935565b9091555050505050505050505050565b6001600160a01b03831660009081526007602052604081209061404e908290614344565b600181015461405d8482615935565b6001808401829055549091506140738582615935565b600254909150670de0b6b3a764000061408c82856159aa565b6140969190615966565b60028501558415614203577f00000000000000000000000000000000000000000000000000000000000000006000888180805b858110156141fc576001600160a01b038085166000908152600f602052604090205416925082156141fc576001600160a01b03831660009081526007602052604081209550614119908690614344565b60008181526011602052604081205461271090614136908f6159aa565b6141409190615966565b6001600160a01b03851660009081526013602052604081208054929350839290919061416d908490615935565b90915550506001600160a01b038416600090815260146020526040812080548f929061419a908490615935565b9091555050600186015492506141b08184615935565b600187018190559250670de0b6b3a76400006141cc89856159aa565b6141d69190615966565b60028701556141e5818a615935565b985083945050806141f5906159df565b90506140c9565b5050505050505b506001555050505050565b8060000361421b57505050565b6040516370a0823160e01b8152306004820152839082906001600160a01b038316906370a0823190602401602060405180830381865afa158015614263573d6000803e3d6000fd5b505050506040513d601f19601f82011682018060405250810190614287919061594d565b10156142ca5760405162461bcd60e51b81526020600482015260126024820152710c4c2d8c2dcc6ca40dcdee840cadcdeeaced60731b6044820152606401611364565b60405163a9059cbb60e01b81526001600160a01b0384811660048301526024820184905282169063a9059cbb906044016020604051808303816000875af1158015614319573d6000803e3d6000fd5b505050506040513d601f19601f8201168201806040525081019061433d9190615c28565b5050505050565b801561435257614352613f47565b600182015415612e9b576000670de0b6b3a76400006001800154846001015461437b91906159aa565b6143859190615966565b9050600083600201548261439991906159f8565b905080156127e157818460020181905550808460030160008282546143be9190615935565b909155505050505050565b6000546001600160a01b03163314611fd15760405162461bcd60e51b815260206004820181905260248201527f4f776e61626c653a2063616c6c6572206973206e6f7420746865206f776e65726044820152606401611364565b600080546001600160a01b038381166001600160a01b0319831681178455604051919092169283917f8be0079c531659141344cd1fd0a4f28419497f9722a3daafe3b4186f6b6457e09190a35050565b6040516370a0823160e01b81526001600160a01b038481166004830152859183918316906370a0823190602401602060405180830381865afa1580156144bd573d6000803e3d6000fd5b505050506040513d601f19601f820116820180604052508101906144e1919061594d565b10156145245760405162461bcd60e51b81526020600482015260126024820152710c4c2d8c2dcc6ca40dcdee840cadcdeeaced60731b6044820152606401611364565b6040516323b872dd60e01b81526001600160a01b0385811660048301528481166024830152604482018490528216906323b872dd906064016020604051808303816000875af115801561457b573d6000803e3d6000fd5b505050506040513d601f19601f82011682018060405250810190611b1c9190615c28565b600c546040516370a0823160e01b81523060048201526001600160a01b0390911690819060009082906370a0823190602401602060405180830381865afa1580156145ee573d6000803e3d6000fd5b505050506040513d601f19601f82011682018060405250810190614612919061594d565b600a546040805160028082526060820183529394506001600160a01b039092169260009291602083019080368337019050509050818160008151811061465a5761465a6159c9565b60200260200101906001600160a01b031690816001600160a01b031681525050848160018151811061468e5761468e6159c9565b6001600160a01b03928316602091820292909201015260095416635c11d7956146b860028b615966565b898430426040518663ffffffff1660e01b81526004016146dc959493929190615bec565b600060405180830381600087803b1580156146f657600080fd5b505af115801561470a573d6000803e3d6000fd5b50506040516370a0823160e01b8152306004820152600092508591506001600160a01b038716906370a0823190602401602060405180830381865afa158015614757573d6000803e3d6000fd5b505050506040513d601f19601f8201168201806040525081019061477b919061594d565b61478591906159f8565b905060008761479f57601a546001600160a01b03166147a1565b305b90506000600960009054906101000a90046001600160a01b03166001600160a01b031663e8e33700868a60028f6147d89190615966565b6040516001600160e01b031960e086901b1681526001600160a01b039384166004820152918316602483015260448201526064810187905260006084820181905260a482015290851660c48201524260e4820152610104016060604051808303816000875af115801561484f573d6000803e3d6000fd5b505050506040513d601f19601f820116820180604052508101906148739190615c45565b92505050881561488c576148878c82614f74565b612cac565b600c5460405163899d9c9d60e01b81526001600160a01b038481166004830152602482018490529091169063899d9c9d90604401600060405180830381600087803b1580156148da57600080fd5b505af11580156148ee573d6000803e3d6000fd5b50505050505050505050505050505050565b6001600160a01b0382811660008181526022602052604080822054600e5491516370a0823160e01b815260048101949094529391929116906370a0823190602401602060405180830381865afa15801561495e573d6000803e3d6000fd5b505050506040513d601f19601f82011682018060405250810190614982919061594d565b905060006149908385611b24565b90506000831180156149a25750600082115b156149c1576149b1858261508e565b6149bc858486615172565b61433d565b6001600160a01b038086166000908152601e6020526040812054909116905b6001600160a01b038216158015906149f6575080155b156133f2576001600160a01b0382811660008181526022602052604080822054600e5491516370a0823160e01b815260048101949094529391929116906370a0823190602401602060405180830381865afa158015614a59573d6000803e3d6000fd5b505050506040513d601f19601f82011682018060405250810190614a7d919061594d565b9050600082118015614a8f5750600081115b15614ab95760019250614aa28289611b24565b9450614aae848661508e565b614ab984838a615172565b6001600160a01b038085166000818152601e60205260409020549091169003614ae55760009350614b04565b6001600160a01b039384166000908152601e6020526040902054909316925b50506149e0565b6001600160a01b038216600090815260208052604081208054859290614b32908490615935565b909155508190505b6001600160a01b038116156127e1576001600160a01b0381166000908152601f602052604081208054869290614b71908490615935565b90915550614b80905081612666565b6001600160a01b038082166000818152601e60205260409020549091169003614ba7575060005b6001600160a01b039081166000908152601e602052604090205416614b3a565b6001600160a01b0384166000908152601d6020908152604080832080548251818502810185019093528083528493830182828015614c2e57602002820191906000526020600020905b81546001600160a01b03168152600190910190602001808311614c10575b50505050509050848360058110614c4757614c476159c9565b60200201518410614db6576000805b6001600160a01b0388166000908152601d6020526040902054811015614db35784600003614d3d577f000000000000000000000000000000000000000000000000000000000000000060206000858481518110614cb557614cb56159c9565b60200260200101516001600160a01b03166001600160a01b0316815260200190815260200160002054601f6000868581518110614cf457614cf46159c9565b60200260200101516001600160a01b03166001600160a01b0316815260200190815260200160002054614d279190615935565b10614d3857614d35826159df565b91505b614d8f565b600160226000858481518110614d5557614d556159c9565b60200260200101516001600160a01b03166001600160a01b031681526020019081526020016000205410614d8f57614d8c826159df565b91505b60028210614da35760019350505050614dbc565b614dac816159df565b9050614c56565b50505b60009150505b949350505050565b60255460245460009190808303614ddb5750919050565b7f000000000000000000000000000000000000000000000000000000000000000042614e078284615935565b811015614e175750919392505050565b600082614e2485846159f8565b614e2e9190615966565b60265490915060005b82811015614e86577f0000000000000000000000000000000000000000000000000000000000000000614e6a83896159aa565b614e749190615966565b9650614e7f816159df565b9050614e37565b50949695505050505050565b6000806000614e9f6130e7565b915091508181602854614eb291906159aa565b614ebc9190615966565b9250505090565b604080516000808252602082019092526001600160a01b038416908390604051614eed9190615c73565b60006040518083038185875af1925050503d8060008114614f2a576040519150601f19603f3d011682016040523d82523d6000602084013e614f2f565b606091505b50509050806113f05760405162461bcd60e51b8152602060048201526011602482015270195d1a081d1c985b9cd9995c8819985a5b607a1b6044820152606401611364565b6001600160a01b03821660009081526008602052604090206003810154428115801590614fa057508181115b15615021576005830154600090614fb784846159f8565b8560040154614fc691906159aa565b614fd09190615966565b90506000846002015485600101548660000154614fed91906159f8565b614ff791906159f8565b905080821115615005578091505b818560010160008282546150199190615935565b909155505050505b6002830154600184015484546000929161503a916159f8565b61504491906159f8565b90508484600001600082825461505a9190615935565b9091555061506a90508582615935565b6004850155602754600585015582821115611b1c5760038401829055505050505050565b60007f0000000000000000000000000000000000000000000000000000000000000000602554836150bf91906159aa565b6150c99190615966565b90506150d78382600061402a565b6001600160a01b0383166000818152602260205260408082205490519092849284927fb6e5be43155b74262b7be6ccc5012bb6df33759145b8a6d4bc9f3e98c6d87b489190a4600a54615134906001600160a01b0316858561420e565b8281856001600160a01b03167f449ba527ea8f6ec8dc6af63b425e187506ac5b1635308d35ba1fe32da2b0d2e360405160405180910390a450505050565b6001600160a01b038084166000908152601e602052604081205490911690839061519d826001615935565b90505b6001600160a01b038316158015906151b9575060058211155b15611b1c576001600160a01b038316600090815260226020526040812054906151e28287611b24565b9050838211806151f157508282145b1561521757615200858261508e565b8193508160016152109190615935565b9250615236565b838203615236576152288582615288565b615233826001615935565b93505b6001600160a01b038086166000818152601e602052604090205490911690036152625760009450615281565b6001600160a01b039485166000908152601e6020526040902054909416935b50506151a0565b60007f0000000000000000000000000000000000000000000000000000000000000000602554836152b991906159aa565b6152c39190615966565b9050600060646152d48360146159aa565b6152de9190615966565b90506152ec8482600061402a565b6001600160a01b0384166000818152602260205260408082205490519092849284927fb6e5be43155b74262b7be6ccc5012bb6df33759145b8a6d4bc9f3e98c6d87b489190a4600060646153418660146159aa565b61534b9190615966565b600a54909150615365906001600160a01b0316878361420e565b8082876001600160a01b03167f449ba527ea8f6ec8dc6af63b425e187506ac5b1635308d35ba1fe32da2b0d2e360405160405180910390a4505050505050565b6000602082840312156153b757600080fd5b5035919050565b80356001600160a01b03811681146153d557600080fd5b919050565b80151581146114ac57600080fd5b6000806000606084860312156153fd57600080fd5b615406846153be565b925060208401359150604084013561541d816153da565b809150509250925092565b60006020828403121561543a57600080fd5b611b56826153be565b60008060006060848603121561545857600080fd5b615461846153be565b925061546f602085016153be565b9150604084013590509250925092565b6000806040838503121561549257600080fd5b61549b836153be565b946020939093013593505050565b600080600080600080600060e0888a0312156154c457600080fd5b6154cd886153be565b96506154db602089016153be565b95506154e9604089016153be565b94506154f7606089016153be565b9350615505608089016153be565b925061551360a089016153be565b915061552160c089016153be565b905092959891949750929550565b6000806040838503121561554257600080fd5b50508035926020909101359150565b6000806040838503121561556457600080fd5b61556d836153be565b9150602083013561557d816153da565b809150509250929050565b60008060006060848603121561559d57600080fd5b6155a6846153be565b95602085013595506040909401359392505050565b600081518084526020808501945080840160005b838110156155f45781516001600160a01b0316875295820195908201906001016155cf565b509495945050505050565b828152604060208201526000614dbc60408301846155bb565b634e487b7160e01b600052604160045260246000fd5b6040516080810167ffffffffffffffff8111828210171561565157615651615618565b60405290565b604051601f8201601f1916810167ffffffffffffffff8111828210171561568057615680615618565b604052919050565b600067ffffffffffffffff8211156156a2576156a2615618565b5060051b60200190565b600082601f8301126156bd57600080fd5b813560206156d26156cd83615688565b615657565b82815260079290921b840181019181810190868411156156f157600080fd5b8286015b8481101561574d576080818903121561570e5760008081fd5b61571661562e565b8135615721816153da565b8152818501358582015260408083013590820152606080830135908201528352918301916080016156f5565b509695505050505050565b6000806040838503121561576b57600080fd5b823567ffffffffffffffff8082111561578357600080fd5b818501915085601f83011261579757600080fd5b813560206157a76156cd83615688565b82815260059290921b840181019181810190898411156157c657600080fd5b948201945b838610156157eb576157dc866153be565b825294820194908201906157cb565b9650508601359250508082111561580157600080fd5b5061580e858286016156ac565b9150509250929050565b60408152600061582b60408301856155bb565b82810360208481019190915284518083528582019282019060005b8181101561586257845183529383019391830191600101615846565b5090979650505050505050565b60008060006060848603121561588457600080fd5b833592506020840135915061589b604085016153be565b90509250925092565b6000602082840312156158b657600080fd5b81356158c1816153da565b9392505050565b600080604083850312156158db57600080fd5b6158e4836153be565b91506158f2602084016153be565b90509250929050565b6020808252600a90820152696f6e6c7920776869746560b01b604082015260600190565b634e487b7160e01b600052601160045260246000fd5b600082198211156159485761594861591f565b500190565b60006020828403121561595f57600080fd5b5051919050565b60008261598357634e487b7160e01b600052601260045260246000fd5b500490565b602080825260089082015267696e20626c61636b60c01b604082015260600190565b60008160001904831182151516156159c4576159c461591f565b500290565b634e487b7160e01b600052603260045260246000fd5b6000600182016159f1576159f161591f565b5060010190565b600082821015615a0a57615a0a61591f565b500390565b60006020808385031215615a2257600080fd5b825167ffffffffffffffff811115615a3957600080fd5b8301601f81018513615a4a57600080fd5b8051615a586156cd82615688565b81815260059190911b82018301908381019087831115615a7757600080fd5b928401925b82841015615a9557835182529284019290840190615a7c565b979650505050505050565b80516001600160701b03811681146153d557600080fd5b600080600060608486031215615acc57600080fd5b615ad584615aa0565b9250615ae360208501615aa0565b9150604084015163ffffffff8116811461541d57600080fd5b600181815b80851115615b37578160001904821115615b1d57615b1d61591f565b80851615615b2a57918102915b93841c9390800290615b01565b509250929050565b600082615b4e57506001611b59565b81615b5b57506000611b59565b8160018114615b715760028114615b7b57615b97565b6001915050611b59565b60ff841115615b8c57615b8c61591f565b50506001821b611b59565b5060208310610133831016604e8410600b8410161715615bba575081810a611b59565b615bc48383615afc565b8060001904821115615bd857615bd861591f565b029392505050565b6000611b568383615b3f565b85815284602082015260a060408201526000615c0b60a08301866155bb565b6001600160a01b0394909416606083015250608001529392505050565b600060208284031215615c3a57600080fd5b81516158c1816153da565b600080600060608486031215615c5a57600080fd5b8351925060208401519150604084015190509250925092565b6000825160005b81811015615c945760208186018101518583015201615c7a565b81811115615ca3576000828501525b50919091019291505056fea264697066735822122061770f7795c155783096260c52e2cb22407d6918540f159a79ccf3307a205b5b64736f6c634300080f0033",
  "devdoc": {
    "kind": "dev",
    "methods": {
      "owner()": {
        "details": "Returns the address of the current owner."
      },
      "renounceOwnership()": {
        "details": "Leaves the contract without owner. It will not be possible to call `onlyOwner` functions. Can only be called by the current owner. NOTE: Renouncing ownership will leave the contract without an owner, thereby disabling any functionality that is only available to the owner."
      },
      "transferOwnership(address)": {
        "details": "Transfers ownership of the contract to a new account (`newOwner`). Can only be called by the current owner."
      }
    },
    "version": 1
  },
  "userdoc": {
    "kind": "user",
    "methods": {},
    "version": 1
  },
  "storageLayout": {
    "storage": [
      {
        "astId": 506,
        "contract": "contracts/MintPool.sol:MintPool",
        "label": "_owner",
        "offset": 0,
        "slot": "0",
        "type": "t_address"
      },
      {
        "astId": 6,
        "contract": "contracts/MintPool.sol:MintPool",
        "label": "_initialized",
        "offset": 20,
        "slot": "0",
        "type": "t_uint8"
      },
      {
        "astId": 9,
        "contract": "contracts/MintPool.sol:MintPool",
        "label": "_initializing",
        "offset": 21,
        "slot": "0",
        "type": "t_bool"
      },
      {
        "astId": 774,
        "contract": "contracts/MintPool.sol:MintPool",
        "label": "poolInfo",
        "offset": 0,
        "slot": "1",
        "type": "t_struct(PoolInfo)756_storage"
      },
      {
        "astId": 779,
        "contract": "contracts/MintPool.sol:MintPool",
        "label": "userInfo",
        "offset": 0,
        "slot": "7",
        "type": "t_mapping(t_address,t_struct(UserInfo)743_storage)"
      },
      {
        "astId": 784,
        "contract": "contracts/MintPool.sol:MintPool",
        "label": "_userLPInfo",
        "offset": 0,
        "slot": "8",
        "type": "t_mapping(t_address,t_struct(UserLPInfo)771_storage)"
      },
      {
        "astId": 787,
        "contract": "contracts/MintPool.sol:MintPool",
        "label": "_swapRouter",
        "offset": 0,
        "slot": "9",
        "type": "t_contract(ISwapRouter)4781"
      },
      {
        "astId": 789,
        "contract": "contracts/MintPool.sol:MintPool",
        "label": "_usdt",
        "offset": 0,
        "slot": "10",
        "type": "t_address"
      },
      {
        "astId": 791,
        "contract": "contracts/MintPool.sol:MintPool",
        "label": "_minAmount",
        "offset": 0,
        "slot": "11",
        "type": "t_uint256"
      },
      {
        "astId": 793,
        "contract": "contracts/MintPool.sol:MintPool",
        "label": "_mintRewardToken",
        "offset": 0,
        "slot": "12",
        "type": "t_address"
      },
      {
        "astId": 795,
        "contract": "contracts/MintPool.sol:MintPool",
        "label": "_lp",
        "offset": 0,
        "slot": "13",
        "type": "t_address"
      },
      {
        "astId": 798,
        "contract": "contracts/MintPool.sol:MintPool",
        "label": "_nft",
        "offset": 0,
        "slot": "14",
        "type": "t_contract(INFT)4672"
      },
      {
        "astId": 802,
        "contract": "contracts/MintPool.sol:MintPool",
        "label": "_invitor",
        "offset": 0,
        "slot": "15",
        "type": "t_mapping(t_address,t_address)"
      },
      {
        "astId": 807,
        "contract": "contracts/MintPool.sol:MintPool",
        "label": "_binder",
        "offset": 0,
        "slot": "16",
        "type": "t_mapping(t_address,t_array(t_address)dyn_storage)"
      },
      {
        "astId": 811,
        "contract": "contracts/MintPool.sol:MintPool",
        "label": "_inviteFee",
        "offset": 0,
        "slot": "17",
        "type": "t_mapping(t_uint256,t_uint256)"
      },
      {
        "astId": 816,
        "contract": "contracts/MintPool.sol:MintPool",
        "label": "_defaultInvitor",
        "offset": 0,
        "slot": "18",
        "type": "t_address"
      },
      {
        "astId": 820,
        "contract": "contracts/MintPool.sol:MintPool",
        "label": "_inviteAmount",
        "offset": 0,
        "slot": "19",
        "type": "t_mapping(t_address,t_uint256)"
      },
      {
        "astId": 824,
        "contract": "contracts/MintPool.sol:MintPool",
        "label": "_teamAmount",
        "offset": 0,
        "slot": "20",
        "type": "t_mapping(t_address,t_uint256)"
      },
      {
        "astId": 828,
        "contract": "contracts/MintPool.sol:MintPool",
        "label": "_teamNum",
        "offset": 0,
        "slot": "21",
        "type": "t_mapping(t_address,t_uint256)"
      },
      {
        "astId": 830,
        "contract": "contracts/MintPool.sol:MintPool",
        "label": "_pauseSell",
        "offset": 0,
        "slot": "22",
        "type": "t_bool"
      },
      {
        "astId": 832,
        "contract": "contracts/MintPool.sol:MintPool",
        "label": "_sellSelfRate",
        "offset": 0,
        "slot": "23",
        "type": "t_uint256"
      },
      {
        "astId": 834,
        "contract": "contracts/MintPool.sol:MintPool",
        "label": "_sellJoinRate",
        "offset": 0,
        "slot": "24",
        "type": "t_uint256"
      },
      {
        "astId": 836,
        "contract": "contracts/MintPool.sol:MintPool",
        "label": "_sellNFTRate",
        "offset": 0,
        "slot": "25",
        "type": "t_uint256"
      },
      {
        "astId": 838,
        "contract": "contracts/MintPool.sol:MintPool",
        "label": "_sellLPReceiver",
        "offset": 0,
        "slot": "26",
        "type": "t_address"
      },
      {
        "astId": 842,
        "contract": "contracts/MintPool.sol:MintPool",
        "label": "_sellJoinAmount",
        "offset": 0,
        "slot": "27",
        "type": "t_mapping(t_address,t_uint256)"
      },
      {
        "astId": 844,
        "contract": "contracts/MintPool.sol:MintPool",
        "label": "_fundAddress",
        "offset": 0,
        "slot": "28",
        "type": "t_address"
      },
      {
        "astId": 849,
        "contract": "contracts/MintPool.sol:MintPool",
        "label": "referrals",
        "offset": 0,
        "slot": "29",
        "type": "t_mapping(t_address,t_array(t_address)dyn_storage)"
      },
      {
        "astId": 853,
        "contract": "contracts/MintPool.sol:MintPool",
        "label": "superAccount",
        "offset": 0,
        "slot": "30",
        "type": "t_mapping(t_address,t_address)"
      },
      {
        "astId": 857,
        "contract": "contracts/MintPool.sol:MintPool",
        "label": "referralAmount",
        "offset": 0,
        "slot": "31",
        "type": "t_mapping(t_address,t_uint256)"
      },
      {
        "astId": 861,
        "contract": "contracts/MintPool.sol:MintPool",
        "label": "depositAmount",
        "offset": 0,
        "slot": "32",
        "type": "t_mapping(t_address,t_uint256)"
      },
      {
        "astId": 865,
        "contract": "contracts/MintPool.sol:MintPool",
        "label": "referralReward",
        "offset": 0,
        "slot": "33",
        "type": "t_mapping(t_address,t_uint256)"
      },
      {
        "astId": 869,
        "contract": "contracts/MintPool.sol:MintPool",
        "label": "userLevel",
        "offset": 0,
        "slot": "34",
        "type": "t_mapping(t_address,t_uint256)"
      },
      {
        "astId": 886,
        "contract": "contracts/MintPool.sol:MintPool",
        "label": "_pauseJoin",
        "offset": 0,
        "slot": "35",
        "type": "t_bool"
      },
      {
        "astId": 888,
        "contract": "contracts/MintPool.sol:MintPool",
        "label": "_lastDailyUpTime",
        "offset": 0,
        "slot": "36",
        "type": "t_uint256"
      },
      {
        "astId": 890,
        "contract": "contracts/MintPool.sol:MintPool",
        "label": "_lastAmountRate",
        "offset": 0,
        "slot": "37",
        "type": "t_uint256"
      },
      {
        "astId": 892,
        "contract": "contracts/MintPool.sol:MintPool",
        "label": "_amountDailyUp",
        "offset": 0,
        "slot": "38",
        "type": "t_uint256"
      },
      {
        "astId": 900,
        "contract": "contracts/MintPool.sol:MintPool",
        "label": "_lpReleaseDuration",
        "offset": 0,
        "slot": "39",
        "type": "t_uint256"
      },
      {
        "astId": 902,
        "contract": "contracts/MintPool.sol:MintPool",
        "label": "_speedUpCost",
        "offset": 0,
        "slot": "40",
        "type": "t_uint256"
      },
      {
        "astId": 904,
        "contract": "contracts/MintPool.sol:MintPool",
        "label": "_speedUpDuration",
        "offset": 0,
        "slot": "41",
        "type": "t_uint256"
      },
      {
        "astId": 906,
        "contract": "contracts/MintPool.sol:MintPool",
        "label": "_speedUpReceiver",
        "offset": 0,
        "slot": "42",
        "type": "t_address"
      },
      {
        "astId": 908,
        "contract": "contracts/MintPool.sol:MintPool",
        "label": "_speedUpMaxTime",
        "offset": 0,
        "slot": "43",
        "type": "t_uint256"
      },
      {
        "astId": 910,
        "contract": "contracts/MintPool.sol:MintPool",
        "label": "_totalUsdt",
        "offset": 0,
        "slot": "44",
        "type": "t_uint256"
      },
      {
        "astId": 914,
        "contract": "contracts/MintPool.sol:MintPool",
        "label": "_inProject",
        "offset": 0,
        "slot": "45",
        "type": "t_mapping(t_address,t_bool)"
      },
      {
        "astId": 916,
        "contract": "contracts/MintPool.sol:MintPool",
        "label": "_lastDailyReward",
        "offset": 0,
        "slot": "46",
        "type": "t_uint256"
      },
      {
        "astId": 920,
        "contract": "contracts/MintPool.sol:MintPool",
        "label": "blacklist",
        "offset": 0,
        "slot": "47",
        "type": "t_mapping(t_address,t_bool)"
      }
    ],
    "types": {
      "t_address": {
        "encoding": "inplace",
        "label": "address",
        "numberOfBytes": "20"
      },
      "t_array(t_address)dyn_storage": {
        "base": "t_address",
        "encoding": "dynamic_array",
        "label": "address[]",
        "numberOfBytes": "32"
      },
      "t_bool": {
        "encoding": "inplace",
        "label": "bool",
        "numberOfBytes": "1"
      },
      "t_contract(INFT)4672": {
        "encoding": "inplace",
        "label": "contract INFT",
        "numberOfBytes": "20"
      },
      "t_contract(ISwapRouter)4781": {
        "encoding": "inplace",
        "label": "contract ISwapRouter",
        "numberOfBytes": "20"
      },
      "t_mapping(t_address,t_address)": {
        "encoding": "mapping",
        "key": "t_address",
        "label": "mapping(address => address)",
        "numberOfBytes": "32",
        "value": "t_address"
      },
      "t_mapping(t_address,t_array(t_address)dyn_storage)": {
        "encoding": "mapping",
        "key": "t_address",
        "label": "mapping(address => address[])",
        "numberOfBytes": "32",
        "value": "t_array(t_address)dyn_storage"
      },
      "t_mapping(t_address,t_bool)": {
        "encoding": "mapping",
        "key": "t_address",
        "label": "mapping(address => bool)",
        "numberOfBytes": "32",
        "value": "t_bool"
      },
      "t_mapping(t_address,t_struct(UserInfo)743_storage)": {
        "encoding": "mapping",
        "key": "t_address",
        "label": "mapping(address => struct MintPool.UserInfo)",
        "numberOfBytes": "32",
        "value": "t_struct(UserInfo)743_storage"
      },
      "t_mapping(t_address,t_struct(UserLPInfo)771_storage)": {
        "encoding": "mapping",
        "key": "t_address",
        "label": "mapping(address => struct MintPool.UserLPInfo)",
        "numberOfBytes": "32",
        "value": "t_struct(UserLPInfo)771_storage"
      },
      "t_mapping(t_address,t_uint256)": {
        "encoding": "mapping",
        "key": "t_address",
        "label": "mapping(address => uint256)",
        "numberOfBytes": "32",
        "value": "t_uint256"
      },
      "t_mapping(t_uint256,t_uint256)": {
        "encoding": "mapping",
        "key": "t_uint256",
        "label": "mapping(uint256 => uint256)",
        "numberOfBytes": "32",
        "value": "t_uint256"
      },
      "t_struct(PoolInfo)756_storage": {
        "encoding": "inplace",
        "label": "struct MintPool.PoolInfo",
        "members": [
          {
            "astId": 745,
            "contract": "contracts/MintPool.sol:MintPool",
            "label": "totalAmount",
            "offset": 0,
            "slot": "0",
            "type": "t_uint256"
          },
          {
            "astId": 747,
            "contract": "contracts/MintPool.sol:MintPool",
            "label": "accMintPerShare",
            "offset": 0,
            "slot": "1",
            "type": "t_uint256"
          },
          {
            "astId": 749,
            "contract": "contracts/MintPool.sol:MintPool",
            "label": "accMintReward",
            "offset": 0,
            "slot": "2",
            "type": "t_uint256"
          },
          {
            "astId": 751,
            "contract": "contracts/MintPool.sol:MintPool",
            "label": "mintPerSec",
            "offset": 0,
            "slot": "3",
            "type": "t_uint256"
          },
          {
            "astId": 753,
            "contract": "contracts/MintPool.sol:MintPool",
            "label": "lastMintTime",
            "offset": 0,
            "slot": "4",
            "type": "t_uint256"
          },
          {
            "astId": 755,
            "contract": "contracts/MintPool.sol:MintPool",
            "label": "totalMintReward",
            "offset": 0,
            "slot": "5",
            "type": "t_uint256"
          }
        ],
        "numberOfBytes": "192"
      },
      "t_struct(UserInfo)743_storage": {
        "encoding": "inplace",
        "label": "struct MintPool.UserInfo",
        "members": [
          {
            "astId": 736,
            "contract": "contracts/MintPool.sol:MintPool",
            "label": "isActive",
            "offset": 0,
            "slot": "0",
            "type": "t_bool"
          },
          {
            "astId": 738,
            "contract": "contracts/MintPool.sol:MintPool",
            "label": "amount",
            "offset": 0,
            "slot": "1",
            "type": "t_uint256"
          },
          {
            "astId": 740,
            "contract": "contracts/MintPool.sol:MintPool",
            "label": "rewardMintDebt",
            "offset": 0,
            "slot": "2",
            "type": "t_uint256"
          },
          {
            "astId": 742,
            "contract": "contracts/MintPool.sol:MintPool",
            "label": "calMintReward",
            "offset": 0,
            "slot": "3",
            "type": "t_uint256"
          }
        ],
        "numberOfBytes": "128"
      },
      "t_struct(UserLPInfo)771_storage": {
        "encoding": "inplace",
        "label": "struct MintPool.UserLPInfo",
        "members": [
          {
            "astId": 758,
            "contract": "contracts/MintPool.sol:MintPool",
            "label": "lockAmount",
            "offset": 0,
            "slot": "0",
            "type": "t_uint256"
          },
          {
            "astId": 760,
            "contract": "contracts/MintPool.sol:MintPool",
            "label": "calAmount",
            "offset": 0,
            "slot": "1",
            "type": "t_uint256"
          },
          {
            "astId": 762,
            "contract": "contracts/MintPool.sol:MintPool",
            "label": "claimedAmount",
            "offset": 0,
            "slot": "2",
            "type": "t_uint256"
          },
          {
            "astId": 764,
            "contract": "contracts/MintPool.sol:MintPool",
            "label": "lastReleaseTime",
            "offset": 0,
            "slot": "3",
            "type": "t_uint256"
          },
          {
            "astId": 766,
            "contract": "contracts/MintPool.sol:MintPool",
            "label": "releaseInitAmount",
            "offset": 0,
            "slot": "4",
            "type": "t_uint256"
          },
          {
            "astId": 768,
            "contract": "contracts/MintPool.sol:MintPool",
            "label": "releaseDuration",
            "offset": 0,
            "slot": "5",
            "type": "t_uint256"
          },
          {
            "astId": 770,
            "contract": "contracts/MintPool.sol:MintPool",
            "label": "speedUpTime",
            "offset": 0,
            "slot": "6",
            "type": "t_uint256"
          }
        ],
        "numberOfBytes": "224"
      },
      "t_uint256": {
        "encoding": "inplace",
        "label": "uint256",
        "numberOfBytes": "32"
      },
      "t_uint8": {
        "encoding": "inplace",
        "label": "uint8",
        "numberOfBytes": "1"
      }
    }
  }
}