{
  "address": "0xFd41d529705005d8970e7c38434555879e988C0C",
  "abi": [
    {
      "anonymous": false,
      "inputs": [
        {
          "indexed": true,
          "internalType": "address",
          "name": "owner",
          "type": "address"
        },
        {
          "indexed": true,
          "internalType": "address",
          "name": "spender",
          "type": "address"
        },
        {
          "indexed": false,
          "internalType": "uint256",
          "name": "value",
          "type": "uint256"
        }
      ],
      "name": "Approval",
      "type": "event"
    },
    {
      "anonymous": false,
      "inputs": [
        {
          "indexed": false,
          "internalType": "uint8",
          "name": "version",
          "type": "uint8"
        }
      ],
      "name": "Initialized",
      "type": "event"
    },
    {
      "anonymous": false,
      "inputs": [
        {
          "indexed": true,
          "internalType": "address",
          "name": "previousOwner",
          "type": "address"
        },
        {
          "indexed": true,
          "internalType": "address",
          "name": "newOwner",
          "type": "address"
        }
      ],
      "name": "OwnershipTransferred",
      "type": "event"
    },
    {
      "anonymous": false,
      "inputs": [
        {
          "indexed": true,
          "internalType": "address",
          "name": "from",
          "type": "address"
        },
        {
          "indexed": true,
          "internalType": "address",
          "name": "to",
          "type": "address"
        },
        {
          "indexed": false,
          "internalType": "uint256",
          "name": "value",
          "type": "uint256"
        }
      ],
      "name": "Transfer",
      "type": "event"
    },
    {
      "inputs": [],
      "name": "__getReserves",
      "outputs": [
        {
          "internalType": "uint256",
          "name": "rOther",
          "type": "uint256"
        },
        {
          "internalType": "uint256",
          "name": "rThis",
          "type": "uint256"
        }
      ],
      "stateMutability": "view",
      "type": "function"
    },
    {
      "inputs": [
        {
          "internalType": "address",
          "name": "",
          "type": "address"
        }
      ],
      "name": "_balances",
      "outputs": [
        {
          "internalType": "uint256",
          "name": "",
          "type": "uint256"
        }
      ],
      "stateMutability": "view",
      "type": "function"
    },
    {
      "inputs": [
        {
          "internalType": "address",
          "name": "",
          "type": "address"
        }
      ],
      "name": "_feeWhiteList",
      "outputs": [
        {
          "internalType": "bool",
          "name": "",
          "type": "bool"
        }
      ],
      "stateMutability": "view",
      "type": "function"
    },
    {
      "inputs": [],
      "name": "_getReserves",
      "outputs": [
        {
          "internalType": "uint256",
          "name": "rOther",
          "type": "uint256"
        },
        {
          "internalType": "uint256",
          "name": "rThis",
          "type": "uint256"
        },
        {
          "internalType": "uint256",
          "name": "balanceOther",
          "type": "uint256"
        }
      ],
      "stateMutability": "view",
      "type": "function"
    },
    {
      "inputs": [],
      "name": "_giveRewardRate",
      "outputs": [
        {
          "internalType": "uint256",
          "name": "",
          "type": "uint256"
        }
      ],
      "stateMutability": "view",
      "type": "function"
    },
    {
      "inputs": [],
      "name": "_lastGiveRewardTime",
      "outputs": [
        {
          "internalType": "uint256",
          "name": "",
          "type": "uint256"
        }
      ],
      "stateMutability": "view",
      "type": "function"
    },
    {
      "inputs": [],
      "name": "_mainPair",
      "outputs": [
        {
          "internalType": "address",
          "name": "",
          "type": "address"
        }
      ],
      "stateMutability": "view",
      "type": "function"
    },
    {
      "inputs": [],
      "name": "_mintPool",
      "outputs": [
        {
          "internalType": "contract IMintPool",
          "name": "",
          "type": "address"
        }
      ],
      "stateMutability": "view",
      "type": "function"
    },
    {
      "inputs": [],
      "name": "_pauseGiveReward",
      "outputs": [
        {
          "internalType": "bool",
          "name": "",
          "type": "bool"
        }
      ],
      "stateMutability": "view",
      "type": "function"
    },
    {
      "inputs": [],
      "name": "_sellPoolDestroyRate",
      "outputs": [
        {
          "internalType": "uint256",
          "name": "",
          "type": "uint256"
        }
      ],
      "stateMutability": "view",
      "type": "function"
    },
    {
      "inputs": [],
      "name": "_sellPoolRate",
      "outputs": [
        {
          "internalType": "uint256",
          "name": "",
          "type": "uint256"
        }
      ],
      "stateMutability": "view",
      "type": "function"
    },
    {
      "inputs": [],
      "name": "_startBuy",
      "outputs": [
        {
          "internalType": "bool",
          "name": "",
          "type": "bool"
        }
      ],
      "stateMutability": "view",
      "type": "function"
    },
    {
      "inputs": [],
      "name": "_startSell",
      "outputs": [
        {
          "internalType": "bool",
          "name": "",
          "type": "bool"
        }
      ],
      "stateMutability": "view",
      "type": "function"
    },
    {
      "inputs": [],
      "name": "_strictCheck",
      "outputs": [
        {
          "internalType": "bool",
          "name": "",
          "type": "bool"
        }
      ],
      "stateMutability": "view",
      "type": "function"
    },
    {
      "inputs": [
        {
          "internalType": "address",
          "name": "",
          "type": "address"
        }
      ],
      "name": "_swapPairList",
      "outputs": [
        {
          "internalType": "bool",
          "name": "",
          "type": "bool"
        }
      ],
      "stateMutability": "view",
      "type": "function"
    },
    {
      "inputs": [],
      "name": "_swapRouter",
      "outputs": [
        {
          "internalType": "contract ISwapRouter",
          "name": "",
          "type": "address"
        }
      ],
      "stateMutability": "view",
      "type": "function"
    },
    {
      "inputs": [
        {
          "internalType": "address",
          "name": "",
          "type": "address"
        }
      ],
      "name": "_swapRouters",
      "outputs": [
        {
          "internalType": "bool",
          "name": "",
          "type": "bool"
        }
      ],
      "stateMutability": "view",
      "type": "function"
    },
    {
      "inputs": [],
      "name": "_totalMintReward",
      "outputs": [
        {
          "internalType": "uint256",
          "name": "",
          "type": "uint256"
        }
      ],
      "stateMutability": "view",
      "type": "function"
    },
    {
      "inputs": [],
      "name": "_usdt",
      "outputs": [
        {
          "internalType": "address",
          "name": "",
          "type": "address"
        }
      ],
      "stateMutability": "view",
      "type": "function"
    },
    {
      "inputs": [
        {
          "internalType": "address",
          "name": "account",
          "type": "address"
        },
        {
          "internalType": "uint256",
          "name": "lpAmount",
          "type": "uint256"
        }
      ],
      "name": "addLPAmount",
      "outputs": [],
      "stateMutability": "nonpayable",
      "type": "function"
    },
    {
      "inputs": [
        {
          "internalType": "address",
          "name": "account",
          "type": "address"
        },
        {
          "internalType": "uint256",
          "name": "lpAmount",
          "type": "uint256"
        }
      ],
      "name": "addUserLPAmount",
      "outputs": [],
      "stateMutability": "nonpayable",
      "type": "function"
    },
    {
      "inputs": [
        {
          "internalType": "address",
          "name": "owner",
          "type": "address"
        },
        {
          "internalType": "address",
          "name": "spender",
          "type": "address"
        }
      ],
      "name": "allowance",
      "outputs": [
        {
          "internalType": "uint256",
          "name": "",
          "type": "uint256"
        }
      ],
      "stateMutability": "view",
      "type": "function"
    },
    {
      "inputs": [
        {
          "internalType": "address",
          "name": "spender",
          "type": "address"
        },
        {
          "internalType": "uint256",
          "name": "amount",
          "type": "uint256"
        }
      ],
      "name": "approve",
      "outputs": [
        {
          "internalType": "bool",
          "name": "",
          "type": "bool"
        }
      ],
      "stateMutability": "nonpayable",
      "type": "function"
    },
    {
      "inputs": [
        {
          "internalType": "address",
          "name": "account",
          "type": "address"
        }
      ],
      "name": "balanceOf",
      "outputs": [
        {
          "internalType": "uint256",
          "name": "",
          "type": "uint256"
        }
      ],
      "stateMutability": "view",
      "type": "function"
    },
    {
      "inputs": [
        {
          "internalType": "address[]",
          "name": "addr",
          "type": "address[]"
        },
        {
          "internalType": "bool",
          "name": "enable",
          "type": "bool"
        }
      ],
      "name": "batchSetFeeWhiteList",
      "outputs": [],
      "stateMutability": "nonpayable",
      "type": "function"
    },
    {
      "inputs": [],
      "name": "claimBalance",
      "outputs": [],
      "stateMutability": "nonpayable",
      "type": "function"
    },
    {
      "inputs": [
        {
          "internalType": "address",
          "name": "token",
          "type": "address"
        },
        {
          "internalType": "uint256",
          "name": "amount",
          "type": "uint256"
        }
      ],
      "name": "claimToken",
      "outputs": [],
      "stateMutability": "nonpayable",
      "type": "function"
    },
    {
      "inputs": [],
      "name": "decimals",
      "outputs": [
        {
          "internalType": "uint8",
          "name": "",
          "type": "uint8"
        }
      ],
      "stateMutability": "view",
      "type": "function"
    },
    {
      "inputs": [],
      "name": "destroySupply",
      "outputs": [
        {
          "internalType": "uint256",
          "name": "",
          "type": "uint256"
        }
      ],
      "stateMutability": "view",
      "type": "function"
    },
    {
      "inputs": [],
      "name": "fundAddress",
      "outputs": [
        {
          "internalType": "address",
          "name": "",
          "type": "address"
        }
      ],
      "stateMutability": "view",
      "type": "function"
    },
    {
      "inputs": [],
      "name": "getTokenInfo",
      "outputs": [
        {
          "internalType": "uint256",
          "name": "validTotal",
          "type": "uint256"
        },
        {
          "internalType": "uint256",
          "name": "maxTotal",
          "type": "uint256"
        },
        {
          "internalType": "uint256",
          "name": "destroyTotal",
          "type": "uint256"
        },
        {
          "internalType": "uint256",
          "name": "price",
          "type": "uint256"
        },
        {
          "internalType": "uint256",
          "name": "rewardTotal",
          "type": "uint256"
        },
        {
          "internalType": "uint256",
          "name": "nextReward",
          "type": "uint256"
        },
        {
          "internalType": "uint256",
          "name": "usdtDecimals",
          "type": "uint256"
        },
        {
          "internalType": "uint256",
          "name": "tokenDecimals",
          "type": "uint256"
        }
      ],
      "stateMutability": "view",
      "type": "function"
    },
    {
      "inputs": [],
      "name": "getTokenPrice",
      "outputs": [
        {
          "internalType": "uint256",
          "name": "price",
          "type": "uint256"
        }
      ],
      "stateMutability": "view",
      "type": "function"
    },
    {
      "inputs": [
        {
          "internalType": "address",
          "name": "account",
          "type": "address"
        }
      ],
      "name": "getUserInfo",
      "outputs": [
        {
          "internalType": "uint256",
          "name": "lpAmount",
          "type": "uint256"
        },
        {
          "internalType": "uint256",
          "name": "lpBalance",
          "type": "uint256"
        }
      ],
      "stateMutability": "view",
      "type": "function"
    },
    {
      "inputs": [],
      "name": "giveMintReward",
      "outputs": [],
      "stateMutability": "nonpayable",
      "type": "function"
    },
    {
      "inputs": [
        {
          "internalType": "address",
          "name": "_router",
          "type": "address"
        },
        {
          "internalType": "address",
          "name": "_usdtAddress",
          "type": "address"
        },
        {
          "internalType": "uint256",
          "name": "_supply",
          "type": "uint256"
        },
        {
          "internalType": "address",
          "name": "_recevie",
          "type": "address"
        },
        {
          "internalType": "address",
          "name": "_fund",
          "type": "address"
        },
        {
          "internalType": "address",
          "name": "_owner",
          "type": "address"
        }
      ],
      "name": "initialize",
      "outputs": [],
      "stateMutability": "nonpayable",
      "type": "function"
    },
    {
      "inputs": [
        {
          "internalType": "address",
          "name": "account",
          "type": "address"
        },
        {
          "internalType": "uint256",
          "name": "amount",
          "type": "uint256"
        }
      ],
      "name": "mint",
      "outputs": [],
      "stateMutability": "nonpayable",
      "type": "function"
    },
    {
      "inputs": [],
      "name": "name",
      "outputs": [
        {
          "internalType": "string",
          "name": "",
          "type": "string"
        }
      ],
      "stateMutability": "view",
      "type": "function"
    },
    {
      "inputs": [],
      "name": "owner",
      "outputs": [
        {
          "internalType": "address",
          "name": "",
          "type": "address"
        }
      ],
      "stateMutability": "view",
      "type": "function"
    },
    {
      "inputs": [],
      "name": "renounceOwnership",
      "outputs": [],
      "stateMutability": "nonpayable",
      "type": "function"
    },
    {
      "inputs": [
        {
          "internalType": "address",
          "name": "addr",
          "type": "address"
        },
        {
          "internalType": "bool",
          "name": "enable",
          "type": "bool"
        }
      ],
      "name": "setFeeWhiteList",
      "outputs": [],
      "stateMutability": "nonpayable",
      "type": "function"
    },
    {
      "inputs": [
        {
          "internalType": "address",
          "name": "addr",
          "type": "address"
        }
      ],
      "name": "setFundAddress",
      "outputs": [],
      "stateMutability": "nonpayable",
      "type": "function"
    },
    {
      "inputs": [
        {
          "internalType": "uint256",
          "name": "r",
          "type": "uint256"
        }
      ],
      "name": "setGiveRewardRate",
      "outputs": [],
      "stateMutability": "nonpayable",
      "type": "function"
    },
    {
      "inputs": [
        {
          "internalType": "uint256",
          "name": "t",
          "type": "uint256"
        }
      ],
      "name": "setLastGiveRewardTime",
      "outputs": [],
      "stateMutability": "nonpayable",
      "type": "function"
    },
    {
      "inputs": [
        {
          "internalType": "address",
          "name": "p",
          "type": "address"
        }
      ],
      "name": "setMinPool",
      "outputs": [],
      "stateMutability": "nonpayable",
      "type": "function"
    },
    {
      "inputs": [
        {
          "internalType": "bool",
          "name": "p",
          "type": "bool"
        }
      ],
      "name": "setPauseGiveReward",
      "outputs": [],
      "stateMutability": "nonpayable",
      "type": "function"
    },
    {
      "inputs": [
        {
          "internalType": "uint256",
          "name": "rate",
          "type": "uint256"
        }
      ],
      "name": "setSellPoolDestroyRate",
      "outputs": [],
      "stateMutability": "nonpayable",
      "type": "function"
    },
    {
      "inputs": [
        {
          "internalType": "uint256",
          "name": "rate",
          "type": "uint256"
        }
      ],
      "name": "setSellPoolRate",
      "outputs": [],
      "stateMutability": "nonpayable",
      "type": "function"
    },
    {
      "inputs": [
        {
          "internalType": "bool",
          "name": "enable",
          "type": "bool"
        }
      ],
      "name": "setStartBuy",
      "outputs": [],
      "stateMutability": "nonpayable",
      "type": "function"
    },
    {
      "inputs": [
        {
          "internalType": "bool",
          "name": "enable",
          "type": "bool"
        }
      ],
      "name": "setStartSell",
      "outputs": [],
      "stateMutability": "nonpayable",
      "type": "function"
    },
    {
      "inputs": [
        {
          "internalType": "bool",
          "name": "enable",
          "type": "bool"
        }
      ],
      "name": "setStrictCheck",
      "outputs": [],
      "stateMutability": "nonpayable",
      "type": "function"
    },
    {
      "inputs": [
        {
          "internalType": "address",
          "name": "addr",
          "type": "address"
        },
        {
          "internalType": "bool",
          "name": "enable",
          "type": "bool"
        }
      ],
      "name": "setSwapPairList",
      "outputs": [],
      "stateMutability": "nonpayable",
      "type": "function"
    },
    {
      "inputs": [
        {
          "internalType": "address",
          "name": "addr",
          "type": "address"
        },
        {
          "internalType": "bool",
          "name": "enable",
          "type": "bool"
        }
      ],
      "name": "setSwapRouter",
      "outputs": [],
      "stateMutability": "nonpayable",
      "type": "function"
    },
    {
      "inputs": [],
      "name": "symbol",
      "outputs": [
        {
          "internalType": "string",
          "name": "",
          "type": "string"
        }
      ],
      "stateMutability": "view",
      "type": "function"
    },
    {
      "inputs": [],
      "name": "totalSupply",
      "outputs": [
        {
          "internalType": "uint256",
          "name": "",
          "type": "uint256"
        }
      ],
      "stateMutability": "view",
      "type": "function"
    },
    {
      "inputs": [
        {
          "internalType": "address",
          "name": "recipient",
          "type": "address"
        },
        {
          "internalType": "uint256",
          "name": "amount",
          "type": "uint256"
        }
      ],
      "name": "transfer",
      "outputs": [
        {
          "internalType": "bool",
          "name": "",
          "type": "bool"
        }
      ],
      "stateMutability": "nonpayable",
      "type": "function"
    },
    {
      "inputs": [
        {
          "internalType": "address",
          "name": "sender",
          "type": "address"
        },
        {
          "internalType": "address",
          "name": "recipient",
          "type": "address"
        },
        {
          "internalType": "uint256",
          "name": "amount",
          "type": "uint256"
        }
      ],
      "name": "transferFrom",
      "outputs": [
        {
          "internalType": "bool",
          "name": "",
          "type": "bool"
        }
      ],
      "stateMutability": "nonpayable",
      "type": "function"
    },
    {
      "inputs": [
        {
          "internalType": "address",
          "name": "newOwner",
          "type": "address"
        }
      ],
      "name": "transferOwnership",
      "outputs": [],
      "stateMutability": "nonpayable",
      "type": "function"
    },
    {
      "inputs": [
        {
          "internalType": "address",
          "name": "account",
          "type": "address"
        },
        {
          "internalType": "uint256",
          "name": "lpAmount",
          "type": "uint256"
        }
      ],
      "name": "updateLPAmount",
      "outputs": [],
      "stateMutability": "nonpayable",
      "type": "function"
    },
    {
      "inputs": [
        {
          "internalType": "address[]",
          "name": "account",
          "type": "address[]"
        },
        {
          "internalType": "uint256[]",
          "name": "lpAmount",
          "type": "uint256[]"
        }
      ],
      "name": "updateLPAmounts",
      "outputs": [],
      "stateMutability": "nonpayable",
      "type": "function"
    },
    {
      "inputs": [],
      "name": "validSupply",
      "outputs": [
        {
          "internalType": "uint256",
          "name": "",
          "type": "uint256"
        }
      ],
      "stateMutability": "view",
      "type": "function"
    },
    {
      "stateMutability": "payable",
      "type": "receive"
    }
  ],
  "transactionHash": "0x3531d63f666120392f34e14d1de6efe09587e45cf7d8f7222aebc5411d079eeb",
  "args": [],
  "solcInputHash": "44888d0dce37f9588d9ad7d494578050",
  "bytecode": "0x60a06040526201518060805234801561001757600080fd5b506080516139406100336000396000610dcd01526139406000f3fe60806040526004361061039b5760003560e01c806373a0a6c3116101dc578063b2887bec11610102578063d83d4143116100a0578063e82bef291161006f578063e82bef2914610b0b578063f2fde38b14610b30578063f7c8aeb814610b50578063ff9935cb14610b7057600080fd5b8063d83d414314610a64578063dd62ed3e14610a84578063e24b04a814610aca578063e2b8e07214610aea57600080fd5b8063c0ed1d05116100dc578063c0ed1d05146109d3578063c6c3e04c146109f3578063c882f4dd14610a13578063ce4d9f1514610a3457600080fd5b8063b2887bec14610973578063b292ab3b14610993578063be3601f8146109b357600080fd5b80638da5cb5b1161017a578063a5696d8911610149578063a5696d89146108c3578063a8424861146108e3578063a9059cbb14610903578063abb1dc441461092357600080fd5b80638da5cb5b1461086557806395d89b4114610883578063984d11fc146108985780639917e2db146108ad57600080fd5b80637af3d95d116101b65780637af3d95d146107e55780637bf5799f1461080557806385dc300414610825578063899d9c9d1461084557600080fd5b806373a0a6c3146107a5578063776645a6146107ba5780637a37a0ed146107d057600080fd5b80633c11100d116102c15780636386c1c71161025f5780636e986dcc1161022e5780636e986dcc1461072d5780636ebcf6071461074357806370a0823114610770578063715018a61461079057600080fd5b80636386c1c7146106a257806363b9fb2e146106d7578063652421e4146106f75780636ae5e5691461070d57600080fd5b8063454130331161029b578063454130331461062d57806346c123b61461064d5780634b94f50e1461066d57806355eaf2951461068257600080fd5b80633c11100d146105b857806340c10f19146105e85780634188bf5a1461060857600080fd5b8063206c17bb116103395780632e05661b116103085780632e05661b146105525780632e52ea3b1461056757806330509bca14610581578063313ce5671461059657600080fd5b8063206c17bb146104c45780632171dcc9146104fc57806323b872dd1461051c57806327ea09c81461053c57600080fd5b806306fdde031161037557806306fdde031461043d578063095ea7b31461045f5780631698755f1461047f57806318160ddd146104a157600080fd5b806301873d8f146103a757806301986fad146103ec57806304c23ffe1461041c57600080fd5b366103a257005b600080fd5b3480156103b357600080fd5b506103d76103c2366004613133565b606f6020526000908152604090205460ff1681565b60405190151581526020015b60405180910390f35b3480156103f857600080fd5b506103d7610407366004613133565b606a6020526000908152604090205460ff1681565b34801561042857600080fd5b506071546103d790600160a01b900460ff1681565b34801561044957600080fd5b50610452610b90565b6040516103e3919061317c565b34801561046b57600080fd5b506103d761047a3660046131af565b610c22565b34801561048b57600080fd5b5061049f61049a3660046131af565b610c39565b005b3480156104ad57600080fd5b506104b6610c72565b6040519081526020016103e3565b3480156104d057600080fd5b50606d546104e4906001600160a01b031681565b6040516001600160a01b0390911681526020016103e3565b34801561050857600080fd5b5061049f6105173660046131e9565b610c8e565b34801561052857600080fd5b506103d7610537366004613222565b610d27565b34801561054857600080fd5b506104b660765481565b34801561055e57600080fd5b5061049f610dbe565b34801561057357600080fd5b506074546103d79060ff1681565b34801561058d57600080fd5b5061049f610f52565b3480156105a257600080fd5b5060695460405160ff90911681526020016103e3565b3480156105c457600080fd5b506103d76105d3366004613133565b606e6020526000908152604090205460ff1681565b3480156105f457600080fd5b5061049f6106033660046131af565b610f6f565b34801561061457600080fd5b506070546104e49061010090046001600160a01b031681565b34801561063957600080fd5b5061049f610648366004613263565b611038565b34801561065957600080fd5b5061049f610668366004613263565b6110b0565b34801561067957600080fd5b506104b6611133565b34801561068e57600080fd5b506072546104e4906001600160a01b031681565b3480156106ae57600080fd5b506106c26106bd366004613133565b61117c565b604080519283526020830191909152016103e3565b3480156106e357600080fd5b5061049f6106f2366004613263565b61120c565b34801561070357600080fd5b506104b660785481565b34801561071957600080fd5b5061049f610728366004613280565b61128f565b34801561073957600080fd5b506104b660775481565b34801561074f57600080fd5b506104b661075e366004613133565b60656020526000908152604090205481565b34801561077c57600080fd5b506104b661078b366004613133565b6112f9565b34801561079c57600080fd5b5061049f611314565b3480156107b157600080fd5b506104b6611326565b3480156107c657600080fd5b506104b660735481565b3480156107dc57600080fd5b506106c2611347565b3480156107f157600080fd5b5061049f610800366004613378565b611409565b34801561081157600080fd5b5061049f6108203660046131af565b6114e5565b34801561083157600080fd5b5061049f610840366004613133565b61157b565b34801561085157600080fd5b5061049f6108603660046131af565b61161f565b34801561087157600080fd5b506033546001600160a01b03166104e4565b34801561088f57600080fd5b50610452611692565b3480156108a457600080fd5b506104b66116a1565b3480156108b957600080fd5b506104b660755481565b3480156108cf57600080fd5b5061049f6108de3660046131af565b6116d0565b3480156108ef57600080fd5b5061049f6108fe3660046131e9565b611751565b34801561090f57600080fd5b506103d761091e3660046131af565b6117e1565b34801561092f57600080fd5b506109386117ee565b604080519889526020890197909752958701949094526060860192909252608085015260a084015260c083015260e0820152610100016103e3565b34801561097f57600080fd5b5061049f61098e366004613433565b61187b565b34801561099f57600080fd5b5061049f6109ae366004613133565b611946565b3480156109bf57600080fd5b506071546104e4906001600160a01b031681565b3480156109df57600080fd5b5061049f6109ee366004613263565b6119e5565b3480156109ff57600080fd5b5061049f610a0e366004613280565b611a68565b348015610a1f57600080fd5b506071546103d790600160b01b900460ff1681565b348015610a4057600080fd5b50610a49611ad2565b604080519384526020840192909252908201526060016103e3565b348015610a7057600080fd5b5061049f610a7f3660046131e9565b611b60565b348015610a9057600080fd5b506104b6610a9f36600461347a565b6001600160a01b03918216600090815260666020908152604080832093909416825291909152205490565b348015610ad657600080fd5b5061049f610ae5366004613280565b611bf0565b348015610af657600080fd5b506071546103d790600160a81b900460ff1681565b348015610b1757600080fd5b506069546104e49061010090046001600160a01b031681565b348015610b3c57600080fd5b5061049f610b4b366004613133565b611c5a565b348015610b5c57600080fd5b5061049f610b6b366004613280565b611cd3565b348015610b7c57600080fd5b5061049f610b8b3660046134a8565b611d3d565b606060678054610b9f90613521565b80601f0160208091040260200160405190810160405280929190818152602001828054610bcb90613521565b8015610c185780601f10610bed57610100808354040283529160200191610c18565b820191906000526020600020905b815481529060010190602001808311610bfb57829003601f168201915b5050505050905090565b6000610c2f338484612269565b5060015b92915050565b336000908152606a602052604090205460ff1615610c6e57606954610c6e90839061010090046001600160a01b0316836122cb565b5050565b6000610c7c611326565b606c54610c89919061356b565b905090565b336000818152606a602052604090205460ff168015610cd657506069546001600160a01b03828116610100909204161480610cd657506033546001600160a01b038281169116145b610cfb5760405162461bcd60e51b8152600401610cf290613582565b60405180910390fd5b506001600160a01b03919091166000908152606f60205260409020805460ff1916911515919091179055565b6000610d348484846123d6565b6001600160a01b038416600090815260666020908152604080832033845290915290205460001914610db4576001600160a01b0384166000908152606660209081526040808320338452909152902054610d8f90839061356b565b6001600160a01b03851660009081526066602090815260408083203384529091529020555b5060019392505050565b60745460ff1615610dcb57565b7f0000000000000000000000000000000000000000000000000000000000000000607354610df991906135ab565b421015610e0257565b6072546001600160a01b03166000819003610e1a5750565b4260735560755460705460009161271091610e429061010090046001600160a01b03166112f9565b610e4c91906135c3565b610e5691906135e2565b607054909150610e759061010090046001600160a01b03168383612620565b607060019054906101000a90046001600160a01b03166001600160a01b031663fff6cae96040518163ffffffff1660e01b8152600401600060405180830381600087803b158015610ec557600080fd5b505af1158015610ed9573d6000803e3d6000fd5b505060405163137320f560e11b8152600481018490526001600160a01b03851692506326e641ea9150602401600060405180830381600087803b158015610f1f57600080fd5b505af1158015610f33573d6000803e3d6000fd5b505050508060766000828254610f4991906135ab565b90915550505050565b606954610f6d9061010090046001600160a01b03164761266d565b565b610f7761271a565b6001600160a01b038216610fcd5760405162461bcd60e51b815260206004820152601f60248201527f45524332303a206d696e7420746f20746865207a65726f2061646472657373006044820152606401610cf2565b80606c6000828254610fdf91906135ab565b90915550506001600160a01b0382166000818152606560209081526040808320805486019055518481527fddf252ad1be2c89b69c2b068fc378daa952ba7f163c4a11628f55a4df523b3ef910160405180910390a35050565b336000818152606a602052604090205460ff16801561108057506069546001600160a01b0382811661010090920416148061108057506033546001600160a01b038281169116145b61109c5760405162461bcd60e51b8152600401610cf290613582565b506074805460ff1916911515919091179055565b336000818152606a602052604090205460ff1680156110f857506069546001600160a01b038281166101009092041614806110f857506033546001600160a01b038281169116145b6111145760405162461bcd60e51b8152600401610cf290613582565b5060718054911515600160a01b0260ff60a01b19909216919091179055565b6000806000611140611347565b9092509050801561117757606954819083906111609060ff16600a6136e8565b61116a91906135c3565b61117491906135e2565b92505b505090565b6001600160a01b038181166000818152606b60205260408082205460705491516370a0823160e01b81526004810194909452939192610100909104909116906370a0823190602401602060405180830381865afa1580156111e1573d6000803e3d6000fd5b505050506040513d601f19601f8201168201806040525081019061120591906136f7565b9050915091565b336000818152606a602052604090205460ff16801561125457506069546001600160a01b0382811661010090920416148061125457506033546001600160a01b038281169116145b6112705760405162461bcd60e51b8152600401610cf290613582565b5060718054911515600160a81b0260ff60a81b19909216919091179055565b336000818152606a602052604090205460ff1680156112d757506069546001600160a01b038281166101009092041614806112d757506033546001600160a01b038281169116145b6112f35760405162461bcd60e51b8152600401610cf290613582565b50607755565b6001600160a01b031660009081526065602052604090205490565b61131c61271a565b610f6d6000612774565b600061133361dead6112f9565b61133d60006112f9565b610c8991906135ab565b6000806000607060019054906101000a90046001600160a01b03169050600080826001600160a01b0316630902f1ac6040518163ffffffff1660e01b8152600401606060405180830381865afa1580156113a5573d6000803e3d6000fd5b505050506040513d601f19601f820116820180604052508101906113c99190613727565b506071546001600160701b039283169450911691506001600160a01b0316308110156113fa57829550819450611401565b8195508294505b505050509091565b336000818152606a602052604090205460ff16801561145157506069546001600160a01b0382811661010090920416148061145157506033546001600160a01b038281169116145b61146d5760405162461bcd60e51b8152600401610cf290613582565b60005b83518110156114df5782818151811061148b5761148b613777565b6020026020010151606b60008684815181106114a9576114a9613777565b6020908102919091018101516001600160a01b0316825281019190915260400160002055806114d78161378d565b915050611470565b50505050565b336000818152606a602052604090205460ff16801561152d57506069546001600160a01b0382811661010090920416148061152d57506033546001600160a01b038281169116145b6115495760405162461bcd60e51b8152600401610cf290613582565b6001600160a01b0383166000908152606b6020526040812080548492906115719084906135ab565b9091555050505050565b336000818152606a602052604090205460ff1680156115c357506069546001600160a01b038281166101009092041614806115c357506033546001600160a01b038281169116145b6115df5760405162461bcd60e51b8152600401610cf290613582565b5060698054610100600160a81b0319166101006001600160a01b03939093169283021790556000908152606a60205260409020805460ff19166001179055565b6072546001600160a01b0316331461166a5760405162461bcd60e51b815260206004820152600e60248201526d1bdb9b1e481b5a5b9d081c1bdbdb60921b6044820152606401610cf2565b6001600160a01b0382166000908152606b602052604081208054839290610f499084906135ab565b606060688054610b9f90613521565b6070546000906116be9061010090046001600160a01b03166112f9565b6116c6610c72565b610c89919061356b565b336000818152606a602052604090205460ff16801561171857506069546001600160a01b0382811661010090920416148061171857506033546001600160a01b038281169116145b6117345760405162461bcd60e51b8152600401610cf290613582565b506001600160a01b039091166000908152606b6020526040902055565b336000818152606a602052604090205460ff16801561179957506069546001600160a01b0382811661010090920416148061179957506033546001600160a01b038281169116145b6117b55760405162461bcd60e51b8152600401610cf290613582565b506001600160a01b03919091166000908152606e60205260409020805460ff1916911515919091179055565b6000610c2f3384846123d6565b6000806000806000806000806118026116a1565b975061180c610c72565b9650611816611326565b9550611820611133565b9450607654935061271060755461184b607060019054906101000a90046001600160a01b03166112f9565b61185591906135c3565b61185f91906135e2565b6069549899979896979596949590946012945060ff1692509050565b336000818152606a602052604090205460ff1680156118c357506069546001600160a01b038281166101009092041614806118c357506033546001600160a01b038281169116145b6118df5760405162461bcd60e51b8152600401610cf290613582565b60005b83518110156114df5782606a600086848151811061190257611902613777565b6020908102919091018101516001600160a01b03168252810191909152604001600020805460ff19169115159190911790558061193e8161378d565b9150506118e2565b336000818152606a602052604090205460ff16801561198e57506069546001600160a01b0382811661010090920416148061198e57506033546001600160a01b038281169116145b6119aa5760405162461bcd60e51b8152600401610cf290613582565b50607280546001600160a01b039092166001600160a01b0319909216821790556000908152606a60205260409020805460ff19166001179055565b336000818152606a602052604090205460ff168015611a2d57506069546001600160a01b03828116610100909204161480611a2d57506033546001600160a01b038281169116145b611a495760405162461bcd60e51b8152600401610cf290613582565b5060718054911515600160b01b0260ff60b01b19909216919091179055565b336000818152606a602052604090205460ff168015611ab057506069546001600160a01b03828116610100909204161480611ab057506033546001600160a01b038281169116145b611acc5760405162461bcd60e51b8152600401610cf290613582565b50607355565b6000806000611adf611347565b6071546070546040516370a0823160e01b81526001600160a01b036101009092048216600482015293965091945016906370a0823190602401602060405180830381865afa158015611b35573d6000803e3d6000fd5b505050506040513d601f19601f82011682018060405250810190611b5991906136f7565b9050909192565b336000818152606a602052604090205460ff168015611ba857506069546001600160a01b03828116610100909204161480611ba857506033546001600160a01b038281169116145b611bc45760405162461bcd60e51b8152600401610cf290613582565b506001600160a01b03919091166000908152606a60205260409020805460ff1916911515919091179055565b336000818152606a602052604090205460ff168015611c3857506069546001600160a01b03828116610100909204161480611c3857506033546001600160a01b038281169116145b611c545760405162461bcd60e51b8152600401610cf290613582565b50607855565b611c6261271a565b6001600160a01b038116611cc75760405162461bcd60e51b815260206004820152602660248201527f4f776e61626c653a206e6577206f776e657220697320746865207a65726f206160448201526564647265737360d01b6064820152608401610cf2565b611cd081612774565b50565b336000818152606a602052604090205460ff168015611d1b57506069546001600160a01b03828116610100909204161480611d1b57506033546001600160a01b038281169116145b611d375760405162461bcd60e51b8152600401610cf290613582565b50607555565b600054610100900460ff1615808015611d5d5750600054600160ff909116105b80611d775750303b158015611d77575060005460ff166001145b611dda5760405162461bcd60e51b815260206004820152602e60248201527f496e697469616c697a61626c653a20636f6e747261637420697320616c72656160448201526d191e481a5b9a5d1a585b1a5e995960921b6064820152608401610cf2565b6000805460ff191660011790558015611dfd576000805461ff0019166101001790555b60408051808201909152600b81526a426c6f636b2053746f726d60a81b6020820152606790611e2c90826137f4565b50604080518082019091526003815262424f5360e81b6020820152606890611e5490826137f4565b506069805460ff199081166012179091556071805460ff60a01b1916600160a01b179055607480548216600190811790915560466075556103e8607755612710607855606d80546001600160a01b038b166001600160a01b0319909116811790915530600090815260666020908152604080832084845282528083206000199055606f82528083208054909616909417909455825163c45a015560e01b815292518b94919363c45a01559260048281019391928290030181865afa158015611f20573d6000803e3d6000fd5b505050506040513d601f19601f82011682018060405250810190611f4491906138b4565b607180546001600160a01b0319166001600160a01b038b811691821790925560405163095ea7b360e01b81529185166004830152600019602483015291925063095ea7b3906044016020604051808303816000875af1158015611fab573d6000803e3d6000fd5b505050506040513d601f19601f82011682018060405250810190611fcf91906138d1565b506071546040516364e329cb60e11b81523060048201526001600160a01b03918216602482015260009183169063c9c65396906044016020604051808303816000875af1158015612024573d6000803e3d6000fd5b505050506040513d601f19601f8201168201806040525081019061204891906138b4565b6001600160a01b0381166000818152606e60205260408120805460ff1916600117905560708054610100909302610100600160a81b031990931692909217909155909150670de0b6b3a7640000906120a0828b6135c3565b606c8190556001600160a01b038a1660008181526065602090815260408083208590555184815293945084937fddf252ad1be2c89b69c2b068fc378daa952ba7f163c4a11628f55a4df523b3ef910160405180910390a360698054610100600160a81b0319166101006001600160a01b038c8116918202929092179092558b81166000908152606a6020526040808220805460ff19908116600190811790925594835281832080548616821790553083528183208054861682179055928a1682528082208054851684179055338252812080548416831790557f6021fa82de881996a3e5fd2d032f74dfe72746b8a66c5510d4ab1a3cb789150780548416831790557f335328446f5a016d99ac6481f9fc72f87ea5b00823fecac528cf7c0cce27f2708054841683179055739e80518a58442293c607c788c85ea8cc08885c0890527fea7a11da43e61a807df35bdcc02dc59a1e38dbc69a9ee92ec18577f57f55f3c3805490921617905561221488612774565b5050505050508015612260576000805461ff0019169055604051600181527f7f26b83ff96e1f2b6a682f133852f6798a09c465da95921460cefb38474024989060200160405180910390a15b50505050505050565b6001600160a01b0383811660008181526066602090815260408083209487168084529482529182902085905590518481527f8c5be1e5ebec7d5bd14f71427d1e84f3dd0314c0f7b2291e5b200ac8c7c3b92591015b60405180910390a3505050565b604080516001600160a01b038481166024830152604480830185905283518084039091018152606490920183526020820180516001600160e01b031663a9059cbb60e01b179052915160009283929087169161232791906138ee565b6000604051808303816000865af19150503d8060008114612364576040519150601f19603f3d011682016040523d82523d6000602084013e612369565b606091505b509150915081801561239357508051158061239357508080602001905181019061239391906138d1565b6123cf5760405162461bcd60e51b815260206004820152600d60248201526c1d1c985b9cd9995c8819985a5b609a1b6044820152606401610cf2565b5050505050565b60006123e1846112f9565b9050818110156124245760405162461bcd60e51b815260206004820152600e60248201526d125b9d985b1a5908185b5bdd5b9d60921b6044820152606401610cf2565b6001600160a01b0384166000908152606a602052604081205460ff1615801561246657506001600160a01b0384166000908152606a602052604090205460ff16155b1561249b575060016000620186a0612481846201869f6135c3565b61248b91906135e2565b905080841115612499578093505b505b6070546000908190819081906001600160a01b03898116610100909204161480156124d55750336000908152606f602052604090205460ff165b15612521576124e3876127c6565b90508015612521576001600160a01b0389166000908152606b602052604081208054909350829184916125179084906135ab565b9091555060019450505b6070546000906001600160a01b036101009091048116908b160361260657607154600160a01b900460ff16156125615761255a88612831565b905061256d565b61256a8861299a565b90505b8015612606576001600160a01b0389166000908152606b60205260409020548111156125d45760405162461bcd60e51b8152602060048201526016602482015275696e73756666696369656e74206c697175696469747960501b6044820152606401610cf2565b6001600160a01b0389166000908152606b6020526040812080548392906125fc90849061356b565b9091555060019450505b6126148a8a8a89888a612a74565b50505050505050505050565b6001600160a01b03831660009081526065602052604090205461264490829061356b565b6001600160a01b038416600090815260656020526040902055612668838383612d29565b505050565b604080516000808252602082019092526001600160a01b03841690839060405161269791906138ee565b60006040518083038185875af1925050503d80600081146126d4576040519150601f19603f3d011682016040523d82523d6000602084013e6126d9565b606091505b50509050806126685760405162461bcd60e51b815260206004820152600d60248201526c1d1c985b9cd9995c8819985a5b609a1b6044820152606401610cf2565b6033546001600160a01b03163314610f6d5760405162461bcd60e51b815260206004820181905260248201527f4f776e61626c653a2063616c6c6572206973206e6f7420746865206f776e65726044820152606401610cf2565b603380546001600160a01b038381166001600160a01b0319831681179093556040519116919082907f8be0079c531659141344cd1fd0a4f28419497f9722a3daafe3b4186f6b6457e090600090a35050565b6000806000806127d4611ad2565b925092509250600080841180156127eb5750600083115b1561280857826127fb85886135c3565b61280591906135e2565b90505b61281281856135ab565b82106128285761282482878686612da1565b5094505b50505050919050565b60008060008061283f611ad2565b9250925092508281101561290a5760705461010090046001600160a01b031660009081526065602052604090205461287890869061356b565b607060019054906101000a90046001600160a01b03166001600160a01b03166318160ddd6040518163ffffffff1660e01b8152600401602060405180830381865afa1580156128cb573d6000803e3d6000fd5b505050506040513d601f19601f820116820180604052508101906128ef91906136f7565b6128f990876135c3565b61290391906135e2565b9350612992565b6000808411801561291b5750600083115b156128285761292a868461356b565b61293485886135c3565b61293e91906135e2565b905061294a84826135ab565b8210156128285760405162461bcd60e51b8152602060048201526016602482015275696e73756666696369656e74206c697175696469747960501b6044820152606401610cf2565b505050919050565b60008060006129a7611ad2565b925050915081811015612a6d5760705461010090046001600160a01b03166000908152606560205260409020546129df90859061356b565b607060019054906101000a90046001600160a01b03166001600160a01b03166318160ddd6040518163ffffffff1660e01b8152600401602060405180830381865afa158015612a32573d6000803e3d6000fd5b505050506040513d601f19601f82011682018060405250810190612a5691906136f7565b612a6090866135c3565b612a6a91906135e2565b92505b5050919050565b6001600160a01b038616600090815260656020526040902054612a97858261356b565b6001600160a01b0388166000908152606560205260409020819055905082612d22578115612b15578315612b1057607154600160b01b900460ff16612b105760405162461bcd60e51b815260206004820152600f60248201526e1bdb9b1e481cdd185c9d081cd95b1b608a1b6044820152606401610cf2565b612d22565b6001600160a01b0387166000908152606e602052604090205460ff1615612bb9578315612b1057607154600160a81b900460ff168015612b635750606d546001600160a01b03878116911614155b612b105760405162461bcd60e51b815260206004820152602160248201527f6f6e6c792073746172742062757920616e64206e6f742073776170526f7574656044820152603960f91b6064820152608401610cf2565b6001600160a01b0386166000908152606e602052604090205460ff1615612d22578315612c2b57607154600160b01b900460ff16612c2b5760405162461bcd60e51b815260206004820152600f60248201526e1bdb9b1e481cdd185c9d081cd95b1b608a1b6044820152606401610cf2565b6000612c36876112f9565b905061271060775482612c4991906135c3565b612c5391906135e2565b861115612c995760405162461bcd60e51b81526020600482015260146024820152733737ba1032b737bab3b4103837b7b62a37b5b2b760611b6044820152606401610cf2565b600061271060785488612cac91906135c3565b612cb691906135e2565b90508015612d1f57612ccb8861dead83612620565b876001600160a01b031663fff6cae96040518163ffffffff1660e01b8152600401600060405180830381600087803b158015612d0657600080fd5b505af1158015612d1a573d6000803e3d6000fd5b505050505b50505b6122608787875b6001600160a01b038216600090815260656020526040902054612d4d9082906135ab565b6001600160a01b0380841660008181526065602052604090819020939093559151908516907fddf252ad1be2c89b69c2b068fc378daa952ba7f163c4a11628f55a4df523b3ef906122be9085815260200190565b6000806000607060019054906101000a90046001600160a01b03166001600160a01b03166318160ddd6040518163ffffffff1660e01b8152600401602060405180830381865afa158015612df9573d6000803e3d6000fd5b505050506040513d601f19601f82011682018060405250810190612e1d91906136f7565b90506000606d60009054906101000a90046001600160a01b03166001600160a01b031663c45a01556040518163ffffffff1660e01b8152600401602060405180830381865afa158015612e74573d6000803e3d6000fd5b505050506040513d601f19601f82011682018060405250810190612e9891906138b4565b6001600160a01b031663017e7e586040518163ffffffff1660e01b8152600401602060405180830381865afa158015612ed5573d6000803e3d6000fd5b505050506040513d601f19601f82011682018060405250810190612ef991906138b4565b60705460408051637464fc3d60e01b815290519293506001600160a01b03808516151593600093610100900490911691637464fc3d9160048083019260209291908290030181865afa158015612f53573d6000803e3d6000fd5b505050506040513d601f19601f82011682018060405250810190612f7791906136f7565b9050811561301c57801561301c576000612f99612f94898b6135c3565b613096565b90506000612fa683613096565b905080821115613019576000612fbc828461356b565b612fc690886135c3565b612fd19060086135c3565b90506000612fe08360086135c3565b612feb8560116135c3565b612ff591906135ab565b905061300181836135e2565b985088156130165761301389896135ab565b97505b50505b50505b6000613028898c61356b565b905084600003613053576103e8613042612f948c846135c3565b61304c919061356b565b9650613088565b6130858961306187846135c3565b61306b91906135e2565b89613076888e6135c3565b61308091906135e2565b613106565b96505b505050505094509492505050565b600060038211156130f757508060006130b06002836135e2565b6130bb9060016135ab565b90505b818110156130f1579050806002816130d681866135e2565b6130e091906135ab565b6130ea91906135e2565b90506130be565b50919050565b8115613101575060015b919050565b60008183106131155781613117565b825b9392505050565b6001600160a01b0381168114611cd057600080fd5b60006020828403121561314557600080fd5b81356131178161311e565b60005b8381101561316b578181015183820152602001613153565b838111156114df5750506000910152565b602081526000825180602084015261319b816040850160208701613150565b601f01601f19169190910160400192915050565b600080604083850312156131c257600080fd5b82356131cd8161311e565b946020939093013593505050565b8015158114611cd057600080fd5b600080604083850312156131fc57600080fd5b82356132078161311e565b91506020830135613217816131db565b809150509250929050565b60008060006060848603121561323757600080fd5b83356132428161311e565b925060208401356132528161311e565b929592945050506040919091013590565b60006020828403121561327557600080fd5b8135613117816131db565b60006020828403121561329257600080fd5b5035919050565b634e487b7160e01b600052604160045260246000fd5b604051601f8201601f1916810167ffffffffffffffff811182821017156132d8576132d8613299565b604052919050565b600067ffffffffffffffff8211156132fa576132fa613299565b5060051b60200190565b600082601f83011261331557600080fd5b8135602061332a613325836132e0565b6132af565b82815260059290921b8401810191818101908684111561334957600080fd5b8286015b8481101561336d5780356133608161311e565b835291830191830161334d565b509695505050505050565b6000806040838503121561338b57600080fd5b823567ffffffffffffffff808211156133a357600080fd5b6133af86838701613304565b93506020915081850135818111156133c657600080fd5b85019050601f810186136133d957600080fd5b80356133e7613325826132e0565b81815260059190911b8201830190838101908883111561340657600080fd5b928401925b828410156134245783358252928401929084019061340b565b80955050505050509250929050565b6000806040838503121561344657600080fd5b823567ffffffffffffffff81111561345d57600080fd5b61346985828601613304565b9250506020830135613217816131db565b6000806040838503121561348d57600080fd5b82356134988161311e565b915060208301356132178161311e565b60008060008060008060c087890312156134c157600080fd5b86356134cc8161311e565b955060208701356134dc8161311e565b94506040870135935060608701356134f38161311e565b925060808701356135038161311e565b915060a08701356135138161311e565b809150509295509295509295565b600181811c9082168061353557607f821691505b6020821081036130f157634e487b7160e01b600052602260045260246000fd5b634e487b7160e01b600052601160045260246000fd5b60008282101561357d5761357d613555565b500390565b6020808252600f908201526e1bdb9b1e481dda1a5d19481b1a5cdd608a1b604082015260600190565b600082198211156135be576135be613555565b500190565b60008160001904831182151516156135dd576135dd613555565b500290565b6000826135ff57634e487b7160e01b600052601260045260246000fd5b500490565b600181815b8085111561363f57816000190482111561362557613625613555565b8085161561363257918102915b93841c9390800290613609565b509250929050565b60008261365657506001610c33565b8161366357506000610c33565b816001811461367957600281146136835761369f565b6001915050610c33565b60ff84111561369457613694613555565b50506001821b610c33565b5060208310610133831016604e8410600b84101617156136c2575081810a610c33565b6136cc8383613604565b80600019048211156136e0576136e0613555565b029392505050565b600061311760ff841683613647565b60006020828403121561370957600080fd5b5051919050565b80516001600160701b038116811461310157600080fd5b60008060006060848603121561373c57600080fd5b61374584613710565b925061375360208501613710565b9150604084015163ffffffff8116811461376c57600080fd5b809150509250925092565b634e487b7160e01b600052603260045260246000fd5b60006001820161379f5761379f613555565b5060010190565b601f82111561266857600081815260208120601f850160051c810160208610156137cd5750805b601f850160051c820191505b818110156137ec578281556001016137d9565b505050505050565b815167ffffffffffffffff81111561380e5761380e613299565b6138228161381c8454613521565b846137a6565b602080601f831160018114613857576000841561383f5750858301515b600019600386901b1c1916600185901b1785556137ec565b600085815260208120601f198616915b8281101561388657888601518255948401946001909101908401613867565b50858210156138a45787850151600019600388901b60f8161c191681555b5050505050600190811b01905550565b6000602082840312156138c657600080fd5b81516131178161311e565b6000602082840312156138e357600080fd5b8151613117816131db565b60008251613900818460208701613150565b919091019291505056fea2646970667358221220e3f297cf097fc16259d40bf372fe71cb7ef38e2244291cfb9dd13c166a50f96864736f6c634300080f0033",
  "devdoc": {
    "kind": "dev",
    "methods": {
      "allowance(address,address)": {
        "details": "Returns the remaining number of tokens that `spender` will be allowed to spend on behalf of `owner` through {transferFrom}. This is zero by default. This value changes when {approve} or {transferFrom} are called."
      },
      "approve(address,uint256)": {
        "details": "Sets `amount` as the allowance of `spender` over the caller's tokens. Returns a boolean value indicating whether the operation succeeded. IMPORTANT: Beware that changing an allowance with this method brings the risk that someone may use both the old and the new allowance by unfortunate transaction ordering. One possible solution to mitigate this race condition is to first reduce the spender's allowance to 0 and set the desired value afterwards: https://github.com/ethereum/EIPs/issues/20#issuecomment-263524729 Emits an {Approval} event."
      },
      "balanceOf(address)": {
        "details": "Returns the amount of tokens owned by `account`."
      },
      "owner()": {
        "details": "Returns the address of the current owner."
      },
      "renounceOwnership()": {
        "details": "Leaves the contract without owner. It will not be possible to call `onlyOwner` functions. Can only be called by the current owner. NOTE: Renouncing ownership will leave the contract without an owner, thereby disabling any functionality that is only available to the owner."
      },
      "totalSupply()": {
        "details": "Returns the amount of tokens in existence."
      },
      "transferOwnership(address)": {
        "details": "Transfers ownership of the contract to a new account (`newOwner`). Can only be called by the current owner."
      }
    },
    "version": 1
  },
  "userdoc": {
    "kind": "user",
    "methods": {},
    "version": 1
  },
  "storageLayout": {
    "storage": [
      {
        "astId": 139,
        "contract": "contracts/BosToken.sol:BosToken",
        "label": "_initialized",
        "offset": 0,
        "slot": "0",
        "type": "t_uint8"
      },
      {
        "astId": 142,
        "contract": "contracts/BosToken.sol:BosToken",
        "label": "_initializing",
        "offset": 1,
        "slot": "0",
        "type": "t_bool"
      },
      {
        "astId": 681,
        "contract": "contracts/BosToken.sol:BosToken",
        "label": "__gap",
        "offset": 0,
        "slot": "1",
        "type": "t_array(t_uint256)50_storage"
      },
      {
        "astId": 11,
        "contract": "contracts/BosToken.sol:BosToken",
        "label": "_owner",
        "offset": 0,
        "slot": "51",
        "type": "t_address"
      },
      {
        "astId": 131,
        "contract": "contracts/BosToken.sol:BosToken",
        "label": "__gap",
        "offset": 0,
        "slot": "52",
        "type": "t_array(t_uint256)49_storage"
      },
      {
        "astId": 786,
        "contract": "contracts/BosToken.sol:BosToken",
        "label": "_balances",
        "offset": 0,
        "slot": "101",
        "type": "t_mapping(t_address,t_uint256)"
      },
      {
        "astId": 792,
        "contract": "contracts/BosToken.sol:BosToken",
        "label": "_allowances",
        "offset": 0,
        "slot": "102",
        "type": "t_mapping(t_address,t_mapping(t_address,t_uint256))"
      },
      {
        "astId": 794,
        "contract": "contracts/BosToken.sol:BosToken",
        "label": "_name",
        "offset": 0,
        "slot": "103",
        "type": "t_string_storage"
      },
      {
        "astId": 796,
        "contract": "contracts/BosToken.sol:BosToken",
        "label": "_symbol",
        "offset": 0,
        "slot": "104",
        "type": "t_string_storage"
      },
      {
        "astId": 798,
        "contract": "contracts/BosToken.sol:BosToken",
        "label": "_decimals",
        "offset": 0,
        "slot": "105",
        "type": "t_uint8"
      },
      {
        "astId": 800,
        "contract": "contracts/BosToken.sol:BosToken",
        "label": "fundAddress",
        "offset": 1,
        "slot": "105",
        "type": "t_address"
      },
      {
        "astId": 804,
        "contract": "contracts/BosToken.sol:BosToken",
        "label": "_feeWhiteList",
        "offset": 0,
        "slot": "106",
        "type": "t_mapping(t_address,t_bool)"
      },
      {
        "astId": 809,
        "contract": "contracts/BosToken.sol:BosToken",
        "label": "_userInfo",
        "offset": 0,
        "slot": "107",
        "type": "t_mapping(t_address,t_struct(UserInfo)782_storage)"
      },
      {
        "astId": 811,
        "contract": "contracts/BosToken.sol:BosToken",
        "label": "_tTotal",
        "offset": 0,
        "slot": "108",
        "type": "t_uint256"
      },
      {
        "astId": 814,
        "contract": "contracts/BosToken.sol:BosToken",
        "label": "_swapRouter",
        "offset": 0,
        "slot": "109",
        "type": "t_contract(ISwapRouter)2862"
      },
      {
        "astId": 818,
        "contract": "contracts/BosToken.sol:BosToken",
        "label": "_swapPairList",
        "offset": 0,
        "slot": "110",
        "type": "t_mapping(t_address,t_bool)"
      },
      {
        "astId": 822,
        "contract": "contracts/BosToken.sol:BosToken",
        "label": "_swapRouters",
        "offset": 0,
        "slot": "111",
        "type": "t_mapping(t_address,t_bool)"
      },
      {
        "astId": 824,
        "contract": "contracts/BosToken.sol:BosToken",
        "label": "inSwap",
        "offset": 0,
        "slot": "112",
        "type": "t_bool"
      },
      {
        "astId": 826,
        "contract": "contracts/BosToken.sol:BosToken",
        "label": "_mainPair",
        "offset": 1,
        "slot": "112",
        "type": "t_address"
      },
      {
        "astId": 828,
        "contract": "contracts/BosToken.sol:BosToken",
        "label": "_usdt",
        "offset": 0,
        "slot": "113",
        "type": "t_address"
      },
      {
        "astId": 830,
        "contract": "contracts/BosToken.sol:BosToken",
        "label": "_strictCheck",
        "offset": 20,
        "slot": "113",
        "type": "t_bool"
      },
      {
        "astId": 832,
        "contract": "contracts/BosToken.sol:BosToken",
        "label": "_startBuy",
        "offset": 21,
        "slot": "113",
        "type": "t_bool"
      },
      {
        "astId": 834,
        "contract": "contracts/BosToken.sol:BosToken",
        "label": "_startSell",
        "offset": 22,
        "slot": "113",
        "type": "t_bool"
      },
      {
        "astId": 837,
        "contract": "contracts/BosToken.sol:BosToken",
        "label": "_mintPool",
        "offset": 0,
        "slot": "114",
        "type": "t_contract(IMintPool)2753"
      },
      {
        "astId": 839,
        "contract": "contracts/BosToken.sol:BosToken",
        "label": "_lastGiveRewardTime",
        "offset": 0,
        "slot": "115",
        "type": "t_uint256"
      },
      {
        "astId": 844,
        "contract": "contracts/BosToken.sol:BosToken",
        "label": "_pauseGiveReward",
        "offset": 0,
        "slot": "116",
        "type": "t_bool"
      },
      {
        "astId": 846,
        "contract": "contracts/BosToken.sol:BosToken",
        "label": "_giveRewardRate",
        "offset": 0,
        "slot": "117",
        "type": "t_uint256"
      },
      {
        "astId": 848,
        "contract": "contracts/BosToken.sol:BosToken",
        "label": "_totalMintReward",
        "offset": 0,
        "slot": "118",
        "type": "t_uint256"
      },
      {
        "astId": 850,
        "contract": "contracts/BosToken.sol:BosToken",
        "label": "_sellPoolRate",
        "offset": 0,
        "slot": "119",
        "type": "t_uint256"
      },
      {
        "astId": 852,
        "contract": "contracts/BosToken.sol:BosToken",
        "label": "_sellPoolDestroyRate",
        "offset": 0,
        "slot": "120",
        "type": "t_uint256"
      }
    ],
    "types": {
      "t_address": {
        "encoding": "inplace",
        "label": "address",
        "numberOfBytes": "20"
      },
      "t_array(t_uint256)49_storage": {
        "base": "t_uint256",
        "encoding": "inplace",
        "label": "uint256[49]",
        "numberOfBytes": "1568"
      },
      "t_array(t_uint256)50_storage": {
        "base": "t_uint256",
        "encoding": "inplace",
        "label": "uint256[50]",
        "numberOfBytes": "1600"
      },
      "t_bool": {
        "encoding": "inplace",
        "label": "bool",
        "numberOfBytes": "1"
      },
      "t_contract(IMintPool)2753": {
        "encoding": "inplace",
        "label": "contract IMintPool",
        "numberOfBytes": "20"
      },
      "t_contract(ISwapRouter)2862": {
        "encoding": "inplace",
        "label": "contract ISwapRouter",
        "numberOfBytes": "20"
      },
      "t_mapping(t_address,t_bool)": {
        "encoding": "mapping",
        "key": "t_address",
        "label": "mapping(address => bool)",
        "numberOfBytes": "32",
        "value": "t_bool"
      },
      "t_mapping(t_address,t_mapping(t_address,t_uint256))": {
        "encoding": "mapping",
        "key": "t_address",
        "label": "mapping(address => mapping(address => uint256))",
        "numberOfBytes": "32",
        "value": "t_mapping(t_address,t_uint256)"
      },
      "t_mapping(t_address,t_struct(UserInfo)782_storage)": {
        "encoding": "mapping",
        "key": "t_address",
        "label": "mapping(address => struct BosToken.UserInfo)",
        "numberOfBytes": "32",
        "value": "t_struct(UserInfo)782_storage"
      },
      "t_mapping(t_address,t_uint256)": {
        "encoding": "mapping",
        "key": "t_address",
        "label": "mapping(address => uint256)",
        "numberOfBytes": "32",
        "value": "t_uint256"
      },
      "t_string_storage": {
        "encoding": "bytes",
        "label": "string",
        "numberOfBytes": "32"
      },
      "t_struct(UserInfo)782_storage": {
        "encoding": "inplace",
        "label": "struct BosToken.UserInfo",
        "members": [
          {
            "astId": 779,
            "contract": "contracts/BosToken.sol:BosToken",
            "label": "lpAmount",
            "offset": 0,
            "slot": "0",
            "type": "t_uint256"
          },
          {
            "astId": 781,
            "contract": "contracts/BosToken.sol:BosToken",
            "label": "preLP",
            "offset": 0,
            "slot": "1",
            "type": "t_bool"
          }
        ],
        "numberOfBytes": "64"
      },
      "t_uint256": {
        "encoding": "inplace",
        "label": "uint256",
        "numberOfBytes": "32"
      },
      "t_uint8": {
        "encoding": "inplace",
        "label": "uint8",
        "numberOfBytes": "1"
      }
    }
  }
}