{
  "address": "0x7199032bea1BF05B8B1F198E51824F12757AB0C0",
  "abi": [
    {
      "inputs": [
        {
          "internalType": "address",
          "name": "_usdt",
          "type": "address"
        },
        {
          "internalType": "address",
          "name": "_cusd",
          "type": "address"
        },
        {
          "internalType": "address",
          "name": "initialOwner",
          "type": "address"
        }
      ],
      "stateMutability": "nonpayable",
      "type": "constructor"
    },
    {
      "anonymous": false,
      "inputs": [
        {
          "indexed": true,
          "internalType": "address",
          "name": "from",
          "type": "address"
        },
        {
          "indexed": false,
          "internalType": "uint256",
          "name": "amount",
          "type": "uint256"
        }
      ],
      "name": "ExchangeUSDT",
      "type": "event"
    },
    {
      "anonymous": false,
      "inputs": [
        {
          "indexed": true,
          "internalType": "address",
          "name": "from",
          "type": "address"
        },
        {
          "indexed": false,
          "internalType": "uint256",
          "name": "amount",
          "type": "uint256"
        }
      ],
      "name": "ExchangedCUSD",
      "type": "event"
    },
    {
      "anonymous": false,
      "inputs": [
        {
          "indexed": true,
          "internalType": "address",
          "name": "previousOwner",
          "type": "address"
        },
        {
          "indexed": true,
          "internalType": "address",
          "name": "newOwner",
          "type": "address"
        }
      ],
      "name": "OwnershipTransferred",
      "type": "event"
    },
    {
      "inputs": [
        {
          "internalType": "address",
          "name": "_user",
          "type": "address"
        }
      ],
      "name": "addToBlacklist",
      "outputs": [],
      "stateMutability": "nonpayable",
      "type": "function"
    },
    {
      "inputs": [
        {
          "internalType": "address",
          "name": "",
          "type": "address"
        }
      ],
      "name": "blacklist",
      "outputs": [
        {
          "internalType": "bool",
          "name": "",
          "type": "bool"
        }
      ],
      "stateMutability": "view",
      "type": "function"
    },
    {
      "inputs": [],
      "name": "cusd",
      "outputs": [
        {
          "internalType": "address",
          "name": "",
          "type": "address"
        }
      ],
      "stateMutability": "view",
      "type": "function"
    },
    {
      "inputs": [
        {
          "internalType": "uint256",
          "name": "tokenAmount",
          "type": "uint256"
        }
      ],
      "name": "exchangeCUSD",
      "outputs": [],
      "stateMutability": "nonpayable",
      "type": "function"
    },
    {
      "inputs": [
        {
          "internalType": "uint256",
          "name": "tokenAmount",
          "type": "uint256"
        }
      ],
      "name": "exchangeUSDT",
      "outputs": [],
      "stateMutability": "nonpayable",
      "type": "function"
    },
    {
      "inputs": [
        {
          "internalType": "address",
          "name": "tokenAddress",
          "type": "address"
        },
        {
          "internalType": "address",
          "name": "to",
          "type": "address"
        },
        {
          "internalType": "uint256",
          "name": "amount",
          "type": "uint256"
        }
      ],
      "name": "extractTokens",
      "outputs": [],
      "stateMutability": "nonpayable",
      "type": "function"
    },
    {
      "inputs": [
        {
          "internalType": "address",
          "name": "_user",
          "type": "address"
        }
      ],
      "name": "isBlack",
      "outputs": [
        {
          "internalType": "bool",
          "name": "",
          "type": "bool"
        }
      ],
      "stateMutability": "view",
      "type": "function"
    },
    {
      "inputs": [],
      "name": "isRun",
      "outputs": [
        {
          "internalType": "bool",
          "name": "",
          "type": "bool"
        }
      ],
      "stateMutability": "view",
      "type": "function"
    },
    {
      "inputs": [],
      "name": "owner",
      "outputs": [
        {
          "internalType": "address",
          "name": "",
          "type": "address"
        }
      ],
      "stateMutability": "view",
      "type": "function"
    },
    {
      "inputs": [],
      "name": "receiver",
      "outputs": [
        {
          "internalType": "address",
          "name": "",
          "type": "address"
        }
      ],
      "stateMutability": "view",
      "type": "function"
    },
    {
      "inputs": [
        {
          "internalType": "address",
          "name": "_user",
          "type": "address"
        }
      ],
      "name": "removeFromBlacklist",
      "outputs": [],
      "stateMutability": "nonpayable",
      "type": "function"
    },
    {
      "inputs": [],
      "name": "renounceOwnership",
      "outputs": [],
      "stateMutability": "nonpayable",
      "type": "function"
    },
    {
      "inputs": [
        {
          "internalType": "address",
          "name": "_cusd",
          "type": "address"
        }
      ],
      "name": "setCUSD",
      "outputs": [],
      "stateMutability": "nonpayable",
      "type": "function"
    },
    {
      "inputs": [
        {
          "internalType": "bool",
          "name": "_isRun",
          "type": "bool"
        }
      ],
      "name": "setRun",
      "outputs": [],
      "stateMutability": "nonpayable",
      "type": "function"
    },
    {
      "inputs": [
        {
          "internalType": "address",
          "name": "_usdt",
          "type": "address"
        }
      ],
      "name": "setUSDT",
      "outputs": [],
      "stateMutability": "nonpayable",
      "type": "function"
    },
    {
      "inputs": [
        {
          "internalType": "address",
          "name": "newOwner",
          "type": "address"
        }
      ],
      "name": "transferOwnership",
      "outputs": [],
      "stateMutability": "nonpayable",
      "type": "function"
    },
    {
      "inputs": [
        {
          "internalType": "address",
          "name": "recipient",
          "type": "address"
        },
        {
          "internalType": "uint256",
          "name": "amount",
          "type": "uint256"
        }
      ],
      "name": "transferToken",
      "outputs": [],
      "stateMutability": "nonpayable",
      "type": "function"
    },
    {
      "inputs": [],
      "name": "usdt",
      "outputs": [
        {
          "internalType": "address",
          "name": "",
          "type": "address"
        }
      ],
      "stateMutability": "view",
      "type": "function"
    }
  ],
  "transactionHash": "0x73e6c9d10ba62968eeb70b68f9564415bd0656bace972b1d5bae7909bfe60cd5",
  "args": [
    "0x8C5089C639A9628941c5310A4F6A9eAA86EF3B4b",
    "0x9A43465D4a7dE5939806d8739f5479265DD98233",
    "0x289F8F063c4304F432bb96DD31e82bdCc5CcE142"
  ],
  "solcInputHash": "dd9c06f6350888dec61941d38e711652",
  "bytecode": "0x60806040523480156200001157600080fd5b5060405162001396380380620013968339810160408190526200003491620001e4565b6200003f3362000096565b600280546001600160a01b038086166001600160a01b03199283161790925560038054928516929091169190911790556004805460ff60a01b1916600160a01b1790556200008d81620000e6565b5050506200022e565b600080546001600160a01b038381166001600160a01b0319831681178455604051919092169283917f8be0079c531659141344cd1fd0a4f28419497f9722a3daafe3b4186f6b6457e09190a35050565b620000f062000169565b6001600160a01b0381166200015b5760405162461bcd60e51b815260206004820152602660248201527f4f776e61626c653a206e6577206f776e657220697320746865207a65726f206160448201526564647265737360d01b60648201526084015b60405180910390fd5b620001668162000096565b50565b6000546001600160a01b03163314620001c55760405162461bcd60e51b815260206004820181905260248201527f4f776e61626c653a2063616c6c6572206973206e6f7420746865206f776e6572604482015260640162000152565b565b80516001600160a01b0381168114620001df57600080fd5b919050565b600080600060608486031215620001fa57600080fd5b6200020584620001c7565b92506200021560208501620001c7565b91506200022560408501620001c7565b90509250925092565b611158806200023e6000396000f3fe608060405234801561001057600080fd5b50600436106101165760003560e01c8063715018a6116100a2578063c17d504b11610071578063c17d504b1461024d578063f2fde38b14610260578063f695dfc914610273578063f7260d3e14610287578063f9f92be41461029a57600080fd5b8063715018a61461020e5780638da5cb5b1461021657806390b62fa614610227578063a5c6d7991461023a57600080fd5b80632f48ab7d116100e95780632f48ab7d14610186578063332daccf1461019957806344337ea1146101d557806350c1b923146101e8578063537df3b6146101fb57600080fd5b80630c577bdc1461011b5780631072cbea1461014b5780632e66bf33146101605780632efa4bf814610173575b600080fd5b60035461012e906001600160a01b031681565b6040516001600160a01b0390911681526020015b60405180910390f35b61015e610159366004610fdd565b6102bd565b005b61015e61016e366004611007565b6104ac565b61015e610181366004611043565b610685565b60025461012e906001600160a01b031681565b6101c56101a7366004611043565b6001600160a01b031660009081526001602052604090205460ff1690565b6040519015158152602001610142565b61015e6101e3366004611043565b6106af565b61015e6101f6366004611043565b6106de565b61015e610209366004611043565b610708565b61015e610731565b6000546001600160a01b031661012e565b61015e610235366004611065565b610745565b61015e610248366004611065565b610ae8565b61015e61025b36600461108c565b610e78565b61015e61026e366004611043565b610e9e565b6004546101c590600160a01b900460ff1681565b60045461012e906001600160a01b031681565b6101c56102a8366004611043565b60016020526000908152604090205460ff1681565b3332146102fe5760405162461bcd60e51b815260206004820152600a6024820152693737ba1027b934b3b4b760b11b60448201526064015b60405180910390fd5b6003546040516370a0823160e01b815233600482015282916001600160a01b0316906370a0823190602401602060405180830381865afa158015610346573d6000803e3d6000fd5b505050506040513d601f19601f8201168201806040525081019061036a91906110a9565b10156103b45760405162461bcd60e51b8152602060048201526019602482015278496e73756666696369656e7420637573642062616c616e636560381b60448201526064016102f5565b6003546040516323b872dd60e01b8152336004820152306024820152604481018390526001600160a01b03909116906323b872dd906064016020604051808303816000875af115801561040b573d6000803e3d6000fd5b505050506040513d601f19601f8201168201806040525081019061042f91906110c2565b5060035460405163a9059cbb60e01b81526001600160a01b038481166004830152602482018490529091169063a9059cbb906044016020604051808303816000875af1158015610483573d6000803e3d6000fd5b505050506040513d601f19601f820116820180604052508101906104a791906110c2565b505050565b6104b4610f17565b6001600160a01b03821661050a5760405162461bcd60e51b815260206004820152601960248201527f496e76616c696420726563697069656e7420616464726573730000000000000060448201526064016102f5565b6000811161055a5760405162461bcd60e51b815260206004820152601d60248201527f416d6f756e74206d7573742062652067726561746572207468616e203000000060448201526064016102f5565b6040516370a0823160e01b8152306004820152839082906001600160a01b038316906370a0823190602401602060405180830381865afa1580156105a2573d6000803e3d6000fd5b505050506040513d601f19601f820116820180604052508101906105c691906110a9565b101561060b5760405162461bcd60e51b8152602060048201526014602482015273496e73756666696369656e742062616c616e636560601b60448201526064016102f5565b60405163a9059cbb60e01b81526001600160a01b0384811660048301526024820184905282169063a9059cbb906044016020604051808303816000875af115801561065a573d6000803e3d6000fd5b505050506040513d601f19601f8201168201806040525081019061067e91906110c2565b5050505050565b61068d610f17565b600380546001600160a01b0319166001600160a01b0392909216919091179055565b6106b7610f17565b6001600160a01b03166000908152600160208190526040909120805460ff19169091179055565b6106e6610f17565b600280546001600160a01b0319166001600160a01b0392909216919091179055565b610710610f17565b6001600160a01b03166000908152600160205260409020805460ff19169055565b610739610f17565b6107436000610f71565b565b600454600160a01b900460ff166107985760405162461bcd60e51b815260206004820152601760248201527645786368616e6765206973206e6f742072756e6e696e6760481b60448201526064016102f5565b3360009081526001602052604090205460ff16156107ea5760405162461bcd60e51b815260206004820152600f60248201526e73656e64657220697320626c61636b60881b60448201526064016102f5565b3332146108255760405162461bcd60e51b81526020600482015260096024820152683737ba27b934b3b4b760b91b60448201526064016102f5565b600081116108455760405162461bcd60e51b81526004016102f5906110df565b6002546040516370a0823160e01b815233600482015282916001600160a01b0316906370a0823190602401602060405180830381865afa15801561088d573d6000803e3d6000fd5b505050506040513d601f19601f820116820180604052508101906108b191906110a9565b10156108fb5760405162461bcd60e51b8152602060048201526019602482015278496e73756666696369656e7420555344542062616c616e636560381b60448201526064016102f5565b6003546040516370a0823160e01b815230600482015282916001600160a01b0316906370a0823190602401602060405180830381865afa158015610943573d6000803e3d6000fd5b505050506040513d601f19601f8201168201806040525081019061096791906110a9565b10156109b55760405162461bcd60e51b815260206004820152601960248201527f496e73756666696369656e7420435553442062616c616e63650000000000000060448201526064016102f5565b600254600480546040516323b872dd60e01b815233928101929092526001600160a01b03908116602483015260448201849052909116906323b872dd906064016020604051808303816000875af1158015610a14573d6000803e3d6000fd5b505050506040513d601f19601f82011682018060405250810190610a3891906110c2565b5060035460405163a9059cbb60e01b8152336004820152602481018390526001600160a01b039091169063a9059cbb906044016020604051808303816000875af1158015610a8a573d6000803e3d6000fd5b505050506040513d601f19601f82011682018060405250810190610aae91906110c2565b5060405181815233907f0ceb0622a751f2e62115f1c92bfd404bf549411ca0bf68f23725fa493c3f97b4906020015b60405180910390a250565b600454600160a01b900460ff16610b3b5760405162461bcd60e51b815260206004820152601760248201527645786368616e6765206973206e6f742072756e6e696e6760481b60448201526064016102f5565b3360009081526001602052604090205460ff1615610b8d5760405162461bcd60e51b815260206004820152600f60248201526e73656e64657220697320626c61636b60881b60448201526064016102f5565b333214610bc85760405162461bcd60e51b81526020600482015260096024820152683737ba27b934b3b4b760b91b60448201526064016102f5565b60008111610be85760405162461bcd60e51b81526004016102f5906110df565b6003546040516370a0823160e01b815233600482015282916001600160a01b0316906370a0823190602401602060405180830381865afa158015610c30573d6000803e3d6000fd5b505050506040513d601f19601f82011682018060405250810190610c5491906110a9565b1015610c9e5760405162461bcd60e51b8152602060048201526019602482015278496e73756666696369656e7420637573642062616c616e636560381b60448201526064016102f5565b6002546040516370a0823160e01b815230600482015282916001600160a01b0316906370a0823190602401602060405180830381865afa158015610ce6573d6000803e3d6000fd5b505050506040513d601f19601f82011682018060405250810190610d0a91906110a9565b1015610d545760405162461bcd60e51b8152602060048201526019602482015278496e73756666696369656e7420555344542062616c616e636560381b60448201526064016102f5565b6003546040516323b872dd60e01b8152336004820152306024820152604481018390526001600160a01b03909116906323b872dd906064016020604051808303816000875af1158015610dab573d6000803e3d6000fd5b505050506040513d601f19601f82011682018060405250810190610dcf91906110c2565b5060025460405163a9059cbb60e01b8152336004820152602481018390526001600160a01b039091169063a9059cbb906044016020604051808303816000875af1158015610e21573d6000803e3d6000fd5b505050506040513d601f19601f82011682018060405250810190610e4591906110c2565b5060405181815233907fd10edf7895a054ad2a18d30da74f0ab30fec4cd6540087a1dedf6bb506f8502090602001610add565b610e80610f17565b60048054911515600160a01b0260ff60a01b19909216919091179055565b610ea6610f17565b6001600160a01b038116610f0b5760405162461bcd60e51b815260206004820152602660248201527f4f776e61626c653a206e6577206f776e657220697320746865207a65726f206160448201526564647265737360d01b60648201526084016102f5565b610f1481610f71565b50565b6000546001600160a01b031633146107435760405162461bcd60e51b815260206004820181905260248201527f4f776e61626c653a2063616c6c6572206973206e6f7420746865206f776e657260448201526064016102f5565b600080546001600160a01b038381166001600160a01b0319831681178455604051919092169283917f8be0079c531659141344cd1fd0a4f28419497f9722a3daafe3b4186f6b6457e09190a35050565b80356001600160a01b0381168114610fd857600080fd5b919050565b60008060408385031215610ff057600080fd5b610ff983610fc1565b946020939093013593505050565b60008060006060848603121561101c57600080fd5b61102584610fc1565b925061103360208501610fc1565b9150604084013590509250925092565b60006020828403121561105557600080fd5b61105e82610fc1565b9392505050565b60006020828403121561107757600080fd5b5035919050565b8015158114610f1457600080fd5b60006020828403121561109e57600080fd5b813561105e8161107e565b6000602082840312156110bb57600080fd5b5051919050565b6000602082840312156110d457600080fd5b815161105e8161107e565b60208082526023908201527f546f6b656e20616d6f756e74206d75737420626520677265617465722074686160408201526206e20360ec1b60608201526080019056fea26469706673582212203c2667113cee5271f8a8895c1e42bf7ff363bb827d48d1208e5f8d768393927764736f6c634300080f0033",
  "devdoc": {
    "kind": "dev",
    "methods": {
      "owner()": {
        "details": "Returns the address of the current owner."
      },
      "renounceOwnership()": {
        "details": "Leaves the contract without owner. It will not be possible to call `onlyOwner` functions. Can only be called by the current owner. NOTE: Renouncing ownership will leave the contract without an owner, thereby disabling any functionality that is only available to the owner."
      },
      "transferOwnership(address)": {
        "details": "Transfers ownership of the contract to a new account (`newOwner`). Can only be called by the current owner."
      }
    },
    "version": 1
  },
  "userdoc": {
    "kind": "user",
    "methods": {},
    "version": 1
  },
  "storageLayout": {
    "storage": [
      {
        "astId": 506,
        "contract": "contracts/Exchange.sol:Exchange",
        "label": "_owner",
        "offset": 0,
        "slot": "0",
        "type": "t_address"
      },
      {
        "astId": 8630,
        "contract": "contracts/Exchange.sol:Exchange",
        "label": "blacklist",
        "offset": 0,
        "slot": "1",
        "type": "t_mapping(t_address,t_bool)"
      },
      {
        "astId": 8632,
        "contract": "contracts/Exchange.sol:Exchange",
        "label": "usdt",
        "offset": 0,
        "slot": "2",
        "type": "t_address"
      },
      {
        "astId": 8634,
        "contract": "contracts/Exchange.sol:Exchange",
        "label": "cusd",
        "offset": 0,
        "slot": "3",
        "type": "t_address"
      },
      {
        "astId": 8636,
        "contract": "contracts/Exchange.sol:Exchange",
        "label": "receiver",
        "offset": 0,
        "slot": "4",
        "type": "t_address"
      },
      {
        "astId": 8638,
        "contract": "contracts/Exchange.sol:Exchange",
        "label": "isRun",
        "offset": 20,
        "slot": "4",
        "type": "t_bool"
      }
    ],
    "types": {
      "t_address": {
        "encoding": "inplace",
        "label": "address",
        "numberOfBytes": "20"
      },
      "t_bool": {
        "encoding": "inplace",
        "label": "bool",
        "numberOfBytes": "1"
      },
      "t_mapping(t_address,t_bool)": {
        "encoding": "mapping",
        "key": "t_address",
        "label": "mapping(address => bool)",
        "numberOfBytes": "32",
        "value": "t_bool"
      }
    }
  }
}