{
  "address": "0x4D2134A373137Fa52f4192B310426eCc852C3eE7",
  "abi": [
    {
      "anonymous": false,
      "inputs": [
        {
          "indexed": true,
          "internalType": "address",
          "name": "account",
          "type": "address"
        },
        {
          "indexed": true,
          "internalType": "uint256",
          "name": "amount",
          "type": "uint256"
        }
      ],
      "name": "Deposit",
      "type": "event"
    },
    {
      "anonymous": false,
      "inputs": [
        {
          "indexed": false,
          "internalType": "uint8",
          "name": "version",
          "type": "uint8"
        }
      ],
      "name": "Initialized",
      "type": "event"
    },
    {
      "anonymous": false,
      "inputs": [
        {
          "indexed": true,
          "internalType": "address",
          "name": "previousOwner",
          "type": "address"
        },
        {
          "indexed": true,
          "internalType": "address",
          "name": "newOwner",
          "type": "address"
        }
      ],
      "name": "OwnershipTransferred",
      "type": "event"
    },
    {
      "anonymous": false,
      "inputs": [
        {
          "indexed": true,
          "internalType": "address",
          "name": "account",
          "type": "address"
        },
        {
          "indexed": true,
          "internalType": "uint256",
          "name": "tokenAmount",
          "type": "uint256"
        },
        {
          "indexed": true,
          "internalType": "uint256",
          "name": "selfAmount",
          "type": "uint256"
        }
      ],
      "name": "Sell",
      "type": "event"
    },
    {
      "anonymous": false,
      "inputs": [
        {
          "indexed": true,
          "internalType": "address",
          "name": "account",
          "type": "address"
        },
        {
          "indexed": true,
          "internalType": "uint256",
          "name": "level",
          "type": "uint256"
        },
        {
          "indexed": true,
          "internalType": "uint256",
          "name": "powerAmount",
          "type": "uint256"
        }
      ],
      "name": "nftPowerReward",
      "type": "event"
    },
    {
      "anonymous": false,
      "inputs": [
        {
          "indexed": true,
          "internalType": "address",
          "name": "account",
          "type": "address"
        },
        {
          "indexed": true,
          "internalType": "uint256",
          "name": "level",
          "type": "uint256"
        },
        {
          "indexed": true,
          "internalType": "uint256",
          "name": "tokenAmount",
          "type": "uint256"
        }
      ],
      "name": "nftTokenReward",
      "type": "event"
    },
    {
      "inputs": [],
      "name": "_amountDailyUp",
      "outputs": [
        {
          "internalType": "uint256",
          "name": "",
          "type": "uint256"
        }
      ],
      "stateMutability": "view",
      "type": "function"
    },
    {
      "inputs": [
        {
          "internalType": "address",
          "name": "",
          "type": "address"
        },
        {
          "internalType": "uint256",
          "name": "",
          "type": "uint256"
        }
      ],
      "name": "_binder",
      "outputs": [
        {
          "internalType": "address",
          "name": "",
          "type": "address"
        }
      ],
      "stateMutability": "view",
      "type": "function"
    },
    {
      "inputs": [],
      "name": "_fundAddress",
      "outputs": [
        {
          "internalType": "address",
          "name": "",
          "type": "address"
        }
      ],
      "stateMutability": "view",
      "type": "function"
    },
    {
      "inputs": [],
      "name": "_getReserves",
      "outputs": [
        {
          "internalType": "uint256",
          "name": "rUsdt",
          "type": "uint256"
        },
        {
          "internalType": "uint256",
          "name": "rToken",
          "type": "uint256"
        }
      ],
      "stateMutability": "view",
      "type": "function"
    },
    {
      "inputs": [
        {
          "internalType": "address",
          "name": "",
          "type": "address"
        }
      ],
      "name": "_inProject",
      "outputs": [
        {
          "internalType": "bool",
          "name": "",
          "type": "bool"
        }
      ],
      "stateMutability": "view",
      "type": "function"
    },
    {
      "inputs": [
        {
          "internalType": "uint256",
          "name": "",
          "type": "uint256"
        }
      ],
      "name": "_inviteFee",
      "outputs": [
        {
          "internalType": "uint256",
          "name": "",
          "type": "uint256"
        }
      ],
      "stateMutability": "view",
      "type": "function"
    },
    {
      "inputs": [
        {
          "internalType": "address",
          "name": "",
          "type": "address"
        }
      ],
      "name": "_invitor",
      "outputs": [
        {
          "internalType": "address",
          "name": "",
          "type": "address"
        }
      ],
      "stateMutability": "view",
      "type": "function"
    },
    {
      "inputs": [],
      "name": "_lastAmountRate",
      "outputs": [
        {
          "internalType": "uint256",
          "name": "",
          "type": "uint256"
        }
      ],
      "stateMutability": "view",
      "type": "function"
    },
    {
      "inputs": [],
      "name": "_lastDailyUpTime",
      "outputs": [
        {
          "internalType": "uint256",
          "name": "",
          "type": "uint256"
        }
      ],
      "stateMutability": "view",
      "type": "function"
    },
    {
      "inputs": [],
      "name": "_lp",
      "outputs": [
        {
          "internalType": "address",
          "name": "",
          "type": "address"
        }
      ],
      "stateMutability": "view",
      "type": "function"
    },
    {
      "inputs": [],
      "name": "_lpReleaseDuration",
      "outputs": [
        {
          "internalType": "uint256",
          "name": "",
          "type": "uint256"
        }
      ],
      "stateMutability": "view",
      "type": "function"
    },
    {
      "inputs": [],
      "name": "_nft",
      "outputs": [
        {
          "internalType": "contract INFT",
          "name": "",
          "type": "address"
        }
      ],
      "stateMutability": "view",
      "type": "function"
    },
    {
      "inputs": [],
      "name": "_pauseSell",
      "outputs": [
        {
          "internalType": "bool",
          "name": "",
          "type": "bool"
        }
      ],
      "stateMutability": "view",
      "type": "function"
    },
    {
      "inputs": [],
      "name": "_sellJoinRate",
      "outputs": [
        {
          "internalType": "uint256",
          "name": "",
          "type": "uint256"
        }
      ],
      "stateMutability": "view",
      "type": "function"
    },
    {
      "inputs": [],
      "name": "_sellLPReceiver",
      "outputs": [
        {
          "internalType": "address",
          "name": "",
          "type": "address"
        }
      ],
      "stateMutability": "view",
      "type": "function"
    },
    {
      "inputs": [],
      "name": "_sellNFTRate",
      "outputs": [
        {
          "internalType": "uint256",
          "name": "",
          "type": "uint256"
        }
      ],
      "stateMutability": "view",
      "type": "function"
    },
    {
      "inputs": [],
      "name": "_sellSelfRate",
      "outputs": [
        {
          "internalType": "uint256",
          "name": "",
          "type": "uint256"
        }
      ],
      "stateMutability": "view",
      "type": "function"
    },
    {
      "inputs": [],
      "name": "_speedUpDuration",
      "outputs": [
        {
          "internalType": "uint256",
          "name": "",
          "type": "uint256"
        }
      ],
      "stateMutability": "view",
      "type": "function"
    },
    {
      "inputs": [],
      "name": "_speedUpReceiver",
      "outputs": [
        {
          "internalType": "address",
          "name": "",
          "type": "address"
        }
      ],
      "stateMutability": "view",
      "type": "function"
    },
    {
      "inputs": [
        {
          "internalType": "address",
          "name": "",
          "type": "address"
        }
      ],
      "name": "_userLPInfo",
      "outputs": [
        {
          "internalType": "uint256",
          "name": "lockAmount",
          "type": "uint256"
        },
        {
          "internalType": "uint256",
          "name": "calAmount",
          "type": "uint256"
        },
        {
          "internalType": "uint256",
          "name": "claimedAmount",
          "type": "uint256"
        },
        {
          "internalType": "uint256",
          "name": "lastReleaseTime",
          "type": "uint256"
        },
        {
          "internalType": "uint256",
          "name": "releaseInitAmount",
          "type": "uint256"
        },
        {
          "internalType": "uint256",
          "name": "releaseDuration",
          "type": "uint256"
        },
        {
          "internalType": "uint256",
          "name": "speedUpTime",
          "type": "uint256"
        }
      ],
      "stateMutability": "view",
      "type": "function"
    },
    {
      "inputs": [
        {
          "internalType": "address",
          "name": "account",
          "type": "address"
        },
        {
          "internalType": "uint256",
          "name": "amount",
          "type": "uint256"
        }
      ],
      "name": "addMintAmount",
      "outputs": [],
      "stateMutability": "nonpayable",
      "type": "function"
    },
    {
      "inputs": [
        {
          "internalType": "uint256",
          "name": "reward",
          "type": "uint256"
        }
      ],
      "name": "addTotalMintReward",
      "outputs": [],
      "stateMutability": "nonpayable",
      "type": "function"
    },
    {
      "inputs": [
        {
          "internalType": "address",
          "name": "account",
          "type": "address"
        },
        {
          "internalType": "uint256",
          "name": "amount",
          "type": "uint256"
        },
        {
          "internalType": "bool",
          "name": "calInvite",
          "type": "bool"
        }
      ],
      "name": "addUserAmount",
      "outputs": [],
      "stateMutability": "nonpayable",
      "type": "function"
    },
    {
      "inputs": [
        {
          "internalType": "address[]",
          "name": "users",
          "type": "address[]"
        },
        {
          "components": [
            {
              "internalType": "bool",
              "name": "isActive",
              "type": "bool"
            },
            {
              "internalType": "uint256",
              "name": "amount",
              "type": "uint256"
            },
            {
              "internalType": "uint256",
              "name": "rewardMintDebt",
              "type": "uint256"
            },
            {
              "internalType": "uint256",
              "name": "calMintReward",
              "type": "uint256"
            }
          ],
          "internalType": "struct MintPool.UserInfo[]",
          "name": "userInfos",
          "type": "tuple[]"
        }
      ],
      "name": "batchInsertUserInfo",
      "outputs": [],
      "stateMutability": "nonpayable",
      "type": "function"
    },
    {
      "inputs": [
        {
          "internalType": "address",
          "name": "account",
          "type": "address"
        },
        {
          "internalType": "address",
          "name": "invitor",
          "type": "address"
        }
      ],
      "name": "bindInvitor",
      "outputs": [],
      "stateMutability": "nonpayable",
      "type": "function"
    },
    {
      "inputs": [
        {
          "internalType": "uint256",
          "name": "userRewardLevel",
          "type": "uint256"
        },
        {
          "internalType": "uint256",
          "name": "amount",
          "type": "uint256"
        }
      ],
      "name": "calculateNFTReward",
      "outputs": [
        {
          "internalType": "uint256",
          "name": "",
          "type": "uint256"
        }
      ],
      "stateMutability": "pure",
      "type": "function"
    },
    {
      "inputs": [
        {
          "internalType": "address",
          "name": "invitor",
          "type": "address"
        }
      ],
      "name": "checkForLevelUp",
      "outputs": [],
      "stateMutability": "nonpayable",
      "type": "function"
    },
    {
      "inputs": [],
      "name": "claim",
      "outputs": [],
      "stateMutability": "nonpayable",
      "type": "function"
    },
    {
      "inputs": [
        {
          "internalType": "address",
          "name": "to",
          "type": "address"
        },
        {
          "internalType": "uint256",
          "name": "amount",
          "type": "uint256"
        }
      ],
      "name": "claimBalance",
      "outputs": [],
      "stateMutability": "nonpayable",
      "type": "function"
    },
    {
      "inputs": [],
      "name": "claimLP",
      "outputs": [],
      "stateMutability": "nonpayable",
      "type": "function"
    },
    {
      "inputs": [
        {
          "internalType": "address",
          "name": "token",
          "type": "address"
        },
        {
          "internalType": "address",
          "name": "to",
          "type": "address"
        },
        {
          "internalType": "uint256",
          "name": "amount",
          "type": "uint256"
        }
      ],
      "name": "claimToken",
      "outputs": [],
      "stateMutability": "nonpayable",
      "type": "function"
    },
    {
      "inputs": [],
      "name": "close",
      "outputs": [],
      "stateMutability": "nonpayable",
      "type": "function"
    },
    {
      "inputs": [
        {
          "internalType": "uint256",
          "name": "amount",
          "type": "uint256"
        },
        {
          "internalType": "uint256",
          "name": "minTokenAmount",
          "type": "uint256"
        },
        {
          "internalType": "address",
          "name": "invitor",
          "type": "address"
        }
      ],
      "name": "deposit",
      "outputs": [],
      "stateMutability": "nonpayable",
      "type": "function"
    },
    {
      "inputs": [
        {
          "internalType": "address",
          "name": "",
          "type": "address"
        }
      ],
      "name": "depositAmount",
      "outputs": [
        {
          "internalType": "uint256",
          "name": "",
          "type": "uint256"
        }
      ],
      "stateMutability": "view",
      "type": "function"
    },
    {
      "inputs": [],
      "name": "getBaseInfo",
      "outputs": [
        {
          "internalType": "address",
          "name": "usdt",
          "type": "address"
        },
        {
          "internalType": "uint256",
          "name": "usdtDecimals",
          "type": "uint256"
        },
        {
          "internalType": "address",
          "name": "mintRewardToken",
          "type": "address"
        },
        {
          "internalType": "uint256",
          "name": "mintRewardTokenDecimals",
          "type": "uint256"
        },
        {
          "internalType": "uint256",
          "name": "totalUsdt",
          "type": "uint256"
        },
        {
          "internalType": "uint256",
          "name": "totalAmount",
          "type": "uint256"
        },
        {
          "internalType": "uint256",
          "name": "lastDailyReward",
          "type": "uint256"
        },
        {
          "internalType": "uint256",
          "name": "dailyAmountRate",
          "type": "uint256"
        },
        {
          "internalType": "uint256",
          "name": "minAmount",
          "type": "uint256"
        },
        {
          "internalType": "address",
          "name": "defaultInvitor",
          "type": "address"
        },
        {
          "internalType": "bool",
          "name": "pauseJoin",
          "type": "bool"
        }
      ],
      "stateMutability": "view",
      "type": "function"
    },
    {
      "inputs": [
        {
          "internalType": "address",
          "name": "account",
          "type": "address"
        }
      ],
      "name": "getBinderLength",
      "outputs": [
        {
          "internalType": "uint256",
          "name": "",
          "type": "uint256"
        }
      ],
      "stateMutability": "view",
      "type": "function"
    },
    {
      "inputs": [
        {
          "internalType": "address",
          "name": "account",
          "type": "address"
        },
        {
          "internalType": "uint256",
          "name": "start",
          "type": "uint256"
        },
        {
          "internalType": "uint256",
          "name": "length",
          "type": "uint256"
        }
      ],
      "name": "getBinderList",
      "outputs": [
        {
          "internalType": "uint256",
          "name": "returnCount",
          "type": "uint256"
        },
        {
          "internalType": "address[]",
          "name": "binders",
          "type": "address[]"
        }
      ],
      "stateMutability": "view",
      "type": "function"
    },
    {
      "inputs": [
        {
          "internalType": "address",
          "name": "account",
          "type": "address"
        }
      ],
      "name": "getDirectList",
      "outputs": [
        {
          "internalType": "address[]",
          "name": "binders",
          "type": "address[]"
        },
        {
          "internalType": "uint256[]",
          "name": "teamAmounts",
          "type": "uint256[]"
        }
      ],
      "stateMutability": "view",
      "type": "function"
    },
    {
      "inputs": [
        {
          "internalType": "uint256",
          "name": "usdtAmount",
          "type": "uint256"
        }
      ],
      "name": "getJoinTokenAmountOut",
      "outputs": [
        {
          "internalType": "uint256",
          "name": "tokenAmount",
          "type": "uint256"
        }
      ],
      "stateMutability": "view",
      "type": "function"
    },
    {
      "inputs": [],
      "name": "getLPInfo",
      "outputs": [
        {
          "internalType": "uint256",
          "name": "totalLP",
          "type": "uint256"
        },
        {
          "internalType": "uint256",
          "name": "lockLP",
          "type": "uint256"
        },
        {
          "internalType": "uint256",
          "name": "speedUpMaxTime",
          "type": "uint256"
        },
        {
          "internalType": "uint256",
          "name": "speedCostUsdt",
          "type": "uint256"
        },
        {
          "internalType": "uint256",
          "name": "speedCostToken",
          "type": "uint256"
        }
      ],
      "stateMutability": "view",
      "type": "function"
    },
    {
      "inputs": [
        {
          "internalType": "address",
          "name": "account",
          "type": "address"
        }
      ],
      "name": "getPendingMintReward",
      "outputs": [
        {
          "internalType": "uint256",
          "name": "reward",
          "type": "uint256"
        }
      ],
      "stateMutability": "view",
      "type": "function"
    },
    {
      "inputs": [
        {
          "internalType": "uint256",
          "name": "tokenAmount",
          "type": "uint256"
        }
      ],
      "name": "getSellUsdtOut",
      "outputs": [
        {
          "internalType": "uint256",
          "name": "usdtAmount",
          "type": "uint256"
        },
        {
          "internalType": "uint256",
          "name": "selfUsdt",
          "type": "uint256"
        },
        {
          "internalType": "uint256",
          "name": "mintAmount",
          "type": "uint256"
        }
      ],
      "stateMutability": "view",
      "type": "function"
    },
    {
      "inputs": [
        {
          "internalType": "address",
          "name": "account",
          "type": "address"
        }
      ],
      "name": "getUserInfo",
      "outputs": [
        {
          "internalType": "uint256",
          "name": "amount",
          "type": "uint256"
        },
        {
          "internalType": "uint256",
          "name": "usdtBalance",
          "type": "uint256"
        },
        {
          "internalType": "uint256",
          "name": "usdtAllowance",
          "type": "uint256"
        },
        {
          "internalType": "uint256",
          "name": "pendingMintReward",
          "type": "uint256"
        },
        {
          "internalType": "uint256",
          "name": "inviteAmount",
          "type": "uint256"
        },
        {
          "internalType": "uint256",
          "name": "sellJoinAmount",
          "type": "uint256"
        },
        {
          "internalType": "uint256",
          "name": "teamNum",
          "type": "uint256"
        },
        {
          "internalType": "uint256",
          "name": "teamAmount",
          "type": "uint256"
        }
      ],
      "stateMutability": "view",
      "type": "function"
    },
    {
      "inputs": [
        {
          "internalType": "address",
          "name": "account",
          "type": "address"
        }
      ],
      "name": "getUserLPInfo",
      "outputs": [
        {
          "internalType": "uint256",
          "name": "lockAmount",
          "type": "uint256"
        },
        {
          "internalType": "uint256",
          "name": "calAmount",
          "type": "uint256"
        },
        {
          "internalType": "uint256",
          "name": "claimedAmount",
          "type": "uint256"
        },
        {
          "internalType": "uint256",
          "name": "lastReleaseTime",
          "type": "uint256"
        },
        {
          "internalType": "uint256",
          "name": "releaseInitAmount",
          "type": "uint256"
        },
        {
          "internalType": "uint256",
          "name": "releaseDuration",
          "type": "uint256"
        },
        {
          "internalType": "uint256",
          "name": "speedUpTime",
          "type": "uint256"
        },
        {
          "internalType": "uint256",
          "name": "tokenBalance",
          "type": "uint256"
        },
        {
          "internalType": "uint256",
          "name": "tokenAllowance",
          "type": "uint256"
        }
      ],
      "stateMutability": "view",
      "type": "function"
    },
    {
      "inputs": [
        {
          "internalType": "address",
          "name": "account",
          "type": "address"
        }
      ],
      "name": "getUserNFTLevel",
      "outputs": [
        {
          "internalType": "uint256",
          "name": "",
          "type": "uint256"
        }
      ],
      "stateMutability": "view",
      "type": "function"
    },
    {
      "inputs": [
        {
          "internalType": "address",
          "name": "swapRouter",
          "type": "address"
        },
        {
          "internalType": "address",
          "name": "usdt",
          "type": "address"
        },
        {
          "internalType": "address",
          "name": "mintRewardToken",
          "type": "address"
        },
        {
          "internalType": "address",
          "name": "nft",
          "type": "address"
        },
        {
          "internalType": "address",
          "name": "defaultInvitor",
          "type": "address"
        },
        {
          "internalType": "address",
          "name": "fundAddress",
          "type": "address"
        },
        {
          "internalType": "address",
          "name": "_owner",
          "type": "address"
        }
      ],
      "name": "initialize",
      "outputs": [],
      "stateMutability": "nonpayable",
      "type": "function"
    },
    {
      "inputs": [],
      "name": "open",
      "outputs": [],
      "stateMutability": "nonpayable",
      "type": "function"
    },
    {
      "inputs": [],
      "name": "owner",
      "outputs": [
        {
          "internalType": "address",
          "name": "",
          "type": "address"
        }
      ],
      "stateMutability": "view",
      "type": "function"
    },
    {
      "inputs": [],
      "name": "poolInfo",
      "outputs": [
        {
          "internalType": "uint256",
          "name": "totalAmount",
          "type": "uint256"
        },
        {
          "internalType": "uint256",
          "name": "accMintPerShare",
          "type": "uint256"
        },
        {
          "internalType": "uint256",
          "name": "accMintReward",
          "type": "uint256"
        },
        {
          "internalType": "uint256",
          "name": "mintPerSec",
          "type": "uint256"
        },
        {
          "internalType": "uint256",
          "name": "lastMintTime",
          "type": "uint256"
        },
        {
          "internalType": "uint256",
          "name": "totalMintReward",
          "type": "uint256"
        }
      ],
      "stateMutability": "view",
      "type": "function"
    },
    {
      "inputs": [
        {
          "internalType": "address",
          "name": "",
          "type": "address"
        }
      ],
      "name": "referralAmount",
      "outputs": [
        {
          "internalType": "uint256",
          "name": "",
          "type": "uint256"
        }
      ],
      "stateMutability": "view",
      "type": "function"
    },
    {
      "inputs": [
        {
          "internalType": "address",
          "name": "",
          "type": "address"
        }
      ],
      "name": "referralReward",
      "outputs": [
        {
          "internalType": "uint256",
          "name": "",
          "type": "uint256"
        }
      ],
      "stateMutability": "view",
      "type": "function"
    },
    {
      "inputs": [
        {
          "internalType": "address",
          "name": "",
          "type": "address"
        },
        {
          "internalType": "uint256",
          "name": "",
          "type": "uint256"
        }
      ],
      "name": "referrals",
      "outputs": [
        {
          "internalType": "address",
          "name": "",
          "type": "address"
        }
      ],
      "stateMutability": "view",
      "type": "function"
    },
    {
      "inputs": [],
      "name": "renounceOwnership",
      "outputs": [],
      "stateMutability": "nonpayable",
      "type": "function"
    },
    {
      "inputs": [
        {
          "internalType": "uint256",
          "name": "tokenAmount",
          "type": "uint256"
        }
      ],
      "name": "sell",
      "outputs": [],
      "stateMutability": "nonpayable",
      "type": "function"
    },
    {
      "inputs": [
        {
          "internalType": "uint256",
          "name": "r",
          "type": "uint256"
        }
      ],
      "name": "setAmountDailyUp",
      "outputs": [],
      "stateMutability": "nonpayable",
      "type": "function"
    },
    {
      "inputs": [
        {
          "internalType": "address",
          "name": "adr",
          "type": "address"
        }
      ],
      "name": "setDefaultInvitor",
      "outputs": [],
      "stateMutability": "nonpayable",
      "type": "function"
    },
    {
      "inputs": [
        {
          "internalType": "address",
          "name": "a",
          "type": "address"
        }
      ],
      "name": "setFundAddress",
      "outputs": [],
      "stateMutability": "nonpayable",
      "type": "function"
    },
    {
      "inputs": [
        {
          "internalType": "address",
          "name": "adr",
          "type": "address"
        },
        {
          "internalType": "bool",
          "name": "enable",
          "type": "bool"
        }
      ],
      "name": "setInProject",
      "outputs": [],
      "stateMutability": "nonpayable",
      "type": "function"
    },
    {
      "inputs": [
        {
          "internalType": "uint256",
          "name": "i",
          "type": "uint256"
        },
        {
          "internalType": "uint256",
          "name": "fee",
          "type": "uint256"
        }
      ],
      "name": "setInviteFee",
      "outputs": [],
      "stateMutability": "nonpayable",
      "type": "function"
    },
    {
      "inputs": [
        {
          "internalType": "uint256",
          "name": "d",
          "type": "uint256"
        }
      ],
      "name": "setLPReleaseDuration",
      "outputs": [],
      "stateMutability": "nonpayable",
      "type": "function"
    },
    {
      "inputs": [
        {
          "internalType": "uint256",
          "name": "r",
          "type": "uint256"
        }
      ],
      "name": "setLastAmountRate",
      "outputs": [],
      "stateMutability": "nonpayable",
      "type": "function"
    },
    {
      "inputs": [
        {
          "internalType": "uint256",
          "name": "t",
          "type": "uint256"
        }
      ],
      "name": "setLastDailyUpTime",
      "outputs": [],
      "stateMutability": "nonpayable",
      "type": "function"
    },
    {
      "inputs": [
        {
          "internalType": "uint256",
          "name": "mintPerSec",
          "type": "uint256"
        }
      ],
      "name": "setMintPerSec",
      "outputs": [],
      "stateMutability": "nonpayable",
      "type": "function"
    },
    {
      "inputs": [
        {
          "internalType": "address",
          "name": "_nftAddress",
          "type": "address"
        }
      ],
      "name": "setNFTAddress",
      "outputs": [],
      "stateMutability": "nonpayable",
      "type": "function"
    },
    {
      "inputs": [
        {
          "internalType": "bool",
          "name": "p",
          "type": "bool"
        }
      ],
      "name": "setPauseSell",
      "outputs": [],
      "stateMutability": "nonpayable",
      "type": "function"
    },
    {
      "inputs": [
        {
          "internalType": "address",
          "name": "a",
          "type": "address"
        }
      ],
      "name": "setSeedUpReceiver",
      "outputs": [],
      "stateMutability": "nonpayable",
      "type": "function"
    },
    {
      "inputs": [
        {
          "internalType": "uint256",
          "name": "r",
          "type": "uint256"
        }
      ],
      "name": "setSellJoinRate",
      "outputs": [],
      "stateMutability": "nonpayable",
      "type": "function"
    },
    {
      "inputs": [
        {
          "internalType": "address",
          "name": "a",
          "type": "address"
        }
      ],
      "name": "setSellLPReceiver",
      "outputs": [],
      "stateMutability": "nonpayable",
      "type": "function"
    },
    {
      "inputs": [
        {
          "internalType": "uint256",
          "name": "r",
          "type": "uint256"
        }
      ],
      "name": "setSellNFTRate",
      "outputs": [],
      "stateMutability": "nonpayable",
      "type": "function"
    },
    {
      "inputs": [
        {
          "internalType": "uint256",
          "name": "r",
          "type": "uint256"
        }
      ],
      "name": "setSellSelfRate",
      "outputs": [],
      "stateMutability": "nonpayable",
      "type": "function"
    },
    {
      "inputs": [
        {
          "internalType": "uint256",
          "name": "c",
          "type": "uint256"
        }
      ],
      "name": "setSpeedUpCost",
      "outputs": [],
      "stateMutability": "nonpayable",
      "type": "function"
    },
    {
      "inputs": [
        {
          "internalType": "uint256",
          "name": "d",
          "type": "uint256"
        }
      ],
      "name": "setSpeedUpDuration",
      "outputs": [],
      "stateMutability": "nonpayable",
      "type": "function"
    },
    {
      "inputs": [
        {
          "internalType": "uint256",
          "name": "mt",
          "type": "uint256"
        }
      ],
      "name": "setSpeedUpMaxTime",
      "outputs": [],
      "stateMutability": "nonpayable",
      "type": "function"
    },
    {
      "inputs": [
        {
          "internalType": "address",
          "name": "account",
          "type": "address"
        },
        {
          "internalType": "uint256",
          "name": "level",
          "type": "uint256"
        }
      ],
      "name": "setUserLevel",
      "outputs": [],
      "stateMutability": "nonpayable",
      "type": "function"
    },
    {
      "inputs": [
        {
          "internalType": "uint256",
          "name": "maxTokenAmount",
          "type": "uint256"
        }
      ],
      "name": "speedUpLP",
      "outputs": [],
      "stateMutability": "nonpayable",
      "type": "function"
    },
    {
      "inputs": [
        {
          "internalType": "address",
          "name": "",
          "type": "address"
        }
      ],
      "name": "superAccount",
      "outputs": [
        {
          "internalType": "address",
          "name": "",
          "type": "address"
        }
      ],
      "stateMutability": "view",
      "type": "function"
    },
    {
      "inputs": [
        {
          "internalType": "address",
          "name": "newOwner",
          "type": "address"
        }
      ],
      "name": "transferOwnership",
      "outputs": [],
      "stateMutability": "nonpayable",
      "type": "function"
    },
    {
      "inputs": [],
      "name": "updateDailyUpRate",
      "outputs": [],
      "stateMutability": "nonpayable",
      "type": "function"
    },
    {
      "inputs": [
        {
          "internalType": "address",
          "name": "",
          "type": "address"
        }
      ],
      "name": "userInfo",
      "outputs": [
        {
          "internalType": "bool",
          "name": "isActive",
          "type": "bool"
        },
        {
          "internalType": "uint256",
          "name": "amount",
          "type": "uint256"
        },
        {
          "internalType": "uint256",
          "name": "rewardMintDebt",
          "type": "uint256"
        },
        {
          "internalType": "uint256",
          "name": "calMintReward",
          "type": "uint256"
        }
      ],
      "stateMutability": "view",
      "type": "function"
    },
    {
      "inputs": [
        {
          "internalType": "address",
          "name": "",
          "type": "address"
        }
      ],
      "name": "userLevel",
      "outputs": [
        {
          "internalType": "uint256",
          "name": "",
          "type": "uint256"
        }
      ],
      "stateMutability": "view",
      "type": "function"
    },
    {
      "inputs": [],
      "name": "v1Amount",
      "outputs": [
        {
          "internalType": "uint256",
          "name": "",
          "type": "uint256"
        }
      ],
      "stateMutability": "view",
      "type": "function"
    },
    {
      "inputs": [],
      "name": "v2Amount",
      "outputs": [
        {
          "internalType": "uint256",
          "name": "",
          "type": "uint256"
        }
      ],
      "stateMutability": "view",
      "type": "function"
    },
    {
      "inputs": [],
      "name": "v3Amount",
      "outputs": [
        {
          "internalType": "uint256",
          "name": "",
          "type": "uint256"
        }
      ],
      "stateMutability": "view",
      "type": "function"
    },
    {
      "inputs": [],
      "name": "v4Amount",
      "outputs": [
        {
          "internalType": "uint256",
          "name": "",
          "type": "uint256"
        }
      ],
      "stateMutability": "view",
      "type": "function"
    },
    {
      "inputs": [],
      "name": "v5Amount",
      "outputs": [
        {
          "internalType": "uint256",
          "name": "",
          "type": "uint256"
        }
      ],
      "stateMutability": "view",
      "type": "function"
    },
    {
      "stateMutability": "payable",
      "type": "receive"
    }
  ],
  "transactionHash": "0x4af1c5fdeffa1beb7c6f92edbea52da9011cf23851a31f733dce4dd91f67223f",
  "args": [],
  "solcInputHash": "3169eb5d82630f70452436637f2412fd",
  "bytecode": "0x610180604052600360805268878678326eac90000060a05269043c33c193756480000060c052690a968163f0a57b40000060e052691fc3842bd1f071c00000610100526969e10de76676d0800000610120526127106101405262015180610160523480156200006d57600080fd5b5062000079336200007f565b620000cf565b600080546001600160a01b038381166001600160a01b0319831681178455604051919092169283917f8be0079c531659141344cd1fd0a4f28419497f9722a3daafe3b4186f6b6457e09190a35050565b60805160a05160c05160e05161010051610120516101405161016051615e00620001976000396000818161163a015281816134400152614ebf0152600081816125d0015281816134af0152818161384601528181614f2301528181615174015261536e01526000818161056a01526127df01526000818161070401526127b9015260008181610bd90152612793015260008181610805015261276d015260008181610f5a015281816127400152614d62015260008181613e9501526140820152615e006000f3fe6080604052600436106104ad5760003560e01c80638593b2b11161026b578063b79190451161014f578063e4849b32116100c1578063f0c52e4c11610085578063f0c52e4c14611165578063f12e6eb7146111a2578063f2fde38b146111c2578063f48544c3146111e2578063fcfff16f146111f8578063fd3cf8851461120d57600080fd5b8063e4849b321461109f578063e5d65633146110bf578063e697b5d8146110ef578063e9f221691461110f578063ec747edb1461112f57600080fd5b8063cef6632d11610113578063cef6632d14610ff2578063d5559e211461101f578063dde40dda14611035578063de44391a14611055578063e20ae3921461106a578063e3ca487a1461107f57600080fd5b8063b791904514610f28578063bc980f8c14610f48578063cc396be114610f7c578063ce4d9f1514610fb2578063ce56114314610fdc57600080fd5b8063a4e48ed8116101e8578063b1a8c459116101ac578063b1a8c45914610e72578063b272d7c314610e92578063b38dcd7114610eb2578063b612511014610ec8578063b64cf2d914610ee8578063b75265d314610f0857600080fd5b8063a4e48ed814610dc1578063a5b64e5e14610de1578063a779fe9214610e01578063aa1a8c6014610e17578063aa8b38d914610e5257600080fd5b806394f738a21161022f57806394f738a214610cb95780639551ae4414610cd957806395d4c7bb14610d5457806398300e1814610d81578063a40a789c14610da157600080fd5b80638593b2b114610c1b57806385dc300414610c3b5780638a56d30614610c5b5780638da5cb5b14610c7b5780638dbdbe6d14610c9957600080fd5b8063449fe5001161039257806369d037381161030f578063715018a6116102d3578063715018a614610b445780637512474e14610b595780637d3643b514610b795780637f15b36b14610ba7578063815a7beb14610bc75780638230af5a14610bfb57600080fd5b806369d0373814610a7d57806369da132614610a9d5780636ca9ee1b14610ad35780636e18b6db14610ae95780636ec42c2c14610b1657600080fd5b80635ca8e3f2116103565780635ca8e3f2146109ac5780635f84aecd146109cc5780636386c1c7146109e2578063681982a714610a3d578063692c7bf714610a5d57600080fd5b8063449fe500146108c95780634e71d92d146108f357806350f62da7146109085780635239a993146109345780635a2f3d091461095457600080fd5b80631b967ad41161042b57806333f5780e116103ef57806333f5780e1461079357806335876476146107b35780633a0dde51146107d35780633bf5f934146107f35780633c6369fc1461082757806343d726d6146108b457600080fd5b80631b967ad4146106bc5780631e8074b5146106f257806326e641ea14610726578063280e31cc146107465780632e0dd9c71461077357600080fd5b80630c28525d116104725780630c28525d1461059a578063119f3eb6146105ba578063125bfb661461061e5780631703dd121461063e5780631959a0021461065457600080fd5b80625a3ff1146104b9578063029a0c9d146104f65780630600ffc1146105185780630681c58d146105385780630b2ef5f71461055857600080fd5b366104b457005b600080fd5b3480156104c557600080fd5b50600d546104d9906001600160a01b031681565b6040516001600160a01b0390911681526020015b60405180910390f35b34801561050257600080fd5b50610516610511366004615487565b61122d565b005b34801561052457600080fd5b506105166105333660046154c3565b61128f565b34801561054457600080fd5b50610516610553366004615487565b6112ed565b34801561056457600080fd5b5061058c7f000000000000000000000000000000000000000000000000000000000000000081565b6040519081526020016104ed565b3480156105a657600080fd5b506105166105b5366004615487565b6113a7565b3480156105c657600080fd5b506105da6105d5366004615505565b611450565b60408051998a5260208a0198909852968801959095526060870193909352608086019190915260a085015260c084015260e0830152610100820152610120016104ed565b34801561062a57600080fd5b50610516610639366004615529565b611584565b34801561064a57600080fd5b5061058c60255481565b34801561066057600080fd5b5061069a61066f366004615505565b600760205260009081526040902080546001820154600283015460039093015460ff90921692909184565b60408051941515855260208501939093529183015260608201526080016104ed565b3480156106c857600080fd5b5061058c6106d7366004615505565b6001600160a01b031660009081526010602052604090205490565b3480156106fe57600080fd5b5061058c7f000000000000000000000000000000000000000000000000000000000000000081565b34801561073257600080fd5b50610516610741366004615487565b6115e3565b34801561075257600080fd5b5061058c610761366004615505565b60226020526000908152604090205481565b34801561077f57600080fd5b5061051661078e366004615487565b611667565b34801561079f57600080fd5b506105166107ae36600461556a565b6116c0565b3480156107bf57600080fd5b506105166107ce366004615596565b6116e4565b3480156107df57600080fd5b506105166107ee366004615487565b611aa1565b3480156107ff57600080fd5b5061058c7f000000000000000000000000000000000000000000000000000000000000000081565b34801561083357600080fd5b5061087f610842366004615505565b6008602052600090815260409020805460018201546002830154600384015460048501546005860154600690960154949593949293919290919087565b604080519788526020880196909652948601939093526060850191909152608084015260a083015260c082015260e0016104ed565b3480156108c057600080fd5b50610516611afa565b3480156108d557600080fd5b506016546108e39060ff1681565b60405190151581526020016104ed565b3480156108ff57600080fd5b50610516611b5d565b34801561091457600080fd5b5061058c610923366004615505565b602080526000908152604090205481565b34801561094057600080fd5b5061058c61094f36600461562c565b611c0d565b34801561096057600080fd5b5060015460025460035460045460055460065461097f95949392919086565b604080519687526020870195909552938501929092526060840152608083015260a082015260c0016104ed565b3480156109b857600080fd5b506105166109c736600461562c565b611c48565b3480156109d857600080fd5b5061058c60265481565b3480156109ee57600080fd5b50610a026109fd366004615505565b611cae565b604080519889526020890197909752958701949094526060860192909252608085015260a084015260c083015260e0820152610100016104ed565b348015610a4957600080fd5b50610516610a58366004615505565b611e1e565b348015610a6957600080fd5b50610516610a7836600461564e565b611e94565b348015610a8957600080fd5b50610516610a98366004615505565b611f13565b348015610aa957600080fd5b506104d9610ab8366004615505565b600f602052600090815260409020546001600160a01b031681565b348015610adf57600080fd5b5061058c60275481565b348015610af557600080fd5b5061058c610b04366004615505565b60216020526000908152604090205481565b348015610b2257600080fd5b50610b36610b31366004615687565b611f3d565b6040516104ed929190615700565b348015610b5057600080fd5b5061051661205c565b348015610b6557600080fd5b50610516610b74366004615859565b612070565b348015610b8557600080fd5b50610b99610b94366004615505565b612168565b6040516104ed92919061591b565b348015610bb357600080fd5b50610516610bc2366004615487565b6122f7565b348015610bd357600080fd5b5061058c7f000000000000000000000000000000000000000000000000000000000000000081565b348015610c0757600080fd5b50601c546104d9906001600160a01b031681565b348015610c2757600080fd5b506104d9610c3636600461556a565b612350565b348015610c4757600080fd5b50610516610c56366004615505565b612388565b348015610c6757600080fd5b5061058c610c76366004615505565b6123fe565b348015610c8757600080fd5b506000546001600160a01b03166104d9565b348015610ca557600080fd5b50610516610cb4366004615972565b6124f3565b348015610cc557600080fd5b50610516610cd4366004615505565b6126c7565b348015610ce557600080fd5b50610cee61284b565b604080516001600160a01b039c8d168152602081019b909b52988b16988a01989098526060890196909652608088019490945260a087019290925260c086015260e0850152610100840152909216610120820152901515610140820152610160016104ed565b348015610d6057600080fd5b5061058c610d6f366004615505565b601f6020526000908152604090205481565b348015610d8d57600080fd5b50600e546104d9906001600160a01b031681565b348015610dad57600080fd5b5061058c610dbc366004615487565b6128ac565b348015610dcd57600080fd5b50610516610ddc366004615487565b6129d8565b348015610ded57600080fd5b50610516610dfc366004615487565b612a39565b348015610e0d57600080fd5b5061058c60295481565b348015610e2357600080fd5b50610e37610e32366004615487565b612d1e565b604080519384526020840192909252908201526060016104ed565b348015610e5e57600080fd5b50610516610e6d36600461556a565b612ea1565b348015610e7e57600080fd5b50610516610e8d366004615487565b612f03565b348015610e9e57600080fd5b50601a546104d9906001600160a01b031681565b348015610ebe57600080fd5b5061058c60195481565b348015610ed457600080fd5b50610516610ee3366004615505565b612f71565b348015610ef457600080fd5b50610516610f033660046159a0565b612fe7565b348015610f1457600080fd5b50610516610f23366004615505565b61304e565b348015610f3457600080fd5b50610516610f43366004615487565b6130dc565b348015610f5457600080fd5b5061058c7f000000000000000000000000000000000000000000000000000000000000000081565b348015610f8857600080fd5b506104d9610f97366004615505565b601e602052600090815260409020546001600160a01b031681565b348015610fbe57600080fd5b50610fc761314b565b604080519283526020830191909152016104ed565b348015610fe857600080fd5b5061058c60175481565b348015610ffe57600080fd5b5061058c61100d366004615487565b60116020526000908152604090205481565b34801561102b57600080fd5b5061058c60245481565b34801561104157600080fd5b50602a546104d9906001600160a01b031681565b34801561106157600080fd5b50610516613213565b34801561107657600080fd5b5061051661342f565b34801561108b57600080fd5b5061051661109a366004615487565b6134ff565b3480156110ab57600080fd5b506105166110ba366004615487565b613558565b3480156110cb57600080fd5b506108e36110da366004615505565b602d6020526000908152604090205460ff1681565b3480156110fb57600080fd5b506104d961110a36600461556a565b613a32565b34801561111b57600080fd5b5061051661112a36600461556a565b613a4e565b34801561113b57600080fd5b5061058c61114a366004615505565b6001600160a01b031660009081526022602052604090205490565b34801561117157600080fd5b5061117a613acd565b604080519586526020860194909452928401919091526060830152608082015260a0016104ed565b3480156111ae57600080fd5b506105166111bd3660046159bd565b613bd6565b3480156111ce57600080fd5b506105166111dd366004615505565b613c0f565b3480156111ee57600080fd5b5061058c60185481565b34801561120457600080fd5b50610516613c85565b34801561121957600080fd5b50610516611228366004615487565b613cf4565b601c546001600160a01b031633148061125057506000546001600160a01b031633145b806112655750600e546001600160a01b031633145b61128a5760405162461bcd60e51b8152600401611281906159eb565b60405180910390fd5b602455565b336000908152602d602052604090205460ff166112be5760405162461bcd60e51b815260040161128190615a14565b6012546112d59084906001600160a01b0316613d4d565b6112dd613f26565b6112e8838383614009565b505050565b601c546001600160a01b031633148061131057506000546001600160a01b031633145b806113255750600e546001600160a01b031633145b6113415760405162461bcd60e51b8152600401611281906159eb565b6018819055601954601754612710919061135c908490615a51565b6113669190615a51565b11156113a45760405162461bcd60e51b815260206004820152600d60248201526c72617465206f766572666c6f7760981b6044820152606401611281565b50565b601c546001600160a01b03163314806113ca57506000546001600160a01b031633145b806113df5750600e546001600160a01b031633145b6113fb5760405162461bcd60e51b8152600401611281906159eb565b6000811161144b5760405162461bcd60e51b815260206004820152601960248201527f72656c65617365206475726174696f6e206d757374203e2030000000000000006044820152606401611281565b602755565b6001600160a01b03818116600081815260086020526040808220805460018201546002830154600480850154600586015460068701546003880154600c5499516370a0823160e01b81529485019b909b52959a94999398939791969095948493919216906370a0823190602401602060405180830381865afa1580156114da573d6000803e3d6000fd5b505050506040513d601f19601f820116820180604052508101906114fe9190615a69565b600c54604051636eb1769f60e11b81526001600160a01b038e8116600483015230602483015292955091169063dd62ed3e90604401602060405180830381865afa158015611550573d6000803e3d6000fd5b505050506040513d601f19601f820116820180604052508101906115749190615a69565b9150509193959799909294969850565b601c546001600160a01b03163314806115a757506000546001600160a01b031633145b806115bc5750600e546001600160a01b031633145b6115d85760405162461bcd60e51b8152600401611281906159eb565b6112e88383836141ed565b336000908152602d602052604090205460ff166116125760405162461bcd60e51b815260040161128190615a14565b61161a613f26565b806001600501600082825461162f9190615a51565b9091555061165f90507f000000000000000000000000000000000000000000000000000000000000000082615a82565b600455602e55565b601c546001600160a01b031633148061168a57506000546001600160a01b031633145b8061169f5750600e546001600160a01b031633145b6116bb5760405162461bcd60e51b8152600401611281906159eb565b602555565b6116c8614323565b6001600160a01b03909116600090815260226020526040902055565b600054600160a81b900460ff161580801561170c57506000546001600160a01b90910460ff16105b8061172d5750303b15801561172d5750600054600160a01b900460ff166001145b6117905760405162461bcd60e51b815260206004820152602e60248201527f496e697469616c697a61626c653a20636f6e747261637420697320616c72656160448201526d191e481a5b9a5d1a585b1a5e995960921b6064820152608401611281565b6000805460ff60a01b1916600160a01b17905580156117bd576000805460ff60a81b1916600160a81b1790555b6023805460ff19166001179055600980546001600160a01b03808b166001600160a01b03199283168117909355600a80548b831690841617905568056bc75e2d63100000600b55600e8054898316908416179055600c8054918a16919092161790556040805163c45a015560e01b8152905163c45a0155916004808201926020929091908290030181865afa15801561185a573d6000803e3d6000fd5b505050506040513d601f19601f8201168201806040525081019061187e9190615aa4565b60405163e6a4390560e01b81526001600160a01b0389811660048301528881166024830152919091169063e6a4390590604401602060405180830381865afa1580156118ce573d6000803e3d6000fd5b505050506040513d601f19601f820116820180604052508101906118f29190615aa4565b600d80546001600160a01b039283166001600160a01b0319918216179091554260055560128054928716929091168217905560009081526007602090815260408220805460ff19166001179055601190526103207f4ad3b33220dddc71b994a52d72c06b10862965f7d926534c05c00fb7e819e7b7556101f47f17bc176d2408558f6e4111feebc3cab4e16b63e967be91cde721f4c8a488b552556002905261012c7f08037d7b151cc412d25674a4e66b334d9ae9d2e5517a7feaae5cdb828bf1c62855681043561a88293000006028556119d0878960001961437d565b6119dd868960001961437d565b601a80546001600160a01b0385166001600160a01b03199182168117909255601c805482169092179091556003602b55602a805490911661dead179055611388601755610fa06018556101f46019556127106025556127746026556276a700602755620d2f00602955611a4f82614480565b8015611a97576000805460ff60a81b19169055604051600181527f7f26b83ff96e1f2b6a682f133852f6798a09c465da95921460cefb38474024989060200160405180910390a15b5050505050505050565b601c546001600160a01b0316331480611ac457506000546001600160a01b031633145b80611ad95750600e546001600160a01b031633145b611af55760405162461bcd60e51b8152600401611281906159eb565b602b55565b601c546001600160a01b0316331480611b1d57506000546001600160a01b031633145b80611b325750600e546001600160a01b031633145b611b4e5760405162461bcd60e51b8152600401611281906159eb565b6023805460ff19166001179055565b336000908152600760205260409020611b778160016144d0565b60038101548015611ba157600c54611b99906001600160a01b031633836141ed565b600060038301555b600c60009054906101000a90046001600160a01b03166001600160a01b0316632e05661b6040518163ffffffff1660e01b8152600401600060405180830381600087803b158015611bf157600080fd5b505af1158015611c05573d6000803e3d6000fd5b505050505050565b6000821580611c1c5750600583115b15611c2957506000611c42565b6064611c358484615ac1565b611c3f9190615a82565b90505b92915050565b601c546001600160a01b0316331480611c6b57506000546001600160a01b031633145b80611c805750600e546001600160a01b031633145b611c9c5760405162461bcd60e51b8152600401611281906159eb565b60009182526011602052604090912055565b6001600160a01b038181166000818152600760205260408082206001810154600a5492516370a0823160e01b8152600481019590955294929384938493849384938493849316906370a0823190602401602060405180830381865afa158015611d1b573d6000803e3d6000fd5b505050506040513d601f19601f82011682018060405250810190611d3f9190615a69565b600a54604051636eb1769f60e11b81526001600160a01b038d81166004830152306024830152929a5091169063dd62ed3e90604401602060405180830381865afa158015611d91573d6000803e3d6000fd5b505050506040513d601f19601f82011682018060405250810190611db59190615a69565b96508060030154611dc58b6123fe565b611dcf9190615a51565b6001600160a01b03909a16600090815260136020908152604080832054601b8352818420546015845282852054601490945291909320549b9d9a9c999b999a9299909850909650945092505050565b601c546001600160a01b0316331480611e4157506000546001600160a01b031633145b80611e565750600e546001600160a01b031633145b611e725760405162461bcd60e51b8152600401611281906159eb565b602a80546001600160a01b0319166001600160a01b0392909216919091179055565b601c546001600160a01b0316331480611eb757506000546001600160a01b031633145b80611ecc5750600e546001600160a01b031633145b611ee85760405162461bcd60e51b8152600401611281906159eb565b6001600160a01b03919091166000908152602d60205260409020805460ff1916911515919091179055565b611f1b614323565b600e80546001600160a01b0319166001600160a01b0392909216919091179055565b6001600160a01b0383166000908152601060205260408120805460609190848403611f66578094505b8493508467ffffffffffffffff811115611f8257611f82615719565b604051908082528060200260200182016040528015611fab578160200160208202803683370190505b5092506000865b611fbc8789615a51565b81101561204f57828110611fd557509350612054915050565b838181548110611fe757611fe7615ae0565b9060005260206000200160009054906101000a90046001600160a01b031685838151811061201757612017615ae0565b6001600160a01b03909216602092830291909101909101528161203981615af6565b925050808061204790615af6565b915050611fb2565b505050505b935093915050565b612064614323565b61206e6000614480565b565b612078614323565b80518251146120c95760405162461bcd60e51b815260206004820152601a60248201527f4172726179206c656e6774687320646f206e6f74206d617463680000000000006044820152606401611281565b60005b82518110156112e8578181815181106120e7576120e7615ae0565b60200260200101516007600085848151811061210557612105615ae0565b6020908102919091018101516001600160a01b031682528181019290925260409081016000208351815460ff191690151517815591830151600183015582015160028201556060909101516003909101558061216081615af6565b9150506120cc565b6001600160a01b0381166000908152601d60205260409020805460609182918067ffffffffffffffff8111156121a0576121a0615719565b6040519080825280602002602001820160405280156121c9578160200160208202803683370190505b5093508067ffffffffffffffff8111156121e5576121e5615719565b60405190808252806020026020018201604052801561220e578160200160208202803683370190505b5092506000805b828110156122ee5782811061222d5750505050915091565b600084828154811061224157612241615ae0565b9060005260206000200160009054906101000a90046001600160a01b031690508087848151811061227457612274615ae0565b6001600160a01b039283166020918202929092018101919091529082166000908152601f82526040808220549280529020546122b09190615a51565b8684815181106122c2576122c2615ae0565b6020908102919091010152826122d781615af6565b9350505080806122e690615af6565b915050612215565b50505050915091565b601c546001600160a01b031633148061231a57506000546001600160a01b031633145b8061232f5750600e546001600160a01b031633145b61234b5760405162461bcd60e51b8152600401611281906159eb565b602855565b6010602052816000526040600020818154811061236c57600080fd5b6000918252602090912001546001600160a01b03169150829050565b601c546001600160a01b03163314806123ab57506000546001600160a01b031633145b806123c05750600e546001600160a01b031633145b6123dc5760405162461bcd60e51b8152600401611281906159eb565b601c80546001600160a01b0319166001600160a01b0392909216919091179055565b6001600160a01b0381166000908152600760205260408120600181810154909190156124ec5760048201544290808211156124e957600061243f8284615b0f565b856003015461244e9190615ac1565b6005860154600287015491925090600081831161246c576000612476565b6124768284615b0f565b90508084116124855783612487565b805b6002880154895491955090670de0b6b3a7640000906124a68783615ac1565b6124b09190615a82565b8a600101546124bf9190615a51565b89600101546124ce9190615ac1565b6124d89190615a82565b6124e29190615b0f565b9850505050505b50505b5050919050565b60235460ff16156125365760405162461bcd60e51b815260206004820152600d60248201526c6465706f73697420706175736560981b6044820152606401611281565b600b5483101561257a5760405162461bcd60e51b815260206004820152600f60248201526e6465706f73697420746f6f206c6f7760881b6044820152606401611281565b3383602c600082825461258d9190615a51565b9091555061259d90508183613d4d565b600a546125b5906001600160a01b0316823087614555565b6125c28185856001614681565b6125ca613f26565b61260e817f0000000000000000000000000000000000000000000000000000000000000000602554876125fd9190615ac1565b6126079190615a82565b6001614009565b600c60009054906101000a90046001600160a01b03166001600160a01b0316632e05661b6040518163ffffffff1660e01b8152600401600060405180830381600087803b15801561265e57600080fd5b505af1158015612672573d6000803e3d6000fd5b5050505061268082856149e2565b61268b848284614bed565b60405184906001600160a01b038316907fe1fffcc4923d04b559f4d29a8bfc6cda04eb5b0d3c460751c2402c5c5cc9109c90600090a350505050565b6001600160a01b0381166000908152601d6020526040902054600110156113a4576001600160a01b03811660009081526020808052604080832054601f9092528220546127149190615a51565b6001600160a01b03831660009081526022602052604080822054815160a08101909252929350806127667f00000000000000000000000000000000000000000000000000000000000000006002615ac1565b81526020017f000000000000000000000000000000000000000000000000000000000000000081526020017f000000000000000000000000000000000000000000000000000000000000000081526020017f000000000000000000000000000000000000000000000000000000000000000081526020017f0000000000000000000000000000000000000000000000000000000000000000815250905061280f84828585614ca9565b801561281b5750600582105b156128455761282b826001615a51565b6001600160a01b0385166000908152602260205260409020555b50505050565b600a54600c54602c54600154602e546001600160a01b0394851694601294169284929091600080808061287c614ea6565b600b546012546023549d9e9c9d9b9c9a9b999a9899979892979196506001600160a01b0316945060ff1692509050565b604080516002808252606082018352600092839291906020830190803683375050600a5482519293506001600160a01b0316918391506000906128f1576128f1615ae0565b6001600160a01b039283166020918202929092010152600c5482519116908290600190811061292257612922615ae0565b6001600160a01b0392831660209182029290920101526009546000911663d06ca61f61294f600287615a82565b846040518363ffffffff1660e01b815260040161296d929190615700565b600060405180830381865afa15801561298a573d6000803e3d6000fd5b505050506040513d6000823e601f3d908101601f191682016040526129b29190810190615b26565b9050806001815181106129c7576129c7615ae0565b602002602001015192505050919050565b601c546001600160a01b03163314806129fb57506000546001600160a01b031633145b80612a105750600e546001600160a01b031633145b612a2c5760405162461bcd60e51b8152600401611281906159eb565b612a34613f26565b600455565b333214612a755760405162461bcd60e51b815260206004820152600a6024820152693737ba1027b934b3b4b760b11b6044820152606401611281565b3360009081526008602052604090206003810154428115801590612a9857508181115b15612b19576005830154600090612aaf8484615b0f565b8560040154612abe9190615ac1565b612ac89190615a82565b90506000846002015485600101548660000154612ae59190615b0f565b612aef9190615b0f565b905080821115612afd578091505b81856001016000828254612b119190615a51565b909155505050505b81811115612b2957600383018190555b602b54836006015410612b735760405162461bcd60e51b81526020600482015260126024820152710e6e0cacac8aae0a8d2daca40d2e640dac2f60731b6044820152606401611281565b600683018054906000612b8583615af6565b91905055506000612b94614f74565b905084811115612be65760405162461bcd60e51b815260206004820152601860248201527f746f6b656e20616d6f756e7420697320746f6f206d75636800000000000000006044820152606401611281565b600c54602a54612c05916001600160a01b039081169133911684614555565b60028401546001850154855460009291612c1e91615b0f565b612c289190615b0f565b905060008560040154866005015483612c419190615ac1565b612c4b9190615a82565b60048701839055602954909150808211612ca75760405162461bcd60e51b815260206004820152601c60248201527f72656c656173654475726174696f6e20697320746f6f2073686f7274000000006044820152606401611281565b612cb18183615b0f565b6005880155600c5460408051632e05661b60e01b815290516001600160a01b0390921691632e05661b9160048082019260009290919082900301818387803b158015612cfc57600080fd5b505af1158015612d10573d6000803e3d6000fd5b505050505050505050505050565b6040805160028082526060820183526000928392839283926020830190803683375050600c5482519293506001600160a01b031691839150600090612d6557612d65615ae0565b6001600160a01b039283166020918202929092010152600a54825191169082906001908110612d9657612d96615ae0565b6001600160a01b03928316602091820292909201015260095460405163d06ca61f60e01b8152600092919091169063d06ca61f90612dda9089908690600401615700565b600060405180830381865afa158015612df7573d6000803e3d6000fd5b505050506040513d6000823e601f3d908101601f19168201604052612e1f9190810190615b26565b905080600181518110612e3457612e34615ae0565b6020026020010151945061271060175486612e4f9190615ac1565b612e599190615a82565b935061271060185486612e6c9190615ac1565b612e769190615a82565b9250612710612e83614ea6565b612e8d9085615ac1565b612e979190615a82565b9496939550505050565b601c546001600160a01b0316331480612ec457506000546001600160a01b031633145b80612ed95750600e546001600160a01b031633145b612ef55760405162461bcd60e51b8152600401611281906159eb565b612eff8282614fa5565b5050565b601c546001600160a01b0316331480612f2657506000546001600160a01b031633145b80612f3b5750600e546001600160a01b031633145b612f575760405162461bcd60e51b8152600401611281906159eb565b6017819055601954601854612710919061135c9084615a51565b601c546001600160a01b0316331480612f9457506000546001600160a01b031633145b80612fa95750600e546001600160a01b031633145b612fc55760405162461bcd60e51b8152600401611281906159eb565b601a80546001600160a01b0319166001600160a01b0392909216919091179055565b601c546001600160a01b031633148061300a57506000546001600160a01b031633145b8061301f5750600e546001600160a01b031633145b61303b5760405162461bcd60e51b8152600401611281906159eb565b6016805460ff1916911515919091179055565b601c546001600160a01b031633148061307157506000546001600160a01b031633145b806130865750600e546001600160a01b031633145b6130a25760405162461bcd60e51b8152600401611281906159eb565b601280546001600160a01b039092166001600160a01b0319909216821790556000908152600760205260409020805460ff19166001179055565b601c546001600160a01b03163314806130ff57506000546001600160a01b031633145b806131145750600e546001600160a01b031633145b6131305760405162461bcd60e51b8152600401611281906159eb565b601981905560185460175461271091839161135c9190615a51565b6000806000600d60009054906101000a90046001600160a01b03169050600080826001600160a01b0316630902f1ac6040518163ffffffff1660e01b8152600401606060405180830381865afa1580156131a9573d6000803e3d6000fd5b505050506040513d601f19601f820116820180604052508101906131cd9190615bd3565b50600c54600a546001600160701b0393841695509190921692506001600160a01b03918216911610156132055781945080935061320c565b8094508193505b5050509091565b3332146132575760405162461bcd60e51b815260206004820152601260248201527131b630b4b6a628103737ba1027b934b3b4b760711b6044820152606401611281565b336000908152600860205260409020600381015442901580159061327e5750816003015481115b15613304576000826005015483600301548361329a9190615b0f565b84600401546132a99190615ac1565b6132b39190615a82565b905060008360020154846001015485600001546132d09190615b0f565b6132da9190615b0f565b9050808211156132e8578091505b818460010160008282546132fc9190615a51565b909155505050505b600182015480156133ae57600d54613326906001600160a01b031633836141ed565b60008360010181905550808360020160008282546133449190615a51565b9091555050600c5460405163899d9c9d60e01b8152336004820152602481018390526001600160a01b039091169063899d9c9d90604401600060405180830381600087803b15801561339557600080fd5b505af11580156133a9573d6000803e3d6000fd5b505050505b82600301548211156133c257600383018290555b600c60009054906101000a90046001600160a01b03166001600160a01b0316632e05661b6040518163ffffffff1660e01b8152600401600060405180830381600087803b15801561341257600080fd5b505af1158015613426573d6000803e3d6000fd5b50505050505050565b602454600081900361343e5750565b7f00000000000000000000000000000000000000000000000000000000000000004261346a8284615a51565b81101561347657505050565b6000826134838584615b0f565b61348d9190615a82565b90506134998382615ac1565b6134a39085615a51565b6024556025546134d3827f0000000000000000000000000000000000000000000000000000000000000000615cfc565b826026546134e19190615cfc565b6134eb9083615ac1565b6134f59190615a82565b6025555050505050565b601c546001600160a01b031633148061352257506000546001600160a01b031633145b806135375750600e546001600160a01b031633145b6135535760405162461bcd60e51b8152600401611281906159eb565b602955565b3332146135945760405162461bcd60e51b815260206004820152600a6024820152693737ba1027b934b3b4b760b11b6044820152606401611281565b60165460ff16156135cf5760405162461bcd60e51b8152602060048201526005602482015264706175736560d81b6044820152606401611281565b6012546135e69033906001600160a01b0316613d4d565b600c546135fe906001600160a01b0316333084614555565b600a546040516370a0823160e01b81523060048201526001600160a01b039091169060009082906370a0823190602401602060405180830381865afa15801561364b573d6000803e3d6000fd5b505050506040513d601f19601f8201168201806040525081019061366f9190615a69565b60408051600280825260608201835292935060009290916020830190803683375050600c5482519293506001600160a01b0316918391506000906136b5576136b5615ae0565b6001600160a01b039283166020918202929092010152600a548251911690829060019081106136e6576136e6615ae0565b6001600160a01b039283166020918202929092010152600954604051635c11d79560e01b8152911690635c11d7959061372c908790600090869030904290600401615d08565b600060405180830381600087803b15801561374657600080fd5b505af115801561375a573d6000803e3d6000fd5b50506040516370a0823160e01b8152306004820152600092508491506001600160a01b038616906370a0823190602401602060405180830381865afa1580156137a7573d6000803e3d6000fd5b505050506040513d601f19601f820116820180604052508101906137cb9190615a69565b6137d59190615b0f565b90506000612710601754836137ea9190615ac1565b6137f49190615a82565b600a5490915061380e906001600160a01b031633836141ed565b6000612710601854846138219190615ac1565b61382b9190615a82565b905061383a3382600080614681565b613842613f26565b60007f0000000000000000000000000000000000000000000000000000000000000000602554836138739190615ac1565b61387d9190615a82565b905061388b33826000614009565b336000908152601b6020526040812080548392906138aa908490615a51565b9091555050601954600090612710906138c39087615ac1565b6138cd9190615a82565b600a54600e549192506138ed916001600160a01b039182169116836141ed565b600e54604051632841a14360e01b8152600481018390526001600160a01b0390911690632841a14390602401600060405180830381600087803b15801561393357600080fd5b505af1158015613947573d6000803e3d6000fd5b5050505060008184868861395b9190615b0f565b6139659190615b0f565b61396f9190615b0f565b600a54601c5491925061398f916001600160a01b039182169116836141ed565b600c60009054906101000a90046001600160a01b03166001600160a01b0316632e05661b6040518163ffffffff1660e01b8152600401600060405180830381600087803b1580156139df57600080fd5b505af11580156139f3573d6000803e3d6000fd5b50506040518792508c915033907fed7a144fad14804d5c249145e3e0e2b63a9eb455b76aee5bc92d711e9bba3e4a90600090a450505050505050505050565b601d602052816000526040600020818154811061236c57600080fd5b601c546001600160a01b0316331480613a7157506000546001600160a01b031633145b80613a865750600e546001600160a01b031633145b613aa25760405162461bcd60e51b8152600401611281906159eb565b601254613ab99083906001600160a01b0316613d4d565b613ac1613f26565b612eff82826000614009565b6000806000806000600d60009054906101000a90046001600160a01b03166001600160a01b03166318160ddd6040518163ffffffff1660e01b8152600401602060405180830381865afa158015613b28573d6000803e3d6000fd5b505050506040513d601f19601f82011682018060405250810190613b4c9190615a69565b600d546040516370a0823160e01b81523060048201529196506001600160a01b0316906370a0823190602401602060405180830381865afa158015613b95573d6000803e3d6000fd5b505050506040513d601f19601f82011682018060405250810190613bb99190615a69565b9350602b5492506028549150613bcd614f74565b90509091929394565b336000908152602d602052604090205460ff16613c055760405162461bcd60e51b815260040161128190615a14565b612eff8282613d4d565b613c17614323565b6001600160a01b038116613c7c5760405162461bcd60e51b815260206004820152602660248201527f4f776e61626c653a206e6577206f776e657220697320746865207a65726f206160448201526564647265737360d01b6064820152608401611281565b6113a481614480565b601c546001600160a01b0316331480613ca857506000546001600160a01b031633145b80613cbd5750600e546001600160a01b031633145b613cd95760405162461bcd60e51b8152600401611281906159eb565b602454600003613ce857426024555b6023805460ff19169055565b601c546001600160a01b0316331480613d1757506000546001600160a01b031633145b80613d2c5750600e546001600160a01b031633145b613d485760405162461bcd60e51b8152600401611281906159eb565b602655565b6001600160a01b0382166000908152600760205260409020805460ff166112e8576001600160a01b038216600003613db35760405162461bcd60e51b81526020600482015260096024820152680696e7669746f7220360bc1b6044820152606401611281565b6001600160a01b03821660009081526007602052604090205460ff16613e0d5760405162461bcd60e51b815260206004820152600f60248201526e696e7669746f72202141637469766560881b6044820152606401611281565b6001600160a01b038083166000818152601d60209081526040808320805460018181018355918552838520018054968a166001600160a01b03199788168117909155808552601e84528285208054881687179055600f84528285208054881687179055948452601083529083208054918201815583529082200180549093169091179091555b7f0000000000000000000000000000000000000000000000000000000000000000811015613f15576001600160a01b0383166000908152601560205260408120805460019290613ee4908490615a51565b90915550506001600160a01b039283166000908152600f6020526040902054909216918215613f1557600101613e93565b50805460ff19166001178155505050565b613f2e61342f565b6005546001904290808211613f4257505050565b6004830182905560028301546005840154808210613f61575050505050565b845460038601548115801590613f775750806000105b15613426576000613f888688615b0f565b613f929083615ac1565b90506000613fa08686615b0f565b905080821115613fae578091505b83613fc183670de0b6b3a7640000615ac1565b613fcb9190615a82565b896001016000828254613fde9190615a51565b9250508190555081896002016000828254613ff99190615a51565b9091555050505050505050505050565b6001600160a01b03831660009081526007602052604081209061402d9082906144d0565b600181015461403c8482615a51565b6001808401829055549091506140528582615a51565b600254909150670de0b6b3a764000061406b8285615ac1565b6140759190615a82565b600285015584156141e2577f00000000000000000000000000000000000000000000000000000000000000006000888180805b858110156141db576001600160a01b038085166000908152600f602052604090205416925082156141db576001600160a01b038316600090815260076020526040812095506140f89086906144d0565b60008181526011602052604081205461271090614115908f615ac1565b61411f9190615a82565b6001600160a01b03851660009081526013602052604081208054929350839290919061414c908490615a51565b90915550506001600160a01b038416600090815260146020526040812080548f9290614179908490615a51565b90915550506001860154925061418f8184615a51565b600187018190559250670de0b6b3a76400006141ab8985615ac1565b6141b59190615a82565b60028701556141c4818a615a51565b985083945050806141d490615af6565b90506140a8565b5050505050505b506001555050505050565b806000036141fa57505050565b6040516370a0823160e01b8152306004820152839082906001600160a01b038316906370a0823190602401602060405180830381865afa158015614242573d6000803e3d6000fd5b505050506040513d601f19601f820116820180604052508101906142669190615a69565b10156142a95760405162461bcd60e51b81526020600482015260126024820152710c4c2d8c2dcc6ca40dcdee840cadcdeeaced60731b6044820152606401611281565b60405163a9059cbb60e01b81526001600160a01b0384811660048301526024820184905282169063a9059cbb906044016020604051808303816000875af11580156142f8573d6000803e3d6000fd5b505050506040513d601f19601f8201168201806040525081019061431c9190615d44565b5050505050565b6000546001600160a01b0316331461206e5760405162461bcd60e51b815260206004820181905260248201527f4f776e61626c653a2063616c6c6572206973206e6f7420746865206f776e65726044820152606401611281565b604080516001600160a01b038481166024830152604480830185905283518084039091018152606490920183526020820180516001600160e01b031663095ea7b360e01b17905291516000928392908716916143d99190615d61565b6000604051808303816000865af19150503d8060008114614416576040519150601f19603f3d011682016040523d82523d6000602084013e61441b565b606091505b50915091508180156144455750805115806144455750808060200190518101906144459190615d44565b61431c5760405162461bcd60e51b815260206004820152600c60248201526b185c1c1c9bdd994819985a5b60a21b6044820152606401611281565b600080546001600160a01b038381166001600160a01b0319831681178455604051919092169283917f8be0079c531659141344cd1fd0a4f28419497f9722a3daafe3b4186f6b6457e09190a35050565b80156144de576144de613f26565b600182015415612eff576000670de0b6b3a7640000600180015484600101546145079190615ac1565b6145119190615a82565b905060008360020154826145259190615b0f565b90508015612845578184600201819055508084600301600082825461454a9190615a51565b909155505050505050565b6040516370a0823160e01b81526001600160a01b038481166004830152859183918316906370a0823190602401602060405180830381865afa15801561459f573d6000803e3d6000fd5b505050506040513d601f19601f820116820180604052508101906145c39190615a69565b10156146065760405162461bcd60e51b81526020600482015260126024820152710c4c2d8c2dcc6ca40dcdee840cadcdeeaced60731b6044820152606401611281565b6040516323b872dd60e01b81526001600160a01b0385811660048301528481166024830152604482018490528216906323b872dd906064016020604051808303816000875af115801561465d573d6000803e3d6000fd5b505050506040513d601f19601f82011682018060405250810190611c059190615d44565b600c546040516370a0823160e01b81523060048201526001600160a01b0390911690819060009082906370a0823190602401602060405180830381865afa1580156146d0573d6000803e3d6000fd5b505050506040513d601f19601f820116820180604052508101906146f49190615a69565b600a546040805160028082526060820183529394506001600160a01b039092169260009291602083019080368337019050509050818160008151811061473c5761473c615ae0565b60200260200101906001600160a01b031690816001600160a01b031681525050848160018151811061477057614770615ae0565b6001600160a01b03928316602091820292909201015260095416635c11d79561479a60028b615a82565b898430426040518663ffffffff1660e01b81526004016147be959493929190615d08565b600060405180830381600087803b1580156147d857600080fd5b505af11580156147ec573d6000803e3d6000fd5b50506040516370a0823160e01b8152306004820152600092508591506001600160a01b038716906370a0823190602401602060405180830381865afa158015614839573d6000803e3d6000fd5b505050506040513d601f19601f8201168201806040525081019061485d9190615a69565b6148679190615b0f565b905060008761488157601a546001600160a01b0316614883565b305b90506000600960009054906101000a90046001600160a01b03166001600160a01b031663e8e33700868a60028f6148ba9190615a82565b6040516001600160e01b031960e086901b1681526001600160a01b039384166004820152918316602483015260448201526064810187905260006084820181905260a482015290851660c48201524260e4820152610104016060604051808303816000875af1158015614931573d6000803e3d6000fd5b505050506040513d601f19601f820116820180604052508101906149559190615d9c565b92505050881561496e576149698c82615056565b612d10565b600c5460405163899d9c9d60e01b81526001600160a01b038481166004830152602482018490529091169063899d9c9d90604401600060405180830381600087803b1580156149bc57600080fd5b505af11580156149d0573d6000803e3d6000fd5b50505050505050505050505050505050565b6001600160a01b0382811660008181526022602052604080822054600e5491516370a0823160e01b815260048101949094529391929116906370a0823190602401602060405180830381865afa158015614a40573d6000803e3d6000fd5b505050506040513d601f19601f82011682018060405250810190614a649190615a69565b90506000614a728385611c0d565b9050600083118015614a845750600082115b15614aa357614a938582615170565b614a9e858486615254565b61431c565b6001600160a01b038086166000908152601e6020526040812054909116905b6001600160a01b03821615801590614ad8575080155b15613426576001600160a01b0382811660008181526022602052604080822054600e5491516370a0823160e01b815260048101949094529391929116906370a0823190602401602060405180830381865afa158015614b3b573d6000803e3d6000fd5b505050506040513d601f19601f82011682018060405250810190614b5f9190615a69565b9050600082118015614b715750600081115b15614b9b5760019250614b848289611c0d565b9450614b908486615170565b614b9b84838a615254565b6001600160a01b038085166000818152601e60205260409020549091169003614bc75760009350614be6565b6001600160a01b039384166000908152601e6020526040902054909316925b5050614ac2565b6001600160a01b038216600090815260208052604081208054859290614c14908490615a51565b909155508190505b6001600160a01b03811615612845576001600160a01b0381166000908152601f602052604081208054869290614c53908490615a51565b90915550614c629050816126c7565b6001600160a01b038082166000818152601e60205260409020549091169003614c89575060005b6001600160a01b039081166000908152601e602052604090205416614c1c565b6001600160a01b0384166000908152601d6020908152604080832080548251818502810185019093528083528493830182828015614d1057602002820191906000526020600020905b81546001600160a01b03168152600190910190602001808311614cf2575b50505050509050848360058110614d2957614d29615ae0565b60200201518410614e98576000805b6001600160a01b0388166000908152601d6020526040902054811015614e955784600003614e1f577f000000000000000000000000000000000000000000000000000000000000000060206000858481518110614d9757614d97615ae0565b60200260200101516001600160a01b03166001600160a01b0316815260200190815260200160002054601f6000868581518110614dd657614dd6615ae0565b60200260200101516001600160a01b03166001600160a01b0316815260200190815260200160002054614e099190615a51565b10614e1a57614e1782615af6565b91505b614e71565b600160226000858481518110614e3757614e37615ae0565b60200260200101516001600160a01b03166001600160a01b031681526020019081526020016000205410614e7157614e6e82615af6565b91505b60028210614e855760019350505050614e9e565b614e8e81615af6565b9050614d38565b50505b60009150505b949350505050565b60255460245460009190808303614ebd5750919050565b7f000000000000000000000000000000000000000000000000000000000000000042614ee98284615a51565b811015614ef95750919392505050565b600082614f068584615b0f565b614f109190615a82565b60265490915060005b82811015614f68577f0000000000000000000000000000000000000000000000000000000000000000614f4c8389615ac1565b614f569190615a82565b9650614f6181615af6565b9050614f19565b50949695505050505050565b6000806000614f8161314b565b915091508181602854614f949190615ac1565b614f9e9190615a82565b9250505090565b604080516000808252602082019092526001600160a01b038416908390604051614fcf9190615d61565b60006040518083038185875af1925050503d806000811461500c576040519150601f19603f3d011682016040523d82523d6000602084013e615011565b606091505b50509050806112e85760405162461bcd60e51b8152602060048201526011602482015270195d1a081d1c985b9cd9995c8819985a5b607a1b6044820152606401611281565b6001600160a01b0382166000908152600860205260409020600381015442811580159061508257508181115b156151035760058301546000906150998484615b0f565b85600401546150a89190615ac1565b6150b29190615a82565b905060008460020154856001015486600001546150cf9190615b0f565b6150d99190615b0f565b9050808211156150e7578091505b818560010160008282546150fb9190615a51565b909155505050505b6002830154600184015484546000929161511c91615b0f565b6151269190615b0f565b90508484600001600082825461513c9190615a51565b9091555061514c90508582615a51565b6004850155602754600585015582821115611c055760038401829055505050505050565b60007f0000000000000000000000000000000000000000000000000000000000000000602554836151a19190615ac1565b6151ab9190615a82565b90506151b983826000614009565b6001600160a01b0383166000818152602260205260408082205490519092849284927fb6e5be43155b74262b7be6ccc5012bb6df33759145b8a6d4bc9f3e98c6d87b489190a4600a54615216906001600160a01b031685856141ed565b8281856001600160a01b03167f449ba527ea8f6ec8dc6af63b425e187506ac5b1635308d35ba1fe32da2b0d2e360405160405180910390a450505050565b6001600160a01b038084166000908152601e602052604081205490911690839061527f826001615a51565b90505b6001600160a01b0383161580159061529b575060058211155b15611c05576001600160a01b038316600090815260226020526040812054906152c48287611c0d565b9050838211806152d357508282145b156152f9576152e28582615170565b8193508160016152f29190615a51565b9250615318565b8382036153185761530a858261536a565b615315826001615a51565b93505b6001600160a01b038086166000818152601e602052604090205490911690036153445760009450615363565b6001600160a01b039485166000908152601e6020526040902054909416935b5050615282565b60007f00000000000000000000000000000000000000000000000000000000000000006025548361539b9190615ac1565b6153a59190615a82565b9050600060646153b6836014615ac1565b6153c09190615a82565b90506153ce84826000614009565b6001600160a01b0384166000818152602260205260408082205490519092849284927fb6e5be43155b74262b7be6ccc5012bb6df33759145b8a6d4bc9f3e98c6d87b489190a460006064615423866014615ac1565b61542d9190615a82565b600a54909150615447906001600160a01b031687836141ed565b8082876001600160a01b03167f449ba527ea8f6ec8dc6af63b425e187506ac5b1635308d35ba1fe32da2b0d2e360405160405180910390a4505050505050565b60006020828403121561549957600080fd5b5035919050565b6001600160a01b03811681146113a457600080fd5b80151581146113a457600080fd5b6000806000606084860312156154d857600080fd5b83356154e3816154a0565b92506020840135915060408401356154fa816154b5565b809150509250925092565b60006020828403121561551757600080fd5b8135615522816154a0565b9392505050565b60008060006060848603121561553e57600080fd5b8335615549816154a0565b92506020840135615559816154a0565b929592945050506040919091013590565b6000806040838503121561557d57600080fd5b8235615588816154a0565b946020939093013593505050565b600080600080600080600060e0888a0312156155b157600080fd5b87356155bc816154a0565b965060208801356155cc816154a0565b955060408801356155dc816154a0565b945060608801356155ec816154a0565b935060808801356155fc816154a0565b925060a088013561560c816154a0565b915060c088013561561c816154a0565b8091505092959891949750929550565b6000806040838503121561563f57600080fd5b50508035926020909101359150565b6000806040838503121561566157600080fd5b823561566c816154a0565b9150602083013561567c816154b5565b809150509250929050565b60008060006060848603121561569c57600080fd5b83356156a7816154a0565b95602085013595506040909401359392505050565b600081518084526020808501945080840160005b838110156156f55781516001600160a01b0316875295820195908201906001016156d0565b509495945050505050565b828152604060208201526000614e9e60408301846156bc565b634e487b7160e01b600052604160045260246000fd5b6040516080810167ffffffffffffffff8111828210171561575257615752615719565b60405290565b604051601f8201601f1916810167ffffffffffffffff8111828210171561578157615781615719565b604052919050565b600067ffffffffffffffff8211156157a3576157a3615719565b5060051b60200190565b600082601f8301126157be57600080fd5b813560206157d36157ce83615789565b615758565b82815260079290921b840181019181810190868411156157f257600080fd5b8286015b8481101561584e576080818903121561580f5760008081fd5b61581761572f565b8135615822816154b5565b8152818501358582015260408083013590820152606080830135908201528352918301916080016157f6565b509695505050505050565b6000806040838503121561586c57600080fd5b823567ffffffffffffffff8082111561588457600080fd5b818501915085601f83011261589857600080fd5b813560206158a86157ce83615789565b82815260059290921b840181019181810190898411156158c757600080fd5b948201945b838610156158ee5785356158df816154a0565b825294820194908201906158cc565b9650508601359250508082111561590457600080fd5b50615911858286016157ad565b9150509250929050565b60408152600061592e60408301856156bc565b82810360208481019190915284518083528582019282019060005b8181101561596557845183529383019391830191600101615949565b5090979650505050505050565b60008060006060848603121561598757600080fd5b833592506020840135915060408401356154fa816154a0565b6000602082840312156159b257600080fd5b8135615522816154b5565b600080604083850312156159d057600080fd5b82356159db816154a0565b9150602083013561567c816154a0565b6020808252600f908201526e1bdb9b1e481dda1a5d19481b1a5cdd608a1b604082015260600190565b6020808252600d908201526c1bdb9b195e481c1c9bda9958dd609a1b604082015260600190565b634e487b7160e01b600052601160045260246000fd5b60008219821115615a6457615a64615a3b565b500190565b600060208284031215615a7b57600080fd5b5051919050565b600082615a9f57634e487b7160e01b600052601260045260246000fd5b500490565b600060208284031215615ab657600080fd5b8151615522816154a0565b6000816000190483118215151615615adb57615adb615a3b565b500290565b634e487b7160e01b600052603260045260246000fd5b600060018201615b0857615b08615a3b565b5060010190565b600082821015615b2157615b21615a3b565b500390565b60006020808385031215615b3957600080fd5b825167ffffffffffffffff811115615b5057600080fd5b8301601f81018513615b6157600080fd5b8051615b6f6157ce82615789565b81815260059190911b82018301908381019087831115615b8e57600080fd5b928401925b82841015615bac57835182529284019290840190615b93565b979650505050505050565b80516001600160701b0381168114615bce57600080fd5b919050565b600080600060608486031215615be857600080fd5b615bf184615bb7565b9250615bff60208501615bb7565b9150604084015163ffffffff811681146154fa57600080fd5b600181815b80851115615c53578160001904821115615c3957615c39615a3b565b80851615615c4657918102915b93841c9390800290615c1d565b509250929050565b600082615c6a57506001611c42565b81615c7757506000611c42565b8160018114615c8d5760028114615c9757615cb3565b6001915050611c42565b60ff841115615ca857615ca8615a3b565b50506001821b611c42565b5060208310610133831016604e8410600b8410161715615cd6575081810a611c42565b615ce08383615c18565b8060001904821115615cf457615cf4615a3b565b029392505050565b6000611c3f8383615c5b565b85815284602082015260a060408201526000615d2760a08301866156bc565b6001600160a01b0394909416606083015250608001529392505050565b600060208284031215615d5657600080fd5b8151615522816154b5565b6000825160005b81811015615d825760208186018101518583015201615d68565b81811115615d91576000828501525b509190910192915050565b600080600060608486031215615db157600080fd5b835192506020840151915060408401519050925092509256fea26469706673582212205660944f52ed7353e86d04c733b6f6b9841ffe901a725ac7373b5f27ad30501564736f6c634300080f0033",
  "devdoc": {
    "kind": "dev",
    "methods": {
      "owner()": {
        "details": "Returns the address of the current owner."
      },
      "renounceOwnership()": {
        "details": "Leaves the contract without owner. It will not be possible to call `onlyOwner` functions. Can only be called by the current owner. NOTE: Renouncing ownership will leave the contract without an owner, thereby disabling any functionality that is only available to the owner."
      },
      "transferOwnership(address)": {
        "details": "Transfers ownership of the contract to a new account (`newOwner`). Can only be called by the current owner."
      }
    },
    "version": 1
  },
  "userdoc": {
    "kind": "user",
    "methods": {},
    "version": 1
  },
  "storageLayout": {
    "storage": [
      {
        "astId": 506,
        "contract": "contracts/MintPool.sol:MintPool",
        "label": "_owner",
        "offset": 0,
        "slot": "0",
        "type": "t_address"
      },
      {
        "astId": 6,
        "contract": "contracts/MintPool.sol:MintPool",
        "label": "_initialized",
        "offset": 20,
        "slot": "0",
        "type": "t_uint8"
      },
      {
        "astId": 9,
        "contract": "contracts/MintPool.sol:MintPool",
        "label": "_initializing",
        "offset": 21,
        "slot": "0",
        "type": "t_bool"
      },
      {
        "astId": 774,
        "contract": "contracts/MintPool.sol:MintPool",
        "label": "poolInfo",
        "offset": 0,
        "slot": "1",
        "type": "t_struct(PoolInfo)756_storage"
      },
      {
        "astId": 779,
        "contract": "contracts/MintPool.sol:MintPool",
        "label": "userInfo",
        "offset": 0,
        "slot": "7",
        "type": "t_mapping(t_address,t_struct(UserInfo)743_storage)"
      },
      {
        "astId": 784,
        "contract": "contracts/MintPool.sol:MintPool",
        "label": "_userLPInfo",
        "offset": 0,
        "slot": "8",
        "type": "t_mapping(t_address,t_struct(UserLPInfo)771_storage)"
      },
      {
        "astId": 787,
        "contract": "contracts/MintPool.sol:MintPool",
        "label": "_swapRouter",
        "offset": 0,
        "slot": "9",
        "type": "t_contract(ISwapRouter)4917"
      },
      {
        "astId": 789,
        "contract": "contracts/MintPool.sol:MintPool",
        "label": "_usdt",
        "offset": 0,
        "slot": "10",
        "type": "t_address"
      },
      {
        "astId": 791,
        "contract": "contracts/MintPool.sol:MintPool",
        "label": "_minAmount",
        "offset": 0,
        "slot": "11",
        "type": "t_uint256"
      },
      {
        "astId": 793,
        "contract": "contracts/MintPool.sol:MintPool",
        "label": "_mintRewardToken",
        "offset": 0,
        "slot": "12",
        "type": "t_address"
      },
      {
        "astId": 795,
        "contract": "contracts/MintPool.sol:MintPool",
        "label": "_lp",
        "offset": 0,
        "slot": "13",
        "type": "t_address"
      },
      {
        "astId": 798,
        "contract": "contracts/MintPool.sol:MintPool",
        "label": "_nft",
        "offset": 0,
        "slot": "14",
        "type": "t_contract(INFT)4808"
      },
      {
        "astId": 802,
        "contract": "contracts/MintPool.sol:MintPool",
        "label": "_invitor",
        "offset": 0,
        "slot": "15",
        "type": "t_mapping(t_address,t_address)"
      },
      {
        "astId": 807,
        "contract": "contracts/MintPool.sol:MintPool",
        "label": "_binder",
        "offset": 0,
        "slot": "16",
        "type": "t_mapping(t_address,t_array(t_address)dyn_storage)"
      },
      {
        "astId": 811,
        "contract": "contracts/MintPool.sol:MintPool",
        "label": "_inviteFee",
        "offset": 0,
        "slot": "17",
        "type": "t_mapping(t_uint256,t_uint256)"
      },
      {
        "astId": 816,
        "contract": "contracts/MintPool.sol:MintPool",
        "label": "_defaultInvitor",
        "offset": 0,
        "slot": "18",
        "type": "t_address"
      },
      {
        "astId": 820,
        "contract": "contracts/MintPool.sol:MintPool",
        "label": "_inviteAmount",
        "offset": 0,
        "slot": "19",
        "type": "t_mapping(t_address,t_uint256)"
      },
      {
        "astId": 824,
        "contract": "contracts/MintPool.sol:MintPool",
        "label": "_teamAmount",
        "offset": 0,
        "slot": "20",
        "type": "t_mapping(t_address,t_uint256)"
      },
      {
        "astId": 828,
        "contract": "contracts/MintPool.sol:MintPool",
        "label": "_teamNum",
        "offset": 0,
        "slot": "21",
        "type": "t_mapping(t_address,t_uint256)"
      },
      {
        "astId": 830,
        "contract": "contracts/MintPool.sol:MintPool",
        "label": "_pauseSell",
        "offset": 0,
        "slot": "22",
        "type": "t_bool"
      },
      {
        "astId": 832,
        "contract": "contracts/MintPool.sol:MintPool",
        "label": "_sellSelfRate",
        "offset": 0,
        "slot": "23",
        "type": "t_uint256"
      },
      {
        "astId": 834,
        "contract": "contracts/MintPool.sol:MintPool",
        "label": "_sellJoinRate",
        "offset": 0,
        "slot": "24",
        "type": "t_uint256"
      },
      {
        "astId": 836,
        "contract": "contracts/MintPool.sol:MintPool",
        "label": "_sellNFTRate",
        "offset": 0,
        "slot": "25",
        "type": "t_uint256"
      },
      {
        "astId": 838,
        "contract": "contracts/MintPool.sol:MintPool",
        "label": "_sellLPReceiver",
        "offset": 0,
        "slot": "26",
        "type": "t_address"
      },
      {
        "astId": 842,
        "contract": "contracts/MintPool.sol:MintPool",
        "label": "_sellJoinAmount",
        "offset": 0,
        "slot": "27",
        "type": "t_mapping(t_address,t_uint256)"
      },
      {
        "astId": 844,
        "contract": "contracts/MintPool.sol:MintPool",
        "label": "_fundAddress",
        "offset": 0,
        "slot": "28",
        "type": "t_address"
      },
      {
        "astId": 849,
        "contract": "contracts/MintPool.sol:MintPool",
        "label": "referrals",
        "offset": 0,
        "slot": "29",
        "type": "t_mapping(t_address,t_array(t_address)dyn_storage)"
      },
      {
        "astId": 853,
        "contract": "contracts/MintPool.sol:MintPool",
        "label": "superAccount",
        "offset": 0,
        "slot": "30",
        "type": "t_mapping(t_address,t_address)"
      },
      {
        "astId": 857,
        "contract": "contracts/MintPool.sol:MintPool",
        "label": "referralAmount",
        "offset": 0,
        "slot": "31",
        "type": "t_mapping(t_address,t_uint256)"
      },
      {
        "astId": 861,
        "contract": "contracts/MintPool.sol:MintPool",
        "label": "depositAmount",
        "offset": 0,
        "slot": "32",
        "type": "t_mapping(t_address,t_uint256)"
      },
      {
        "astId": 865,
        "contract": "contracts/MintPool.sol:MintPool",
        "label": "referralReward",
        "offset": 0,
        "slot": "33",
        "type": "t_mapping(t_address,t_uint256)"
      },
      {
        "astId": 869,
        "contract": "contracts/MintPool.sol:MintPool",
        "label": "userLevel",
        "offset": 0,
        "slot": "34",
        "type": "t_mapping(t_address,t_uint256)"
      },
      {
        "astId": 886,
        "contract": "contracts/MintPool.sol:MintPool",
        "label": "_pauseJoin",
        "offset": 0,
        "slot": "35",
        "type": "t_bool"
      },
      {
        "astId": 888,
        "contract": "contracts/MintPool.sol:MintPool",
        "label": "_lastDailyUpTime",
        "offset": 0,
        "slot": "36",
        "type": "t_uint256"
      },
      {
        "astId": 890,
        "contract": "contracts/MintPool.sol:MintPool",
        "label": "_lastAmountRate",
        "offset": 0,
        "slot": "37",
        "type": "t_uint256"
      },
      {
        "astId": 892,
        "contract": "contracts/MintPool.sol:MintPool",
        "label": "_amountDailyUp",
        "offset": 0,
        "slot": "38",
        "type": "t_uint256"
      },
      {
        "astId": 900,
        "contract": "contracts/MintPool.sol:MintPool",
        "label": "_lpReleaseDuration",
        "offset": 0,
        "slot": "39",
        "type": "t_uint256"
      },
      {
        "astId": 902,
        "contract": "contracts/MintPool.sol:MintPool",
        "label": "_speedUpCost",
        "offset": 0,
        "slot": "40",
        "type": "t_uint256"
      },
      {
        "astId": 904,
        "contract": "contracts/MintPool.sol:MintPool",
        "label": "_speedUpDuration",
        "offset": 0,
        "slot": "41",
        "type": "t_uint256"
      },
      {
        "astId": 906,
        "contract": "contracts/MintPool.sol:MintPool",
        "label": "_speedUpReceiver",
        "offset": 0,
        "slot": "42",
        "type": "t_address"
      },
      {
        "astId": 908,
        "contract": "contracts/MintPool.sol:MintPool",
        "label": "_speedUpMaxTime",
        "offset": 0,
        "slot": "43",
        "type": "t_uint256"
      },
      {
        "astId": 910,
        "contract": "contracts/MintPool.sol:MintPool",
        "label": "_totalUsdt",
        "offset": 0,
        "slot": "44",
        "type": "t_uint256"
      },
      {
        "astId": 914,
        "contract": "contracts/MintPool.sol:MintPool",
        "label": "_inProject",
        "offset": 0,
        "slot": "45",
        "type": "t_mapping(t_address,t_bool)"
      },
      {
        "astId": 916,
        "contract": "contracts/MintPool.sol:MintPool",
        "label": "_lastDailyReward",
        "offset": 0,
        "slot": "46",
        "type": "t_uint256"
      }
    ],
    "types": {
      "t_address": {
        "encoding": "inplace",
        "label": "address",
        "numberOfBytes": "20"
      },
      "t_array(t_address)dyn_storage": {
        "base": "t_address",
        "encoding": "dynamic_array",
        "label": "address[]",
        "numberOfBytes": "32"
      },
      "t_bool": {
        "encoding": "inplace",
        "label": "bool",
        "numberOfBytes": "1"
      },
      "t_contract(INFT)4808": {
        "encoding": "inplace",
        "label": "contract INFT",
        "numberOfBytes": "20"
      },
      "t_contract(ISwapRouter)4917": {
        "encoding": "inplace",
        "label": "contract ISwapRouter",
        "numberOfBytes": "20"
      },
      "t_mapping(t_address,t_address)": {
        "encoding": "mapping",
        "key": "t_address",
        "label": "mapping(address => address)",
        "numberOfBytes": "32",
        "value": "t_address"
      },
      "t_mapping(t_address,t_array(t_address)dyn_storage)": {
        "encoding": "mapping",
        "key": "t_address",
        "label": "mapping(address => address[])",
        "numberOfBytes": "32",
        "value": "t_array(t_address)dyn_storage"
      },
      "t_mapping(t_address,t_bool)": {
        "encoding": "mapping",
        "key": "t_address",
        "label": "mapping(address => bool)",
        "numberOfBytes": "32",
        "value": "t_bool"
      },
      "t_mapping(t_address,t_struct(UserInfo)743_storage)": {
        "encoding": "mapping",
        "key": "t_address",
        "label": "mapping(address => struct MintPool.UserInfo)",
        "numberOfBytes": "32",
        "value": "t_struct(UserInfo)743_storage"
      },
      "t_mapping(t_address,t_struct(UserLPInfo)771_storage)": {
        "encoding": "mapping",
        "key": "t_address",
        "label": "mapping(address => struct MintPool.UserLPInfo)",
        "numberOfBytes": "32",
        "value": "t_struct(UserLPInfo)771_storage"
      },
      "t_mapping(t_address,t_uint256)": {
        "encoding": "mapping",
        "key": "t_address",
        "label": "mapping(address => uint256)",
        "numberOfBytes": "32",
        "value": "t_uint256"
      },
      "t_mapping(t_uint256,t_uint256)": {
        "encoding": "mapping",
        "key": "t_uint256",
        "label": "mapping(uint256 => uint256)",
        "numberOfBytes": "32",
        "value": "t_uint256"
      },
      "t_struct(PoolInfo)756_storage": {
        "encoding": "inplace",
        "label": "struct MintPool.PoolInfo",
        "members": [
          {
            "astId": 745,
            "contract": "contracts/MintPool.sol:MintPool",
            "label": "totalAmount",
            "offset": 0,
            "slot": "0",
            "type": "t_uint256"
          },
          {
            "astId": 747,
            "contract": "contracts/MintPool.sol:MintPool",
            "label": "accMintPerShare",
            "offset": 0,
            "slot": "1",
            "type": "t_uint256"
          },
          {
            "astId": 749,
            "contract": "contracts/MintPool.sol:MintPool",
            "label": "accMintReward",
            "offset": 0,
            "slot": "2",
            "type": "t_uint256"
          },
          {
            "astId": 751,
            "contract": "contracts/MintPool.sol:MintPool",
            "label": "mintPerSec",
            "offset": 0,
            "slot": "3",
            "type": "t_uint256"
          },
          {
            "astId": 753,
            "contract": "contracts/MintPool.sol:MintPool",
            "label": "lastMintTime",
            "offset": 0,
            "slot": "4",
            "type": "t_uint256"
          },
          {
            "astId": 755,
            "contract": "contracts/MintPool.sol:MintPool",
            "label": "totalMintReward",
            "offset": 0,
            "slot": "5",
            "type": "t_uint256"
          }
        ],
        "numberOfBytes": "192"
      },
      "t_struct(UserInfo)743_storage": {
        "encoding": "inplace",
        "label": "struct MintPool.UserInfo",
        "members": [
          {
            "astId": 736,
            "contract": "contracts/MintPool.sol:MintPool",
            "label": "isActive",
            "offset": 0,
            "slot": "0",
            "type": "t_bool"
          },
          {
            "astId": 738,
            "contract": "contracts/MintPool.sol:MintPool",
            "label": "amount",
            "offset": 0,
            "slot": "1",
            "type": "t_uint256"
          },
          {
            "astId": 740,
            "contract": "contracts/MintPool.sol:MintPool",
            "label": "rewardMintDebt",
            "offset": 0,
            "slot": "2",
            "type": "t_uint256"
          },
          {
            "astId": 742,
            "contract": "contracts/MintPool.sol:MintPool",
            "label": "calMintReward",
            "offset": 0,
            "slot": "3",
            "type": "t_uint256"
          }
        ],
        "numberOfBytes": "128"
      },
      "t_struct(UserLPInfo)771_storage": {
        "encoding": "inplace",
        "label": "struct MintPool.UserLPInfo",
        "members": [
          {
            "astId": 758,
            "contract": "contracts/MintPool.sol:MintPool",
            "label": "lockAmount",
            "offset": 0,
            "slot": "0",
            "type": "t_uint256"
          },
          {
            "astId": 760,
            "contract": "contracts/MintPool.sol:MintPool",
            "label": "calAmount",
            "offset": 0,
            "slot": "1",
            "type": "t_uint256"
          },
          {
            "astId": 762,
            "contract": "contracts/MintPool.sol:MintPool",
            "label": "claimedAmount",
            "offset": 0,
            "slot": "2",
            "type": "t_uint256"
          },
          {
            "astId": 764,
            "contract": "contracts/MintPool.sol:MintPool",
            "label": "lastReleaseTime",
            "offset": 0,
            "slot": "3",
            "type": "t_uint256"
          },
          {
            "astId": 766,
            "contract": "contracts/MintPool.sol:MintPool",
            "label": "releaseInitAmount",
            "offset": 0,
            "slot": "4",
            "type": "t_uint256"
          },
          {
            "astId": 768,
            "contract": "contracts/MintPool.sol:MintPool",
            "label": "releaseDuration",
            "offset": 0,
            "slot": "5",
            "type": "t_uint256"
          },
          {
            "astId": 770,
            "contract": "contracts/MintPool.sol:MintPool",
            "label": "speedUpTime",
            "offset": 0,
            "slot": "6",
            "type": "t_uint256"
          }
        ],
        "numberOfBytes": "224"
      },
      "t_uint256": {
        "encoding": "inplace",
        "label": "uint256",
        "numberOfBytes": "32"
      },
      "t_uint8": {
        "encoding": "inplace",
        "label": "uint8",
        "numberOfBytes": "1"
      }
    }
  }
}